{
	"15-Exercises/06_Lottery.sol": {
		"Lottery": {
			"abi": [
				{
					"inputs": [
						{
							"internalType": "uint256",
							"name": "_ticketPrice",
							"type": "uint256"
						},
						{
							"internalType": "uint256",
							"name": "_durationInSeconds",
							"type": "uint256"
						}
					],
					"stateMutability": "nonpayable",
					"type": "constructor"
				},
				{
					"inputs": [],
					"name": "lotteryEndTime",
					"outputs": [
						{
							"internalType": "uint256",
							"name": "",
							"type": "uint256"
						}
					],
					"stateMutability": "view",
					"type": "function"
				},
				{
					"inputs": [],
					"name": "owner",
					"outputs": [
						{
							"internalType": "address",
							"name": "",
							"type": "address"
						}
					],
					"stateMutability": "view",
					"type": "function"
				},
				{
					"inputs": [
						{
							"internalType": "uint256",
							"name": "",
							"type": "uint256"
						}
					],
					"name": "players",
					"outputs": [
						{
							"internalType": "address",
							"name": "",
							"type": "address"
						}
					],
					"stateMutability": "view",
					"type": "function"
				},
				{
					"inputs": [],
					"name": "ticketPrice",
					"outputs": [
						{
							"internalType": "uint256",
							"name": "",
							"type": "uint256"
						}
					],
					"stateMutability": "view",
					"type": "function"
				}
			],
			"devdoc": {
				"kind": "dev",
				"methods": {},
				"version": 1
			},
			"evm": {
				"assembly": "    /* \"15-Exercises/06_Lottery.sol\":58:1040  contract Lottery {... */\n  mstore(0x40, 0x80)\n    /* \"15-Exercises/06_Lottery.sol\":199:389  constructor(uint _ticketPrice, uint _durationInSeconds) {... */\n  callvalue\n  dup1\n  iszero\n  tag_1\n  jumpi\n  revert(0x00, 0x00)\ntag_1:\n  pop\n  mload(0x40)\n  sub(codesize, bytecodeSize)\n  dup1\n  bytecodeSize\n  dup4\n  codecopy\n  dup2\n  add\n  0x40\n  dup2\n  swap1\n  mstore\n  tag_2\n  swap2\n  tag_3\n  jump\t// in\ntag_2:\n    /* \"15-Exercises/06_Lottery.sol\":265:270  owner */\n  0x00\n    /* \"15-Exercises/06_Lottery.sol\":265:283  owner = msg.sender */\n  dup1\n  sload\n  not(sub(shl(0xa0, 0x01), 0x01))\n  and\n    /* \"15-Exercises/06_Lottery.sol\":273:283  msg.sender */\n  caller\n    /* \"15-Exercises/06_Lottery.sol\":265:283  owner = msg.sender */\n  or\n  swap1\n  sstore\n  0x01\n    /* \"15-Exercises/06_Lottery.sol\":293:319  ticketPrice = _ticketPrice */\n  dup3\n  swap1\n  sstore\n    /* \"15-Exercises/06_Lottery.sol\":346:382  block.timestamp + _durationInSeconds */\n  tag_6\n    /* \"15-Exercises/06_Lottery.sol\":364:382  _durationInSeconds */\n  dup2\n    /* \"15-Exercises/06_Lottery.sol\":346:361  block.timestamp */\n  timestamp\n    /* \"15-Exercises/06_Lottery.sol\":346:382  block.timestamp + _durationInSeconds */\n  tag_7\n  jump\t// in\ntag_6:\n    /* \"15-Exercises/06_Lottery.sol\":329:343  lotteryEndTime */\n  0x02\n    /* \"15-Exercises/06_Lottery.sol\":329:382  lotteryEndTime = block.timestamp + _durationInSeconds */\n  sstore\n  pop\n    /* \"15-Exercises/06_Lottery.sol\":58:1040  contract Lottery {... */\n  tag_9\n  swap1\n  pop\n  jump\n    /* \"#utility.yul\":14:357   */\ntag_3:\n    /* \"#utility.yul\":93:99   */\n  0x00\n    /* \"#utility.yul\":101:107   */\n  0x00\n    /* \"#utility.yul\":154:156   */\n  0x40\n    /* \"#utility.yul\":142:151   */\n  dup4\n    /* \"#utility.yul\":133:140   */\n  dup6\n    /* \"#utility.yul\":129:152   */\n  sub\n    /* \"#utility.yul\":125:157   */\n  slt\n    /* \"#utility.yul\":122:174   */\n  iszero\n  tag_11\n  jumpi\n    /* \"#utility.yul\":170:171   */\n  0x00\n    /* \"#utility.yul\":167:168   */\n  0x00\n    /* \"#utility.yul\":160:172   */\n  revert\n    /* \"#utility.yul\":122:174   */\ntag_11:\n  pop\n  pop\n    /* \"#utility.yul\":215:231   */\n  dup1\n  mload\n    /* \"#utility.yul\":321:323   */\n  0x20\n    /* \"#utility.yul\":306:324   */\n  swap1\n  swap2\n  add\n    /* \"#utility.yul\":300:325   */\n  mload\n    /* \"#utility.yul\":215:231   */\n  swap1\n  swap3\n    /* \"#utility.yul\":300:325   */\n  swap1\n  swap2\n  pop\n    /* \"#utility.yul\":14:357   */\n  jump\t// out\n    /* \"#utility.yul\":362:584   */\ntag_7:\n    /* \"#utility.yul\":427:436   */\n  dup1\n  dup3\n  add\n    /* \"#utility.yul\":448:458   */\n  dup1\n  dup3\n  gt\n    /* \"#utility.yul\":445:578   */\n  iszero\n  tag_13\n  jumpi\n    /* \"#utility.yul\":500:510   */\n  0x4e487b71\n    /* \"#utility.yul\":495:498   */\n  0xe0\n    /* \"#utility.yul\":491:511   */\n  shl\n    /* \"#utility.yul\":488:489   */\n  0x00\n    /* \"#utility.yul\":481:512   */\n  mstore\n    /* \"#utility.yul\":535:539   */\n  0x11\n    /* \"#utility.yul\":532:533   */\n  0x04\n    /* \"#utility.yul\":525:540   */\n  mstore\n    /* \"#utility.yul\":563:567   */\n  0x24\n    /* \"#utility.yul\":560:561   */\n  0x00\n    /* \"#utility.yul\":553:568   */\n  revert\n    /* \"#utility.yul\":445:578   */\ntag_13:\n    /* \"#utility.yul\":362:584   */\n  swap3\n  swap2\n  pop\n  pop\n  jump\t// out\ntag_9:\n    /* \"15-Exercises/06_Lottery.sol\":58:1040  contract Lottery {... */\n  dataSize(sub_0)\n  dup1\n  dataOffset(sub_0)\n  0x00\n  codecopy\n  0x00\n  return\nstop\n\nsub_0: assembly {\n        /* \"15-Exercises/06_Lottery.sol\":58:1040  contract Lottery {... */\n      mstore(0x40, 0x80)\n      callvalue\n      dup1\n      iszero\n      tag_1\n      jumpi\n      revert(0x00, 0x00)\n    tag_1:\n      pop\n      jumpi(tag_2, lt(calldatasize, 0x04))\n      shr(0xe0, calldataload(0x00))\n      dup1\n      0x1209b1f6\n      eq\n      tag_3\n      jumpi\n      dup1\n      0x43662a7e\n      eq\n      tag_4\n      jumpi\n      dup1\n      0x8da5cb5b\n      eq\n      tag_5\n      jumpi\n      dup1\n      0xf71d96cb\n      eq\n      tag_6\n      jumpi\n    tag_2:\n      revert(0x00, 0x00)\n        /* \"15-Exercises/06_Lottery.sol\":107:130  uint public ticketPrice */\n    tag_3:\n      tag_7\n      sload(0x01)\n      dup2\n      jump\n    tag_7:\n      mload(0x40)\n        /* \"#utility.yul\":160:185   */\n      swap1\n      dup2\n      mstore\n        /* \"#utility.yul\":148:150   */\n      0x20\n        /* \"#utility.yul\":133:151   */\n      add\n        /* \"15-Exercises/06_Lottery.sol\":107:130  uint public ticketPrice */\n    tag_9:\n      mload(0x40)\n      dup1\n      swap2\n      sub\n      swap1\n      return\n        /* \"15-Exercises/06_Lottery.sol\":136:162  uint public lotteryEndTime */\n    tag_4:\n      tag_7\n      sload(0x02)\n      dup2\n      jump\n        /* \"15-Exercises/06_Lottery.sol\":81:101  address public owner */\n    tag_5:\n      sload(0x00)\n      tag_14\n      swap1\n      sub(shl(0xa0, 0x01), 0x01)\n      and\n      dup2\n      jump\n    tag_14:\n      mload(0x40)\n      sub(shl(0xa0, 0x01), 0x01)\n        /* \"#utility.yul\":360:392   */\n      swap1\n      swap2\n      and\n        /* \"#utility.yul\":342:393   */\n      dup2\n      mstore\n        /* \"#utility.yul\":330:332   */\n      0x20\n        /* \"#utility.yul\":315:333   */\n      add\n        /* \"15-Exercises/06_Lottery.sol\":81:101  address public owner */\n      tag_9\n        /* \"#utility.yul\":196:399   */\n      jump\n        /* \"15-Exercises/06_Lottery.sol\":168:192  address[] public players */\n    tag_6:\n      tag_14\n      tag_19\n      calldatasize\n      0x04\n      tag_20\n      jump\t// in\n    tag_19:\n      0x03\n      dup2\n      dup2\n      sload\n      dup2\n      lt\n      tag_23\n      jumpi\n      0x00\n      dup1\n      revert\n    tag_23:\n      0x00\n      swap2\n      dup3\n      mstore\n      0x20\n      swap1\n      swap2\n      keccak256\n      add\n      sload\n      sub(shl(0xa0, 0x01), 0x01)\n      and\n      swap1\n      pop\n      dup2\n      jump\t// out\n        /* \"#utility.yul\":404:584   */\n    tag_20:\n        /* \"#utility.yul\":463:469   */\n      0x00\n        /* \"#utility.yul\":516:518   */\n      0x20\n        /* \"#utility.yul\":504:513   */\n      dup3\n        /* \"#utility.yul\":495:502   */\n      dup5\n        /* \"#utility.yul\":491:514   */\n      sub\n        /* \"#utility.yul\":487:519   */\n      slt\n        /* \"#utility.yul\":484:536   */\n      iszero\n      tag_29\n      jumpi\n        /* \"#utility.yul\":532:533   */\n      0x00\n        /* \"#utility.yul\":529:530   */\n      0x00\n        /* \"#utility.yul\":522:534   */\n      revert\n        /* \"#utility.yul\":484:536   */\n    tag_29:\n      pop\n        /* \"#utility.yul\":555:578   */\n      calldataload\n      swap2\n        /* \"#utility.yul\":404:584   */\n      swap1\n      pop\n      jump\t// out\n\n    auxdata: 0xa2646970667358221220ecdffbe820d6cae4b0bf17a60ec1950dbabe186e2ecab13f72e8cdaecfe4335664736f6c634300081e0033\n}\n",
				"bytecode": {
					"linkReferences": {},
					"object": "6080604052348015600e575f5ffd5b506040516101b63803806101b6833981016040819052602b916053565b5f80546001600160a01b031916331790556001829055604981426074565b6002555060989050565b5f5f604083850312156063575f5ffd5b505080516020909101519092909150565b80820180821115609257634e487b7160e01b5f52601160045260245ffd5b92915050565b610111806100a55f395ff3fe6080604052348015600e575f5ffd5b50600436106044575f3560e01c80631209b1f614604857806343662a7e1460635780638da5cb5b14606b578063f71d96cb146093575b5f5ffd5b605060015481565b6040519081526020015b60405180910390f35b605060025481565b5f54607c906001600160a01b031681565b6040516001600160a01b039091168152602001605a565b607c609e36600460c5565b6003818154811060ac575f80fd5b5f918252602090912001546001600160a01b0316905081565b5f6020828403121560d4575f5ffd5b503591905056fea2646970667358221220ecdffbe820d6cae4b0bf17a60ec1950dbabe186e2ecab13f72e8cdaecfe4335664736f6c634300081e0033",
					"opcodes": "PUSH1 0x80 PUSH1 0x40 MSTORE CALLVALUE DUP1 ISZERO PUSH1 0xE JUMPI PUSH0 PUSH0 REVERT JUMPDEST POP PUSH1 0x40 MLOAD PUSH2 0x1B6 CODESIZE SUB DUP1 PUSH2 0x1B6 DUP4 CODECOPY DUP2 ADD PUSH1 0x40 DUP2 SWAP1 MSTORE PUSH1 0x2B SWAP2 PUSH1 0x53 JUMP JUMPDEST PUSH0 DUP1 SLOAD PUSH1 0x1 PUSH1 0x1 PUSH1 0xA0 SHL SUB NOT AND CALLER OR SWAP1 SSTORE PUSH1 0x1 DUP3 SWAP1 SSTORE PUSH1 0x49 DUP2 TIMESTAMP PUSH1 0x74 JUMP JUMPDEST PUSH1 0x2 SSTORE POP PUSH1 0x98 SWAP1 POP JUMP JUMPDEST PUSH0 PUSH0 PUSH1 0x40 DUP4 DUP6 SUB SLT ISZERO PUSH1 0x63 JUMPI PUSH0 PUSH0 REVERT JUMPDEST POP POP DUP1 MLOAD PUSH1 0x20 SWAP1 SWAP2 ADD MLOAD SWAP1 SWAP3 SWAP1 SWAP2 POP JUMP JUMPDEST DUP1 DUP3 ADD DUP1 DUP3 GT ISZERO PUSH1 0x92 JUMPI PUSH4 0x4E487B71 PUSH1 0xE0 SHL PUSH0 MSTORE PUSH1 0x11 PUSH1 0x4 MSTORE PUSH1 0x24 PUSH0 REVERT JUMPDEST SWAP3 SWAP2 POP POP JUMP JUMPDEST PUSH2 0x111 DUP1 PUSH2 0xA5 PUSH0 CODECOPY PUSH0 RETURN INVALID PUSH1 0x80 PUSH1 0x40 MSTORE CALLVALUE DUP1 ISZERO PUSH1 0xE JUMPI PUSH0 PUSH0 REVERT JUMPDEST POP PUSH1 0x4 CALLDATASIZE LT PUSH1 0x44 JUMPI PUSH0 CALLDATALOAD PUSH1 0xE0 SHR DUP1 PUSH4 0x1209B1F6 EQ PUSH1 0x48 JUMPI DUP1 PUSH4 0x43662A7E EQ PUSH1 0x63 JUMPI DUP1 PUSH4 0x8DA5CB5B EQ PUSH1 0x6B JUMPI DUP1 PUSH4 0xF71D96CB EQ PUSH1 0x93 JUMPI JUMPDEST PUSH0 PUSH0 REVERT JUMPDEST PUSH1 0x50 PUSH1 0x1 SLOAD DUP2 JUMP JUMPDEST PUSH1 0x40 MLOAD SWAP1 DUP2 MSTORE PUSH1 0x20 ADD JUMPDEST PUSH1 0x40 MLOAD DUP1 SWAP2 SUB SWAP1 RETURN JUMPDEST PUSH1 0x50 PUSH1 0x2 SLOAD DUP2 JUMP JUMPDEST PUSH0 SLOAD PUSH1 0x7C SWAP1 PUSH1 0x1 PUSH1 0x1 PUSH1 0xA0 SHL SUB AND DUP2 JUMP JUMPDEST PUSH1 0x40 MLOAD PUSH1 0x1 PUSH1 0x1 PUSH1 0xA0 SHL SUB SWAP1 SWAP2 AND DUP2 MSTORE PUSH1 0x20 ADD PUSH1 0x5A JUMP JUMPDEST PUSH1 0x7C PUSH1 0x9E CALLDATASIZE PUSH1 0x4 PUSH1 0xC5 JUMP JUMPDEST PUSH1 0x3 DUP2 DUP2 SLOAD DUP2 LT PUSH1 0xAC JUMPI PUSH0 DUP1 REVERT JUMPDEST PUSH0 SWAP2 DUP3 MSTORE PUSH1 0x20 SWAP1 SWAP2 KECCAK256 ADD SLOAD PUSH1 0x1 PUSH1 0x1 PUSH1 0xA0 SHL SUB AND SWAP1 POP DUP2 JUMP JUMPDEST PUSH0 PUSH1 0x20 DUP3 DUP5 SUB SLT ISZERO PUSH1 0xD4 JUMPI PUSH0 PUSH0 REVERT JUMPDEST POP CALLDATALOAD SWAP2 SWAP1 POP JUMP INVALID LOG2 PUSH5 0x6970667358 0x22 SLT KECCAK256 EOFCREATE 0xDF EXTSTATICCALL 0xE8 KECCAK256 0xD6 0xCA RETF 0xB0 0xBF OR 0xA6 0xE 0xC1 SWAP6 0xD 0xBA 0xBE XOR PUSH15 0x2ECAB13F72E8CDAECFE4335664736F PUSH13 0x634300081E0033000000000000 "
				},
				"gasEstimates": {
					"creation": {
						"codeDepositCost": "54600",
						"executionCost": "infinite",
						"totalCost": "infinite"
					},
					"external": {
						"lotteryEndTime()": "2283",
						"owner()": "2357",
						"players(uint256)": "4643",
						"ticketPrice()": "2261"
					},
					"internal": {
						"payWinner(address)": "infinite"
					}
				},
				"methodIdentifiers": {
					"lotteryEndTime()": "43662a7e",
					"owner()": "8da5cb5b",
					"players(uint256)": "f71d96cb",
					"ticketPrice()": "1209b1f6"
				}
			},
			"storageLayout": {
				"storage": [
					{
						"astId": 3,
						"contract": "15-Exercises/06_Lottery.sol:Lottery",
						"label": "owner",
						"offset": 0,
						"slot": "0",
						"type": "t_address"
					},
					{
						"astId": 5,
						"contract": "15-Exercises/06_Lottery.sol:Lottery",
						"label": "ticketPrice",
						"offset": 0,
						"slot": "1",
						"type": "t_uint256"
					},
					{
						"astId": 7,
						"contract": "15-Exercises/06_Lottery.sol:Lottery",
						"label": "lotteryEndTime",
						"offset": 0,
						"slot": "2",
						"type": "t_uint256"
					},
					{
						"astId": 10,
						"contract": "15-Exercises/06_Lottery.sol:Lottery",
						"label": "players",
						"offset": 0,
						"slot": "3",
						"type": "t_array(t_address)dyn_storage"
					}
				],
				"types": {
					"t_address": {
						"encoding": "inplace",
						"label": "address",
						"numberOfBytes": "20"
					},
					"t_array(t_address)dyn_storage": {
						"base": "t_address",
						"encoding": "dynamic_array",
						"label": "address[]",
						"numberOfBytes": "32"
					},
					"t_uint256": {
						"encoding": "inplace",
						"label": "uint256",
						"numberOfBytes": "32"
					}
				}
			},
			"userdoc": {
				"kind": "user",
				"methods": {},
				"version": 1
			}
		}
	}
}