{
	"6-Array/ByteArrays.sol": {
		"bytearrays": {
			"abi": [
				{
					"inputs": [],
					"name": "areEqual",
					"outputs": [
						{
							"internalType": "bool",
							"name": "",
							"type": "bool"
						}
					],
					"stateMutability": "view",
					"type": "function"
				},
				{
					"inputs": [],
					"name": "b1",
					"outputs": [
						{
							"internalType": "bytes3",
							"name": "",
							"type": "bytes3"
						}
					],
					"stateMutability": "view",
					"type": "function"
				},
				{
					"inputs": [],
					"name": "b2",
					"outputs": [
						{
							"internalType": "bytes2",
							"name": "",
							"type": "bytes2"
						}
					],
					"stateMutability": "view",
					"type": "function"
				},
				{
					"inputs": [],
					"name": "b22",
					"outputs": [
						{
							"internalType": "bytes2",
							"name": "",
							"type": "bytes2"
						}
					],
					"stateMutability": "view",
					"type": "function"
				},
				{
					"inputs": [],
					"name": "getAsUint",
					"outputs": [
						{
							"internalType": "uint256",
							"name": "",
							"type": "uint256"
						},
						{
							"internalType": "uint256",
							"name": "",
							"type": "uint256"
						},
						{
							"internalType": "uint256",
							"name": "",
							"type": "uint256"
						}
					],
					"stateMutability": "view",
					"type": "function"
				},
				{
					"inputs": [],
					"name": "getFirstBytes",
					"outputs": [
						{
							"internalType": "bytes1",
							"name": "",
							"type": "bytes1"
						},
						{
							"internalType": "bytes1",
							"name": "",
							"type": "bytes1"
						},
						{
							"internalType": "bytes1",
							"name": "",
							"type": "bytes1"
						}
					],
					"stateMutability": "view",
					"type": "function"
				},
				{
					"inputs": [],
					"name": "getHexValues",
					"outputs": [
						{
							"internalType": "bytes3",
							"name": "",
							"type": "bytes3"
						},
						{
							"internalType": "bytes2",
							"name": "",
							"type": "bytes2"
						},
						{
							"internalType": "bytes2",
							"name": "",
							"type": "bytes2"
						}
					],
					"stateMutability": "view",
					"type": "function"
				},
				{
					"inputs": [],
					"name": "getMaxValues",
					"outputs": [
						{
							"internalType": "uint256",
							"name": "",
							"type": "uint256"
						},
						{
							"internalType": "uint256",
							"name": "",
							"type": "uint256"
						}
					],
					"stateMutability": "pure",
					"type": "function"
				},
				{
					"inputs": [],
					"name": "setter",
					"outputs": [],
					"stateMutability": "nonpayable",
					"type": "function"
				},
				{
					"inputs": [],
					"name": "showPadding",
					"outputs": [
						{
							"internalType": "bytes2",
							"name": "",
							"type": "bytes2"
						}
					],
					"stateMutability": "pure",
					"type": "function"
				}
			],
			"devdoc": {
				"details": "Shows how to work with fixed-size byte arrays (bytes1 to bytes32) in Solidity",
				"kind": "dev",
				"methods": {},
				"title": "Fixed-Size Byte Arrays Demonstration",
				"version": 1
			},
			"evm": {
				"assembly": "    /* \"6-Array/ByteArrays.sol\":306:1501  contract bytearrays {... */\n  mstore(0x40, 0x80)\n  callvalue\n  dup1\n  iszero\n  tag_1\n  jumpi\n  revert(0x00, 0x00)\ntag_1:\n  pop\n  dataSize(sub_0)\n  dup1\n  dataOffset(sub_0)\n  0x00\n  codecopy\n  0x00\n  return\nstop\n\nsub_0: assembly {\n        /* \"6-Array/ByteArrays.sol\":306:1501  contract bytearrays {... */\n      mstore(0x40, 0x80)\n      callvalue\n      dup1\n      iszero\n      tag_1\n      jumpi\n      revert(0x00, 0x00)\n    tag_1:\n      pop\n      jumpi(tag_2, lt(calldatasize, 0x04))\n      shr(0xe0, calldataload(0x00))\n      dup1\n      0x50026287\n      gt\n      tag_13\n      jumpi\n      dup1\n      0x50026287\n      eq\n      tag_8\n      jumpi\n      dup1\n      0x6c56b378\n      eq\n      tag_9\n      jumpi\n      dup1\n      0x9e633b4f\n      eq\n      tag_10\n      jumpi\n      dup1\n      0xee495002\n      eq\n      tag_11\n      jumpi\n      dup1\n      0xf30bd7a7\n      eq\n      tag_12\n      jumpi\n      revert(0x00, 0x00)\n    tag_13:\n      dup1\n      0x0add6ef2\n      eq\n      tag_3\n      jumpi\n      dup1\n      0x1a5a374f\n      eq\n      tag_4\n      jumpi\n      dup1\n      0x2e061bd3\n      eq\n      tag_5\n      jumpi\n      dup1\n      0x3f3108f7\n      eq\n      tag_6\n      jumpi\n      dup1\n      0x495aca3e\n      eq\n      tag_7\n      jumpi\n    tag_2:\n      revert(0x00, 0x00)\n        /* \"6-Array/ByteArrays.sol\":386:402  bytes2 public b2 */\n    tag_3:\n      sload(0x00)\n      tag_14\n      swap1\n      0x01000000\n      swap1\n      div\n      0xf0\n      shl\n      dup2\n      jump\n    tag_14:\n      mload(0x40)\n      not(sub(shl(0xf0, 0x01), 0x01))\n        /* \"#utility.yul\":176:204   */\n      swap1\n      swap2\n      and\n        /* \"#utility.yul\":158:205   */\n      dup2\n      mstore\n        /* \"#utility.yul\":146:148   */\n      0x20\n        /* \"#utility.yul\":131:149   */\n      add\n        /* \"6-Array/ByteArrays.sol\":386:402  bytes2 public b2 */\n    tag_16:\n      mload(0x40)\n      dup1\n      swap2\n      sub\n      swap1\n      return\n        /* \"6-Array/ByteArrays.sol\":643:749  function getHexValues() public view returns (bytes3, bytes2, bytes2) {... */\n    tag_4:\n        /* \"6-Array/ByteArrays.sol\":688:694  bytes3 */\n      0x00\n        /* \"6-Array/ByteArrays.sol\":730:732  b1 */\n      sload\n        /* \"6-Array/ByteArrays.sol\":643:749  function getHexValues() public view returns (bytes3, bytes2, bytes2) {... */\n      0x40\n      dup1\n      mload\n        /* \"6-Array/ByteArrays.sol\":730:732  b1 */\n      0xe8\n      dup4\n      swap1\n      shl\n      not(sub(shl(0xe8, 0x01), 0x01))\n        /* \"#utility.yul\":430:461   */\n      and\n        /* \"#utility.yul\":412:462   */\n      dup2\n      mstore\n        /* \"6-Array/ByteArrays.sol\":734:736  b2 */\n      0x01000000\n      dup4\n      div\n      0xf0\n      swap1\n      dup2\n      shl\n      not(sub(shl(0xf0, 0x01), 0x01))\n        /* \"#utility.yul\":498:526   */\n      swap1\n      dup2\n      and\n        /* \"#utility.yul\":493:495   */\n      0x20\n        /* \"#utility.yul\":478:496   */\n      dup5\n      add\n        /* \"#utility.yul\":471:527   */\n      mstore\n      shl(0x28, 0x01)\n        /* \"6-Array/ByteArrays.sol\":738:741  b22 */\n      swap1\n      swap5\n      div\n      swap1\n      shl\n        /* \"#utility.yul\":563:591   */\n      swap1\n      swap3\n      and\n        /* \"#utility.yul\":543:561   */\n      swap1\n      dup3\n      add\n        /* \"#utility.yul\":536:592   */\n      mstore\n        /* \"#utility.yul\":400:402   */\n      0x60\n        /* \"#utility.yul\":385:403   */\n      add\n        /* \"6-Array/ByteArrays.sol\":643:749  function getHexValues() public view returns (bytes3, bytes2, bytes2) {... */\n      tag_16\n        /* \"#utility.yul\":216:598   */\n      jump\n        /* \"6-Array/ByteArrays.sol\":755:958  function getAsUint() public view returns (uint256, uint256, uint256) {... */\n    tag_5:\n      tag_22\n        /* \"6-Array/ByteArrays.sol\":797:804  uint256 */\n      0x00\n        /* \"6-Array/ByteArrays.sol\":870:872  b1 */\n      sload\n        /* \"6-Array/ByteArrays.sol\":863:873  uint24(b1) */\n      0xffffff\n      dup2\n      and\n      swap2\n        /* \"6-Array/ByteArrays.sol\":896:906  uint16(b2) */\n      0xffff\n        /* \"6-Array/ByteArrays.sol\":903:905  b2 */\n      0x01000000\n      dup4\n      div\n        /* \"6-Array/ByteArrays.sol\":896:906  uint16(b2) */\n      dup2\n      and\n      swap3\n      shl(0x28, 0x01)\n        /* \"6-Array/ByteArrays.sol\":936:939  b22 */\n      swap1\n      div\n        /* \"6-Array/ByteArrays.sol\":929:940  uint16(b22) */\n      and\n      swap1\n        /* \"6-Array/ByteArrays.sol\":755:958  function getAsUint() public view returns (uint256, uint256, uint256) {... */\n      jump\n    tag_22:\n      0x40\n      dup1\n      mload\n        /* \"#utility.yul\":805:830   */\n      swap4\n      dup5\n      mstore\n        /* \"#utility.yul\":861:863   */\n      0x20\n        /* \"#utility.yul\":846:864   */\n      dup5\n      add\n        /* \"#utility.yul\":839:873   */\n      swap3\n      swap1\n      swap3\n      mstore\n        /* \"#utility.yul\":889:907   */\n      swap1\n      dup3\n      add\n        /* \"#utility.yul\":882:916   */\n      mstore\n        /* \"#utility.yul\":793:795   */\n      0x60\n        /* \"#utility.yul\":778:796   */\n      add\n        /* \"6-Array/ByteArrays.sol\":755:958  function getAsUint() public view returns (uint256, uint256, uint256) {... */\n      tag_16\n        /* \"#utility.yul\":603:922   */\n      jump\n        /* \"6-Array/ByteArrays.sol\":464:637  function setter() public {... */\n    tag_6:\n        /* \"6-Array/ByteArrays.sol\":499:501  b1 */\n      0x00\n        /* \"6-Array/ByteArrays.sol\":499:509  b1 = 'abc' */\n      dup1\n      sload\n      not(0xffffffffffffff)\n        /* \"6-Array/ByteArrays.sol\":582:591  b22 = 'a' */\n      and\n      0x61006b70616263\n      or\n      swap1\n      sstore\n        /* \"6-Array/ByteArrays.sol\":464:637  function setter() public {... */\n      stop\n        /* \"6-Array/ByteArrays.sol\":440:457  bytes2 public b22 */\n    tag_7:\n      sload(0x00)\n      tag_14\n      swap1\n      shl(0x28, 0x01)\n      swap1\n      div\n      0xf0\n      shl\n      dup2\n      jump\n        /* \"6-Array/ByteArrays.sol\":1376:1499  function getMaxValues() public pure returns (uint256, uint256) {... */\n    tag_8:\n      0x40\n      dup1\n      mload\n        /* \"6-Array/ByteArrays.sol\":1457:1473  type(uint16).max */\n      0xffff\n        /* \"#utility.yul\":1101:1126   */\n      dup2\n      mstore\n        /* \"6-Array/ByteArrays.sol\":1475:1491  type(uint24).max */\n      0xffffff\n        /* \"#utility.yul\":1157:1159   */\n      0x20\n        /* \"#utility.yul\":1142:1160   */\n      dup3\n      add\n        /* \"#utility.yul\":1135:1169   */\n      mstore\n        /* \"#utility.yul\":1074:1092   */\n      add\n        /* \"6-Array/ByteArrays.sol\":1376:1499  function getMaxValues() public pure returns (uint256, uint256) {... */\n      tag_16\n        /* \"#utility.yul\":927:1175   */\n      jump\n        /* \"6-Array/ByteArrays.sol\":964:1102  function areEqual() public view returns (bool) {... */\n    tag_9:\n        /* \"6-Array/ByteArrays.sol\":1005:1009  bool */\n      0x00\n        /* \"6-Array/ByteArrays.sol\":1090:1093  b22 */\n      sload\n        /* \"6-Array/ByteArrays.sol\":1073:1094  abi.encodePacked(b22) */\n      0x40\n      dup1\n      mload\n      shl(0x28, 0x01)\n        /* \"6-Array/ByteArrays.sol\":1090:1093  b22 */\n      dup4\n      div\n      0xf0\n      swap1\n      dup2\n      shl\n      not(sub(shl(0xf0, 0x01), 0x01))\n        /* \"#utility.yul\":2094:2122   */\n      swap1\n      dup2\n      and\n        /* \"6-Array/ByteArrays.sol\":1073:1094  abi.encodePacked(b22) */\n      0x20\n      dup1\n      dup6\n      add\n        /* \"#utility.yul\":2082:2123   */\n      swap2\n      swap1\n      swap2\n      mstore\n        /* \"6-Array/ByteArrays.sol\":1073:1094  abi.encodePacked(b22) */\n      dup5\n      mload\n      dup1\n      dup6\n      sub\n      0x02\n      add\n      dup2\n      mstore\n        /* \"#utility.yul\":2139:2150   */\n      0x22\n      dup6\n      add\n        /* \"6-Array/ByteArrays.sol\":1073:1094  abi.encodePacked(b22) */\n      dup7\n      mstore\n        /* \"6-Array/ByteArrays.sol\":1063:1095  keccak256(abi.encodePacked(b22)) */\n      dup1\n      mload\n      swap1\n      dup3\n      add\n      keccak256\n        /* \"6-Array/ByteArrays.sol\":1055:1057  b2 */\n      0x01000000\n      swap1\n      swap7\n      div\n      swap1\n      swap3\n      shl\n        /* \"#utility.yul\":2094:2122   */\n      and\n        /* \"6-Array/ByteArrays.sol\":1038:1058  abi.encodePacked(b2) */\n      0x42\n      dup4\n      add\n        /* \"#utility.yul\":2082:2123   */\n      mstore\n        /* \"6-Array/ByteArrays.sol\":1038:1058  abi.encodePacked(b2) */\n      dup3\n      mload\n      dup1\n      dup4\n      sub\n      0x24\n      add\n      dup2\n      mstore\n        /* \"#utility.yul\":2139:2150   */\n      0x44\n      dup4\n      add\n        /* \"6-Array/ByteArrays.sol\":1038:1058  abi.encodePacked(b2) */\n      swap4\n      dup5\n      swap1\n      mstore\n        /* \"6-Array/ByteArrays.sol\":1028:1059  keccak256(abi.encodePacked(b2)) */\n      dup1\n      mload\n      swap2\n      add\n      keccak256\n        /* \"6-Array/ByteArrays.sol\":1028:1095  keccak256(abi.encodePacked(b2)) == keccak256(abi.encodePacked(b22)) */\n      swap1\n      swap3\n      eq\n        /* \"#utility.yul\":1320:1361   */\n      swap1\n      mstore\n        /* \"#utility.yul\":1293:1311   */\n      0x64\n      add\n        /* \"6-Array/ByteArrays.sol\":964:1102  function areEqual() public view returns (bool) {... */\n      tag_16\n        /* \"#utility.yul\":1180:1367   */\n      jump\n        /* \"6-Array/ByteArrays.sol\":1108:1248  function getFirstBytes() public view returns (bytes1, bytes1, bytes1) {... */\n    tag_10:\n        /* \"6-Array/ByteArrays.sol\":1154:1160  bytes1 */\n      0x00\n        /* \"6-Array/ByteArrays.sol\":1203:1205  b1 */\n      sload\n        /* \"6-Array/ByteArrays.sol\":1108:1248  function getFirstBytes() public view returns (bytes1, bytes1, bytes1) {... */\n      0x40\n      dup1\n      mload\n        /* \"6-Array/ByteArrays.sol\":1203:1208  b1[0] */\n      0x1d\n      dup4\n      swap1\n      byte\n      0xf8\n      swap1\n      dup2\n      shl\n      not(sub(shl(0xf8, 0x01), 0x01))\n        /* \"#utility.yul\":1586:1612   */\n      swap1\n      dup2\n      and\n        /* \"#utility.yul\":1568:1613   */\n      dup4\n      mstore\n        /* \"6-Array/ByteArrays.sol\":1218:1220  b2 */\n      0x01000000\n      dup6\n      div\n        /* \"6-Array/ByteArrays.sol\":1218:1223  b2[0] */\n      0x1e\n      swap1\n      dup2\n      byte\n      dup4\n      shl\n        /* \"#utility.yul\":1649:1675   */\n      dup3\n      and\n        /* \"#utility.yul\":1644:1646   */\n      0x20\n        /* \"#utility.yul\":1629:1647   */\n      dup6\n      add\n        /* \"#utility.yul\":1622:1676   */\n      mstore\n      shl(0x28, 0x01)\n        /* \"6-Array/ByteArrays.sol\":1233:1236  b22 */\n      swap1\n      swap6\n      div\n        /* \"6-Array/ByteArrays.sol\":1233:1239  b22[0] */\n      swap1\n      swap5\n      byte\n      swap1\n      shl\n        /* \"#utility.yul\":1712:1738   */\n      swap1\n      swap3\n      and\n        /* \"#utility.yul\":1692:1710   */\n      swap1\n      dup3\n      add\n        /* \"#utility.yul\":1685:1739   */\n      mstore\n        /* \"#utility.yul\":1556:1558   */\n      0x60\n        /* \"#utility.yul\":1541:1559   */\n      add\n        /* \"6-Array/ByteArrays.sol\":1108:1248  function getFirstBytes() public view returns (bytes1, bytes1, bytes1) {... */\n      tag_16\n        /* \"#utility.yul\":1372:1745   */\n      jump\n        /* \"6-Array/ByteArrays.sol\":332:348  bytes3 public b1 */\n    tag_11:\n      sload(0x00)\n      tag_43\n      swap1\n      0xe8\n      shl\n      dup2\n      jump\n    tag_43:\n      mload(0x40)\n      not(sub(shl(0xe8, 0x01), 0x01))\n        /* \"#utility.yul\":1912:1943   */\n      swap1\n      swap2\n      and\n        /* \"#utility.yul\":1894:1944   */\n      dup2\n      mstore\n        /* \"#utility.yul\":1882:1884   */\n      0x20\n        /* \"#utility.yul\":1867:1885   */\n      add\n        /* \"6-Array/ByteArrays.sol\":332:348  bytes3 public b1 */\n      tag_16\n        /* \"#utility.yul\":1750:1950   */\n      jump\n        /* \"6-Array/ByteArrays.sol\":1254:1370  function showPadding() public pure returns (bytes2) {... */\n    tag_12:\n      shl(0xfb, 0x0f)\n      jump(tag_14)\n\n    auxdata: 0xa2646970667358221220ff0e5f173017f3ab72da636e224d6012ecc25863538133eda46b6e0042fe863064736f6c634300081e0033\n}\n",
				"bytecode": {
					"linkReferences": {},
					"object": "6080604052348015600e575f5ffd5b506102c78061001c5f395ff3fe608060405234801561000f575f5ffd5b506004361061009b575f3560e01c8063500262871161006357806350026287146101895780636c56b378146101a15780639e633b4f14610213578063ee49500214610262578063f30bd7a714610287575f5ffd5b80630add6ef21461009f5780631a5a374f146100d05780632e061bd31461011d5780633f3108f71461015c578063495aca3e14610176575b5f5ffd5b5f546100b2906301000000900460f01b81565b6040516001600160f01b031990911681526020015b60405180910390f35b5f546040805160e883901b6001600160e81b03191681526301000000830460f090811b6001600160f01b03199081166020840152600160281b909404901b909216908201526060016100c7565b6101415f5462ffffff81169161ffff63010000008304811692600160281b90041690565b604080519384526020840192909252908201526060016100c7565b5f805466ffffffffffffff19166661006b70616263179055005b5f546100b290600160281b900460f01b81565b6040805161ffff815262ffffff6020820152016100c7565b5f5460408051600160281b830460f090811b6001600160f01b031990811660208085019190915284518085036002018152602285018652805190820120630100000090960490921b166042830152825180830360240181526044830193849052805191012090921490526064016100c7565b5f5460408051601d83901a60f890811b6001600160f81b0319908116835263010000008504601e90811a831b82166020850152600160281b90950490941a901b909216908201526060016100c7565b5f5461026e9060e81b81565b6040516001600160e81b031990911681526020016100c7565b600f60fb1b6100b256fea2646970667358221220ff0e5f173017f3ab72da636e224d6012ecc25863538133eda46b6e0042fe863064736f6c634300081e0033",
					"opcodes": "PUSH1 0x80 PUSH1 0x40 MSTORE CALLVALUE DUP1 ISZERO PUSH1 0xE JUMPI PUSH0 PUSH0 REVERT JUMPDEST POP PUSH2 0x2C7 DUP1 PUSH2 0x1C PUSH0 CODECOPY PUSH0 RETURN INVALID PUSH1 0x80 PUSH1 0x40 MSTORE CALLVALUE DUP1 ISZERO PUSH2 0xF JUMPI PUSH0 PUSH0 REVERT JUMPDEST POP PUSH1 0x4 CALLDATASIZE LT PUSH2 0x9B JUMPI PUSH0 CALLDATALOAD PUSH1 0xE0 SHR DUP1 PUSH4 0x50026287 GT PUSH2 0x63 JUMPI DUP1 PUSH4 0x50026287 EQ PUSH2 0x189 JUMPI DUP1 PUSH4 0x6C56B378 EQ PUSH2 0x1A1 JUMPI DUP1 PUSH4 0x9E633B4F EQ PUSH2 0x213 JUMPI DUP1 PUSH4 0xEE495002 EQ PUSH2 0x262 JUMPI DUP1 PUSH4 0xF30BD7A7 EQ PUSH2 0x287 JUMPI PUSH0 PUSH0 REVERT JUMPDEST DUP1 PUSH4 0xADD6EF2 EQ PUSH2 0x9F JUMPI DUP1 PUSH4 0x1A5A374F EQ PUSH2 0xD0 JUMPI DUP1 PUSH4 0x2E061BD3 EQ PUSH2 0x11D JUMPI DUP1 PUSH4 0x3F3108F7 EQ PUSH2 0x15C JUMPI DUP1 PUSH4 0x495ACA3E EQ PUSH2 0x176 JUMPI JUMPDEST PUSH0 PUSH0 REVERT JUMPDEST PUSH0 SLOAD PUSH2 0xB2 SWAP1 PUSH4 0x1000000 SWAP1 DIV PUSH1 0xF0 SHL DUP2 JUMP JUMPDEST PUSH1 0x40 MLOAD PUSH1 0x1 PUSH1 0x1 PUSH1 0xF0 SHL SUB NOT SWAP1 SWAP2 AND DUP2 MSTORE PUSH1 0x20 ADD JUMPDEST PUSH1 0x40 MLOAD DUP1 SWAP2 SUB SWAP1 RETURN JUMPDEST PUSH0 SLOAD PUSH1 0x40 DUP1 MLOAD PUSH1 0xE8 DUP4 SWAP1 SHL PUSH1 0x1 PUSH1 0x1 PUSH1 0xE8 SHL SUB NOT AND DUP2 MSTORE PUSH4 0x1000000 DUP4 DIV PUSH1 0xF0 SWAP1 DUP2 SHL PUSH1 0x1 PUSH1 0x1 PUSH1 0xF0 SHL SUB NOT SWAP1 DUP2 AND PUSH1 0x20 DUP5 ADD MSTORE PUSH1 0x1 PUSH1 0x28 SHL SWAP1 SWAP5 DIV SWAP1 SHL SWAP1 SWAP3 AND SWAP1 DUP3 ADD MSTORE PUSH1 0x60 ADD PUSH2 0xC7 JUMP JUMPDEST PUSH2 0x141 PUSH0 SLOAD PUSH3 0xFFFFFF DUP2 AND SWAP2 PUSH2 0xFFFF PUSH4 0x1000000 DUP4 DIV DUP2 AND SWAP3 PUSH1 0x1 PUSH1 0x28 SHL SWAP1 DIV AND SWAP1 JUMP JUMPDEST PUSH1 0x40 DUP1 MLOAD SWAP4 DUP5 MSTORE PUSH1 0x20 DUP5 ADD SWAP3 SWAP1 SWAP3 MSTORE SWAP1 DUP3 ADD MSTORE PUSH1 0x60 ADD PUSH2 0xC7 JUMP JUMPDEST PUSH0 DUP1 SLOAD PUSH7 0xFFFFFFFFFFFFFF NOT AND PUSH7 0x61006B70616263 OR SWAP1 SSTORE STOP JUMPDEST PUSH0 SLOAD PUSH2 0xB2 SWAP1 PUSH1 0x1 PUSH1 0x28 SHL SWAP1 DIV PUSH1 0xF0 SHL DUP2 JUMP JUMPDEST PUSH1 0x40 DUP1 MLOAD PUSH2 0xFFFF DUP2 MSTORE PUSH3 0xFFFFFF PUSH1 0x20 DUP3 ADD MSTORE ADD PUSH2 0xC7 JUMP JUMPDEST PUSH0 SLOAD PUSH1 0x40 DUP1 MLOAD PUSH1 0x1 PUSH1 0x28 SHL DUP4 DIV PUSH1 0xF0 SWAP1 DUP2 SHL PUSH1 0x1 PUSH1 0x1 PUSH1 0xF0 SHL SUB NOT SWAP1 DUP2 AND PUSH1 0x20 DUP1 DUP6 ADD SWAP2 SWAP1 SWAP2 MSTORE DUP5 MLOAD DUP1 DUP6 SUB PUSH1 0x2 ADD DUP2 MSTORE PUSH1 0x22 DUP6 ADD DUP7 MSTORE DUP1 MLOAD SWAP1 DUP3 ADD KECCAK256 PUSH4 0x1000000 SWAP1 SWAP7 DIV SWAP1 SWAP3 SHL AND PUSH1 0x42 DUP4 ADD MSTORE DUP3 MLOAD DUP1 DUP4 SUB PUSH1 0x24 ADD DUP2 MSTORE PUSH1 0x44 DUP4 ADD SWAP4 DUP5 SWAP1 MSTORE DUP1 MLOAD SWAP2 ADD KECCAK256 SWAP1 SWAP3 EQ SWAP1 MSTORE PUSH1 0x64 ADD PUSH2 0xC7 JUMP JUMPDEST PUSH0 SLOAD PUSH1 0x40 DUP1 MLOAD PUSH1 0x1D DUP4 SWAP1 BYTE PUSH1 0xF8 SWAP1 DUP2 SHL PUSH1 0x1 PUSH1 0x1 PUSH1 0xF8 SHL SUB NOT SWAP1 DUP2 AND DUP4 MSTORE PUSH4 0x1000000 DUP6 DIV PUSH1 0x1E SWAP1 DUP2 BYTE DUP4 SHL DUP3 AND PUSH1 0x20 DUP6 ADD MSTORE PUSH1 0x1 PUSH1 0x28 SHL SWAP1 SWAP6 DIV SWAP1 SWAP5 BYTE SWAP1 SHL SWAP1 SWAP3 AND SWAP1 DUP3 ADD MSTORE PUSH1 0x60 ADD PUSH2 0xC7 JUMP JUMPDEST PUSH0 SLOAD PUSH2 0x26E SWAP1 PUSH1 0xE8 SHL DUP2 JUMP JUMPDEST PUSH1 0x40 MLOAD PUSH1 0x1 PUSH1 0x1 PUSH1 0xE8 SHL SUB NOT SWAP1 SWAP2 AND DUP2 MSTORE PUSH1 0x20 ADD PUSH2 0xC7 JUMP JUMPDEST PUSH1 0xF PUSH1 0xFB SHL PUSH2 0xB2 JUMP INVALID LOG2 PUSH5 0x6970667358 0x22 SLT KECCAK256 SELFDESTRUCT 0xE PUSH0 OR ADDRESS OR RETURN 0xAB PUSH19 0xDA636E224D6012ECC25863538133EDA46B6E00 TIMESTAMP INVALID DUP7 ADDRESS PUSH5 0x736F6C6343 STOP ADDMOD 0x1E STOP CALLER "
				},
				"gasEstimates": {
					"creation": {
						"codeDepositCost": "142200",
						"executionCost": "188",
						"totalCost": "142388"
					},
					"external": {
						"areEqual()": "2625",
						"b1()": "2392",
						"b2()": "2327",
						"b22()": "2421",
						"getAsUint()": "2435",
						"getFirstBytes()": "2482",
						"getHexValues()": "2449",
						"getMaxValues()": "194",
						"setter()": "24409",
						"showPadding()": "298"
					}
				},
				"methodIdentifiers": {
					"areEqual()": "6c56b378",
					"b1()": "ee495002",
					"b2()": "0add6ef2",
					"b22()": "495aca3e",
					"getAsUint()": "2e061bd3",
					"getFirstBytes()": "9e633b4f",
					"getHexValues()": "1a5a374f",
					"getMaxValues()": "50026287",
					"setter()": "3f3108f7",
					"showPadding()": "f30bd7a7"
				}
			},
			"storageLayout": {
				"storage": [
					{
						"astId": 4,
						"contract": "6-Array/ByteArrays.sol:bytearrays",
						"label": "b1",
						"offset": 0,
						"slot": "0",
						"type": "t_bytes3"
					},
					{
						"astId": 6,
						"contract": "6-Array/ByteArrays.sol:bytearrays",
						"label": "b2",
						"offset": 3,
						"slot": "0",
						"type": "t_bytes2"
					},
					{
						"astId": 8,
						"contract": "6-Array/ByteArrays.sol:bytearrays",
						"label": "b22",
						"offset": 5,
						"slot": "0",
						"type": "t_bytes2"
					}
				],
				"types": {
					"t_bytes2": {
						"encoding": "inplace",
						"label": "bytes2",
						"numberOfBytes": "2"
					},
					"t_bytes3": {
						"encoding": "inplace",
						"label": "bytes3",
						"numberOfBytes": "3"
					}
				}
			},
			"userdoc": {
				"kind": "user",
				"methods": {},
				"notice": "Byte arrays store raw binary data and are more gas-efficient than strings for small data",
				"version": 1
			}
		}
	}
}