{
	"15-Exercises/02_TokenTransfer.sol": {
		"TokenTransfer": {
			"abi": [
				{
					"inputs": [],
					"stateMutability": "nonpayable",
					"type": "constructor"
				},
				{
					"inputs": [
						{
							"internalType": "address",
							"name": "",
							"type": "address"
						}
					],
					"name": "balances",
					"outputs": [
						{
							"internalType": "uint256",
							"name": "",
							"type": "uint256"
						}
					],
					"stateMutability": "view",
					"type": "function"
				},
				{
					"inputs": [
						{
							"internalType": "address",
							"name": "to",
							"type": "address"
						},
						{
							"internalType": "uint256",
							"name": "amount",
							"type": "uint256"
						}
					],
					"name": "mint",
					"outputs": [],
					"stateMutability": "nonpayable",
					"type": "function"
				},
				{
					"inputs": [],
					"name": "owner",
					"outputs": [
						{
							"internalType": "address",
							"name": "",
							"type": "address"
						}
					],
					"stateMutability": "view",
					"type": "function"
				},
				{
					"inputs": [
						{
							"internalType": "address",
							"name": "to",
							"type": "address"
						},
						{
							"internalType": "uint256",
							"name": "amount",
							"type": "uint256"
						}
					],
					"name": "transfer",
					"outputs": [],
					"stateMutability": "nonpayable",
					"type": "function"
				}
			],
			"devdoc": {
				"kind": "dev",
				"methods": {},
				"version": 1
			},
			"evm": {
				"assembly": "    /* \"15-Exercises/02_TokenTransfer.sol\":57:748  contract TokenTransfer {... */\n  mstore(0x40, 0x80)\n    /* \"15-Exercises/02_TokenTransfer.sol\":290:339  constructor() {... */\n  callvalue\n  dup1\n  iszero\n  tag_1\n  jumpi\n  revert(0x00, 0x00)\ntag_1:\n  pop\n    /* \"15-Exercises/02_TokenTransfer.sol\":314:319  owner */\n  0x01\n    /* \"15-Exercises/02_TokenTransfer.sol\":314:332  owner = msg.sender */\n  dup1\n  sload\n  not(sub(shl(0xa0, 0x01), 0x01))\n  and\n    /* \"15-Exercises/02_TokenTransfer.sol\":322:332  msg.sender */\n  caller\n    /* \"15-Exercises/02_TokenTransfer.sol\":314:332  owner = msg.sender */\n  or\n  swap1\n  sstore\n    /* \"15-Exercises/02_TokenTransfer.sol\":57:748  contract TokenTransfer {... */\n  dataSize(sub_0)\n  dup1\n  dataOffset(sub_0)\n  0x00\n  codecopy\n  0x00\n  return\nstop\n\nsub_0: assembly {\n        /* \"15-Exercises/02_TokenTransfer.sol\":57:748  contract TokenTransfer {... */\n      mstore(0x40, 0x80)\n      callvalue\n      dup1\n      iszero\n      tag_1\n      jumpi\n      revert(0x00, 0x00)\n    tag_1:\n      pop\n      jumpi(tag_2, lt(calldatasize, 0x04))\n      shr(0xe0, calldataload(0x00))\n      dup1\n      0x27e235e3\n      eq\n      tag_3\n      jumpi\n      dup1\n      0x40c10f19\n      eq\n      tag_4\n      jumpi\n      dup1\n      0x8da5cb5b\n      eq\n      tag_5\n      jumpi\n      dup1\n      0xa9059cbb\n      eq\n      tag_4\n      jumpi\n    tag_2:\n      revert(0x00, 0x00)\n        /* \"15-Exercises/02_TokenTransfer.sol\":142:185  mapping(address => uint256) public balances */\n    tag_3:\n      tag_7\n      tag_8\n      calldatasize\n      0x04\n      tag_9\n      jump\t// in\n    tag_8:\n      0x00\n      0x20\n      dup2\n      swap1\n      mstore\n      swap1\n      dup2\n      mstore\n      0x40\n      swap1\n      keccak256\n      sload\n      dup2\n      jump\n    tag_7:\n      mload(0x40)\n        /* \"#utility.yul\":529:554   */\n      swap1\n      dup2\n      mstore\n        /* \"#utility.yul\":517:519   */\n      0x20\n        /* \"#utility.yul\":502:520   */\n      add\n        /* \"15-Exercises/02_TokenTransfer.sol\":142:185  mapping(address => uint256) public balances */\n    tag_11:\n      mload(0x40)\n      dup1\n      swap2\n      sub\n      swap1\n      return\n        /* \"15-Exercises/02_TokenTransfer.sol\":413:534  function mint(address to, uint256 amount) public {... */\n    tag_4:\n      tag_13\n      tag_14\n      calldatasize\n      0x04\n      tag_15\n      jump\t// in\n    tag_14:\n      pop\n      pop\n      jump\n    tag_13:\n      stop\n        /* \"15-Exercises/02_TokenTransfer.sol\":263:283  address public owner */\n    tag_5:\n      sload(0x01)\n      tag_17\n      swap1\n      sub(shl(0xa0, 0x01), 0x01)\n      and\n      dup2\n      jump\n    tag_17:\n      mload(0x40)\n      sub(shl(0xa0, 0x01), 0x01)\n        /* \"#utility.yul\":988:1020   */\n      swap1\n      swap2\n      and\n        /* \"#utility.yul\":970:1021   */\n      dup2\n      mstore\n        /* \"#utility.yul\":958:960   */\n      0x20\n        /* \"#utility.yul\":943:961   */\n      add\n        /* \"15-Exercises/02_TokenTransfer.sol\":263:283  address public owner */\n      tag_11\n        /* \"#utility.yul\":824:1027   */\n      jump\n        /* \"#utility.yul\":14:187   */\n    tag_26:\n        /* \"#utility.yul\":82:102   */\n      dup1\n      calldataload\n      sub(shl(0xa0, 0x01), 0x01)\n        /* \"#utility.yul\":131:162   */\n      dup2\n      and\n        /* \"#utility.yul\":121:163   */\n      dup2\n      eq\n        /* \"#utility.yul\":111:181   */\n      tag_29\n      jumpi\n        /* \"#utility.yul\":177:178   */\n      0x00\n        /* \"#utility.yul\":174:175   */\n      0x00\n        /* \"#utility.yul\":167:179   */\n      revert\n        /* \"#utility.yul\":111:181   */\n    tag_29:\n        /* \"#utility.yul\":14:187   */\n      swap2\n      swap1\n      pop\n      jump\t// out\n        /* \"#utility.yul\":192:378   */\n    tag_9:\n        /* \"#utility.yul\":251:257   */\n      0x00\n        /* \"#utility.yul\":304:306   */\n      0x20\n        /* \"#utility.yul\":292:301   */\n      dup3\n        /* \"#utility.yul\":283:290   */\n      dup5\n        /* \"#utility.yul\":279:302   */\n      sub\n        /* \"#utility.yul\":275:307   */\n      slt\n        /* \"#utility.yul\":272:324   */\n      iszero\n      tag_31\n      jumpi\n        /* \"#utility.yul\":320:321   */\n      0x00\n        /* \"#utility.yul\":317:318   */\n      0x00\n        /* \"#utility.yul\":310:322   */\n      revert\n        /* \"#utility.yul\":272:324   */\n    tag_31:\n        /* \"#utility.yul\":343:372   */\n      tag_32\n        /* \"#utility.yul\":362:371   */\n      dup3\n        /* \"#utility.yul\":343:372   */\n      tag_26\n      jump\t// in\n    tag_32:\n        /* \"#utility.yul\":333:372   */\n      swap4\n        /* \"#utility.yul\":192:378   */\n      swap3\n      pop\n      pop\n      pop\n      jump\t// out\n        /* \"#utility.yul\":565:819   */\n    tag_15:\n        /* \"#utility.yul\":633:639   */\n      0x00\n        /* \"#utility.yul\":641:647   */\n      0x00\n        /* \"#utility.yul\":694:696   */\n      0x40\n        /* \"#utility.yul\":682:691   */\n      dup4\n        /* \"#utility.yul\":673:680   */\n      dup6\n        /* \"#utility.yul\":669:692   */\n      sub\n        /* \"#utility.yul\":665:697   */\n      slt\n        /* \"#utility.yul\":662:714   */\n      iszero\n      tag_35\n      jumpi\n        /* \"#utility.yul\":710:711   */\n      0x00\n        /* \"#utility.yul\":707:708   */\n      0x00\n        /* \"#utility.yul\":700:712   */\n      revert\n        /* \"#utility.yul\":662:714   */\n    tag_35:\n        /* \"#utility.yul\":733:762   */\n      tag_36\n        /* \"#utility.yul\":752:761   */\n      dup4\n        /* \"#utility.yul\":733:762   */\n      tag_26\n      jump\t// in\n    tag_36:\n        /* \"#utility.yul\":723:762   */\n      swap5\n        /* \"#utility.yul\":809:811   */\n      0x20\n        /* \"#utility.yul\":794:812   */\n      swap4\n      swap1\n      swap4\n      add\n        /* \"#utility.yul\":781:813   */\n      calldataload\n      swap4\n      pop\n      pop\n      pop\n        /* \"#utility.yul\":565:819   */\n      jump\t// out\n\n    auxdata: 0xa2646970667358221220bd50c7f6c48a828ec9ad02f8707efd83828bd5e71c33b02b57e9ae114d330a4a64736f6c634300081e0033\n}\n",
				"bytecode": {
					"linkReferences": {},
					"object": "6080604052348015600e575f5ffd5b50600180546001600160a01b031916331790556101588061002e5f395ff3fe608060405234801561000f575f5ffd5b506004361061004a575f3560e01c806327e235e31461004e57806340c10f19146100805780638da5cb5b14610094578063a9059cbb14610080575b5f5ffd5b61006d61005c3660046100da565b5f6020819052908152604090205481565b6040519081526020015b60405180910390f35b61009261008e3660046100fa565b5050565b005b6001546100a7906001600160a01b031681565b6040516001600160a01b039091168152602001610077565b80356001600160a01b03811681146100d5575f5ffd5b919050565b5f602082840312156100ea575f5ffd5b6100f3826100bf565b9392505050565b5f5f6040838503121561010b575f5ffd5b610114836100bf565b94602093909301359350505056fea2646970667358221220bd50c7f6c48a828ec9ad02f8707efd83828bd5e71c33b02b57e9ae114d330a4a64736f6c634300081e0033",
					"opcodes": "PUSH1 0x80 PUSH1 0x40 MSTORE CALLVALUE DUP1 ISZERO PUSH1 0xE JUMPI PUSH0 PUSH0 REVERT JUMPDEST POP PUSH1 0x1 DUP1 SLOAD PUSH1 0x1 PUSH1 0x1 PUSH1 0xA0 SHL SUB NOT AND CALLER OR SWAP1 SSTORE PUSH2 0x158 DUP1 PUSH2 0x2E PUSH0 CODECOPY PUSH0 RETURN INVALID PUSH1 0x80 PUSH1 0x40 MSTORE CALLVALUE DUP1 ISZERO PUSH2 0xF JUMPI PUSH0 PUSH0 REVERT JUMPDEST POP PUSH1 0x4 CALLDATASIZE LT PUSH2 0x4A JUMPI PUSH0 CALLDATALOAD PUSH1 0xE0 SHR DUP1 PUSH4 0x27E235E3 EQ PUSH2 0x4E JUMPI DUP1 PUSH4 0x40C10F19 EQ PUSH2 0x80 JUMPI DUP1 PUSH4 0x8DA5CB5B EQ PUSH2 0x94 JUMPI DUP1 PUSH4 0xA9059CBB EQ PUSH2 0x80 JUMPI JUMPDEST PUSH0 PUSH0 REVERT JUMPDEST PUSH2 0x6D PUSH2 0x5C CALLDATASIZE PUSH1 0x4 PUSH2 0xDA JUMP JUMPDEST PUSH0 PUSH1 0x20 DUP2 SWAP1 MSTORE SWAP1 DUP2 MSTORE PUSH1 0x40 SWAP1 KECCAK256 SLOAD DUP2 JUMP JUMPDEST PUSH1 0x40 MLOAD SWAP1 DUP2 MSTORE PUSH1 0x20 ADD JUMPDEST PUSH1 0x40 MLOAD DUP1 SWAP2 SUB SWAP1 RETURN JUMPDEST PUSH2 0x92 PUSH2 0x8E CALLDATASIZE PUSH1 0x4 PUSH2 0xFA JUMP JUMPDEST POP POP JUMP JUMPDEST STOP JUMPDEST PUSH1 0x1 SLOAD PUSH2 0xA7 SWAP1 PUSH1 0x1 PUSH1 0x1 PUSH1 0xA0 SHL SUB AND DUP2 JUMP JUMPDEST PUSH1 0x40 MLOAD PUSH1 0x1 PUSH1 0x1 PUSH1 0xA0 SHL SUB SWAP1 SWAP2 AND DUP2 MSTORE PUSH1 0x20 ADD PUSH2 0x77 JUMP JUMPDEST DUP1 CALLDATALOAD PUSH1 0x1 PUSH1 0x1 PUSH1 0xA0 SHL SUB DUP2 AND DUP2 EQ PUSH2 0xD5 JUMPI PUSH0 PUSH0 REVERT JUMPDEST SWAP2 SWAP1 POP JUMP JUMPDEST PUSH0 PUSH1 0x20 DUP3 DUP5 SUB SLT ISZERO PUSH2 0xEA JUMPI PUSH0 PUSH0 REVERT JUMPDEST PUSH2 0xF3 DUP3 PUSH2 0xBF JUMP JUMPDEST SWAP4 SWAP3 POP POP POP JUMP JUMPDEST PUSH0 PUSH0 PUSH1 0x40 DUP4 DUP6 SUB SLT ISZERO PUSH2 0x10B JUMPI PUSH0 PUSH0 REVERT JUMPDEST PUSH2 0x114 DUP4 PUSH2 0xBF JUMP JUMPDEST SWAP5 PUSH1 0x20 SWAP4 SWAP1 SWAP4 ADD CALLDATALOAD SWAP4 POP POP POP JUMP INVALID LOG2 PUSH5 0x6970667358 0x22 SLT KECCAK256 0xBD POP 0xC7 0xF6 0xC4 DUP11 DUP3 DUP15 0xC9 0xAD MUL EXTCALL PUSH17 0x7EFD83828BD5E71C33B02B57E9AE114D33 EXP BLOBBASEFEE PUSH5 0x736F6C6343 STOP ADDMOD 0x1E STOP CALLER "
				},
				"gasEstimates": {
					"creation": {
						"codeDepositCost": "68800",
						"executionCost": "24350",
						"totalCost": "93150"
					},
					"external": {
						"balances(address)": "2486",
						"mint(address,uint256)": "312",
						"owner()": "2358",
						"transfer(address,uint256)": "356"
					}
				},
				"methodIdentifiers": {
					"balances(address)": "27e235e3",
					"mint(address,uint256)": "40c10f19",
					"owner()": "8da5cb5b",
					"transfer(address,uint256)": "a9059cbb"
				}
			},
			"storageLayout": {
				"storage": [
					{
						"astId": 5,
						"contract": "15-Exercises/02_TokenTransfer.sol:TokenTransfer",
						"label": "balances",
						"offset": 0,
						"slot": "0",
						"type": "t_mapping(t_address,t_uint256)"
					},
					{
						"astId": 7,
						"contract": "15-Exercises/02_TokenTransfer.sol:TokenTransfer",
						"label": "owner",
						"offset": 0,
						"slot": "1",
						"type": "t_address"
					}
				],
				"types": {
					"t_address": {
						"encoding": "inplace",
						"label": "address",
						"numberOfBytes": "20"
					},
					"t_mapping(t_address,t_uint256)": {
						"encoding": "mapping",
						"key": "t_address",
						"label": "mapping(address => uint256)",
						"numberOfBytes": "32",
						"value": "t_uint256"
					},
					"t_uint256": {
						"encoding": "inplace",
						"label": "uint256",
						"numberOfBytes": "32"
					}
				}
			},
			"userdoc": {
				"kind": "user",
				"methods": {},
				"version": 1
			}
		}
	}
}