{
	"12-Global Variables/vardemo.sol": {
		"demo": {
			"abi": [
				{
					"inputs": [],
					"name": "getMoreBlockInfo",
					"outputs": [
						{
							"internalType": "bytes32",
							"name": "blockHashValue",
							"type": "bytes32"
						},
						{
							"internalType": "address",
							"name": "coinbase",
							"type": "address"
						},
						{
							"internalType": "uint256",
							"name": "prevRandao",
							"type": "uint256"
						}
					],
					"stateMutability": "view",
					"type": "function"
				}
			],
			"devdoc": {
				"details": "Shows how to access Ethereum blockchain global variables in Solidity",
				"kind": "dev",
				"methods": {
					"getMoreBlockInfo()": {
						"details": "Returns additional block information (updated for PoS)",
						"returns": {
							"blockHashValue": "The hash of one of the 256 most recent blocks",
							"coinbase": "The current block miner's address (now validator in PoS)",
							"prevRandao": "The randomness value from the Beacon Chain"
						}
					}
				},
				"title": "Global Variables Demonstration (Post-Paris Upgrade)",
				"version": 1
			},
			"evm": {
				"assembly": "    /* \"12-Global Variables/vardemo.sol\":291:1096  contract demo {... */\n  mstore(0x40, 0x80)\n  callvalue\n  dup1\n  iszero\n  tag_1\n  jumpi\n  revert(0x00, 0x00)\ntag_1:\n  pop\n  dataSize(sub_0)\n  dup1\n  dataOffset(sub_0)\n  0x00\n  codecopy\n  0x00\n  return\nstop\n\nsub_0: assembly {\n        /* \"12-Global Variables/vardemo.sol\":291:1096  contract demo {... */\n      mstore(0x40, 0x80)\n      callvalue\n      dup1\n      iszero\n      tag_1\n      jumpi\n      revert(0x00, 0x00)\n    tag_1:\n      pop\n      jumpi(tag_2, lt(calldatasize, 0x04))\n      shr(0xe0, calldataload(0x00))\n      dup1\n      0x9207f67e\n      eq\n      tag_3\n      jumpi\n    tag_2:\n      revert(0x00, 0x00)\n        /* \"12-Global Variables/vardemo.sol\":692:1041  function getMoreBlockInfo() public view returns(... */\n    tag_3:\n      tag_4\n      tag_5\n      jump\t// in\n    tag_4:\n      0x40\n      dup1\n      mload\n        /* \"#utility.yul\":216:241   */\n      swap4\n      dup5\n      mstore\n      sub(shl(0xa0, 0x01), 0x01)\n        /* \"#utility.yul\":277:309   */\n      swap1\n      swap3\n      and\n        /* \"#utility.yul\":272:274   */\n      0x20\n        /* \"#utility.yul\":257:275   */\n      dup5\n      add\n        /* \"#utility.yul\":250:310   */\n      mstore\n        /* \"#utility.yul\":326:344   */\n      swap1\n      dup3\n      add\n        /* \"#utility.yul\":319:353   */\n      mstore\n        /* \"#utility.yul\":204:206   */\n      0x60\n        /* \"#utility.yul\":189:207   */\n      add\n        /* \"12-Global Variables/vardemo.sol\":692:1041  function getMoreBlockInfo() public view returns(... */\n      mload(0x40)\n      dup1\n      swap2\n      sub\n      swap1\n      return\n    tag_5:\n        /* \"12-Global Variables/vardemo.sol\":749:771  bytes32 blockHashValue */\n      0x00\n        /* \"12-Global Variables/vardemo.sol\":781:797  address coinbase */\n      0x00\n        /* \"12-Global Variables/vardemo.sol\":807:825  uint256 prevRandao */\n      0x00\n        /* \"12-Global Variables/vardemo.sol\":847:866  uint256 blockNumber */\n      0x00\n        /* \"12-Global Variables/vardemo.sol\":884:885  0 */\n      0x00\n        /* \"12-Global Variables/vardemo.sol\":869:881  block.number */\n      number\n        /* \"12-Global Variables/vardemo.sol\":869:885  block.number > 0 */\n      gt\n        /* \"12-Global Variables/vardemo.sol\":869:908  block.number > 0 ? block.number - 1 : 0 */\n      tag_9\n      jumpi\n        /* \"12-Global Variables/vardemo.sol\":907:908  0 */\n      0x00\n        /* \"12-Global Variables/vardemo.sol\":869:908  block.number > 0 ? block.number - 1 : 0 */\n      jump(tag_11)\n    tag_9:\n        /* \"12-Global Variables/vardemo.sol\":888:904  block.number - 1 */\n      tag_11\n        /* \"12-Global Variables/vardemo.sol\":903:904  1 */\n      0x01\n        /* \"12-Global Variables/vardemo.sol\":888:900  block.number */\n      number\n        /* \"12-Global Variables/vardemo.sol\":888:904  block.number - 1 */\n      tag_12\n      jump\t// in\n    tag_11:\n        /* \"12-Global Variables/vardemo.sol\":939:961  blockhash(blockNumber) */\n      blockhash\n      swap5\n        /* \"12-Global Variables/vardemo.sol\":975:989  block.coinbase */\n      coinbase\n      swap5\n      pop\n        /* \"12-Global Variables/vardemo.sol\":1003:1019  block.prevrandao */\n      prevrandao\n      swap4\n      pop\n        /* \"12-Global Variables/vardemo.sol\":692:1041  function getMoreBlockInfo() public view returns(... */\n      swap2\n      pop\n      pop\n      jump\t// out\n        /* \"#utility.yul\":364:589   */\n    tag_12:\n        /* \"#utility.yul\":431:440   */\n      dup2\n      dup2\n      sub\n        /* \"#utility.yul\":452:463   */\n      dup2\n      dup2\n      gt\n        /* \"#utility.yul\":449:583   */\n      iszero\n      tag_16\n      jumpi\n        /* \"#utility.yul\":505:515   */\n      0x4e487b71\n        /* \"#utility.yul\":500:503   */\n      0xe0\n        /* \"#utility.yul\":496:516   */\n      shl\n        /* \"#utility.yul\":493:494   */\n      0x00\n        /* \"#utility.yul\":486:517   */\n      mstore\n        /* \"#utility.yul\":540:544   */\n      0x11\n        /* \"#utility.yul\":537:538   */\n      0x04\n        /* \"#utility.yul\":530:545   */\n      mstore\n        /* \"#utility.yul\":568:572   */\n      0x24\n        /* \"#utility.yul\":565:566   */\n      0x00\n        /* \"#utility.yul\":558:573   */\n      revert\n        /* \"#utility.yul\":449:583   */\n    tag_16:\n        /* \"#utility.yul\":364:589   */\n      swap3\n      swap2\n      pop\n      pop\n      jump\t// out\n\n    auxdata: 0xa2646970667358221220b9c063c27a6c03640310f8e2d8ed417d8f0a659a2932c32ea9f255fd6d05f78864736f6c634300081e0033\n}\n",
				"bytecode": {
					"linkReferences": {},
					"object": "6080604052348015600e575f5ffd5b5060d680601a5f395ff3fe6080604052348015600e575f5ffd5b50600436106026575f3560e01c80639207f67e14602a575b5f5ffd5b60306057565b604080519384526001600160a01b0390921660208401529082015260600160405180910390f35b5f5f5f5f5f43116066575f606f565b606f600143607c565b4094419450449350915050565b81810381811115609a57634e487b7160e01b5f52601160045260245ffd5b9291505056fea2646970667358221220b9c063c27a6c03640310f8e2d8ed417d8f0a659a2932c32ea9f255fd6d05f78864736f6c634300081e0033",
					"opcodes": "PUSH1 0x80 PUSH1 0x40 MSTORE CALLVALUE DUP1 ISZERO PUSH1 0xE JUMPI PUSH0 PUSH0 REVERT JUMPDEST POP PUSH1 0xD6 DUP1 PUSH1 0x1A PUSH0 CODECOPY PUSH0 RETURN INVALID PUSH1 0x80 PUSH1 0x40 MSTORE CALLVALUE DUP1 ISZERO PUSH1 0xE JUMPI PUSH0 PUSH0 REVERT JUMPDEST POP PUSH1 0x4 CALLDATASIZE LT PUSH1 0x26 JUMPI PUSH0 CALLDATALOAD PUSH1 0xE0 SHR DUP1 PUSH4 0x9207F67E EQ PUSH1 0x2A JUMPI JUMPDEST PUSH0 PUSH0 REVERT JUMPDEST PUSH1 0x30 PUSH1 0x57 JUMP JUMPDEST PUSH1 0x40 DUP1 MLOAD SWAP4 DUP5 MSTORE PUSH1 0x1 PUSH1 0x1 PUSH1 0xA0 SHL SUB SWAP1 SWAP3 AND PUSH1 0x20 DUP5 ADD MSTORE SWAP1 DUP3 ADD MSTORE PUSH1 0x60 ADD PUSH1 0x40 MLOAD DUP1 SWAP2 SUB SWAP1 RETURN JUMPDEST PUSH0 PUSH0 PUSH0 PUSH0 PUSH0 NUMBER GT PUSH1 0x66 JUMPI PUSH0 PUSH1 0x6F JUMP JUMPDEST PUSH1 0x6F PUSH1 0x1 NUMBER PUSH1 0x7C JUMP JUMPDEST BLOCKHASH SWAP5 COINBASE SWAP5 POP PREVRANDAO SWAP4 POP SWAP2 POP POP JUMP JUMPDEST DUP2 DUP2 SUB DUP2 DUP2 GT ISZERO PUSH1 0x9A JUMPI PUSH4 0x4E487B71 PUSH1 0xE0 SHL PUSH0 MSTORE PUSH1 0x11 PUSH1 0x4 MSTORE PUSH1 0x24 PUSH0 REVERT JUMPDEST SWAP3 SWAP2 POP POP JUMP INVALID LOG2 PUSH5 0x6970667358 0x22 SLT KECCAK256 0xB9 0xC0 PUSH4 0xC27A6C03 PUSH5 0x310F8E2D8 0xED COINBASE PUSH30 0x8F0A659A2932C32EA9F255FD6D05F78864736F6C634300081E0033000000 "
				},
				"gasEstimates": {
					"creation": {
						"codeDepositCost": "42800",
						"executionCost": "91",
						"totalCost": "42891"
					},
					"external": {
						"getMoreBlockInfo()": "370"
					}
				},
				"methodIdentifiers": {
					"getMoreBlockInfo()": "9207f67e"
				}
			},
			"storageLayout": {
				"storage": [],
				"types": null
			},
			"userdoc": {
				"kind": "user",
				"methods": {
					"getMoreBlockInfo()": {
						"notice": "Shows updated global block variables after Paris upgrade"
					}
				},
				"notice": "Updated for Ethereum's transition to Proof-of-Stake (Paris Upgrade)",
				"version": 1
			}
		}
	}
}