{
	"3-Local Variables/local.sol": {
		"Local": {
			"abi": [
				{
					"inputs": [],
					"name": "myName",
					"outputs": [
						{
							"internalType": "string",
							"name": "",
							"type": "string"
						}
					],
					"stateMutability": "view",
					"type": "function"
				},
				{
					"inputs": [],
					"name": "store",
					"outputs": [
						{
							"internalType": "uint256",
							"name": "",
							"type": "uint256"
						}
					],
					"stateMutability": "pure",
					"type": "function"
				},
				{
					"inputs": [
						{
							"internalType": "string",
							"name": "_newName",
							"type": "string"
						}
					],
					"name": "updateName",
					"outputs": [],
					"stateMutability": "nonpayable",
					"type": "function"
				}
			],
			"devdoc": {
				"kind": "dev",
				"methods": {},
				"version": 1
			},
			"evm": {
				"assembly": "    /* \"3-Local Variables/local.sol\":152:1274  contract Local {... */\n  mstore(0x40, 0x80)\n  callvalue\n  dup1\n  iszero\n  tag_1\n  jumpi\n  revert(0x00, 0x00)\ntag_1:\n  pop\n  dataSize(sub_0)\n  dup1\n  dataOffset(sub_0)\n  0x00\n  codecopy\n  0x00\n  return\nstop\n\nsub_0: assembly {\n        /* \"3-Local Variables/local.sol\":152:1274  contract Local {... */\n      mstore(0x40, 0x80)\n      callvalue\n      dup1\n      iszero\n      tag_1\n      jumpi\n      revert(0x00, 0x00)\n    tag_1:\n      pop\n      jumpi(tag_2, lt(calldatasize, 0x04))\n      shr(0xe0, calldataload(0x00))\n      dup1\n      0x84da92a7\n      eq\n      tag_3\n      jumpi\n      dup1\n      0x975057e7\n      eq\n      tag_4\n      jumpi\n      dup1\n      0xfae2dd4b\n      eq\n      tag_5\n      jumpi\n    tag_2:\n      revert(0x00, 0x00)\n        /* \"3-Local Variables/local.sol\":1120:1272  function updateName(string memory _newName) public {... */\n    tag_3:\n      tag_6\n      tag_7\n      calldatasize\n      0x04\n      tag_8\n      jump\t// in\n    tag_7:\n      tag_9\n      jump\t// in\n    tag_6:\n      stop\n        /* \"3-Local Variables/local.sol\":433:1052  function store() pure public returns (uint) {... */\n    tag_4:\n        /* \"3-Local Variables/local.sol\":898:927  string memory name = \"Khushi\" */\n      0x40\n      dup1\n      mload\n      dup1\n      dup3\n      add\n      dup3\n      mstore\n      0x06\n      dup2\n      mstore\n      shl(0xd0, 0x4b6875736869)\n      0x20\n      swap2\n      dup3\n      add\n      mstore\n        /* \"3-Local Variables/local.sol\":433:1052  function store() pure public returns (uint) {... */\n      swap1\n      mload\n        /* \"3-Local Variables/local.sol\":680:682  40 */\n      0x28\n        /* \"#utility.yul\":1242:1267   */\n      dup2\n      mstore\n        /* \"#utility.yul\":1215:1233   */\n      add\n        /* \"3-Local Variables/local.sol\":433:1052  function store() pure public returns (uint) {... */\n    tag_12:\n      mload(0x40)\n      dup1\n      swap2\n      sub\n      swap1\n      return\n        /* \"3-Local Variables/local.sol\":247:267  string public myName */\n    tag_5:\n      tag_14\n      tag_15\n      jump\t// in\n    tag_14:\n      mload(0x40)\n      tag_12\n      swap2\n      swap1\n      tag_17\n      jump\t// in\n        /* \"3-Local Variables/local.sol\":1120:1272  function updateName(string memory _newName) public {... */\n    tag_9:\n        /* \"3-Local Variables/local.sol\":1248:1254  myName */\n      0x00\n        /* \"3-Local Variables/local.sol\":1248:1265  myName = _newName */\n      tag_19\n        /* \"3-Local Variables/local.sol\":1257:1265  _newName */\n      dup3\n        /* \"3-Local Variables/local.sol\":1248:1254  myName */\n      dup3\n        /* \"3-Local Variables/local.sol\":1248:1265  myName = _newName */\n      tag_20\n      jump\t// in\n    tag_19:\n      pop\n        /* \"3-Local Variables/local.sol\":1120:1272  function updateName(string memory _newName) public {... */\n      pop\n      jump\t// out\n        /* \"3-Local Variables/local.sol\":247:267  string public myName */\n    tag_15:\n      0x00\n      dup1\n      sload\n      tag_22\n      swap1\n      tag_23\n      jump\t// in\n    tag_22:\n      dup1\n      0x1f\n      add\n      0x20\n      dup1\n      swap2\n      div\n      mul\n      0x20\n      add\n      mload(0x40)\n      swap1\n      dup2\n      add\n      0x40\n      mstore\n      dup1\n      swap3\n      swap2\n      swap1\n      dup2\n      dup2\n      mstore\n      0x20\n      add\n      dup3\n      dup1\n      sload\n      tag_24\n      swap1\n      tag_23\n      jump\t// in\n    tag_24:\n      dup1\n      iszero\n      tag_25\n      jumpi\n      dup1\n      0x1f\n      lt\n      tag_26\n      jumpi\n      0x0100\n      dup1\n      dup4\n      sload\n      div\n      mul\n      dup4\n      mstore\n      swap2\n      0x20\n      add\n      swap2\n      jump(tag_25)\n    tag_26:\n      dup3\n      add\n      swap2\n      swap1\n      0x00\n      mstore\n      keccak256(0x00, 0x20)\n      swap1\n    tag_27:\n      dup2\n      sload\n      dup2\n      mstore\n      swap1\n      0x01\n      add\n      swap1\n      0x20\n      add\n      dup1\n      dup4\n      gt\n      tag_27\n      jumpi\n      dup3\n      swap1\n      sub\n      0x1f\n      and\n      dup3\n      add\n      swap2\n    tag_25:\n      pop\n      pop\n      pop\n      pop\n      pop\n      dup2\n      jump\t// out\n        /* \"#utility.yul\":14:141   */\n    tag_28:\n        /* \"#utility.yul\":75:85   */\n      0x4e487b71\n        /* \"#utility.yul\":70:73   */\n      0xe0\n        /* \"#utility.yul\":66:86   */\n      shl\n        /* \"#utility.yul\":63:64   */\n      0x00\n        /* \"#utility.yul\":56:87   */\n      mstore\n        /* \"#utility.yul\":106:110   */\n      0x41\n        /* \"#utility.yul\":103:104   */\n      0x04\n        /* \"#utility.yul\":96:111   */\n      mstore\n        /* \"#utility.yul\":130:134   */\n      0x24\n        /* \"#utility.yul\":127:128   */\n      0x00\n        /* \"#utility.yul\":120:135   */\n      revert\n        /* \"#utility.yul\":146:1091   */\n    tag_8:\n        /* \"#utility.yul\":215:221   */\n      0x00\n        /* \"#utility.yul\":268:270   */\n      0x20\n        /* \"#utility.yul\":256:265   */\n      dup3\n        /* \"#utility.yul\":247:254   */\n      dup5\n        /* \"#utility.yul\":243:266   */\n      sub\n        /* \"#utility.yul\":239:271   */\n      slt\n        /* \"#utility.yul\":236:288   */\n      iszero\n      tag_35\n      jumpi\n        /* \"#utility.yul\":284:285   */\n      0x00\n        /* \"#utility.yul\":281:282   */\n      0x00\n        /* \"#utility.yul\":274:286   */\n      revert\n        /* \"#utility.yul\":236:288   */\n    tag_35:\n        /* \"#utility.yul\":324:333   */\n      dup2\n        /* \"#utility.yul\":311:334   */\n      calldataload\n        /* \"#utility.yul\":357:375   */\n      0xffffffffffffffff\n        /* \"#utility.yul\":349:355   */\n      dup2\n        /* \"#utility.yul\":346:376   */\n      gt\n        /* \"#utility.yul\":343:393   */\n      iszero\n      tag_36\n      jumpi\n        /* \"#utility.yul\":389:390   */\n      0x00\n        /* \"#utility.yul\":386:387   */\n      0x00\n        /* \"#utility.yul\":379:391   */\n      revert\n        /* \"#utility.yul\":343:393   */\n    tag_36:\n        /* \"#utility.yul\":412:434   */\n      dup3\n      add\n        /* \"#utility.yul\":465:469   */\n      0x1f\n        /* \"#utility.yul\":457:470   */\n      dup2\n      add\n        /* \"#utility.yul\":453:480   */\n      dup5\n      sgt\n        /* \"#utility.yul\":443:498   */\n      tag_37\n      jumpi\n        /* \"#utility.yul\":494:495   */\n      0x00\n        /* \"#utility.yul\":491:492   */\n      0x00\n        /* \"#utility.yul\":484:496   */\n      revert\n        /* \"#utility.yul\":443:498   */\n    tag_37:\n        /* \"#utility.yul\":534:536   */\n      dup1\n        /* \"#utility.yul\":521:537   */\n      calldataload\n        /* \"#utility.yul\":560:578   */\n      0xffffffffffffffff\n        /* \"#utility.yul\":552:558   */\n      dup2\n        /* \"#utility.yul\":549:579   */\n      gt\n        /* \"#utility.yul\":546:602   */\n      iszero\n      tag_39\n      jumpi\n        /* \"#utility.yul\":582:600   */\n      tag_39\n      tag_28\n      jump\t// in\n    tag_39:\n        /* \"#utility.yul\":631:633   */\n      0x40\n        /* \"#utility.yul\":625:634   */\n      mload\n        /* \"#utility.yul\":723:725   */\n      0x1f\n        /* \"#utility.yul\":685:702   */\n      dup3\n      add\n      not(0x1f)\n        /* \"#utility.yul\":681:712   */\n      swap1\n      dup2\n      and\n        /* \"#utility.yul\":714:716   */\n      0x3f\n        /* \"#utility.yul\":677:717   */\n      add\n        /* \"#utility.yul\":673:727   */\n      and\n        /* \"#utility.yul\":661:728   */\n      dup2\n      add\n        /* \"#utility.yul\":758:776   */\n      0xffffffffffffffff\n        /* \"#utility.yul\":743:777   */\n      dup2\n      gt\n        /* \"#utility.yul\":779:801   */\n      dup3\n      dup3\n      lt\n        /* \"#utility.yul\":740:802   */\n      or\n        /* \"#utility.yul\":737:825   */\n      iszero\n      tag_41\n      jumpi\n        /* \"#utility.yul\":805:823   */\n      tag_41\n      tag_28\n      jump\t// in\n    tag_41:\n        /* \"#utility.yul\":841:843   */\n      0x40\n        /* \"#utility.yul\":834:856   */\n      mstore\n        /* \"#utility.yul\":865:887   */\n      dup2\n      dup2\n      mstore\n        /* \"#utility.yul\":906:921   */\n      dup3\n      dup3\n      add\n        /* \"#utility.yul\":923:925   */\n      0x20\n        /* \"#utility.yul\":902:926   */\n      add\n        /* \"#utility.yul\":899:936   */\n      dup7\n      lt\n        /* \"#utility.yul\":896:953   */\n      iszero\n      tag_42\n      jumpi\n        /* \"#utility.yul\":949:950   */\n      0x00\n        /* \"#utility.yul\":946:947   */\n      0x00\n        /* \"#utility.yul\":939:951   */\n      revert\n        /* \"#utility.yul\":896:953   */\n    tag_42:\n        /* \"#utility.yul\":1005:1011   */\n      dup2\n        /* \"#utility.yul\":1000:1002   */\n      0x20\n        /* \"#utility.yul\":996:998   */\n      dup5\n        /* \"#utility.yul\":992:1003   */\n      add\n        /* \"#utility.yul\":987:989   */\n      0x20\n        /* \"#utility.yul\":979:985   */\n      dup4\n        /* \"#utility.yul\":975:990   */\n      add\n        /* \"#utility.yul\":962:1012   */\n      calldatacopy\n        /* \"#utility.yul\":1058:1059   */\n      0x00\n        /* \"#utility.yul\":1032:1051   */\n      swap2\n      dup2\n      add\n        /* \"#utility.yul\":1053:1055   */\n      0x20\n        /* \"#utility.yul\":1028:1056   */\n      add\n        /* \"#utility.yul\":1021:1060   */\n      swap2\n      swap1\n      swap2\n      mstore\n        /* \"#utility.yul\":1036:1042   */\n      swap5\n        /* \"#utility.yul\":146:1091   */\n      swap4\n      pop\n      pop\n      pop\n      pop\n      jump\t// out\n        /* \"#utility.yul\":1278:1696   */\n    tag_17:\n        /* \"#utility.yul\":1427:1429   */\n      0x20\n        /* \"#utility.yul\":1416:1425   */\n      dup2\n        /* \"#utility.yul\":1409:1430   */\n      mstore\n        /* \"#utility.yul\":1390:1394   */\n      0x00\n        /* \"#utility.yul\":1459:1465   */\n      dup3\n        /* \"#utility.yul\":1453:1466   */\n      mload\n        /* \"#utility.yul\":1502:1508   */\n      dup1\n        /* \"#utility.yul\":1497:1499   */\n      0x20\n        /* \"#utility.yul\":1486:1495   */\n      dup5\n        /* \"#utility.yul\":1482:1500   */\n      add\n        /* \"#utility.yul\":1475:1509   */\n      mstore\n        /* \"#utility.yul\":1561:1567   */\n      dup1\n        /* \"#utility.yul\":1556:1558   */\n      0x20\n        /* \"#utility.yul\":1548:1554   */\n      dup6\n        /* \"#utility.yul\":1544:1559   */\n      add\n        /* \"#utility.yul\":1539:1541   */\n      0x40\n        /* \"#utility.yul\":1528:1537   */\n      dup6\n        /* \"#utility.yul\":1524:1542   */\n      add\n        /* \"#utility.yul\":1518:1568   */\n      mcopy\n        /* \"#utility.yul\":1617:1618   */\n      0x00\n        /* \"#utility.yul\":1612:1614   */\n      0x40\n        /* \"#utility.yul\":1603:1609   */\n      dup3\n        /* \"#utility.yul\":1592:1601   */\n      dup6\n        /* \"#utility.yul\":1588:1610   */\n      add\n        /* \"#utility.yul\":1584:1615   */\n      add\n        /* \"#utility.yul\":1577:1619   */\n      mstore\n        /* \"#utility.yul\":1687:1689   */\n      0x40\n        /* \"#utility.yul\":1680:1682   */\n      0x1f\n        /* \"#utility.yul\":1676:1683   */\n      not\n        /* \"#utility.yul\":1671:1673   */\n      0x1f\n        /* \"#utility.yul\":1663:1669   */\n      dup4\n        /* \"#utility.yul\":1659:1674   */\n      add\n        /* \"#utility.yul\":1655:1684   */\n      and\n        /* \"#utility.yul\":1644:1653   */\n      dup5\n        /* \"#utility.yul\":1640:1685   */\n      add\n        /* \"#utility.yul\":1636:1690   */\n      add\n        /* \"#utility.yul\":1628:1690   */\n      swap2\n      pop\n      pop\n        /* \"#utility.yul\":1278:1696   */\n      swap3\n      swap2\n      pop\n      pop\n      jump\t// out\n        /* \"#utility.yul\":1701:2081   */\n    tag_23:\n        /* \"#utility.yul\":1780:1781   */\n      0x01\n        /* \"#utility.yul\":1776:1788   */\n      dup2\n      dup2\n      shr\n      swap1\n        /* \"#utility.yul\":1823:1835   */\n      dup3\n      and\n      dup1\n        /* \"#utility.yul\":1844:1905   */\n      tag_46\n      jumpi\n        /* \"#utility.yul\":1898:1902   */\n      0x7f\n        /* \"#utility.yul\":1890:1896   */\n      dup3\n        /* \"#utility.yul\":1886:1903   */\n      and\n        /* \"#utility.yul\":1876:1903   */\n      swap2\n      pop\n        /* \"#utility.yul\":1844:1905   */\n    tag_46:\n        /* \"#utility.yul\":1951:1953   */\n      0x20\n        /* \"#utility.yul\":1943:1949   */\n      dup3\n        /* \"#utility.yul\":1940:1954   */\n      lt\n        /* \"#utility.yul\":1920:1938   */\n      dup2\n        /* \"#utility.yul\":1917:1955   */\n      sub\n        /* \"#utility.yul\":1914:2075   */\n      tag_47\n      jumpi\n        /* \"#utility.yul\":1997:2007   */\n      0x4e487b71\n        /* \"#utility.yul\":1992:1995   */\n      0xe0\n        /* \"#utility.yul\":1988:2008   */\n      shl\n        /* \"#utility.yul\":1985:1986   */\n      0x00\n        /* \"#utility.yul\":1978:2009   */\n      mstore\n        /* \"#utility.yul\":2032:2036   */\n      0x22\n        /* \"#utility.yul\":2029:2030   */\n      0x04\n        /* \"#utility.yul\":2022:2037   */\n      mstore\n        /* \"#utility.yul\":2060:2064   */\n      0x24\n        /* \"#utility.yul\":2057:2058   */\n      0x00\n        /* \"#utility.yul\":2050:2065   */\n      revert\n        /* \"#utility.yul\":1914:2075   */\n    tag_47:\n      pop\n        /* \"#utility.yul\":1701:2081   */\n      swap2\n      swap1\n      pop\n      jump\t// out\n        /* \"#utility.yul\":2212:2730   */\n    tag_30:\n        /* \"#utility.yul\":2314:2316   */\n      0x1f\n        /* \"#utility.yul\":2309:2312   */\n      dup3\n        /* \"#utility.yul\":2306:2317   */\n      gt\n        /* \"#utility.yul\":2303:2724   */\n      iszero\n      tag_50\n      jumpi\n        /* \"#utility.yul\":2350:2355   */\n      dup1\n        /* \"#utility.yul\":2347:2348   */\n      0x00\n        /* \"#utility.yul\":2340:2356   */\n      mstore\n        /* \"#utility.yul\":2394:2398   */\n      0x20\n        /* \"#utility.yul\":2391:2392   */\n      0x00\n        /* \"#utility.yul\":2381:2399   */\n      keccak256\n        /* \"#utility.yul\":2464:2466   */\n      0x1f\n        /* \"#utility.yul\":2452:2462   */\n      dup5\n        /* \"#utility.yul\":2448:2467   */\n      add\n        /* \"#utility.yul\":2445:2446   */\n      0x05\n        /* \"#utility.yul\":2441:2468   */\n      shr\n        /* \"#utility.yul\":2435:2439   */\n      dup2\n        /* \"#utility.yul\":2431:2469   */\n      add\n        /* \"#utility.yul\":2500:2504   */\n      0x20\n        /* \"#utility.yul\":2488:2498   */\n      dup6\n        /* \"#utility.yul\":2485:2505   */\n      lt\n        /* \"#utility.yul\":2482:2529   */\n      iszero\n      tag_51\n      jumpi\n      pop\n        /* \"#utility.yul\":2523:2527   */\n      dup1\n        /* \"#utility.yul\":2482:2529   */\n    tag_51:\n        /* \"#utility.yul\":2578:2580   */\n      0x1f\n        /* \"#utility.yul\":2573:2576   */\n      dup5\n        /* \"#utility.yul\":2569:2581   */\n      add\n        /* \"#utility.yul\":2566:2567   */\n      0x05\n        /* \"#utility.yul\":2562:2582   */\n      shr\n        /* \"#utility.yul\":2556:2560   */\n      dup3\n        /* \"#utility.yul\":2552:2583   */\n      add\n        /* \"#utility.yul\":2542:2583   */\n      swap2\n      pop\n        /* \"#utility.yul\":2633:2714   */\n    tag_52:\n        /* \"#utility.yul\":2651:2653   */\n      dup2\n        /* \"#utility.yul\":2644:2649   */\n      dup2\n        /* \"#utility.yul\":2641:2654   */\n      lt\n        /* \"#utility.yul\":2633:2714   */\n      iszero\n      tag_54\n      jumpi\n        /* \"#utility.yul\":2710:2711   */\n      0x00\n        /* \"#utility.yul\":2696:2712   */\n      dup2\n      sstore\n        /* \"#utility.yul\":2677:2678   */\n      0x01\n        /* \"#utility.yul\":2666:2679   */\n      add\n        /* \"#utility.yul\":2633:2714   */\n      jump(tag_52)\n    tag_54:\n        /* \"#utility.yul\":2637:2640   */\n      pop\n      pop\n        /* \"#utility.yul\":2303:2724   */\n    tag_50:\n        /* \"#utility.yul\":2212:2730   */\n      pop\n      pop\n      pop\n      jump\t// out\n        /* \"#utility.yul\":2906:4205   */\n    tag_20:\n        /* \"#utility.yul\":3032:3035   */\n      dup2\n        /* \"#utility.yul\":3026:3036   */\n      mload\n        /* \"#utility.yul\":3059:3077   */\n      0xffffffffffffffff\n        /* \"#utility.yul\":3051:3057   */\n      dup2\n        /* \"#utility.yul\":3048:3078   */\n      gt\n        /* \"#utility.yul\":3045:3101   */\n      iszero\n      tag_58\n      jumpi\n        /* \"#utility.yul\":3081:3099   */\n      tag_58\n      tag_28\n      jump\t// in\n    tag_58:\n        /* \"#utility.yul\":3110:3207   */\n      tag_59\n        /* \"#utility.yul\":3200:3206   */\n      dup2\n        /* \"#utility.yul\":3160:3198   */\n      tag_60\n        /* \"#utility.yul\":3192:3196   */\n      dup5\n        /* \"#utility.yul\":3186:3197   */\n      sload\n        /* \"#utility.yul\":3160:3198   */\n      tag_23\n      jump\t// in\n    tag_60:\n        /* \"#utility.yul\":3154:3158   */\n      dup5\n        /* \"#utility.yul\":3110:3207   */\n      tag_30\n      jump\t// in\n    tag_59:\n        /* \"#utility.yul\":3256:3260   */\n      0x20\n        /* \"#utility.yul\":3287:3289   */\n      0x1f\n        /* \"#utility.yul\":3276:3290   */\n      dup3\n      gt\n        /* \"#utility.yul\":3304:3305   */\n      0x01\n        /* \"#utility.yul\":3299:3948   */\n      dup2\n      eq\n      tag_62\n      jumpi\n        /* \"#utility.yul\":3992:3993   */\n      0x00\n        /* \"#utility.yul\":4009:4015   */\n      dup4\n        /* \"#utility.yul\":4006:4095   */\n      iszero\n      tag_63\n      jumpi\n      pop\n        /* \"#utility.yul\":4061:4080   */\n      dup5\n      dup3\n      add\n        /* \"#utility.yul\":4055:4081   */\n      mload\n        /* \"#utility.yul\":4006:4095   */\n    tag_63:\n      not(0x00)\n        /* \"#utility.yul\":2863:2864   */\n      0x03\n        /* \"#utility.yul\":2859:2870   */\n      dup6\n      swap1\n      shl\n        /* \"#utility.yul\":2855:2879   */\n      shr\n        /* \"#utility.yul\":2851:2880   */\n      not\n        /* \"#utility.yul\":2841:2881   */\n      and\n        /* \"#utility.yul\":2887:2888   */\n      0x01\n        /* \"#utility.yul\":2883:2894   */\n      dup5\n      swap1\n      shl\n        /* \"#utility.yul\":2838:2895   */\n      or\n        /* \"#utility.yul\":4108:4189   */\n      dup5\n      sstore\n        /* \"#utility.yul\":3269:4199   */\n      jump(tag_54)\n        /* \"#utility.yul\":3299:3948   */\n    tag_62:\n        /* \"#utility.yul\":2159:2160   */\n      0x00\n        /* \"#utility.yul\":2152:2166   */\n      dup5\n      dup2\n      mstore\n        /* \"#utility.yul\":2196:2200   */\n      0x20\n        /* \"#utility.yul\":2183:2201   */\n      dup2\n      keccak256\n      not(0x1f)\n        /* \"#utility.yul\":3335:3355   */\n      dup6\n      and\n      swap2\n        /* \"#utility.yul\":3453:3675   */\n    tag_66:\n        /* \"#utility.yul\":3467:3474   */\n      dup3\n        /* \"#utility.yul\":3464:3465   */\n      dup2\n        /* \"#utility.yul\":3461:3475   */\n      lt\n        /* \"#utility.yul\":3453:3675   */\n      iszero\n      tag_68\n      jumpi\n        /* \"#utility.yul\":3549:3568   */\n      dup8\n      dup6\n      add\n        /* \"#utility.yul\":3543:3569   */\n      mload\n        /* \"#utility.yul\":3528:3570   */\n      dup3\n      sstore\n        /* \"#utility.yul\":3656:3660   */\n      0x20\n        /* \"#utility.yul\":3641:3661   */\n      swap5\n      dup6\n      add\n      swap5\n        /* \"#utility.yul\":3609:3610   */\n      0x01\n        /* \"#utility.yul\":3597:3611   */\n      swap1\n      swap3\n      add\n      swap2\n        /* \"#utility.yul\":3483:3495   */\n      add\n        /* \"#utility.yul\":3453:3675   */\n      jump(tag_66)\n    tag_68:\n        /* \"#utility.yul\":3457:3460   */\n      pop\n        /* \"#utility.yul\":3703:3709   */\n      dup5\n        /* \"#utility.yul\":3694:3701   */\n      dup3\n        /* \"#utility.yul\":3691:3710   */\n      lt\n        /* \"#utility.yul\":3688:3889   */\n      iszero\n      tag_69\n      jumpi\n        /* \"#utility.yul\":3764:3783   */\n      dup7\n      dup5\n      add\n        /* \"#utility.yul\":3758:3784   */\n      mload\n      not(0x00)\n        /* \"#utility.yul\":3847:3848   */\n      0x03\n        /* \"#utility.yul\":3843:3857   */\n      dup8\n      swap1\n      shl\n        /* \"#utility.yul\":3859:3862   */\n      0xf8\n        /* \"#utility.yul\":3839:3863   */\n      and\n        /* \"#utility.yul\":3835:3872   */\n      shr\n        /* \"#utility.yul\":3831:3873   */\n      not\n        /* \"#utility.yul\":3816:3874   */\n      and\n        /* \"#utility.yul\":3801:3875   */\n      dup2\n      sstore\n        /* \"#utility.yul\":3688:3889   */\n    tag_69:\n      pop\n      pop\n      pop\n      pop\n        /* \"#utility.yul\":3935:3936   */\n      0x01\n        /* \"#utility.yul\":3919:3933   */\n      swap1\n      dup2\n      shl\n        /* \"#utility.yul\":3915:3937   */\n      add\n        /* \"#utility.yul\":3902:3938   */\n      swap1\n      sstore\n      pop\n        /* \"#utility.yul\":2906:4205   */\n      jump\t// out\n\n    auxdata: 0xa2646970667358221220488d7cc163d7b9cad88a62aa6231f21ad3117d7c3919ba3da4473cbccd205a8264736f6c634300081e0033\n}\n",
				"bytecode": {
					"linkReferences": {},
					"object": "6080604052348015600e575f5ffd5b506103a68061001c5f395ff3fe608060405234801561000f575f5ffd5b506004361061003f575f3560e01c806384da92a714610043578063975057e714610058578063fae2dd4b14610086575b5f5ffd5b610056610051366004610149565b61009b565b005b60408051808201825260068152654b687573686960d01b602091820152905160288152015b60405180910390f35b61008e6100aa565b60405161007d91906101fc565b5f6100a682826102b5565b5050565b5f80546100b690610231565b80601f01602080910402602001604051908101604052809291908181526020018280546100e290610231565b801561012d5780601f106101045761010080835404028352916020019161012d565b820191905f5260205f20905b81548152906001019060200180831161011057829003601f168201915b505050505081565b634e487b7160e01b5f52604160045260245ffd5b5f60208284031215610159575f5ffd5b813567ffffffffffffffff81111561016f575f5ffd5b8201601f8101841361017f575f5ffd5b803567ffffffffffffffff81111561019957610199610135565b604051601f8201601f19908116603f0116810167ffffffffffffffff811182821017156101c8576101c8610135565b6040528181528282016020018610156101df575f5ffd5b816020840160208301375f91810160200191909152949350505050565b602081525f82518060208401528060208501604085015e5f604082850101526040601f19601f83011684010191505092915050565b600181811c9082168061024557607f821691505b60208210810361026357634e487b7160e01b5f52602260045260245ffd5b50919050565b601f8211156102b057805f5260205f20601f840160051c8101602085101561028e5750805b601f840160051c820191505b818110156102ad575f815560010161029a565b50505b505050565b815167ffffffffffffffff8111156102cf576102cf610135565b6102e3816102dd8454610231565b84610269565b6020601f821160018114610315575f83156102fe5750848201515b5f19600385901b1c1916600184901b1784556102ad565b5f84815260208120601f198516915b828110156103445787850151825560209485019460019092019101610324565b508482101561036157868401515f19600387901b60f8161c191681555b50505050600190811b0190555056fea2646970667358221220488d7cc163d7b9cad88a62aa6231f21ad3117d7c3919ba3da4473cbccd205a8264736f6c634300081e0033",
					"opcodes": "PUSH1 0x80 PUSH1 0x40 MSTORE CALLVALUE DUP1 ISZERO PUSH1 0xE JUMPI PUSH0 PUSH0 REVERT JUMPDEST POP PUSH2 0x3A6 DUP1 PUSH2 0x1C PUSH0 CODECOPY PUSH0 RETURN INVALID PUSH1 0x80 PUSH1 0x40 MSTORE CALLVALUE DUP1 ISZERO PUSH2 0xF JUMPI PUSH0 PUSH0 REVERT JUMPDEST POP PUSH1 0x4 CALLDATASIZE LT PUSH2 0x3F JUMPI PUSH0 CALLDATALOAD PUSH1 0xE0 SHR DUP1 PUSH4 0x84DA92A7 EQ PUSH2 0x43 JUMPI DUP1 PUSH4 0x975057E7 EQ PUSH2 0x58 JUMPI DUP1 PUSH4 0xFAE2DD4B EQ PUSH2 0x86 JUMPI JUMPDEST PUSH0 PUSH0 REVERT JUMPDEST PUSH2 0x56 PUSH2 0x51 CALLDATASIZE PUSH1 0x4 PUSH2 0x149 JUMP JUMPDEST PUSH2 0x9B JUMP JUMPDEST STOP JUMPDEST PUSH1 0x40 DUP1 MLOAD DUP1 DUP3 ADD DUP3 MSTORE PUSH1 0x6 DUP2 MSTORE PUSH6 0x4B6875736869 PUSH1 0xD0 SHL PUSH1 0x20 SWAP2 DUP3 ADD MSTORE SWAP1 MLOAD PUSH1 0x28 DUP2 MSTORE ADD JUMPDEST PUSH1 0x40 MLOAD DUP1 SWAP2 SUB SWAP1 RETURN JUMPDEST PUSH2 0x8E PUSH2 0xAA JUMP JUMPDEST PUSH1 0x40 MLOAD PUSH2 0x7D SWAP2 SWAP1 PUSH2 0x1FC JUMP JUMPDEST PUSH0 PUSH2 0xA6 DUP3 DUP3 PUSH2 0x2B5 JUMP JUMPDEST POP POP JUMP JUMPDEST PUSH0 DUP1 SLOAD PUSH2 0xB6 SWAP1 PUSH2 0x231 JUMP JUMPDEST DUP1 PUSH1 0x1F ADD PUSH1 0x20 DUP1 SWAP2 DIV MUL PUSH1 0x20 ADD PUSH1 0x40 MLOAD SWAP1 DUP2 ADD PUSH1 0x40 MSTORE DUP1 SWAP3 SWAP2 SWAP1 DUP2 DUP2 MSTORE PUSH1 0x20 ADD DUP3 DUP1 SLOAD PUSH2 0xE2 SWAP1 PUSH2 0x231 JUMP JUMPDEST DUP1 ISZERO PUSH2 0x12D JUMPI DUP1 PUSH1 0x1F LT PUSH2 0x104 JUMPI PUSH2 0x100 DUP1 DUP4 SLOAD DIV MUL DUP4 MSTORE SWAP2 PUSH1 0x20 ADD SWAP2 PUSH2 0x12D JUMP JUMPDEST DUP3 ADD SWAP2 SWAP1 PUSH0 MSTORE PUSH1 0x20 PUSH0 KECCAK256 SWAP1 JUMPDEST DUP2 SLOAD DUP2 MSTORE SWAP1 PUSH1 0x1 ADD SWAP1 PUSH1 0x20 ADD DUP1 DUP4 GT PUSH2 0x110 JUMPI DUP3 SWAP1 SUB PUSH1 0x1F AND DUP3 ADD SWAP2 JUMPDEST POP POP POP POP POP DUP2 JUMP JUMPDEST PUSH4 0x4E487B71 PUSH1 0xE0 SHL PUSH0 MSTORE PUSH1 0x41 PUSH1 0x4 MSTORE PUSH1 0x24 PUSH0 REVERT JUMPDEST PUSH0 PUSH1 0x20 DUP3 DUP5 SUB SLT ISZERO PUSH2 0x159 JUMPI PUSH0 PUSH0 REVERT JUMPDEST DUP2 CALLDATALOAD PUSH8 0xFFFFFFFFFFFFFFFF DUP2 GT ISZERO PUSH2 0x16F JUMPI PUSH0 PUSH0 REVERT JUMPDEST DUP3 ADD PUSH1 0x1F DUP2 ADD DUP5 SGT PUSH2 0x17F JUMPI PUSH0 PUSH0 REVERT JUMPDEST DUP1 CALLDATALOAD PUSH8 0xFFFFFFFFFFFFFFFF DUP2 GT ISZERO PUSH2 0x199 JUMPI PUSH2 0x199 PUSH2 0x135 JUMP JUMPDEST PUSH1 0x40 MLOAD PUSH1 0x1F DUP3 ADD PUSH1 0x1F NOT SWAP1 DUP2 AND PUSH1 0x3F ADD AND DUP2 ADD PUSH8 0xFFFFFFFFFFFFFFFF DUP2 GT DUP3 DUP3 LT OR ISZERO PUSH2 0x1C8 JUMPI PUSH2 0x1C8 PUSH2 0x135 JUMP JUMPDEST PUSH1 0x40 MSTORE DUP2 DUP2 MSTORE DUP3 DUP3 ADD PUSH1 0x20 ADD DUP7 LT ISZERO PUSH2 0x1DF JUMPI PUSH0 PUSH0 REVERT JUMPDEST DUP2 PUSH1 0x20 DUP5 ADD PUSH1 0x20 DUP4 ADD CALLDATACOPY PUSH0 SWAP2 DUP2 ADD PUSH1 0x20 ADD SWAP2 SWAP1 SWAP2 MSTORE SWAP5 SWAP4 POP POP POP POP JUMP JUMPDEST PUSH1 0x20 DUP2 MSTORE PUSH0 DUP3 MLOAD DUP1 PUSH1 0x20 DUP5 ADD MSTORE DUP1 PUSH1 0x20 DUP6 ADD PUSH1 0x40 DUP6 ADD MCOPY PUSH0 PUSH1 0x40 DUP3 DUP6 ADD ADD MSTORE PUSH1 0x40 PUSH1 0x1F NOT PUSH1 0x1F DUP4 ADD AND DUP5 ADD ADD SWAP2 POP POP SWAP3 SWAP2 POP POP JUMP JUMPDEST PUSH1 0x1 DUP2 DUP2 SHR SWAP1 DUP3 AND DUP1 PUSH2 0x245 JUMPI PUSH1 0x7F DUP3 AND SWAP2 POP JUMPDEST PUSH1 0x20 DUP3 LT DUP2 SUB PUSH2 0x263 JUMPI PUSH4 0x4E487B71 PUSH1 0xE0 SHL PUSH0 MSTORE PUSH1 0x22 PUSH1 0x4 MSTORE PUSH1 0x24 PUSH0 REVERT JUMPDEST POP SWAP2 SWAP1 POP JUMP JUMPDEST PUSH1 0x1F DUP3 GT ISZERO PUSH2 0x2B0 JUMPI DUP1 PUSH0 MSTORE PUSH1 0x20 PUSH0 KECCAK256 PUSH1 0x1F DUP5 ADD PUSH1 0x5 SHR DUP2 ADD PUSH1 0x20 DUP6 LT ISZERO PUSH2 0x28E JUMPI POP DUP1 JUMPDEST PUSH1 0x1F DUP5 ADD PUSH1 0x5 SHR DUP3 ADD SWAP2 POP JUMPDEST DUP2 DUP2 LT ISZERO PUSH2 0x2AD JUMPI PUSH0 DUP2 SSTORE PUSH1 0x1 ADD PUSH2 0x29A JUMP JUMPDEST POP POP JUMPDEST POP POP POP JUMP JUMPDEST DUP2 MLOAD PUSH8 0xFFFFFFFFFFFFFFFF DUP2 GT ISZERO PUSH2 0x2CF JUMPI PUSH2 0x2CF PUSH2 0x135 JUMP JUMPDEST PUSH2 0x2E3 DUP2 PUSH2 0x2DD DUP5 SLOAD PUSH2 0x231 JUMP JUMPDEST DUP5 PUSH2 0x269 JUMP JUMPDEST PUSH1 0x20 PUSH1 0x1F DUP3 GT PUSH1 0x1 DUP2 EQ PUSH2 0x315 JUMPI PUSH0 DUP4 ISZERO PUSH2 0x2FE JUMPI POP DUP5 DUP3 ADD MLOAD JUMPDEST PUSH0 NOT PUSH1 0x3 DUP6 SWAP1 SHL SHR NOT AND PUSH1 0x1 DUP5 SWAP1 SHL OR DUP5 SSTORE PUSH2 0x2AD JUMP JUMPDEST PUSH0 DUP5 DUP2 MSTORE PUSH1 0x20 DUP2 KECCAK256 PUSH1 0x1F NOT DUP6 AND SWAP2 JUMPDEST DUP3 DUP2 LT ISZERO PUSH2 0x344 JUMPI DUP8 DUP6 ADD MLOAD DUP3 SSTORE PUSH1 0x20 SWAP5 DUP6 ADD SWAP5 PUSH1 0x1 SWAP1 SWAP3 ADD SWAP2 ADD PUSH2 0x324 JUMP JUMPDEST POP DUP5 DUP3 LT ISZERO PUSH2 0x361 JUMPI DUP7 DUP5 ADD MLOAD PUSH0 NOT PUSH1 0x3 DUP8 SWAP1 SHL PUSH1 0xF8 AND SHR NOT AND DUP2 SSTORE JUMPDEST POP POP POP POP PUSH1 0x1 SWAP1 DUP2 SHL ADD SWAP1 SSTORE POP JUMP INVALID LOG2 PUSH5 0x6970667358 0x22 SLT KECCAK256 BASEFEE DUP14 PUSH29 0xC163D7B9CAD88A62AA6231F21AD3117D7C3919BA3DA4473CBCCD205A82 PUSH5 0x736F6C6343 STOP ADDMOD 0x1E STOP CALLER "
				},
				"gasEstimates": {
					"creation": {
						"codeDepositCost": "186800",
						"executionCost": "230",
						"totalCost": "187030"
					},
					"external": {
						"myName()": "infinite",
						"store()": "225",
						"updateName(string)": "infinite"
					}
				},
				"methodIdentifiers": {
					"myName()": "fae2dd4b",
					"store()": "975057e7",
					"updateName(string)": "84da92a7"
				}
			},
			"storageLayout": {
				"storage": [
					{
						"astId": 3,
						"contract": "3-Local Variables/local.sol:Local",
						"label": "myName",
						"offset": 0,
						"slot": "0",
						"type": "t_string_storage"
					}
				],
				"types": {
					"t_string_storage": {
						"encoding": "bytes",
						"label": "string",
						"numberOfBytes": "32"
					}
				}
			},
			"userdoc": {
				"kind": "user",
				"methods": {},
				"version": 1
			}
		}
	}
}