{
	"15-Exercises/01_AddressBook.sol": {
		"AddressBook": {
			"abi": [
				{
					"inputs": [
						{
							"internalType": "string",
							"name": "aliasName",
							"type": "string"
						},
						{
							"internalType": "string",
							"name": "contact",
							"type": "string"
						}
					],
					"name": "addEntry",
					"outputs": [],
					"stateMutability": "nonpayable",
					"type": "function"
				},
				{
					"inputs": [
						{
							"internalType": "string",
							"name": "aliasName",
							"type": "string"
						}
					],
					"name": "findByAlias",
					"outputs": [
						{
							"components": [
								{
									"internalType": "string",
									"name": "aliasName",
									"type": "string"
								},
								{
									"internalType": "string",
									"name": "contact",
									"type": "string"
								}
							],
							"internalType": "struct AddressBook.Entry",
							"name": "",
							"type": "tuple"
						}
					],
					"stateMutability": "view",
					"type": "function"
				},
				{
					"inputs": [],
					"name": "getEntries",
					"outputs": [
						{
							"components": [
								{
									"internalType": "string",
									"name": "aliasName",
									"type": "string"
								},
								{
									"internalType": "string",
									"name": "contact",
									"type": "string"
								}
							],
							"internalType": "struct AddressBook.Entry[]",
							"name": "",
							"type": "tuple[]"
						}
					],
					"stateMutability": "view",
					"type": "function"
				},
				{
					"inputs": [
						{
							"internalType": "string",
							"name": "aliasName",
							"type": "string"
						}
					],
					"name": "removeByAlias",
					"outputs": [],
					"stateMutability": "nonpayable",
					"type": "function"
				}
			],
			"devdoc": {
				"kind": "dev",
				"methods": {},
				"version": 1
			},
			"evm": {
				"assembly": "    /* \"15-Exercises/01_AddressBook.sol\":57:1764  contract AddressBook {... */\n  mstore(0x40, 0x80)\n  callvalue\n  dup1\n  iszero\n  tag_1\n  jumpi\n  revert(0x00, 0x00)\ntag_1:\n  pop\n  dataSize(sub_0)\n  dup1\n  dataOffset(sub_0)\n  0x00\n  codecopy\n  0x00\n  return\nstop\n\nsub_0: assembly {\n        /* \"15-Exercises/01_AddressBook.sol\":57:1764  contract AddressBook {... */\n      mstore(0x40, 0x80)\n      callvalue\n      dup1\n      iszero\n      tag_1\n      jumpi\n      revert(0x00, 0x00)\n    tag_1:\n      pop\n      jumpi(tag_2, lt(calldatasize, 0x04))\n      shr(0xe0, calldataload(0x00))\n      dup1\n      0x17be85c3\n      eq\n      tag_3\n      jumpi\n      dup1\n      0x28e09459\n      eq\n      tag_4\n      jumpi\n      dup1\n      0x31f9a55f\n      eq\n      tag_5\n      jumpi\n      dup1\n      0x5ce308a7\n      eq\n      tag_6\n      jumpi\n    tag_2:\n      revert(0x00, 0x00)\n        /* \"15-Exercises/01_AddressBook.sol\":834:921  function getEntries() public view returns (Entry[] memory) {... */\n    tag_3:\n        /* \"15-Exercises/01_AddressBook.sol\":877:891  Entry[] memory */\n      0x60\n        /* \"15-Exercises/01_AddressBook.sol\":834:921  function getEntries() public view returns (Entry[] memory) {... */\n      mload(0x40)\n      tag_9\n      swap2\n      swap1\n      tag_10\n      jump\t// in\n    tag_9:\n      mload(0x40)\n      dup1\n      swap2\n      sub\n      swap1\n      return\n        /* \"15-Exercises/01_AddressBook.sol\":1679:1762  function removeByAlias(string memory aliasName) public {... */\n    tag_4:\n      tag_11\n      tag_12\n      calldatasize\n      0x04\n      tag_13\n      jump\t// in\n    tag_12:\n      pop\n      jump\n    tag_11:\n      stop\n        /* \"15-Exercises/01_AddressBook.sol\":1185:1322  function findByAlias(string memory aliasName)... */\n    tag_5:\n      tag_15\n      tag_16\n      calldatasize\n      0x04\n      tag_13\n      jump\t// in\n    tag_16:\n      pop\n      0x40\n      dup1\n      mload\n      dup1\n      dup3\n      add\n      swap1\n      swap2\n      mstore\n      0x60\n      dup1\n      dup3\n      mstore\n      0x20\n      dup3\n      add\n      mstore\n      swap1\n      jump\n    tag_15:\n      mload(0x40)\n      tag_9\n      swap2\n      swap1\n      tag_19\n      jump\t// in\n        /* \"15-Exercises/01_AddressBook.sol\":597:698  function addEntry(string memory aliasName, string memory contact) public {... */\n    tag_6:\n      tag_11\n      tag_21\n      calldatasize\n      0x04\n      tag_22\n      jump\t// in\n    tag_21:\n      pop\n      pop\n      jump\n        /* \"#utility.yul\":14:303   */\n    tag_30:\n        /* \"#utility.yul\":56:59   */\n      0x00\n        /* \"#utility.yul\":94:99   */\n      dup2\n        /* \"#utility.yul\":88:100   */\n      mload\n        /* \"#utility.yul\":121:127   */\n      dup1\n        /* \"#utility.yul\":116:119   */\n      dup5\n        /* \"#utility.yul\":109:128   */\n      mstore\n        /* \"#utility.yul\":177:183   */\n      dup1\n        /* \"#utility.yul\":170:174   */\n      0x20\n        /* \"#utility.yul\":163:168   */\n      dup5\n        /* \"#utility.yul\":159:175   */\n      add\n        /* \"#utility.yul\":152:156   */\n      0x20\n        /* \"#utility.yul\":147:150   */\n      dup7\n        /* \"#utility.yul\":143:157   */\n      add\n        /* \"#utility.yul\":137:184   */\n      mcopy\n        /* \"#utility.yul\":229:230   */\n      0x00\n        /* \"#utility.yul\":222:226   */\n      0x20\n        /* \"#utility.yul\":213:219   */\n      dup3\n        /* \"#utility.yul\":208:211   */\n      dup7\n        /* \"#utility.yul\":204:220   */\n      add\n        /* \"#utility.yul\":200:227   */\n      add\n        /* \"#utility.yul\":193:231   */\n      mstore\n        /* \"#utility.yul\":292:296   */\n      0x20\n        /* \"#utility.yul\":285:287   */\n      0x1f\n        /* \"#utility.yul\":281:288   */\n      not\n        /* \"#utility.yul\":276:278   */\n      0x1f\n        /* \"#utility.yul\":268:274   */\n      dup4\n        /* \"#utility.yul\":264:279   */\n      add\n        /* \"#utility.yul\":260:289   */\n      and\n        /* \"#utility.yul\":255:258   */\n      dup6\n        /* \"#utility.yul\":251:290   */\n      add\n        /* \"#utility.yul\":247:297   */\n      add\n        /* \"#utility.yul\":240:297   */\n      swap2\n      pop\n      pop\n        /* \"#utility.yul\":14:303   */\n      swap3\n      swap2\n      pop\n      pop\n      jump\t// out\n        /* \"#utility.yul\":308:662   */\n    tag_31:\n        /* \"#utility.yul\":356:359   */\n      0x00\n        /* \"#utility.yul\":400:405   */\n      dup2\n        /* \"#utility.yul\":394:406   */\n      mload\n        /* \"#utility.yul\":427:431   */\n      0x40\n        /* \"#utility.yul\":422:425   */\n      dup5\n        /* \"#utility.yul\":415:432   */\n      mstore\n        /* \"#utility.yul\":453:500   */\n      tag_37\n        /* \"#utility.yul\":494:498   */\n      0x40\n        /* \"#utility.yul\":489:492   */\n      dup6\n        /* \"#utility.yul\":485:499   */\n      add\n        /* \"#utility.yul\":471:483   */\n      dup3\n        /* \"#utility.yul\":453:500   */\n      tag_30\n      jump\t// in\n    tag_37:\n        /* \"#utility.yul\":441:500   */\n      swap1\n      pop\n        /* \"#utility.yul\":548:552   */\n      0x20\n        /* \"#utility.yul\":541:546   */\n      dup4\n        /* \"#utility.yul\":537:553   */\n      add\n        /* \"#utility.yul\":531:554   */\n      mload\n        /* \"#utility.yul\":596:599   */\n      dup5\n        /* \"#utility.yul\":590:594   */\n      dup3\n        /* \"#utility.yul\":586:600   */\n      sub\n        /* \"#utility.yul\":579:583   */\n      0x20\n        /* \"#utility.yul\":574:577   */\n      dup7\n        /* \"#utility.yul\":570:584   */\n      add\n        /* \"#utility.yul\":563:601   */\n      mstore\n        /* \"#utility.yul\":617:656   */\n      tag_38\n        /* \"#utility.yul\":651:655   */\n      dup3\n        /* \"#utility.yul\":635:649   */\n      dup3\n        /* \"#utility.yul\":617:656   */\n      tag_30\n      jump\t// in\n    tag_38:\n        /* \"#utility.yul\":610:656   */\n      swap6\n        /* \"#utility.yul\":308:662   */\n      swap5\n      pop\n      pop\n      pop\n      pop\n      pop\n      jump\t// out\n        /* \"#utility.yul\":667:1475   */\n    tag_10:\n        /* \"#utility.yul\":849:853   */\n      0x00\n        /* \"#utility.yul\":897:899   */\n      0x20\n        /* \"#utility.yul\":886:895   */\n      dup3\n        /* \"#utility.yul\":882:900   */\n      add\n        /* \"#utility.yul\":927:929   */\n      0x20\n        /* \"#utility.yul\":916:925   */\n      dup4\n        /* \"#utility.yul\":909:930   */\n      mstore\n        /* \"#utility.yul\":950:956   */\n      dup1\n        /* \"#utility.yul\":985:991   */\n      dup5\n        /* \"#utility.yul\":979:992   */\n      mload\n        /* \"#utility.yul\":1016:1022   */\n      dup1\n        /* \"#utility.yul\":1008:1014   */\n      dup4\n        /* \"#utility.yul\":1001:1023   */\n      mstore\n        /* \"#utility.yul\":1054:1056   */\n      0x40\n        /* \"#utility.yul\":1043:1052   */\n      dup6\n        /* \"#utility.yul\":1039:1057   */\n      add\n        /* \"#utility.yul\":1032:1057   */\n      swap2\n      pop\n        /* \"#utility.yul\":1116:1118   */\n      0x40\n        /* \"#utility.yul\":1106:1112   */\n      dup2\n        /* \"#utility.yul\":1103:1104   */\n      0x05\n        /* \"#utility.yul\":1099:1113   */\n      shl\n        /* \"#utility.yul\":1088:1097   */\n      dup7\n        /* \"#utility.yul\":1084:1114   */\n      add\n        /* \"#utility.yul\":1080:1119   */\n      add\n        /* \"#utility.yul\":1066:1119   */\n      swap3\n      pop\n        /* \"#utility.yul\":1154:1156   */\n      0x20\n        /* \"#utility.yul\":1146:1152   */\n      dup7\n        /* \"#utility.yul\":1142:1157   */\n      add\n        /* \"#utility.yul\":1175:1176   */\n      0x00\n        /* \"#utility.yul\":1185:1446   */\n    tag_40:\n        /* \"#utility.yul\":1199:1205   */\n      dup3\n        /* \"#utility.yul\":1196:1197   */\n      dup2\n        /* \"#utility.yul\":1193:1206   */\n      lt\n        /* \"#utility.yul\":1185:1446   */\n      iszero\n      tag_42\n      jumpi\n        /* \"#utility.yul\":1292:1294   */\n      0x3f\n        /* \"#utility.yul\":1288:1295   */\n      not\n        /* \"#utility.yul\":1276:1285   */\n      dup8\n        /* \"#utility.yul\":1268:1274   */\n      dup7\n        /* \"#utility.yul\":1264:1286   */\n      sub\n        /* \"#utility.yul\":1260:1296   */\n      add\n        /* \"#utility.yul\":1255:1258   */\n      dup5\n        /* \"#utility.yul\":1248:1297   */\n      mstore\n        /* \"#utility.yul\":1320:1366   */\n      tag_43\n        /* \"#utility.yul\":1359:1365   */\n      dup6\n        /* \"#utility.yul\":1350:1356   */\n      dup4\n        /* \"#utility.yul\":1344:1357   */\n      mload\n        /* \"#utility.yul\":1320:1366   */\n      tag_31\n      jump\t// in\n    tag_43:\n        /* \"#utility.yul\":1310:1366   */\n      swap5\n      pop\n        /* \"#utility.yul\":1401:1403   */\n      0x20\n        /* \"#utility.yul\":1424:1436   */\n      swap4\n      dup5\n      add\n      swap4\n        /* \"#utility.yul\":1389:1404   */\n      swap2\n      swap1\n      swap2\n      add\n      swap1\n        /* \"#utility.yul\":1221:1222   */\n      0x01\n        /* \"#utility.yul\":1214:1223   */\n      add\n        /* \"#utility.yul\":1185:1446   */\n      jump(tag_40)\n    tag_42:\n      pop\n        /* \"#utility.yul\":1463:1469   */\n      swap3\n      swap7\n        /* \"#utility.yul\":667:1475   */\n      swap6\n      pop\n      pop\n      pop\n      pop\n      pop\n      pop\n      jump\t// out\n        /* \"#utility.yul\":1480:1607   */\n    tag_32:\n        /* \"#utility.yul\":1541:1551   */\n      0x4e487b71\n        /* \"#utility.yul\":1536:1539   */\n      0xe0\n        /* \"#utility.yul\":1532:1552   */\n      shl\n        /* \"#utility.yul\":1529:1530   */\n      0x00\n        /* \"#utility.yul\":1522:1553   */\n      mstore\n        /* \"#utility.yul\":1572:1576   */\n      0x41\n        /* \"#utility.yul\":1569:1570   */\n      0x04\n        /* \"#utility.yul\":1562:1577   */\n      mstore\n        /* \"#utility.yul\":1596:1600   */\n      0x24\n        /* \"#utility.yul\":1593:1594   */\n      0x00\n        /* \"#utility.yul\":1586:1601   */\n      revert\n        /* \"#utility.yul\":1612:2338   */\n    tag_33:\n        /* \"#utility.yul\":1655:1660   */\n      0x00\n        /* \"#utility.yul\":1708:1711   */\n      dup3\n        /* \"#utility.yul\":1701:1705   */\n      0x1f\n        /* \"#utility.yul\":1693:1699   */\n      dup4\n        /* \"#utility.yul\":1689:1706   */\n      add\n        /* \"#utility.yul\":1685:1712   */\n      slt\n        /* \"#utility.yul\":1675:1730   */\n      tag_46\n      jumpi\n        /* \"#utility.yul\":1726:1727   */\n      0x00\n        /* \"#utility.yul\":1723:1724   */\n      0x00\n        /* \"#utility.yul\":1716:1728   */\n      revert\n        /* \"#utility.yul\":1675:1730   */\n    tag_46:\n        /* \"#utility.yul\":1766:1772   */\n      dup2\n        /* \"#utility.yul\":1753:1773   */\n      calldataload\n        /* \"#utility.yul\":1796:1814   */\n      0xffffffffffffffff\n        /* \"#utility.yul\":1788:1794   */\n      dup2\n        /* \"#utility.yul\":1785:1815   */\n      gt\n        /* \"#utility.yul\":1782:1838   */\n      iszero\n      tag_48\n      jumpi\n        /* \"#utility.yul\":1818:1836   */\n      tag_48\n      tag_32\n      jump\t// in\n    tag_48:\n        /* \"#utility.yul\":1867:1869   */\n      0x40\n        /* \"#utility.yul\":1861:1870   */\n      mload\n        /* \"#utility.yul\":1959:1961   */\n      0x1f\n        /* \"#utility.yul\":1921:1938   */\n      dup3\n      add\n      not(0x1f)\n        /* \"#utility.yul\":1917:1948   */\n      swap1\n      dup2\n      and\n        /* \"#utility.yul\":1950:1952   */\n      0x3f\n        /* \"#utility.yul\":1913:1953   */\n      add\n        /* \"#utility.yul\":1909:1963   */\n      and\n        /* \"#utility.yul\":1897:1964   */\n      dup2\n      add\n        /* \"#utility.yul\":1994:2012   */\n      0xffffffffffffffff\n        /* \"#utility.yul\":1979:2013   */\n      dup2\n      gt\n        /* \"#utility.yul\":2015:2037   */\n      dup3\n      dup3\n      lt\n        /* \"#utility.yul\":1976:2038   */\n      or\n        /* \"#utility.yul\":1973:2061   */\n      iszero\n      tag_50\n      jumpi\n        /* \"#utility.yul\":2041:2059   */\n      tag_50\n      tag_32\n      jump\t// in\n    tag_50:\n        /* \"#utility.yul\":2077:2079   */\n      0x40\n        /* \"#utility.yul\":2070:2092   */\n      mstore\n        /* \"#utility.yul\":2101:2123   */\n      dup2\n      dup2\n      mstore\n        /* \"#utility.yul\":2142:2161   */\n      dup4\n      dup3\n      add\n        /* \"#utility.yul\":2163:2167   */\n      0x20\n        /* \"#utility.yul\":2138:2168   */\n      add\n        /* \"#utility.yul\":2135:2174   */\n      dup6\n      lt\n        /* \"#utility.yul\":2132:2191   */\n      iszero\n      tag_51\n      jumpi\n        /* \"#utility.yul\":2187:2188   */\n      0x00\n        /* \"#utility.yul\":2184:2185   */\n      0x00\n        /* \"#utility.yul\":2177:2189   */\n      revert\n        /* \"#utility.yul\":2132:2191   */\n    tag_51:\n        /* \"#utility.yul\":2251:2257   */\n      dup2\n        /* \"#utility.yul\":2244:2248   */\n      0x20\n        /* \"#utility.yul\":2236:2242   */\n      dup6\n        /* \"#utility.yul\":2232:2249   */\n      add\n        /* \"#utility.yul\":2225:2229   */\n      0x20\n        /* \"#utility.yul\":2217:2223   */\n      dup4\n        /* \"#utility.yul\":2213:2230   */\n      add\n        /* \"#utility.yul\":2200:2258   */\n      calldatacopy\n        /* \"#utility.yul\":2306:2307   */\n      0x00\n        /* \"#utility.yul\":2278:2297   */\n      swap2\n      dup2\n      add\n        /* \"#utility.yul\":2299:2303   */\n      0x20\n        /* \"#utility.yul\":2274:2304   */\n      add\n        /* \"#utility.yul\":2267:2308   */\n      swap2\n      swap1\n      swap2\n      mstore\n        /* \"#utility.yul\":2282:2288   */\n      swap4\n        /* \"#utility.yul\":1612:2338   */\n      swap3\n      pop\n      pop\n      pop\n      jump\t// out\n        /* \"#utility.yul\":2343:2665   */\n    tag_13:\n        /* \"#utility.yul\":2412:2418   */\n      0x00\n        /* \"#utility.yul\":2465:2467   */\n      0x20\n        /* \"#utility.yul\":2453:2462   */\n      dup3\n        /* \"#utility.yul\":2444:2451   */\n      dup5\n        /* \"#utility.yul\":2440:2463   */\n      sub\n        /* \"#utility.yul\":2436:2468   */\n      slt\n        /* \"#utility.yul\":2433:2485   */\n      iszero\n      tag_53\n      jumpi\n        /* \"#utility.yul\":2481:2482   */\n      0x00\n        /* \"#utility.yul\":2478:2479   */\n      0x00\n        /* \"#utility.yul\":2471:2483   */\n      revert\n        /* \"#utility.yul\":2433:2485   */\n    tag_53:\n        /* \"#utility.yul\":2521:2530   */\n      dup2\n        /* \"#utility.yul\":2508:2531   */\n      calldataload\n        /* \"#utility.yul\":2554:2572   */\n      0xffffffffffffffff\n        /* \"#utility.yul\":2546:2552   */\n      dup2\n        /* \"#utility.yul\":2543:2573   */\n      gt\n        /* \"#utility.yul\":2540:2590   */\n      iszero\n      tag_54\n      jumpi\n        /* \"#utility.yul\":2586:2587   */\n      0x00\n        /* \"#utility.yul\":2583:2584   */\n      0x00\n        /* \"#utility.yul\":2576:2588   */\n      revert\n        /* \"#utility.yul\":2540:2590   */\n    tag_54:\n        /* \"#utility.yul\":2609:2659   */\n      tag_55\n        /* \"#utility.yul\":2651:2658   */\n      dup5\n        /* \"#utility.yul\":2642:2648   */\n      dup3\n        /* \"#utility.yul\":2631:2640   */\n      dup6\n        /* \"#utility.yul\":2627:2649   */\n      add\n        /* \"#utility.yul\":2609:2659   */\n      tag_33\n      jump\t// in\n    tag_55:\n        /* \"#utility.yul\":2599:2659   */\n      swap5\n        /* \"#utility.yul\":2343:2665   */\n      swap4\n      pop\n      pop\n      pop\n      pop\n      jump\t// out\n        /* \"#utility.yul\":2670:2916   */\n    tag_19:\n        /* \"#utility.yul\":2839:2841   */\n      0x20\n        /* \"#utility.yul\":2828:2837   */\n      dup2\n        /* \"#utility.yul\":2821:2842   */\n      mstore\n        /* \"#utility.yul\":2802:2806   */\n      0x00\n        /* \"#utility.yul\":2859:2910   */\n      tag_57\n        /* \"#utility.yul\":2906:2908   */\n      0x20\n        /* \"#utility.yul\":2895:2904   */\n      dup4\n        /* \"#utility.yul\":2891:2909   */\n      add\n        /* \"#utility.yul\":2883:2889   */\n      dup5\n        /* \"#utility.yul\":2859:2910   */\n      tag_31\n      jump\t// in\n    tag_57:\n        /* \"#utility.yul\":2851:2910   */\n      swap4\n        /* \"#utility.yul\":2670:2916   */\n      swap3\n      pop\n      pop\n      pop\n      jump\t// out\n        /* \"#utility.yul\":2921:3459   */\n    tag_22:\n        /* \"#utility.yul\":3009:3015   */\n      0x00\n        /* \"#utility.yul\":3017:3023   */\n      0x00\n        /* \"#utility.yul\":3070:3072   */\n      0x40\n        /* \"#utility.yul\":3058:3067   */\n      dup4\n        /* \"#utility.yul\":3049:3056   */\n      dup6\n        /* \"#utility.yul\":3045:3068   */\n      sub\n        /* \"#utility.yul\":3041:3073   */\n      slt\n        /* \"#utility.yul\":3038:3090   */\n      iszero\n      tag_59\n      jumpi\n        /* \"#utility.yul\":3086:3087   */\n      0x00\n        /* \"#utility.yul\":3083:3084   */\n      0x00\n        /* \"#utility.yul\":3076:3088   */\n      revert\n        /* \"#utility.yul\":3038:3090   */\n    tag_59:\n        /* \"#utility.yul\":3126:3135   */\n      dup3\n        /* \"#utility.yul\":3113:3136   */\n      calldataload\n        /* \"#utility.yul\":3159:3177   */\n      0xffffffffffffffff\n        /* \"#utility.yul\":3151:3157   */\n      dup2\n        /* \"#utility.yul\":3148:3178   */\n      gt\n        /* \"#utility.yul\":3145:3195   */\n      iszero\n      tag_60\n      jumpi\n        /* \"#utility.yul\":3191:3192   */\n      0x00\n        /* \"#utility.yul\":3188:3189   */\n      0x00\n        /* \"#utility.yul\":3181:3193   */\n      revert\n        /* \"#utility.yul\":3145:3195   */\n    tag_60:\n        /* \"#utility.yul\":3214:3264   */\n      tag_61\n        /* \"#utility.yul\":3256:3263   */\n      dup6\n        /* \"#utility.yul\":3247:3253   */\n      dup3\n        /* \"#utility.yul\":3236:3245   */\n      dup7\n        /* \"#utility.yul\":3232:3254   */\n      add\n        /* \"#utility.yul\":3214:3264   */\n      tag_33\n      jump\t// in\n    tag_61:\n        /* \"#utility.yul\":3204:3264   */\n      swap3\n      pop\n      pop\n        /* \"#utility.yul\":3317:3319   */\n      0x20\n        /* \"#utility.yul\":3306:3315   */\n      dup4\n        /* \"#utility.yul\":3302:3320   */\n      add\n        /* \"#utility.yul\":3289:3321   */\n      calldataload\n        /* \"#utility.yul\":3346:3364   */\n      0xffffffffffffffff\n        /* \"#utility.yul\":3336:3344   */\n      dup2\n        /* \"#utility.yul\":3333:3365   */\n      gt\n        /* \"#utility.yul\":3330:3382   */\n      iszero\n      tag_62\n      jumpi\n        /* \"#utility.yul\":3378:3379   */\n      0x00\n        /* \"#utility.yul\":3375:3376   */\n      0x00\n        /* \"#utility.yul\":3368:3380   */\n      revert\n        /* \"#utility.yul\":3330:3382   */\n    tag_62:\n        /* \"#utility.yul\":3401:3453   */\n      tag_63\n        /* \"#utility.yul\":3445:3452   */\n      dup6\n        /* \"#utility.yul\":3434:3442   */\n      dup3\n        /* \"#utility.yul\":3423:3432   */\n      dup7\n        /* \"#utility.yul\":3419:3443   */\n      add\n        /* \"#utility.yul\":3401:3453   */\n      tag_33\n      jump\t// in\n    tag_63:\n        /* \"#utility.yul\":3391:3453   */\n      swap2\n      pop\n      pop\n        /* \"#utility.yul\":2921:3459   */\n      swap3\n      pop\n      swap3\n      swap1\n      pop\n      jump\t// out\n\n    auxdata: 0xa2646970667358221220adf6483c4cc4dc853fe4285361ec6ce8c3aaee507c812b9e3f0266e7cebb8ae264736f6c634300081e0033\n}\n",
				"bytecode": {
					"linkReferences": {},
					"object": "6080604052348015600e575f5ffd5b506103128061001c5f395ff3fe608060405234801561000f575f5ffd5b506004361061004a575f3560e01c806317be85c31461004e57806328e094591461006657806331f9a55f146100795780635ce308a7146100ac575b5f5ffd5b606060405161005d9190610122565b60405180910390f35b610077610074366004610224565b50565b005b61009f610087366004610224565b50604080518082019091526060808252602082015290565b60405161005d919061025e565b6100776100ba366004610277565b5050565b5f81518084528060208401602086015e5f602082860101526020601f19601f83011685010191505092915050565b5f81516040845261010060408501826100be565b90506020830151848203602086015261011982826100be565b95945050505050565b5f602082016020835280845180835260408501915060408160051b8601019250602086015f5b8281101561017957603f198786030184526101648583516100ec565b94506020938401939190910190600101610148565b50929695505050505050565b634e487b7160e01b5f52604160045260245ffd5b5f82601f8301126101a8575f5ffd5b813567ffffffffffffffff8111156101c2576101c2610185565b604051601f8201601f19908116603f0116810167ffffffffffffffff811182821017156101f1576101f1610185565b604052818152838201602001851015610208575f5ffd5b816020850160208301375f918101602001919091529392505050565b5f60208284031215610234575f5ffd5b813567ffffffffffffffff81111561024a575f5ffd5b61025684828501610199565b949350505050565b602081525f61027060208301846100ec565b9392505050565b5f5f60408385031215610288575f5ffd5b823567ffffffffffffffff81111561029e575f5ffd5b6102aa85828601610199565b925050602083013567ffffffffffffffff8111156102c6575f5ffd5b6102d285828601610199565b915050925092905056fea2646970667358221220adf6483c4cc4dc853fe4285361ec6ce8c3aaee507c812b9e3f0266e7cebb8ae264736f6c634300081e0033",
					"opcodes": "PUSH1 0x80 PUSH1 0x40 MSTORE CALLVALUE DUP1 ISZERO PUSH1 0xE JUMPI PUSH0 PUSH0 REVERT JUMPDEST POP PUSH2 0x312 DUP1 PUSH2 0x1C PUSH0 CODECOPY PUSH0 RETURN INVALID PUSH1 0x80 PUSH1 0x40 MSTORE CALLVALUE DUP1 ISZERO PUSH2 0xF JUMPI PUSH0 PUSH0 REVERT JUMPDEST POP PUSH1 0x4 CALLDATASIZE LT PUSH2 0x4A JUMPI PUSH0 CALLDATALOAD PUSH1 0xE0 SHR DUP1 PUSH4 0x17BE85C3 EQ PUSH2 0x4E JUMPI DUP1 PUSH4 0x28E09459 EQ PUSH2 0x66 JUMPI DUP1 PUSH4 0x31F9A55F EQ PUSH2 0x79 JUMPI DUP1 PUSH4 0x5CE308A7 EQ PUSH2 0xAC JUMPI JUMPDEST PUSH0 PUSH0 REVERT JUMPDEST PUSH1 0x60 PUSH1 0x40 MLOAD PUSH2 0x5D SWAP2 SWAP1 PUSH2 0x122 JUMP JUMPDEST PUSH1 0x40 MLOAD DUP1 SWAP2 SUB SWAP1 RETURN JUMPDEST PUSH2 0x77 PUSH2 0x74 CALLDATASIZE PUSH1 0x4 PUSH2 0x224 JUMP JUMPDEST POP JUMP JUMPDEST STOP JUMPDEST PUSH2 0x9F PUSH2 0x87 CALLDATASIZE PUSH1 0x4 PUSH2 0x224 JUMP JUMPDEST POP PUSH1 0x40 DUP1 MLOAD DUP1 DUP3 ADD SWAP1 SWAP2 MSTORE PUSH1 0x60 DUP1 DUP3 MSTORE PUSH1 0x20 DUP3 ADD MSTORE SWAP1 JUMP JUMPDEST PUSH1 0x40 MLOAD PUSH2 0x5D SWAP2 SWAP1 PUSH2 0x25E JUMP JUMPDEST PUSH2 0x77 PUSH2 0xBA CALLDATASIZE PUSH1 0x4 PUSH2 0x277 JUMP JUMPDEST POP POP JUMP JUMPDEST PUSH0 DUP2 MLOAD DUP1 DUP5 MSTORE DUP1 PUSH1 0x20 DUP5 ADD PUSH1 0x20 DUP7 ADD MCOPY PUSH0 PUSH1 0x20 DUP3 DUP7 ADD ADD MSTORE PUSH1 0x20 PUSH1 0x1F NOT PUSH1 0x1F DUP4 ADD AND DUP6 ADD ADD SWAP2 POP POP SWAP3 SWAP2 POP POP JUMP JUMPDEST PUSH0 DUP2 MLOAD PUSH1 0x40 DUP5 MSTORE PUSH2 0x100 PUSH1 0x40 DUP6 ADD DUP3 PUSH2 0xBE JUMP JUMPDEST SWAP1 POP PUSH1 0x20 DUP4 ADD MLOAD DUP5 DUP3 SUB PUSH1 0x20 DUP7 ADD MSTORE PUSH2 0x119 DUP3 DUP3 PUSH2 0xBE JUMP JUMPDEST SWAP6 SWAP5 POP POP POP POP POP JUMP JUMPDEST PUSH0 PUSH1 0x20 DUP3 ADD PUSH1 0x20 DUP4 MSTORE DUP1 DUP5 MLOAD DUP1 DUP4 MSTORE PUSH1 0x40 DUP6 ADD SWAP2 POP PUSH1 0x40 DUP2 PUSH1 0x5 SHL DUP7 ADD ADD SWAP3 POP PUSH1 0x20 DUP7 ADD PUSH0 JUMPDEST DUP3 DUP2 LT ISZERO PUSH2 0x179 JUMPI PUSH1 0x3F NOT DUP8 DUP7 SUB ADD DUP5 MSTORE PUSH2 0x164 DUP6 DUP4 MLOAD PUSH2 0xEC JUMP JUMPDEST SWAP5 POP PUSH1 0x20 SWAP4 DUP5 ADD SWAP4 SWAP2 SWAP1 SWAP2 ADD SWAP1 PUSH1 0x1 ADD PUSH2 0x148 JUMP JUMPDEST POP SWAP3 SWAP7 SWAP6 POP POP POP POP POP POP JUMP JUMPDEST PUSH4 0x4E487B71 PUSH1 0xE0 SHL PUSH0 MSTORE PUSH1 0x41 PUSH1 0x4 MSTORE PUSH1 0x24 PUSH0 REVERT JUMPDEST PUSH0 DUP3 PUSH1 0x1F DUP4 ADD SLT PUSH2 0x1A8 JUMPI PUSH0 PUSH0 REVERT JUMPDEST DUP2 CALLDATALOAD PUSH8 0xFFFFFFFFFFFFFFFF DUP2 GT ISZERO PUSH2 0x1C2 JUMPI PUSH2 0x1C2 PUSH2 0x185 JUMP JUMPDEST PUSH1 0x40 MLOAD PUSH1 0x1F DUP3 ADD PUSH1 0x1F NOT SWAP1 DUP2 AND PUSH1 0x3F ADD AND DUP2 ADD PUSH8 0xFFFFFFFFFFFFFFFF DUP2 GT DUP3 DUP3 LT OR ISZERO PUSH2 0x1F1 JUMPI PUSH2 0x1F1 PUSH2 0x185 JUMP JUMPDEST PUSH1 0x40 MSTORE DUP2 DUP2 MSTORE DUP4 DUP3 ADD PUSH1 0x20 ADD DUP6 LT ISZERO PUSH2 0x208 JUMPI PUSH0 PUSH0 REVERT JUMPDEST DUP2 PUSH1 0x20 DUP6 ADD PUSH1 0x20 DUP4 ADD CALLDATACOPY PUSH0 SWAP2 DUP2 ADD PUSH1 0x20 ADD SWAP2 SWAP1 SWAP2 MSTORE SWAP4 SWAP3 POP POP POP JUMP JUMPDEST PUSH0 PUSH1 0x20 DUP3 DUP5 SUB SLT ISZERO PUSH2 0x234 JUMPI PUSH0 PUSH0 REVERT JUMPDEST DUP2 CALLDATALOAD PUSH8 0xFFFFFFFFFFFFFFFF DUP2 GT ISZERO PUSH2 0x24A JUMPI PUSH0 PUSH0 REVERT JUMPDEST PUSH2 0x256 DUP5 DUP3 DUP6 ADD PUSH2 0x199 JUMP JUMPDEST SWAP5 SWAP4 POP POP POP POP JUMP JUMPDEST PUSH1 0x20 DUP2 MSTORE PUSH0 PUSH2 0x270 PUSH1 0x20 DUP4 ADD DUP5 PUSH2 0xEC JUMP JUMPDEST SWAP4 SWAP3 POP POP POP JUMP JUMPDEST PUSH0 PUSH0 PUSH1 0x40 DUP4 DUP6 SUB SLT ISZERO PUSH2 0x288 JUMPI PUSH0 PUSH0 REVERT JUMPDEST DUP3 CALLDATALOAD PUSH8 0xFFFFFFFFFFFFFFFF DUP2 GT ISZERO PUSH2 0x29E JUMPI PUSH0 PUSH0 REVERT JUMPDEST PUSH2 0x2AA DUP6 DUP3 DUP7 ADD PUSH2 0x199 JUMP JUMPDEST SWAP3 POP POP PUSH1 0x20 DUP4 ADD CALLDATALOAD PUSH8 0xFFFFFFFFFFFFFFFF DUP2 GT ISZERO PUSH2 0x2C6 JUMPI PUSH0 PUSH0 REVERT JUMPDEST PUSH2 0x2D2 DUP6 DUP3 DUP7 ADD PUSH2 0x199 JUMP JUMPDEST SWAP2 POP POP SWAP3 POP SWAP3 SWAP1 POP JUMP INVALID LOG2 PUSH5 0x6970667358 0x22 SLT KECCAK256 0xAD 0xF6 BASEFEE EXTCODECOPY 0x4C 0xC4 0xDC DUP6 EXTCODEHASH RETF 0x28 MSTORE8 PUSH2 0xEC6C 0xE8 0xC3 0xAA RETURNCONTRACT 0x50 PUSH29 0x812B9E3F0266E7CEBB8AE264736F6C634300081E003300000000000000 "
				},
				"gasEstimates": {
					"creation": {
						"codeDepositCost": "157200",
						"executionCost": "200",
						"totalCost": "157400"
					},
					"external": {
						"addEntry(string,string)": "infinite",
						"findByAlias(string)": "infinite",
						"getEntries()": "infinite",
						"removeByAlias(string)": "infinite"
					}
				},
				"methodIdentifiers": {
					"addEntry(string,string)": "5ce308a7",
					"findByAlias(string)": "31f9a55f",
					"getEntries()": "17be85c3",
					"removeByAlias(string)": "28e09459"
				}
			},
			"storageLayout": {
				"storage": [
					{
						"astId": 12,
						"contract": "15-Exercises/01_AddressBook.sol:AddressBook",
						"label": "userEntries",
						"offset": 0,
						"slot": "0",
						"type": "t_mapping(t_address,t_array(t_struct(Entry)6_storage)dyn_storage)"
					}
				],
				"types": {
					"t_address": {
						"encoding": "inplace",
						"label": "address",
						"numberOfBytes": "20"
					},
					"t_array(t_struct(Entry)6_storage)dyn_storage": {
						"base": "t_struct(Entry)6_storage",
						"encoding": "dynamic_array",
						"label": "struct AddressBook.Entry[]",
						"numberOfBytes": "32"
					},
					"t_mapping(t_address,t_array(t_struct(Entry)6_storage)dyn_storage)": {
						"encoding": "mapping",
						"key": "t_address",
						"label": "mapping(address => struct AddressBook.Entry[])",
						"numberOfBytes": "32",
						"value": "t_array(t_struct(Entry)6_storage)dyn_storage"
					},
					"t_string_storage": {
						"encoding": "bytes",
						"label": "string",
						"numberOfBytes": "32"
					},
					"t_struct(Entry)6_storage": {
						"encoding": "inplace",
						"label": "struct AddressBook.Entry",
						"members": [
							{
								"astId": 3,
								"contract": "15-Exercises/01_AddressBook.sol:AddressBook",
								"label": "aliasName",
								"offset": 0,
								"slot": "0",
								"type": "t_string_storage"
							},
							{
								"astId": 5,
								"contract": "15-Exercises/01_AddressBook.sol:AddressBook",
								"label": "contact",
								"offset": 0,
								"slot": "1",
								"type": "t_string_storage"
							}
						],
						"numberOfBytes": "64"
					}
				}
			},
			"userdoc": {
				"kind": "user",
				"methods": {},
				"version": 1
			}
		}
	}
}