{
	"7-Loops/loops.sol": {
		"loops": {
			"abi": [
				{
					"inputs": [
						{
							"internalType": "uint256",
							"name": "",
							"type": "uint256"
						}
					],
					"name": "arr",
					"outputs": [
						{
							"internalType": "uint256",
							"name": "",
							"type": "uint256"
						}
					],
					"stateMutability": "view",
					"type": "function"
				},
				{
					"inputs": [],
					"name": "count",
					"outputs": [
						{
							"internalType": "uint256",
							"name": "",
							"type": "uint256"
						}
					],
					"stateMutability": "view",
					"type": "function"
				},
				{
					"inputs": [],
					"name": "dowhile",
					"outputs": [],
					"stateMutability": "nonpayable",
					"type": "function"
				},
				{
					"inputs": [],
					"name": "fixedForLoop",
					"outputs": [],
					"stateMutability": "nonpayable",
					"type": "function"
				},
				{
					"inputs": [],
					"name": "forloop",
					"outputs": [],
					"stateMutability": "nonpayable",
					"type": "function"
				},
				{
					"inputs": [],
					"name": "getArray",
					"outputs": [
						{
							"internalType": "uint256[3]",
							"name": "",
							"type": "uint256[3]"
						}
					],
					"stateMutability": "view",
					"type": "function"
				},
				{
					"inputs": [],
					"name": "getCount",
					"outputs": [
						{
							"internalType": "uint256",
							"name": "",
							"type": "uint256"
						}
					],
					"stateMutability": "view",
					"type": "function"
				},
				{
					"inputs": [],
					"name": "getLength",
					"outputs": [
						{
							"internalType": "uint256",
							"name": "",
							"type": "uint256"
						}
					],
					"stateMutability": "view",
					"type": "function"
				},
				{
					"inputs": [],
					"name": "loop",
					"outputs": [],
					"stateMutability": "nonpayable",
					"type": "function"
				},
				{
					"inputs": [],
					"name": "reset",
					"outputs": [],
					"stateMutability": "nonpayable",
					"type": "function"
				},
				{
					"inputs": [
						{
							"internalType": "uint256",
							"name": "startIndex",
							"type": "uint256"
						},
						{
							"internalType": "uint256",
							"name": "endIndex",
							"type": "uint256"
						}
					],
					"name": "safeForLoop",
					"outputs": [],
					"stateMutability": "nonpayable",
					"type": "function"
				}
			],
			"devdoc": {
				"details": "Demonstrates different loop constructs in Solidity",
				"kind": "dev",
				"methods": {
					"dowhile()": {
						"details": "Demonstrates a do-while loop structureGas cost: ~25,000-50,000 (varies based on iterations)"
					},
					"fixedForLoop()": {
						"details": "Corrected version of the for loop"
					},
					"forloop()": {
						"details": "Demonstrates a for loop structureBUG: This contains a logical error - it always writes to arr[count]CORRECT BEHAVIOR: Should use the loop index 'i' instead of 'count'Gas cost: ~25,000-50,000 (varies based on iterations)"
					},
					"getArray()": {
						"details": "Gets the entire array",
						"returns": {
							"_0": "A copy of the array in memory"
						}
					},
					"getCount()": {
						"details": "Gets the current count value",
						"returns": {
							"_0": "The current value of count"
						}
					},
					"getLength()": {
						"details": "Gets the length of the array",
						"returns": {
							"_0": "The fixed length of the array (always 3)"
						}
					},
					"loop()": {
						"details": "Demonstrates a while loop structureWARNING: This function can only be called once completely       as it modifies the count state variableGas cost: ~50,000-75,000 (varies based on state changes)"
					},
					"reset()": {
						"details": "Resets the count and array to initial state"
					},
					"safeForLoop(uint256,uint256)": {
						"details": "Demonstrates a safe for loop with bounds checking",
						"params": {
							"endIndex": "The index to end at (exclusive)",
							"startIndex": "The index to start from"
						}
					}
				},
				"stateVariables": {
					"arr": {
						"details": "Fixed-size array of 3 uint256 elements"
					},
					"count": {
						"details": "Counter variable to track array position"
					}
				},
				"title": "Loop Structures in Solidity",
				"version": 1
			},
			"evm": {
				"assembly": "    /* \"7-Loops/loops.sol\":323:5473  contract loops {... */\n  mstore(0x40, 0x80)\n    /* \"7-Loops/loops.sol\":779:780  0 */\n  0x00\n    /* \"7-Loops/loops.sol\":756:780  uint256 public count = 0 */\n  0x03\n  sstore\n    /* \"7-Loops/loops.sol\":323:5473  contract loops {... */\n  callvalue\n  dup1\n  iszero\n  tag_1\n  jumpi\n  revert(0x00, 0x00)\ntag_1:\n  pop\n  dataSize(sub_0)\n  dup1\n  dataOffset(sub_0)\n  0x00\n  codecopy\n  0x00\n  return\nstop\n\nsub_0: assembly {\n        /* \"7-Loops/loops.sol\":323:5473  contract loops {... */\n      mstore(0x40, 0x80)\n      callvalue\n      dup1\n      iszero\n      tag_1\n      jumpi\n      revert(0x00, 0x00)\n    tag_1:\n      pop\n      jumpi(tag_2, lt(calldatasize, 0x04))\n      shr(0xe0, calldataload(0x00))\n      dup1\n      0xa87d942c\n      gt\n      tag_14\n      jumpi\n      dup1\n      0xa87d942c\n      eq\n      tag_8\n      jumpi\n      dup1\n      0xa92100cb\n      eq\n      tag_9\n      jumpi\n      dup1\n      0xbc68f960\n      eq\n      tag_10\n      jumpi\n      dup1\n      0xbe1c766b\n      eq\n      tag_11\n      jumpi\n      dup1\n      0xd504ea1d\n      eq\n      tag_12\n      jumpi\n      dup1\n      0xd826f88f\n      eq\n      tag_13\n      jumpi\n      revert(0x00, 0x00)\n    tag_14:\n      dup1\n      0x02a2cf0b\n      eq\n      tag_3\n      jumpi\n      dup1\n      0x06661abd\n      eq\n      tag_4\n      jumpi\n      dup1\n      0x2cd0936e\n      eq\n      tag_5\n      jumpi\n      dup1\n      0x587171c4\n      eq\n      tag_6\n      jumpi\n      dup1\n      0x71e5ee5f\n      eq\n      tag_7\n      jumpi\n    tag_2:\n      revert(0x00, 0x00)\n        /* \"7-Loops/loops.sol\":3437:3805  function dowhile() public {... */\n    tag_3:\n      tag_15\n      tag_16\n      jump\t// in\n    tag_15:\n      stop\n        /* \"7-Loops/loops.sol\":756:780  uint256 public count = 0 */\n    tag_4:\n      tag_17\n      sload(0x03)\n      dup2\n      jump\n    tag_17:\n      mload(0x40)\n        /* \"#utility.yul\":160:185   */\n      swap1\n      dup2\n      mstore\n        /* \"#utility.yul\":148:150   */\n      0x20\n        /* \"#utility.yul\":133:151   */\n      add\n        /* \"7-Loops/loops.sol\":756:780  uint256 public count = 0 */\n    tag_19:\n      mload(0x40)\n      dup1\n      swap2\n      sub\n      swap1\n      return\n        /* \"7-Loops/loops.sol\":5162:5471  function safeForLoop(uint256 startIndex, uint256 endIndex) public {... */\n    tag_5:\n      tag_15\n      tag_22\n      calldatasize\n      0x04\n      tag_23\n      jump\t// in\n    tag_22:\n      tag_24\n      jump\t// in\n        /* \"7-Loops/loops.sol\":2920:3137  function fixedForLoop() public {... */\n    tag_6:\n      tag_15\n      tag_26\n      jump\t// in\n        /* \"7-Loops/loops.sol\":543:564  uint256[3] public arr */\n    tag_7:\n      tag_17\n      tag_28\n      calldatasize\n      0x04\n      tag_29\n      jump\t// in\n    tag_28:\n      tag_30\n      jump\t// in\n        /* \"7-Loops/loops.sol\":4819:4898  function getCount() public view returns (uint256) {... */\n    tag_8:\n        /* \"7-Loops/loops.sol\":4886:4891  count */\n      sload(0x03)\n        /* \"7-Loops/loops.sol\":4819:4898  function getCount() public view returns (uint256) {... */\n      jump(tag_17)\n        /* \"7-Loops/loops.sol\":1268:1898  function loop() public {... */\n    tag_9:\n      tag_15\n      tag_36\n      jump\t// in\n        /* \"7-Loops/loops.sol\":2259:2735  function forloop() public {... */\n    tag_10:\n      tag_15\n      tag_38\n      jump\t// in\n        /* \"7-Loops/loops.sol\":3990:4075  function getLength() public view returns (uint256) {... */\n    tag_11:\n        /* \"7-Loops/loops.sol\":4058:4068  arr.length */\n      0x03\n        /* \"7-Loops/loops.sol\":3990:4075  function getLength() public view returns (uint256) {... */\n      jump(tag_17)\n        /* \"7-Loops/loops.sol\":4307:4394  function getArray() public view returns (uint256[3] memory) {... */\n    tag_12:\n      tag_42\n      tag_43\n      jump\t// in\n    tag_42:\n      mload(0x40)\n      tag_19\n      swap2\n      swap1\n      tag_45\n      jump\t// in\n        /* \"7-Loops/loops.sol\":4591:4666  function reset() public {... */\n    tag_13:\n      tag_15\n      tag_47\n      jump\t// in\n        /* \"7-Loops/loops.sol\":3437:3805  function dowhile() public {... */\n    tag_16:\n        /* \"7-Loops/loops.sol\":3638:3643  count */\n      sload(0x03)\n        /* \"7-Loops/loops.sol\":3625:3628  arr */\n      0x00\n        /* \"7-Loops/loops.sol\":3629:3634  count */\n      sload(0x03)\n        /* \"7-Loops/loops.sol\":3625:3635  arr[count] */\n      0x03\n      dup2\n      lt\n      tag_53\n      jumpi\n      tag_53\n      tag_54\n      jump\t// in\n    tag_53:\n      add\n        /* \"7-Loops/loops.sol\":3625:3643  arr[count] = count */\n      sstore\n        /* \"7-Loops/loops.sol\":3695:3700  count */\n      0x03\n        /* \"7-Loops/loops.sol\":3695:3702  count++ */\n      dup1\n      sload\n      swap1\n        /* \"7-Loops/loops.sol\":3695:3700  count */\n      0x00\n        /* \"7-Loops/loops.sol\":3695:3702  count++ */\n      tag_56\n      dup4\n      tag_57\n      jump\t// in\n    tag_56:\n      swap2\n      swap1\n      pop\n      sstore\n      pop\n        /* \"7-Loops/loops.sol\":3787:3797  arr.length */\n      0x03\n        /* \"7-Loops/loops.sol\":3779:3784  count */\n      dup1\n      sload\n        /* \"7-Loops/loops.sol\":3779:3797  count < arr.length */\n      lt\n        /* \"7-Loops/loops.sol\":3547:3799  do {... */\n      tag_16\n      jumpi\n        /* \"7-Loops/loops.sol\":3437:3805  function dowhile() public {... */\n      jump\t// out\n        /* \"7-Loops/loops.sol\":5162:5471  function safeForLoop(uint256 startIndex, uint256 endIndex) public {... */\n    tag_24:\n        /* \"7-Loops/loops.sol\":5258:5268  arr.length */\n      0x03\n        /* \"7-Loops/loops.sol\":5246:5254  endIndex */\n      dup2\n        /* \"7-Loops/loops.sol\":5246:5268  endIndex <= arr.length */\n      gt\n      iszero\n        /* \"7-Loops/loops.sol\":5238:5296  require(endIndex <= arr.length, \"End index out of bounds\") */\n      tag_59\n      jumpi\n      mload(0x40)\n      shl(0xe5, 0x461bcd)\n      dup2\n      mstore\n        /* \"#utility.yul\":1860:1862   */\n      0x20\n        /* \"7-Loops/loops.sol\":5238:5296  require(endIndex <= arr.length, \"End index out of bounds\") */\n      0x04\n      dup3\n      add\n        /* \"#utility.yul\":1842:1863   */\n      mstore\n        /* \"#utility.yul\":1899:1901   */\n      0x17\n        /* \"#utility.yul\":1879:1897   */\n      0x24\n      dup3\n      add\n        /* \"#utility.yul\":1872:1902   */\n      mstore\n        /* \"#utility.yul\":1938:1963   */\n      0x456e6420696e646578206f7574206f6620626f756e6473000000000000000000\n        /* \"#utility.yul\":1918:1936   */\n      0x44\n      dup3\n      add\n        /* \"#utility.yul\":1911:1964   */\n      mstore\n        /* \"#utility.yul\":1981:1999   */\n      0x64\n      add\n        /* \"7-Loops/loops.sol\":5238:5296  require(endIndex <= arr.length, \"End index out of bounds\") */\n    tag_60:\n      mload(0x40)\n      dup1\n      swap2\n      sub\n      swap1\n      revert\n    tag_59:\n        /* \"7-Loops/loops.sol\":5327:5335  endIndex */\n      dup1\n        /* \"7-Loops/loops.sol\":5314:5324  startIndex */\n      dup3\n        /* \"7-Loops/loops.sol\":5314:5335  startIndex < endIndex */\n      lt\n        /* \"7-Loops/loops.sol\":5306:5367  require(startIndex < endIndex, \"Start must be less than end\") */\n      tag_62\n      jumpi\n      mload(0x40)\n      shl(0xe5, 0x461bcd)\n      dup2\n      mstore\n        /* \"#utility.yul\":2212:2214   */\n      0x20\n        /* \"7-Loops/loops.sol\":5306:5367  require(startIndex < endIndex, \"Start must be less than end\") */\n      0x04\n      dup3\n      add\n        /* \"#utility.yul\":2194:2215   */\n      mstore\n        /* \"#utility.yul\":2251:2253   */\n      0x1b\n        /* \"#utility.yul\":2231:2249   */\n      0x24\n      dup3\n      add\n        /* \"#utility.yul\":2224:2254   */\n      mstore\n        /* \"#utility.yul\":2290:2319   */\n      0x5374617274206d757374206265206c657373207468616e20656e640000000000\n        /* \"#utility.yul\":2270:2288   */\n      0x44\n      dup3\n      add\n        /* \"#utility.yul\":2263:2320   */\n      mstore\n        /* \"#utility.yul\":2337:2355   */\n      0x64\n      add\n        /* \"7-Loops/loops.sol\":5306:5367  require(startIndex < endIndex, \"Start must be less than end\") */\n      tag_60\n        /* \"#utility.yul\":2010:2361   */\n      jump\n        /* \"7-Loops/loops.sol\":5306:5367  require(startIndex < endIndex, \"Start must be less than end\") */\n    tag_62:\n        /* \"7-Loops/loops.sol\":5395:5405  startIndex */\n      dup2\n        /* \"7-Loops/loops.sol\":5378:5465  for (uint256 i = startIndex; i < endIndex; i++) {... */\n    tag_65:\n        /* \"7-Loops/loops.sol\":5411:5419  endIndex */\n      dup2\n        /* \"7-Loops/loops.sol\":5407:5408  i */\n      dup2\n        /* \"7-Loops/loops.sol\":5407:5419  i < endIndex */\n      lt\n        /* \"7-Loops/loops.sol\":5378:5465  for (uint256 i = startIndex; i < endIndex; i++) {... */\n      iszero\n      tag_66\n      jumpi\n        /* \"7-Loops/loops.sol\":5449:5454  i * 2 */\n      tag_68\n        /* \"7-Loops/loops.sol\":5449:5450  i */\n      dup2\n        /* \"7-Loops/loops.sol\":5453:5454  2 */\n      0x02\n        /* \"7-Loops/loops.sol\":5449:5454  i * 2 */\n      tag_69\n      jump\t// in\n    tag_68:\n        /* \"7-Loops/loops.sol\":5440:5443  arr */\n      0x00\n        /* \"7-Loops/loops.sol\":5444:5445  i */\n      dup3\n        /* \"7-Loops/loops.sol\":5440:5446  arr[i] */\n      0x03\n      dup2\n      lt\n      tag_71\n      jumpi\n      tag_71\n      tag_54\n      jump\t// in\n    tag_71:\n      add\n        /* \"7-Loops/loops.sol\":5440:5454  arr[i] = i * 2 */\n      sstore\n        /* \"7-Loops/loops.sol\":5421:5424  i++ */\n      0x01\n      add\n        /* \"7-Loops/loops.sol\":5378:5465  for (uint256 i = startIndex; i < endIndex; i++) {... */\n      jump(tag_65)\n    tag_66:\n      pop\n        /* \"7-Loops/loops.sol\":5162:5471  function safeForLoop(uint256 startIndex, uint256 endIndex) public {... */\n      pop\n      pop\n      jump\t// out\n        /* \"7-Loops/loops.sol\":2920:3137  function fixedForLoop() public {... */\n    tag_26:\n        /* \"7-Loops/loops.sol\":2978:2983  count */\n      sload(0x03)\n        /* \"7-Loops/loops.sol\":2961:3131  for (uint256 i = count; i < arr.length; i++) {... */\n    tag_74:\n        /* \"7-Loops/loops.sol\":2989:2999  arr.length */\n      0x03\n        /* \"7-Loops/loops.sol\":2985:2986  i */\n      dup2\n        /* \"7-Loops/loops.sol\":2985:2999  i < arr.length */\n      lt\n        /* \"7-Loops/loops.sol\":2961:3131  for (uint256 i = count; i < arr.length; i++) {... */\n      iszero\n      tag_75\n      jumpi\n        /* \"7-Loops/loops.sol\":3029:3030  i */\n      dup1\n        /* \"7-Loops/loops.sol\":3020:3023  arr */\n      0x00\n        /* \"7-Loops/loops.sol\":3024:3025  i */\n      dup3\n        /* \"7-Loops/loops.sol\":3020:3026  arr[i] */\n      0x03\n      dup2\n      lt\n      tag_78\n      jumpi\n      tag_78\n      tag_54\n      jump\t// in\n    tag_78:\n      add\n        /* \"7-Loops/loops.sol\":3020:3030  arr[i] = i */\n      sstore\n        /* \"7-Loops/loops.sol\":3080:3085  i + 1 */\n      tag_80\n        /* \"7-Loops/loops.sol\":3080:3081  i */\n      dup2\n        /* \"7-Loops/loops.sol\":3084:3085  1 */\n      0x01\n        /* \"7-Loops/loops.sol\":3080:3085  i + 1 */\n      tag_81\n      jump\t// in\n    tag_80:\n        /* \"7-Loops/loops.sol\":3072:3077  count */\n      0x03\n        /* \"7-Loops/loops.sol\":3072:3085  count = i + 1 */\n      sstore\n        /* \"7-Loops/loops.sol\":3001:3004  i++ */\n      0x01\n      add\n        /* \"7-Loops/loops.sol\":2961:3131  for (uint256 i = count; i < arr.length; i++) {... */\n      jump(tag_74)\n    tag_75:\n      pop\n        /* \"7-Loops/loops.sol\":2920:3137  function fixedForLoop() public {... */\n      jump\t// out\n        /* \"7-Loops/loops.sol\":543:564  uint256[3] public arr */\n    tag_30:\n      0x00\n      dup2\n      0x03\n      dup2\n      lt\n      tag_82\n      jumpi\n      0x00\n      dup1\n      revert\n    tag_82:\n      add\n      sload\n      swap1\n      pop\n      dup2\n      jump\t// out\n        /* \"7-Loops/loops.sol\":1268:1898  function loop() public {... */\n    tag_36:\n        /* \"7-Loops/loops.sol\":1362:1363  2 */\n      0x02\n        /* \"7-Loops/loops.sol\":1486:1892  while (count < arr.length) {... */\n    tag_86:\n        /* \"7-Loops/loops.sol\":1501:1511  arr.length */\n      0x03\n        /* \"7-Loops/loops.sol\":1493:1498  count */\n      dup1\n      sload\n        /* \"7-Loops/loops.sol\":1493:1511  count < arr.length */\n      lt\n        /* \"7-Loops/loops.sol\":1486:1892  while (count < arr.length) {... */\n      iszero\n      tag_75\n      jumpi\n        /* \"7-Loops/loops.sol\":1663:1672  2 * value */\n      tag_88\n        /* \"7-Loops/loops.sol\":1667:1672  value */\n      dup2\n        /* \"7-Loops/loops.sol\":1663:1664  2 */\n      0x02\n        /* \"7-Loops/loops.sol\":1663:1672  2 * value */\n      tag_69\n      jump\t// in\n    tag_88:\n        /* \"7-Loops/loops.sol\":1650:1653  arr */\n      0x00\n        /* \"7-Loops/loops.sol\":1654:1659  count */\n      sload(0x03)\n        /* \"7-Loops/loops.sol\":1650:1660  arr[count] */\n      0x03\n      dup2\n      lt\n      tag_90\n      jumpi\n      tag_90\n      tag_54\n      jump\t// in\n    tag_90:\n      add\n        /* \"7-Loops/loops.sol\":1650:1672  arr[count] = 2 * value */\n      sstore\n        /* \"7-Loops/loops.sol\":1760:1769  value + 3 */\n      tag_92\n        /* \"7-Loops/loops.sol\":1760:1765  value */\n      dup2\n        /* \"7-Loops/loops.sol\":1768:1769  3 */\n      0x03\n        /* \"7-Loops/loops.sol\":1760:1769  value + 3 */\n      tag_81\n      jump\t// in\n    tag_92:\n        /* \"7-Loops/loops.sol\":1752:1769  value = value + 3 */\n      swap1\n      pop\n        /* \"7-Loops/loops.sol\":1855:1860  count */\n      sload(0x03)\n        /* \"7-Loops/loops.sol\":1863:1864  1 */\n      0x01\n        /* \"7-Loops/loops.sol\":1855:1864  count + 1 */\n      tag_93\n      swap2\n      swap1\n      tag_81\n      jump\t// in\n    tag_93:\n        /* \"7-Loops/loops.sol\":1847:1852  count */\n      0x03\n        /* \"7-Loops/loops.sol\":1847:1864  count = count + 1 */\n      sstore\n        /* \"7-Loops/loops.sol\":1486:1892  while (count < arr.length) {... */\n      jump(tag_86)\n        /* \"7-Loops/loops.sol\":2259:2735  function forloop() public {... */\n    tag_38:\n        /* \"7-Loops/loops.sol\":2443:2448  count */\n      sload(0x03)\n        /* \"7-Loops/loops.sol\":2426:2729  for (uint256 i = count; i < arr.length; i++) {... */\n    tag_95:\n        /* \"7-Loops/loops.sol\":2454:2464  arr.length */\n      0x03\n        /* \"7-Loops/loops.sol\":2450:2451  i */\n      dup2\n        /* \"7-Loops/loops.sol\":2450:2464  i < arr.length */\n      lt\n        /* \"7-Loops/loops.sol\":2426:2729  for (uint256 i = count; i < arr.length; i++) {... */\n      iszero\n      tag_75\n      jumpi\n        /* \"7-Loops/loops.sol\":2571:2576  count */\n      sload(0x03)\n        /* \"7-Loops/loops.sol\":2558:2561  arr */\n      0x00\n        /* \"7-Loops/loops.sol\":2562:2567  count */\n      sload(0x03)\n        /* \"7-Loops/loops.sol\":2558:2568  arr[count] */\n      0x03\n      dup2\n      lt\n      tag_99\n      jumpi\n      tag_99\n      tag_54\n      jump\t// in\n    tag_99:\n      add\n        /* \"7-Loops/loops.sol\":2558:2576  arr[count] = count */\n      sstore\n        /* \"7-Loops/loops.sol\":2466:2469  i++ */\n      0x01\n      add\n        /* \"7-Loops/loops.sol\":2426:2729  for (uint256 i = count; i < arr.length; i++) {... */\n      jump(tag_95)\n        /* \"7-Loops/loops.sol\":4307:4394  function getArray() public view returns (uint256[3] memory) {... */\n    tag_43:\n        /* \"7-Loops/loops.sol\":4348:4365  uint256[3] memory */\n      tag_102\n      tag_103\n      jump\t// in\n    tag_102:\n        /* \"7-Loops/loops.sol\":4377:4387  return arr */\n      0x40\n      dup1\n      mload\n      0x60\n      dup2\n      add\n      swap2\n      dup3\n      swap1\n      mstore\n      swap1\n      0x00\n      swap1\n      0x03\n      swap1\n      dup3\n      dup5\n    tag_106:\n      dup2\n      sload\n      dup2\n      mstore\n      0x20\n      add\n      swap1\n      0x01\n      add\n      swap1\n      dup1\n      dup4\n      gt\n      tag_106\n      jumpi\n      pop\n      pop\n      pop\n      pop\n      pop\n      swap1\n      pop\n        /* \"7-Loops/loops.sol\":4307:4394  function getArray() public view returns (uint256[3] memory) {... */\n      swap1\n      jump\t// out\n        /* \"7-Loops/loops.sol\":4591:4666  function reset() public {... */\n    tag_47:\n        /* \"7-Loops/loops.sol\":4633:4634  0 */\n      0x00\n        /* \"7-Loops/loops.sol\":4625:4630  count */\n      0x03\n        /* \"7-Loops/loops.sol\":4625:4634  count = 0 */\n      dup2\n      dup2\n      sstore\n        /* \"7-Loops/loops.sol\":4644:4659  arr = [0, 0, 0] */\n      0x40\n      dup1\n      mload\n      0x60\n      dup2\n      add\n      dup3\n      mstore\n      dup4\n      dup2\n      mstore\n      0x20\n      dup2\n      add\n      dup5\n      swap1\n      mstore\n      swap1\n      dup2\n      add\n      dup4\n      swap1\n      mstore\n      tag_75\n      swap3\n        /* \"7-Loops/loops.sol\":4633:4634  0 */\n      swap2\n        /* \"7-Loops/loops.sol\":4644:4659  arr = [0, 0, 0] */\n      tag_109\n      jump\t// in\n    tag_103:\n      mload(0x40)\n      dup1\n      0x60\n      add\n      0x40\n      mstore\n      dup1\n      0x03\n      swap1\n      0x20\n      dup3\n      mul\n      dup1\n      calldatasize\n      dup4\n      calldatacopy\n      pop\n      swap2\n      swap3\n      swap2\n      pop\n      pop\n      jump\t// out\n    tag_109:\n      dup3\n      0x03\n      dup2\n      add\n      swap3\n      dup3\n      iszero\n      tag_112\n      jumpi\n      swap2\n      0x20\n      mul\n      dup3\n      add\n    tag_111:\n      dup3\n      dup2\n      gt\n      iszero\n      tag_112\n      jumpi\n      dup3\n      mload\n      dup3\n      swap1\n      0xff\n      and\n      swap1\n      sstore\n      swap2\n      0x20\n      add\n      swap2\n      swap1\n      0x01\n      add\n      swap1\n      jump(tag_111)\n    tag_112:\n      pop\n      tag_113\n      swap3\n      swap2\n      pop\n      tag_114\n      jump\t// in\n    tag_113:\n      pop\n      swap1\n      jump\t// out\n    tag_114:\n    tag_115:\n      dup1\n      dup3\n      gt\n      iszero\n      tag_113\n      jumpi\n      0x00\n      dup2\n      sstore\n      0x01\n      add\n      jump(tag_115)\n        /* \"#utility.yul\":196:542   */\n    tag_23:\n        /* \"#utility.yul\":264:270   */\n      0x00\n        /* \"#utility.yul\":272:278   */\n      0x00\n        /* \"#utility.yul\":325:327   */\n      0x40\n        /* \"#utility.yul\":313:322   */\n      dup4\n        /* \"#utility.yul\":304:311   */\n      dup6\n        /* \"#utility.yul\":300:323   */\n      sub\n        /* \"#utility.yul\":296:328   */\n      slt\n        /* \"#utility.yul\":293:345   */\n      iszero\n      tag_121\n      jumpi\n        /* \"#utility.yul\":341:342   */\n      0x00\n        /* \"#utility.yul\":338:339   */\n      0x00\n        /* \"#utility.yul\":331:343   */\n      revert\n        /* \"#utility.yul\":293:345   */\n    tag_121:\n      pop\n      pop\n        /* \"#utility.yul\":386:409   */\n      dup1\n      calldataload\n      swap3\n        /* \"#utility.yul\":506:508   */\n      0x20\n        /* \"#utility.yul\":491:509   */\n      swap1\n      swap2\n      add\n        /* \"#utility.yul\":478:510   */\n      calldataload\n      swap2\n      pop\n        /* \"#utility.yul\":196:542   */\n      jump\t// out\n        /* \"#utility.yul\":547:773   */\n    tag_29:\n        /* \"#utility.yul\":606:612   */\n      0x00\n        /* \"#utility.yul\":659:661   */\n      0x20\n        /* \"#utility.yul\":647:656   */\n      dup3\n        /* \"#utility.yul\":638:645   */\n      dup5\n        /* \"#utility.yul\":634:657   */\n      sub\n        /* \"#utility.yul\":630:662   */\n      slt\n        /* \"#utility.yul\":627:679   */\n      iszero\n      tag_123\n      jumpi\n        /* \"#utility.yul\":675:676   */\n      0x00\n        /* \"#utility.yul\":672:673   */\n      0x00\n        /* \"#utility.yul\":665:677   */\n      revert\n        /* \"#utility.yul\":627:679   */\n    tag_123:\n      pop\n        /* \"#utility.yul\":720:743   */\n      calldataload\n      swap2\n        /* \"#utility.yul\":547:773   */\n      swap1\n      pop\n      jump\t// out\n        /* \"#utility.yul\":778:1249   */\n    tag_45:\n        /* \"#utility.yul\":958:960   */\n      0x60\n        /* \"#utility.yul\":943:961   */\n      dup2\n      add\n        /* \"#utility.yul\":947:956   */\n      dup2\n        /* \"#utility.yul\":1038:1044   */\n      dup4\n        /* \"#utility.yul\":916:920   */\n      0x00\n        /* \"#utility.yul\":1072:1243   */\n    tag_125:\n        /* \"#utility.yul\":1086:1090   */\n      0x03\n        /* \"#utility.yul\":1083:1084   */\n      dup2\n        /* \"#utility.yul\":1080:1091   */\n      lt\n        /* \"#utility.yul\":1072:1243   */\n      iszero\n      tag_127\n      jumpi\n        /* \"#utility.yul\":1145:1158   */\n      dup2\n      mload\n        /* \"#utility.yul\":1133:1159   */\n      dup4\n      mstore\n        /* \"#utility.yul\":1188:1192   */\n      0x20\n        /* \"#utility.yul\":1179:1193   */\n      swap3\n      dup4\n      add\n      swap3\n        /* \"#utility.yul\":1216:1233   */\n      swap1\n      swap2\n      add\n      swap1\n        /* \"#utility.yul\":1106:1107   */\n      0x01\n        /* \"#utility.yul\":1099:1108   */\n      add\n        /* \"#utility.yul\":1072:1243   */\n      jump(tag_125)\n    tag_127:\n        /* \"#utility.yul\":1076:1079   */\n      pop\n      pop\n      pop\n        /* \"#utility.yul\":778:1249   */\n      swap3\n      swap2\n      pop\n      pop\n      jump\t// out\n        /* \"#utility.yul\":1254:1381   */\n    tag_54:\n        /* \"#utility.yul\":1315:1325   */\n      0x4e487b71\n        /* \"#utility.yul\":1310:1313   */\n      0xe0\n        /* \"#utility.yul\":1306:1326   */\n      shl\n        /* \"#utility.yul\":1303:1304   */\n      0x00\n        /* \"#utility.yul\":1296:1327   */\n      mstore\n        /* \"#utility.yul\":1346:1350   */\n      0x32\n        /* \"#utility.yul\":1343:1344   */\n      0x04\n        /* \"#utility.yul\":1336:1351   */\n      mstore\n        /* \"#utility.yul\":1370:1374   */\n      0x24\n        /* \"#utility.yul\":1367:1368   */\n      0x00\n        /* \"#utility.yul\":1360:1375   */\n      revert\n        /* \"#utility.yul\":1386:1513   */\n    tag_117:\n        /* \"#utility.yul\":1447:1457   */\n      0x4e487b71\n        /* \"#utility.yul\":1442:1445   */\n      0xe0\n        /* \"#utility.yul\":1438:1458   */\n      shl\n        /* \"#utility.yul\":1435:1436   */\n      0x00\n        /* \"#utility.yul\":1428:1459   */\n      mstore\n        /* \"#utility.yul\":1478:1482   */\n      0x11\n        /* \"#utility.yul\":1475:1476   */\n      0x04\n        /* \"#utility.yul\":1468:1483   */\n      mstore\n        /* \"#utility.yul\":1502:1506   */\n      0x24\n        /* \"#utility.yul\":1499:1500   */\n      0x00\n        /* \"#utility.yul\":1492:1507   */\n      revert\n        /* \"#utility.yul\":1518:1653   */\n    tag_57:\n        /* \"#utility.yul\":1557:1560   */\n      0x00\n        /* \"#utility.yul\":1578:1595   */\n      0x01\n      dup3\n      add\n        /* \"#utility.yul\":1575:1618   */\n      tag_132\n      jumpi\n        /* \"#utility.yul\":1598:1616   */\n      tag_132\n      tag_117\n      jump\t// in\n    tag_132:\n      pop\n        /* \"#utility.yul\":1645:1646   */\n      0x01\n        /* \"#utility.yul\":1634:1647   */\n      add\n      swap1\n        /* \"#utility.yul\":1518:1653   */\n      jump\t// out\n        /* \"#utility.yul\":2366:2534   */\n    tag_69:\n        /* \"#utility.yul\":2439:2448   */\n      dup1\n      dup3\n      mul\n        /* \"#utility.yul\":2470:2479   */\n      dup2\n      iszero\n        /* \"#utility.yul\":2487:2502   */\n      dup3\n      dup3\n      div\n        /* \"#utility.yul\":2481:2503   */\n      dup5\n      eq\n        /* \"#utility.yul\":2467:2504   */\n      or\n        /* \"#utility.yul\":2457:2528   */\n      tag_137\n      jumpi\n        /* \"#utility.yul\":2508:2526   */\n      tag_137\n      tag_117\n      jump\t// in\n    tag_137:\n        /* \"#utility.yul\":2366:2534   */\n      swap3\n      swap2\n      pop\n      pop\n      jump\t// out\n        /* \"#utility.yul\":2539:2664   */\n    tag_81:\n        /* \"#utility.yul\":2604:2613   */\n      dup1\n      dup3\n      add\n        /* \"#utility.yul\":2625:2635   */\n      dup1\n      dup3\n      gt\n        /* \"#utility.yul\":2622:2658   */\n      iszero\n      tag_137\n      jumpi\n        /* \"#utility.yul\":2638:2656   */\n      tag_137\n      tag_117\n      jump\t// in\n\n    auxdata: 0xa26469706673582212209de9dc8b64fb795d4074451f513f70a9a7680e906dc1865e41f40b30aeed9d7664736f6c634300081e0033\n}\n",
				"bytecode": {
					"linkReferences": {},
					"object": "60806040525f6003553480156012575f5ffd5b50610503806100205f395ff3fe608060405234801561000f575f5ffd5b50600436106100a6575f3560e01c8063a87d942c1161006e578063a87d942c146100fe578063a92100cb14610106578063bc68f9601461010e578063be1c766b14610116578063d504ea1d1461011d578063d826f88f14610132575f5ffd5b806302a2cf0b146100aa57806306661abd146100b45780632cd0936e146100d0578063587171c4146100e357806371e5ee5f146100eb575b5f5ffd5b6100b261013a565b005b6100bd60035481565b6040519081526020015b60405180910390f35b6100b26100de3660046103f6565b610172565b6100b261024d565b6100bd6100f9366004610416565b610288565b6003546100bd565b6100b261029d565b6100b26102ef565b60036100bd565b61012561031d565b6040516100c7919061042d565b6100b2610357565b6003545f600354600381106101515761015161045d565b015560038054905f61016283610485565b9190505550600380541061013a57565b60038111156101c85760405162461bcd60e51b815260206004820152601760248201527f456e6420696e646578206f7574206f6620626f756e647300000000000000000060448201526064015b60405180910390fd5b8082106102175760405162461bcd60e51b815260206004820152601b60248201527f5374617274206d757374206265206c657373207468616e20656e64000000000060448201526064016101bf565b815b818110156102485761022c81600261049d565b5f826003811061023e5761023e61045d565b0155600101610219565b505050565b6003545b600381101561028557805f826003811061026d5761026d61045d565b015561027a8160016104ba565b600355600101610251565b50565b5f8160038110610296575f80fd5b0154905081565b60025b600380541015610285576102b581600261049d565b5f600354600381106102c9576102c961045d565b01556102d68160036104ba565b905060035460016102e791906104ba565b6003556102a0565b6003545b6003811015610285576003545f600354600381106103135761031361045d565b01556001016102f3565b610325610381565b604080516060810191829052905f9060039082845b81548152602001906001019080831161033a575050505050905090565b5f60038181556040805160608101825283815260208101849052908101839052610285929161039f565b60405180606001604052806003906020820280368337509192915050565b82600381019282156103d2579160200282015b828111156103d2578251829060ff169055916020019190600101906103b2565b506103de9291506103e2565b5090565b5b808211156103de575f81556001016103e3565b5f5f60408385031215610407575f5ffd5b50508035926020909101359150565b5f60208284031215610426575f5ffd5b5035919050565b6060810181835f5b6003811015610454578151835260209283019290910190600101610435565b50505092915050565b634e487b7160e01b5f52603260045260245ffd5b634e487b7160e01b5f52601160045260245ffd5b5f6001820161049657610496610471565b5060010190565b80820281158282048414176104b4576104b4610471565b92915050565b808201808211156104b4576104b461047156fea26469706673582212209de9dc8b64fb795d4074451f513f70a9a7680e906dc1865e41f40b30aeed9d7664736f6c634300081e0033",
					"opcodes": "PUSH1 0x80 PUSH1 0x40 MSTORE PUSH0 PUSH1 0x3 SSTORE CALLVALUE DUP1 ISZERO PUSH1 0x12 JUMPI PUSH0 PUSH0 REVERT JUMPDEST POP PUSH2 0x503 DUP1 PUSH2 0x20 PUSH0 CODECOPY PUSH0 RETURN INVALID PUSH1 0x80 PUSH1 0x40 MSTORE CALLVALUE DUP1 ISZERO PUSH2 0xF JUMPI PUSH0 PUSH0 REVERT JUMPDEST POP PUSH1 0x4 CALLDATASIZE LT PUSH2 0xA6 JUMPI PUSH0 CALLDATALOAD PUSH1 0xE0 SHR DUP1 PUSH4 0xA87D942C GT PUSH2 0x6E JUMPI DUP1 PUSH4 0xA87D942C EQ PUSH2 0xFE JUMPI DUP1 PUSH4 0xA92100CB EQ PUSH2 0x106 JUMPI DUP1 PUSH4 0xBC68F960 EQ PUSH2 0x10E JUMPI DUP1 PUSH4 0xBE1C766B EQ PUSH2 0x116 JUMPI DUP1 PUSH4 0xD504EA1D EQ PUSH2 0x11D JUMPI DUP1 PUSH4 0xD826F88F EQ PUSH2 0x132 JUMPI PUSH0 PUSH0 REVERT JUMPDEST DUP1 PUSH4 0x2A2CF0B EQ PUSH2 0xAA JUMPI DUP1 PUSH4 0x6661ABD EQ PUSH2 0xB4 JUMPI DUP1 PUSH4 0x2CD0936E EQ PUSH2 0xD0 JUMPI DUP1 PUSH4 0x587171C4 EQ PUSH2 0xE3 JUMPI DUP1 PUSH4 0x71E5EE5F EQ PUSH2 0xEB JUMPI JUMPDEST PUSH0 PUSH0 REVERT JUMPDEST PUSH2 0xB2 PUSH2 0x13A JUMP JUMPDEST STOP JUMPDEST PUSH2 0xBD PUSH1 0x3 SLOAD DUP2 JUMP JUMPDEST PUSH1 0x40 MLOAD SWAP1 DUP2 MSTORE PUSH1 0x20 ADD JUMPDEST PUSH1 0x40 MLOAD DUP1 SWAP2 SUB SWAP1 RETURN JUMPDEST PUSH2 0xB2 PUSH2 0xDE CALLDATASIZE PUSH1 0x4 PUSH2 0x3F6 JUMP JUMPDEST PUSH2 0x172 JUMP JUMPDEST PUSH2 0xB2 PUSH2 0x24D JUMP JUMPDEST PUSH2 0xBD PUSH2 0xF9 CALLDATASIZE PUSH1 0x4 PUSH2 0x416 JUMP JUMPDEST PUSH2 0x288 JUMP JUMPDEST PUSH1 0x3 SLOAD PUSH2 0xBD JUMP JUMPDEST PUSH2 0xB2 PUSH2 0x29D JUMP JUMPDEST PUSH2 0xB2 PUSH2 0x2EF JUMP JUMPDEST PUSH1 0x3 PUSH2 0xBD JUMP JUMPDEST PUSH2 0x125 PUSH2 0x31D JUMP JUMPDEST PUSH1 0x40 MLOAD PUSH2 0xC7 SWAP2 SWAP1 PUSH2 0x42D JUMP JUMPDEST PUSH2 0xB2 PUSH2 0x357 JUMP JUMPDEST PUSH1 0x3 SLOAD PUSH0 PUSH1 0x3 SLOAD PUSH1 0x3 DUP2 LT PUSH2 0x151 JUMPI PUSH2 0x151 PUSH2 0x45D JUMP JUMPDEST ADD SSTORE PUSH1 0x3 DUP1 SLOAD SWAP1 PUSH0 PUSH2 0x162 DUP4 PUSH2 0x485 JUMP JUMPDEST SWAP2 SWAP1 POP SSTORE POP PUSH1 0x3 DUP1 SLOAD LT PUSH2 0x13A JUMPI JUMP JUMPDEST PUSH1 0x3 DUP2 GT ISZERO PUSH2 0x1C8 JUMPI PUSH1 0x40 MLOAD PUSH3 0x461BCD PUSH1 0xE5 SHL DUP2 MSTORE PUSH1 0x20 PUSH1 0x4 DUP3 ADD MSTORE PUSH1 0x17 PUSH1 0x24 DUP3 ADD MSTORE PUSH32 0x456E6420696E646578206F7574206F6620626F756E6473000000000000000000 PUSH1 0x44 DUP3 ADD MSTORE PUSH1 0x64 ADD JUMPDEST PUSH1 0x40 MLOAD DUP1 SWAP2 SUB SWAP1 REVERT JUMPDEST DUP1 DUP3 LT PUSH2 0x217 JUMPI PUSH1 0x40 MLOAD PUSH3 0x461BCD PUSH1 0xE5 SHL DUP2 MSTORE PUSH1 0x20 PUSH1 0x4 DUP3 ADD MSTORE PUSH1 0x1B PUSH1 0x24 DUP3 ADD MSTORE PUSH32 0x5374617274206D757374206265206C657373207468616E20656E640000000000 PUSH1 0x44 DUP3 ADD MSTORE PUSH1 0x64 ADD PUSH2 0x1BF JUMP JUMPDEST DUP2 JUMPDEST DUP2 DUP2 LT ISZERO PUSH2 0x248 JUMPI PUSH2 0x22C DUP2 PUSH1 0x2 PUSH2 0x49D JUMP JUMPDEST PUSH0 DUP3 PUSH1 0x3 DUP2 LT PUSH2 0x23E JUMPI PUSH2 0x23E PUSH2 0x45D JUMP JUMPDEST ADD SSTORE PUSH1 0x1 ADD PUSH2 0x219 JUMP JUMPDEST POP POP POP JUMP JUMPDEST PUSH1 0x3 SLOAD JUMPDEST PUSH1 0x3 DUP2 LT ISZERO PUSH2 0x285 JUMPI DUP1 PUSH0 DUP3 PUSH1 0x3 DUP2 LT PUSH2 0x26D JUMPI PUSH2 0x26D PUSH2 0x45D JUMP JUMPDEST ADD SSTORE PUSH2 0x27A DUP2 PUSH1 0x1 PUSH2 0x4BA JUMP JUMPDEST PUSH1 0x3 SSTORE PUSH1 0x1 ADD PUSH2 0x251 JUMP JUMPDEST POP JUMP JUMPDEST PUSH0 DUP2 PUSH1 0x3 DUP2 LT PUSH2 0x296 JUMPI PUSH0 DUP1 REVERT JUMPDEST ADD SLOAD SWAP1 POP DUP2 JUMP JUMPDEST PUSH1 0x2 JUMPDEST PUSH1 0x3 DUP1 SLOAD LT ISZERO PUSH2 0x285 JUMPI PUSH2 0x2B5 DUP2 PUSH1 0x2 PUSH2 0x49D JUMP JUMPDEST PUSH0 PUSH1 0x3 SLOAD PUSH1 0x3 DUP2 LT PUSH2 0x2C9 JUMPI PUSH2 0x2C9 PUSH2 0x45D JUMP JUMPDEST ADD SSTORE PUSH2 0x2D6 DUP2 PUSH1 0x3 PUSH2 0x4BA JUMP JUMPDEST SWAP1 POP PUSH1 0x3 SLOAD PUSH1 0x1 PUSH2 0x2E7 SWAP2 SWAP1 PUSH2 0x4BA JUMP JUMPDEST PUSH1 0x3 SSTORE PUSH2 0x2A0 JUMP JUMPDEST PUSH1 0x3 SLOAD JUMPDEST PUSH1 0x3 DUP2 LT ISZERO PUSH2 0x285 JUMPI PUSH1 0x3 SLOAD PUSH0 PUSH1 0x3 SLOAD PUSH1 0x3 DUP2 LT PUSH2 0x313 JUMPI PUSH2 0x313 PUSH2 0x45D JUMP JUMPDEST ADD SSTORE PUSH1 0x1 ADD PUSH2 0x2F3 JUMP JUMPDEST PUSH2 0x325 PUSH2 0x381 JUMP JUMPDEST PUSH1 0x40 DUP1 MLOAD PUSH1 0x60 DUP2 ADD SWAP2 DUP3 SWAP1 MSTORE SWAP1 PUSH0 SWAP1 PUSH1 0x3 SWAP1 DUP3 DUP5 JUMPDEST DUP2 SLOAD DUP2 MSTORE PUSH1 0x20 ADD SWAP1 PUSH1 0x1 ADD SWAP1 DUP1 DUP4 GT PUSH2 0x33A JUMPI POP POP POP POP POP SWAP1 POP SWAP1 JUMP JUMPDEST PUSH0 PUSH1 0x3 DUP2 DUP2 SSTORE PUSH1 0x40 DUP1 MLOAD PUSH1 0x60 DUP2 ADD DUP3 MSTORE DUP4 DUP2 MSTORE PUSH1 0x20 DUP2 ADD DUP5 SWAP1 MSTORE SWAP1 DUP2 ADD DUP4 SWAP1 MSTORE PUSH2 0x285 SWAP3 SWAP2 PUSH2 0x39F JUMP JUMPDEST PUSH1 0x40 MLOAD DUP1 PUSH1 0x60 ADD PUSH1 0x40 MSTORE DUP1 PUSH1 0x3 SWAP1 PUSH1 0x20 DUP3 MUL DUP1 CALLDATASIZE DUP4 CALLDATACOPY POP SWAP2 SWAP3 SWAP2 POP POP JUMP JUMPDEST DUP3 PUSH1 0x3 DUP2 ADD SWAP3 DUP3 ISZERO PUSH2 0x3D2 JUMPI SWAP2 PUSH1 0x20 MUL DUP3 ADD JUMPDEST DUP3 DUP2 GT ISZERO PUSH2 0x3D2 JUMPI DUP3 MLOAD DUP3 SWAP1 PUSH1 0xFF AND SWAP1 SSTORE SWAP2 PUSH1 0x20 ADD SWAP2 SWAP1 PUSH1 0x1 ADD SWAP1 PUSH2 0x3B2 JUMP JUMPDEST POP PUSH2 0x3DE SWAP3 SWAP2 POP PUSH2 0x3E2 JUMP JUMPDEST POP SWAP1 JUMP JUMPDEST JUMPDEST DUP1 DUP3 GT ISZERO PUSH2 0x3DE JUMPI PUSH0 DUP2 SSTORE PUSH1 0x1 ADD PUSH2 0x3E3 JUMP JUMPDEST PUSH0 PUSH0 PUSH1 0x40 DUP4 DUP6 SUB SLT ISZERO PUSH2 0x407 JUMPI PUSH0 PUSH0 REVERT JUMPDEST POP POP DUP1 CALLDATALOAD SWAP3 PUSH1 0x20 SWAP1 SWAP2 ADD CALLDATALOAD SWAP2 POP JUMP JUMPDEST PUSH0 PUSH1 0x20 DUP3 DUP5 SUB SLT ISZERO PUSH2 0x426 JUMPI PUSH0 PUSH0 REVERT JUMPDEST POP CALLDATALOAD SWAP2 SWAP1 POP JUMP JUMPDEST PUSH1 0x60 DUP2 ADD DUP2 DUP4 PUSH0 JUMPDEST PUSH1 0x3 DUP2 LT ISZERO PUSH2 0x454 JUMPI DUP2 MLOAD DUP4 MSTORE PUSH1 0x20 SWAP3 DUP4 ADD SWAP3 SWAP1 SWAP2 ADD SWAP1 PUSH1 0x1 ADD PUSH2 0x435 JUMP JUMPDEST POP POP POP SWAP3 SWAP2 POP POP JUMP JUMPDEST PUSH4 0x4E487B71 PUSH1 0xE0 SHL PUSH0 MSTORE PUSH1 0x32 PUSH1 0x4 MSTORE PUSH1 0x24 PUSH0 REVERT JUMPDEST PUSH4 0x4E487B71 PUSH1 0xE0 SHL PUSH0 MSTORE PUSH1 0x11 PUSH1 0x4 MSTORE PUSH1 0x24 PUSH0 REVERT JUMPDEST PUSH0 PUSH1 0x1 DUP3 ADD PUSH2 0x496 JUMPI PUSH2 0x496 PUSH2 0x471 JUMP JUMPDEST POP PUSH1 0x1 ADD SWAP1 JUMP JUMPDEST DUP1 DUP3 MUL DUP2 ISZERO DUP3 DUP3 DIV DUP5 EQ OR PUSH2 0x4B4 JUMPI PUSH2 0x4B4 PUSH2 0x471 JUMP JUMPDEST SWAP3 SWAP2 POP POP JUMP JUMPDEST DUP1 DUP3 ADD DUP1 DUP3 GT ISZERO PUSH2 0x4B4 JUMPI PUSH2 0x4B4 PUSH2 0x471 JUMP INVALID LOG2 PUSH5 0x6970667358 0x22 SLT KECCAK256 SWAP14 0xE9 0xDC DUP12 PUSH5 0xFB795D4074 GASLIMIT 0x1F MLOAD EXTCODEHASH PUSH17 0xA9A7680E906DC1865E41F40B30AEED9D76 PUSH5 0x736F6C6343 STOP ADDMOD 0x1E STOP CALLER "
				},
				"gasEstimates": {
					"creation": {
						"codeDepositCost": "256600",
						"executionCost": "5303",
						"totalCost": "261903"
					},
					"external": {
						"arr(uint256)": "2493",
						"count()": "2306",
						"dowhile()": "infinite",
						"fixedForLoop()": "infinite",
						"forloop()": "infinite",
						"getArray()": "infinite",
						"getCount()": "2280",
						"getLength()": "246",
						"loop()": "infinite",
						"reset()": "infinite",
						"safeForLoop(uint256,uint256)": "infinite"
					}
				},
				"methodIdentifiers": {
					"arr(uint256)": "71e5ee5f",
					"count()": "06661abd",
					"dowhile()": "02a2cf0b",
					"fixedForLoop()": "587171c4",
					"forloop()": "bc68f960",
					"getArray()": "d504ea1d",
					"getCount()": "a87d942c",
					"getLength()": "be1c766b",
					"loop()": "a92100cb",
					"reset()": "d826f88f",
					"safeForLoop(uint256,uint256)": "2cd0936e"
				}
			},
			"storageLayout": {
				"storage": [
					{
						"astId": 7,
						"contract": "7-Loops/loops.sol:loops",
						"label": "arr",
						"offset": 0,
						"slot": "0",
						"type": "t_array(t_uint256)3_storage"
					},
					{
						"astId": 11,
						"contract": "7-Loops/loops.sol:loops",
						"label": "count",
						"offset": 0,
						"slot": "3",
						"type": "t_uint256"
					}
				],
				"types": {
					"t_array(t_uint256)3_storage": {
						"base": "t_uint256",
						"encoding": "inplace",
						"label": "uint256[3]",
						"numberOfBytes": "96"
					},
					"t_uint256": {
						"encoding": "inplace",
						"label": "uint256",
						"numberOfBytes": "32"
					}
				}
			},
			"userdoc": {
				"kind": "user",
				"methods": {
					"arr(uint256)": {
						"notice": "Public visibility automatically generates a getter functionInitialized with default values [0, 0, 0]"
					},
					"count()": {
						"notice": "Used across multiple loop functions to demonstrate state persistenceInitialized to 0"
					},
					"dowhile()": {
						"notice": "Fills array positions starting from countEach position gets its index as valueGuaranteed to execute at least once"
					},
					"fixedForLoop()": {
						"notice": "Properly fills array positions from count to endEach position gets its index as value"
					},
					"forloop()": {
						"notice": "Attempts to fill array positions starting from count"
					},
					"getArray()": {
						"notice": "Returns the current state of all array elementsFor large arrays, this could consume significant gas"
					},
					"getCount()": {
						"notice": "Shows progress through the array"
					},
					"getLength()": {
						"notice": "View function - no gas cost when called externally"
					},
					"loop()": {
						"notice": "Fills the array with values following the pattern: 4, 10, 16Pattern: arr[count] = 2 * value, where value starts at 2 and increments by 3Stops when count reaches array length (3)"
					},
					"reset()": {
						"notice": "Allows re-running the loop demonstrationsUseful for testing the contract multiple times"
					},
					"safeForLoop(uint256,uint256)": {
						"notice": "Shows proper bounds checking to prevent out-of-bounds access"
					}
				},
				"notice": "Shows while, for, and do-while loops with array operationsHighlights important considerations when using loops in smart contracts",
				"version": 1
			}
		}
	}
}