{
	"13- Contract Balance/demo.sol": {
		"pay": {
			"abi": [
				{
					"inputs": [],
					"name": "getBalance",
					"outputs": [
						{
							"internalType": "uint256",
							"name": "",
							"type": "uint256"
						}
					],
					"stateMutability": "view",
					"type": "function"
				},
				{
					"inputs": [],
					"name": "payEther",
					"outputs": [],
					"stateMutability": "payable",
					"type": "function"
				},
				{
					"inputs": [],
					"name": "sendEtherAccount",
					"outputs": [],
					"stateMutability": "nonpayable",
					"type": "function"
				}
			],
			"devdoc": {
				"kind": "dev",
				"methods": {},
				"version": 1
			},
			"evm": {
				"assembly": "    /* \"13- Contract Balance/demo.sol\":65:649  contract pay {... */\n  mstore(0x40, 0x80)\n    /* \"13- Contract Balance/demo.sol\":418:492  address payable user = payable(0x03C6FcED478cBbC9a4FAB34eF9f40767739D1Ff7) */\n  0x00\n  dup1\n  sload\n  not(sub(shl(0xa0, 0x01), 0x01))\n  and\n    /* \"13- Contract Balance/demo.sol\":449:491  0x03C6FcED478cBbC9a4FAB34eF9f40767739D1Ff7 */\n  0x03c6fced478cbbc9a4fab34ef9f40767739d1ff7\n    /* \"13- Contract Balance/demo.sol\":418:492  address payable user = payable(0x03C6FcED478cBbC9a4FAB34eF9f40767739D1Ff7) */\n  or\n  swap1\n  sstore\n    /* \"13- Contract Balance/demo.sol\":65:649  contract pay {... */\n  callvalue\n  dup1\n  iszero\n  tag_1\n  jumpi\n  revert(0x00, 0x00)\ntag_1:\n  pop\n  dataSize(sub_0)\n  dup1\n  dataOffset(sub_0)\n  0x00\n  codecopy\n  0x00\n  return\nstop\n\nsub_0: assembly {\n        /* \"13- Contract Balance/demo.sol\":65:649  contract pay {... */\n      mstore(0x40, 0x80)\n      jumpi(tag_1, lt(calldatasize, 0x04))\n      shr(0xe0, calldataload(0x00))\n      dup1\n      0x12065fe0\n      eq\n      tag_2\n      jumpi\n      dup1\n      0x990fce44\n      eq\n      tag_3\n      jumpi\n      dup1\n      0xf7474d00\n      eq\n      tag_11\n      jumpi\n    tag_1:\n      revert(0x00, 0x00)\n        /* \"13- Contract Balance/demo.sol\":257:354  function getBalance() public view returns (uint256) {... */\n    tag_2:\n      callvalue\n      dup1\n      iszero\n      tag_5\n      jumpi\n      revert(0x00, 0x00)\n    tag_5:\n      pop\n        /* \"13- Contract Balance/demo.sol\":326:347  address(this).balance */\n      selfbalance\n        /* \"13- Contract Balance/demo.sol\":257:354  function getBalance() public view returns (uint256) {... */\n      mload(0x40)\n        /* \"#utility.yul\":160:185   */\n      swap1\n      dup2\n      mstore\n        /* \"#utility.yul\":148:150   */\n      0x20\n        /* \"#utility.yul\":133:151   */\n      add\n        /* \"13- Contract Balance/demo.sol\":257:354  function getBalance() public view returns (uint256) {... */\n      mload(0x40)\n      dup1\n      swap2\n      sub\n      swap1\n      return\n        /* \"13- Contract Balance/demo.sol\":553:647  function sendEtherAccount() public {... */\n    tag_3:\n      callvalue\n      dup1\n      iszero\n      tag_10\n      jumpi\n      revert(0x00, 0x00)\n    tag_10:\n      pop\n      tag_11\n      tag_12\n      jump\t// in\n    tag_11:\n      stop\n    tag_12:\n        /* \"13- Contract Balance/demo.sol\":598:602  user */\n      0x00\n      dup1\n      sload\n        /* \"13- Contract Balance/demo.sol\":598:620  user.transfer(1 ether) */\n      mload(0x40)\n      sub(shl(0xa0, 0x01), 0x01)\n        /* \"13- Contract Balance/demo.sol\":598:602  user */\n      swap1\n      swap2\n      and\n      swap2\n      swap1\n        /* \"13- Contract Balance/demo.sol\":612:619  1 ether */\n      0x0de0b6b3a7640000\n      swap1\n        /* \"13- Contract Balance/demo.sol\":598:602  user */\n      dup3\n        /* \"13- Contract Balance/demo.sol\":598:620  user.transfer(1 ether) */\n      dup2\n        /* \"13- Contract Balance/demo.sol\":598:602  user */\n      dup2\n        /* \"13- Contract Balance/demo.sol\":598:620  user.transfer(1 ether) */\n      dup2\n        /* \"13- Contract Balance/demo.sol\":612:619  1 ether */\n      dup6\n        /* \"13- Contract Balance/demo.sol\":598:602  user */\n      dup9\n      dup4\n        /* \"13- Contract Balance/demo.sol\":598:620  user.transfer(1 ether) */\n      call\n      swap4\n      pop\n      pop\n      pop\n      pop\n      iszero\n      dup1\n      iszero\n      tag_18\n      jumpi\n      returndatacopy(0x00, 0x00, returndatasize)\n      revert(0x00, returndatasize)\n    tag_18:\n      pop\n        /* \"13- Contract Balance/demo.sol\":553:647  function sendEtherAccount() public {... */\n      jump\t// out\n\n    auxdata: 0xa2646970667358221220d5dfc5581fccc5c199a8586c91c72efd54a02a78fb1e381b86e4c4c0277ae50064736f6c634300081e0033\n}\n",
				"bytecode": {
					"linkReferences": {},
					"object": "60806040525f80546001600160a01b0319167303c6fced478cbbc9a4fab34ef9f40767739d1ff71790553480156033575f5ffd5b5060d5806100405f395ff3fe608060405260043610602f575f3560e01c806312065fe0146033578063990fce44146051578063f7474d00146062575b5f5ffd5b348015603d575f5ffd5b504760405190815260200160405180910390f35b348015605b575f5ffd5b5060626064565b005b5f80546040516001600160a01b039091169190670de0b6b3a76400009082818181858883f19350505050158015609c573d5f5f3e3d5ffd5b5056fea2646970667358221220d5dfc5581fccc5c199a8586c91c72efd54a02a78fb1e381b86e4c4c0277ae50064736f6c634300081e0033",
					"opcodes": "PUSH1 0x80 PUSH1 0x40 MSTORE PUSH0 DUP1 SLOAD PUSH1 0x1 PUSH1 0x1 PUSH1 0xA0 SHL SUB NOT AND PUSH20 0x3C6FCED478CBBC9A4FAB34EF9F40767739D1FF7 OR SWAP1 SSTORE CALLVALUE DUP1 ISZERO PUSH1 0x33 JUMPI PUSH0 PUSH0 REVERT JUMPDEST POP PUSH1 0xD5 DUP1 PUSH2 0x40 PUSH0 CODECOPY PUSH0 RETURN INVALID PUSH1 0x80 PUSH1 0x40 MSTORE PUSH1 0x4 CALLDATASIZE LT PUSH1 0x2F JUMPI PUSH0 CALLDATALOAD PUSH1 0xE0 SHR DUP1 PUSH4 0x12065FE0 EQ PUSH1 0x33 JUMPI DUP1 PUSH4 0x990FCE44 EQ PUSH1 0x51 JUMPI DUP1 PUSH4 0xF7474D00 EQ PUSH1 0x62 JUMPI JUMPDEST PUSH0 PUSH0 REVERT JUMPDEST CALLVALUE DUP1 ISZERO PUSH1 0x3D JUMPI PUSH0 PUSH0 REVERT JUMPDEST POP SELFBALANCE PUSH1 0x40 MLOAD SWAP1 DUP2 MSTORE PUSH1 0x20 ADD PUSH1 0x40 MLOAD DUP1 SWAP2 SUB SWAP1 RETURN JUMPDEST CALLVALUE DUP1 ISZERO PUSH1 0x5B JUMPI PUSH0 PUSH0 REVERT JUMPDEST POP PUSH1 0x62 PUSH1 0x64 JUMP JUMPDEST STOP JUMPDEST PUSH0 DUP1 SLOAD PUSH1 0x40 MLOAD PUSH1 0x1 PUSH1 0x1 PUSH1 0xA0 SHL SUB SWAP1 SWAP2 AND SWAP2 SWAP1 PUSH8 0xDE0B6B3A7640000 SWAP1 DUP3 DUP2 DUP2 DUP2 DUP6 DUP9 DUP4 CALL SWAP4 POP POP POP POP ISZERO DUP1 ISZERO PUSH1 0x9C JUMPI RETURNDATASIZE PUSH0 PUSH0 RETURNDATACOPY RETURNDATASIZE PUSH0 REVERT JUMPDEST POP JUMP INVALID LOG2 PUSH5 0x6970667358 0x22 SLT KECCAK256 0xD5 0xDF 0xC5 PC 0x1F 0xCC 0xC5 0xC1 SWAP10 0xA8 PC PUSH13 0x91C72EFD54A02A78FB1E381B86 RETF 0xC4 0xC0 0x27 PUSH27 0xE50064736F6C634300081E00330000000000000000000000000000 "
				},
				"gasEstimates": {
					"creation": {
						"codeDepositCost": "42600",
						"executionCost": "24326",
						"totalCost": "66926"
					},
					"external": {
						"getBalance()": "147",
						"payEther()": "117",
						"sendEtherAccount()": "infinite"
					}
				},
				"methodIdentifiers": {
					"getBalance()": "12065fe0",
					"payEther()": "f7474d00",
					"sendEtherAccount()": "990fce44"
				}
			},
			"storageLayout": {
				"storage": [
					{
						"astId": 23,
						"contract": "13- Contract Balance/demo.sol:pay",
						"label": "user",
						"offset": 0,
						"slot": "0",
						"type": "t_address_payable"
					}
				],
				"types": {
					"t_address_payable": {
						"encoding": "inplace",
						"label": "address payable",
						"numberOfBytes": "20"
					}
				}
			},
			"userdoc": {
				"kind": "user",
				"methods": {},
				"version": 1
			}
		}
	}
}