{
	"8-Conditionals/conditionals.sol": {
		"conditionals": {
			"abi": [
				{
					"inputs": [
						{
							"internalType": "int256",
							"name": "a",
							"type": "int256"
						}
					],
					"name": "check",
					"outputs": [
						{
							"internalType": "string",
							"name": "",
							"type": "string"
						}
					],
					"stateMutability": "pure",
					"type": "function"
				},
				{
					"inputs": [
						{
							"internalType": "bool",
							"name": "condition",
							"type": "bool"
						}
					],
					"name": "checkBoolean",
					"outputs": [
						{
							"internalType": "string",
							"name": "",
							"type": "string"
						}
					],
					"stateMutability": "pure",
					"type": "function"
				},
				{
					"inputs": [
						{
							"internalType": "int256",
							"name": "a",
							"type": "int256"
						}
					],
					"name": "checkEvenOdd",
					"outputs": [
						{
							"internalType": "string",
							"name": "",
							"type": "string"
						}
					],
					"stateMutability": "pure",
					"type": "function"
				},
				{
					"inputs": [
						{
							"internalType": "int256",
							"name": "a",
							"type": "int256"
						}
					],
					"name": "checkRange",
					"outputs": [
						{
							"internalType": "string",
							"name": "",
							"type": "string"
						}
					],
					"stateMutability": "pure",
					"type": "function"
				},
				{
					"inputs": [
						{
							"internalType": "int256",
							"name": "a",
							"type": "int256"
						}
					],
					"name": "checkTernary",
					"outputs": [
						{
							"internalType": "string",
							"name": "",
							"type": "string"
						}
					],
					"stateMutability": "pure",
					"type": "function"
				},
				{
					"inputs": [
						{
							"internalType": "int256",
							"name": "a",
							"type": "int256"
						},
						{
							"internalType": "int256",
							"name": "lower",
							"type": "int256"
						},
						{
							"internalType": "int256",
							"name": "upper",
							"type": "int256"
						}
					],
					"name": "isInRange",
					"outputs": [
						{
							"internalType": "bool",
							"name": "",
							"type": "bool"
						}
					],
					"stateMutability": "pure",
					"type": "function"
				}
			],
			"devdoc": {
				"details": "Demonstrates if-else conditional logic in Solidity",
				"kind": "dev",
				"methods": {
					"check(int256)": {
						"details": "Checks the value of an integer and returns a descriptive stringGas cost: ~200-500 (very low, as it's a pure function with simple logic)Note: String operations in Solidity can be expensive in terms of deployment cost       but have low runtime cost for pure functionsComparison behavior: - a > 0: positive numbers - a < 0: negative numbers - a == 0: zero",
						"params": {
							"a": "The integer value to check"
						},
						"returns": {
							"_0": "A string describing whether the input is positive, negative, or zero"
						}
					},
					"checkBoolean(bool)": {
						"details": "Demonstrates boolean conditions",
						"params": {
							"condition": "The boolean value to check"
						},
						"returns": {
							"_0": "A string describing the boolean value"
						}
					},
					"checkEvenOdd(int256)": {
						"details": "Checks if a number is even or odd",
						"params": {
							"a": "The integer value to check"
						},
						"returns": {
							"_0": "A string indicating whether the input is even or odd"
						}
					},
					"checkRange(int256)": {
						"details": "Checks the range of a number",
						"params": {
							"a": "The integer value to check"
						},
						"returns": {
							"_0": "A string describing which range the number falls into"
						}
					},
					"checkTernary(int256)": {
						"details": "Alternative implementation using ternary operators",
						"params": {
							"a": "The integer value to check"
						},
						"returns": {
							"_0": "A string describing whether the input is positive, negative, or zero"
						}
					},
					"isInRange(int256,int256,int256)": {
						"details": "Checks if a number is within a specific range",
						"params": {
							"a": "The number to check",
							"lower": "The lower bound of the range",
							"upper": "The upper bound of the range"
						},
						"returns": {
							"_0": "true if the number is within the range (inclusive), false otherwise"
						}
					}
				},
				"title": "Conditional Statements in Solidity",
				"version": 1
			},
			"evm": {
				"assembly": "    /* \"8-Conditionals/conditionals.sol\":317:4554  contract conditionals {... */\n  mstore(0x40, 0x80)\n  callvalue\n  dup1\n  iszero\n  tag_1\n  jumpi\n  revert(0x00, 0x00)\ntag_1:\n  pop\n  dataSize(sub_0)\n  dup1\n  dataOffset(sub_0)\n  0x00\n  codecopy\n  0x00\n  return\nstop\n\nsub_0: assembly {\n        /* \"8-Conditionals/conditionals.sol\":317:4554  contract conditionals {... */\n      mstore(0x40, 0x80)\n      callvalue\n      dup1\n      iszero\n      tag_1\n      jumpi\n      revert(0x00, 0x00)\n    tag_1:\n      pop\n      jumpi(tag_2, lt(calldatasize, 0x04))\n      shr(0xe0, calldataload(0x00))\n      dup1\n      0x9943d669\n      eq\n      tag_3\n      jumpi\n      dup1\n      0xc0ea7830\n      eq\n      tag_4\n      jumpi\n      dup1\n      0xc46f9988\n      eq\n      tag_5\n      jumpi\n      dup1\n      0xc9363b81\n      eq\n      tag_6\n      jumpi\n      dup1\n      0xe196f0c6\n      eq\n      tag_7\n      jumpi\n      dup1\n      0xee708b53\n      eq\n      tag_8\n      jumpi\n    tag_2:\n      revert(0x00, 0x00)\n        /* \"8-Conditionals/conditionals.sol\":1136:1912  function check(int256 a) public pure returns(string memory) {... */\n    tag_3:\n      tag_9\n      tag_10\n      calldatasize\n      0x04\n      tag_11\n      jump\t// in\n    tag_10:\n      tag_12\n      jump\t// in\n    tag_9:\n      mload(0x40)\n      tag_13\n      swap2\n      swap1\n      tag_14\n      jump\t// in\n    tag_13:\n      mload(0x40)\n      dup1\n      swap2\n      sub\n      swap1\n      return\n        /* \"8-Conditionals/conditionals.sol\":3760:3973  function checkBoolean(bool condition) public pure returns(string memory) {... */\n    tag_4:\n      tag_9\n      tag_16\n      calldatasize\n      0x04\n      tag_17\n      jump\t// in\n    tag_16:\n      tag_18\n      jump\t// in\n        /* \"8-Conditionals/conditionals.sol\":2198:2466  function checkTernary(int256 a) public pure returns(string memory) {... */\n    tag_5:\n      tag_9\n      tag_21\n      calldatasize\n      0x04\n      tag_11\n      jump\t// in\n    tag_21:\n      tag_22\n      jump\t// in\n        /* \"8-Conditionals/conditionals.sol\":4335:4552  function isInRange(int256 a, int256 lower, int256 upper) public pure returns(bool) {... */\n    tag_6:\n      tag_24\n      tag_25\n      calldatasize\n      0x04\n      tag_26\n      jump\t// in\n    tag_25:\n      tag_27\n      jump\t// in\n    tag_24:\n      mload(0x40)\n        /* \"#utility.yul\":1578:1592   */\n      swap1\n      iszero\n        /* \"#utility.yul\":1571:1593   */\n      iszero\n        /* \"#utility.yul\":1553:1594   */\n      dup2\n      mstore\n        /* \"#utility.yul\":1541:1543   */\n      0x20\n        /* \"#utility.yul\":1526:1544   */\n      add\n        /* \"8-Conditionals/conditionals.sol\":4335:4552  function isInRange(int256 a, int256 lower, int256 upper) public pure returns(bool) {... */\n      tag_13\n        /* \"#utility.yul\":1413:1600   */\n      jump\n        /* \"8-Conditionals/conditionals.sol\":3088:3534  function checkRange(int256 a) public pure returns(string memory) {... */\n    tag_7:\n      tag_9\n      tag_31\n      calldatasize\n      0x04\n      tag_11\n      jump\t// in\n    tag_31:\n      tag_32\n      jump\t// in\n        /* \"8-Conditionals/conditionals.sol\":2710:2842  function checkEvenOdd(int256 a) public pure returns(string memory) {... */\n    tag_8:\n      tag_9\n      tag_35\n      calldatasize\n      0x04\n      tag_11\n      jump\t// in\n    tag_35:\n      tag_36\n      jump\t// in\n        /* \"8-Conditionals/conditionals.sol\":1136:1912  function check(int256 a) public pure returns(string memory) {... */\n    tag_12:\n        /* \"8-Conditionals/conditionals.sol\":1181:1194  string memory */\n      0x60\n        /* \"8-Conditionals/conditionals.sol\":1342:1361  string memory value */\n      dup1\n        /* \"8-Conditionals/conditionals.sol\":1431:1432  0 */\n      0x00\n        /* \"8-Conditionals/conditionals.sol\":1427:1428  a */\n      dup4\n        /* \"8-Conditionals/conditionals.sol\":1427:1432  a > 0 */\n      sgt\n        /* \"8-Conditionals/conditionals.sol\":1423:1837  if (a > 0) {... */\n      iszero\n      tag_39\n      jumpi\n      pop\n        /* \"8-Conditionals/conditionals.sol\":1484:1511  value = \"Greater than zero\" */\n      0x40\n      dup1\n      mload\n      dup1\n      dup3\n      add\n      swap1\n      swap2\n      mstore\n      0x11\n      dup2\n      mstore\n      shl(0x78, 0x47726561746572207468616e207a65726f)\n      0x20\n      dup3\n      add\n      mstore\n        /* \"8-Conditionals/conditionals.sol\":1423:1837  if (a > 0) {... */\n      jump(tag_42)\n    tag_39:\n        /* \"8-Conditionals/conditionals.sol\":1591:1592  0 */\n      0x00\n        /* \"8-Conditionals/conditionals.sol\":1587:1588  a */\n      dup4\n        /* \"8-Conditionals/conditionals.sol\":1587:1592  a < 0 */\n      slt\n        /* \"8-Conditionals/conditionals.sol\":1584:1837  if(a < 0) {... */\n      iszero\n      tag_41\n      jumpi\n      pop\n        /* \"8-Conditionals/conditionals.sol\":1644:1671  value = \"Smaller than zero\" */\n      0x40\n      dup1\n      mload\n      dup1\n      dup3\n      add\n      swap1\n      swap2\n      mstore\n      0x11\n      dup2\n      mstore\n      shl(0x78, 0x536d616c6c6572207468616e207a65726f)\n      0x20\n      dup3\n      add\n      mstore\n        /* \"8-Conditionals/conditionals.sol\":1584:1837  if(a < 0) {... */\n      jump(tag_42)\n    tag_41:\n      pop\n        /* \"8-Conditionals/conditionals.sol\":1803:1826  value = \"Equal to zero\" */\n      0x40\n      dup1\n      mload\n      dup1\n      dup3\n      add\n      swap1\n      swap2\n      mstore\n      0x0d\n      dup2\n      mstore\n      shl(0x98, 0x457175616c20746f207a65726f)\n      0x20\n      dup3\n      add\n      mstore\n        /* \"8-Conditionals/conditionals.sol\":1584:1837  if(a < 0) {... */\n    tag_42:\n        /* \"8-Conditionals/conditionals.sol\":1900:1905  value */\n      swap3\n        /* \"8-Conditionals/conditionals.sol\":1136:1912  function check(int256 a) public pure returns(string memory) {... */\n      swap2\n      pop\n      pop\n      jump\t// out\n        /* \"8-Conditionals/conditionals.sol\":3760:3973  function checkBoolean(bool condition) public pure returns(string memory) {... */\n    tag_18:\n        /* \"8-Conditionals/conditionals.sol\":3818:3831  string memory */\n      0x60\n        /* \"8-Conditionals/conditionals.sol\":3847:3856  condition */\n      dup2\n        /* \"8-Conditionals/conditionals.sol\":3843:3967  if (condition) {... */\n      iszero\n      tag_44\n      jumpi\n      pop\n      pop\n        /* \"8-Conditionals/conditionals.sol\":3872:3898  return \"Condition is true\" */\n      0x40\n      dup1\n      mload\n      dup1\n      dup3\n      add\n      swap1\n      swap2\n      mstore\n      0x11\n      dup2\n      mstore\n      shl(0x78, 0x436f6e646974696f6e2069732074727565)\n      0x20\n      dup3\n      add\n      mstore\n      swap1\n        /* \"8-Conditionals/conditionals.sol\":3760:3973  function checkBoolean(bool condition) public pure returns(string memory) {... */\n      jump\t// out\n        /* \"8-Conditionals/conditionals.sol\":3843:3967  if (condition) {... */\n    tag_44:\n      pop\n      pop\n        /* \"8-Conditionals/conditionals.sol\":3929:3956  return \"Condition is false\" */\n      0x40\n      dup1\n      mload\n      dup1\n      dup3\n      add\n      swap1\n      swap2\n      mstore\n      0x12\n      dup2\n      mstore\n      shl(0x70, 0x436f6e646974696f6e2069732066616c7365)\n      0x20\n      dup3\n      add\n      mstore\n      swap1\n        /* \"8-Conditionals/conditionals.sol\":3760:3973  function checkBoolean(bool condition) public pure returns(string memory) {... */\n      jump\t// out\n        /* \"8-Conditionals/conditionals.sol\":2198:2466  function checkTernary(int256 a) public pure returns(string memory) {... */\n    tag_22:\n        /* \"8-Conditionals/conditionals.sol\":2250:2263  string memory */\n      0x60\n        /* \"8-Conditionals/conditionals.sol\":2358:2359  0 */\n      0x00\n        /* \"8-Conditionals/conditionals.sol\":2354:2355  a */\n      dup3\n        /* \"8-Conditionals/conditionals.sol\":2354:2359  a > 0 */\n      sgt\n        /* \"8-Conditionals/conditionals.sol\":2354:2459  a > 0 ? \"Greater than zero\" :... */\n      tag_47\n      jumpi\n        /* \"8-Conditionals/conditionals.sol\":2403:2404  0 */\n      0x00\n        /* \"8-Conditionals/conditionals.sol\":2399:2400  a */\n      dup3\n        /* \"8-Conditionals/conditionals.sol\":2399:2404  a < 0 */\n      slt\n        /* \"8-Conditionals/conditionals.sol\":2399:2459  a < 0 ? \"Smaller than zero\" :... */\n      tag_48\n      jumpi\n      mload(0x40)\n      dup1\n      0x40\n      add\n      0x40\n      mstore\n      dup1\n      0x0d\n      dup2\n      mstore\n      0x20\n      add\n      shl(0x98, 0x457175616c20746f207a65726f)\n      dup2\n      mstore\n      pop\n        /* \"8-Conditionals/conditionals.sol\":2354:2459  a > 0 ? \"Greater than zero\" :... */\n      jump(tag_42)\n        /* \"8-Conditionals/conditionals.sol\":2399:2459  a < 0 ? \"Smaller than zero\" :... */\n    tag_48:\n      mload(0x40)\n      dup1\n      0x40\n      add\n      0x40\n      mstore\n      dup1\n      0x11\n      dup2\n      mstore\n      0x20\n      add\n      shl(0x78, 0x536d616c6c6572207468616e207a65726f)\n      dup2\n      mstore\n      pop\n        /* \"8-Conditionals/conditionals.sol\":2354:2459  a > 0 ? \"Greater than zero\" :... */\n      jump(tag_42)\n    tag_47:\n      pop\n      pop\n      0x40\n      dup1\n      mload\n      dup1\n      dup3\n      add\n      swap1\n      swap2\n      mstore\n      0x11\n      dup2\n      mstore\n      shl(0x78, 0x47726561746572207468616e207a65726f)\n      0x20\n      dup3\n      add\n      mstore\n      swap1\n        /* \"8-Conditionals/conditionals.sol\":2198:2466  function checkTernary(int256 a) public pure returns(string memory) {... */\n      jump\t// out\n        /* \"8-Conditionals/conditionals.sol\":4335:4552  function isInRange(int256 a, int256 lower, int256 upper) public pure returns(bool) {... */\n    tag_27:\n        /* \"8-Conditionals/conditionals.sol\":4412:4416  bool */\n      0x00\n        /* \"8-Conditionals/conditionals.sol\":4445:4450  upper */\n      dup2\n        /* \"8-Conditionals/conditionals.sol\":4436:4441  lower */\n      dup4\n        /* \"8-Conditionals/conditionals.sol\":4436:4450  lower <= upper */\n      sgt\n      iszero\n        /* \"8-Conditionals/conditionals.sol\":4428:4504  require(lower <= upper, \"Invalid range: lower bound must be <= upper bound\") */\n      tag_52\n      jumpi\n      mload(0x40)\n      shl(0xe5, 0x461bcd)\n      dup2\n      mstore\n        /* \"#utility.yul\":1807:1809   */\n      0x20\n        /* \"8-Conditionals/conditionals.sol\":4428:4504  require(lower <= upper, \"Invalid range: lower bound must be <= upper bound\") */\n      0x04\n      dup3\n      add\n        /* \"#utility.yul\":1789:1810   */\n      mstore\n        /* \"#utility.yul\":1846:1848   */\n      0x31\n        /* \"#utility.yul\":1826:1844   */\n      0x24\n      dup3\n      add\n        /* \"#utility.yul\":1819:1849   */\n      mstore\n        /* \"#utility.yul\":1885:1919   */\n      0x496e76616c69642072616e67653a206c6f77657220626f756e64206d75737420\n        /* \"#utility.yul\":1865:1883   */\n      0x44\n      dup3\n      add\n        /* \"#utility.yul\":1858:1920   */\n      mstore\n      shl(0x7a, 0x1899480f0f481d5c1c195c88189bdd5b99)\n        /* \"#utility.yul\":1936:1954   */\n      0x64\n      dup3\n      add\n        /* \"#utility.yul\":1929:1976   */\n      mstore\n        /* \"#utility.yul\":1993:2012   */\n      0x84\n      add\n        /* \"8-Conditionals/conditionals.sol\":4428:4504  require(lower <= upper, \"Invalid range: lower bound must be <= upper bound\") */\n      mload(0x40)\n      dup1\n      swap2\n      sub\n      swap1\n      revert\n    tag_52:\n        /* \"8-Conditionals/conditionals.sol\":4526:4531  lower */\n      dup3\n        /* \"8-Conditionals/conditionals.sol\":4521:4522  a */\n      dup5\n        /* \"8-Conditionals/conditionals.sol\":4521:4531  a >= lower */\n      slt\n      iszero\n        /* \"8-Conditionals/conditionals.sol\":4521:4545  a >= lower && a <= upper */\n      dup1\n      iszero\n      tag_55\n      jumpi\n      pop\n        /* \"8-Conditionals/conditionals.sol\":4540:4545  upper */\n      dup2\n        /* \"8-Conditionals/conditionals.sol\":4535:4536  a */\n      dup5\n        /* \"8-Conditionals/conditionals.sol\":4535:4545  a <= upper */\n      sgt\n      iszero\n        /* \"8-Conditionals/conditionals.sol\":4521:4545  a >= lower && a <= upper */\n    tag_55:\n        /* \"8-Conditionals/conditionals.sol\":4514:4545  return a >= lower && a <= upper */\n      swap5\n        /* \"8-Conditionals/conditionals.sol\":4335:4552  function isInRange(int256 a, int256 lower, int256 upper) public pure returns(bool) {... */\n      swap4\n      pop\n      pop\n      pop\n      pop\n      jump\t// out\n        /* \"8-Conditionals/conditionals.sol\":3088:3534  function checkRange(int256 a) public pure returns(string memory) {... */\n    tag_32:\n        /* \"8-Conditionals/conditionals.sol\":3138:3151  string memory */\n      0x60\n      not(0x63)\n        /* \"8-Conditionals/conditionals.sol\":3167:3168  a */\n      dup3\n        /* \"8-Conditionals/conditionals.sol\":3167:3175  a < -100 */\n      slt\n        /* \"8-Conditionals/conditionals.sol\":3163:3528  if (a < -100) {... */\n      iszero\n      tag_57\n      jumpi\n      pop\n      pop\n        /* \"8-Conditionals/conditionals.sol\":3191:3230  return \"Very negative (less than -100)\" */\n      0x40\n      dup1\n      mload\n      dup1\n      dup3\n      add\n      swap1\n      swap2\n      mstore\n      0x1e\n      dup2\n      mstore\n      0x56657279206e6567617469766520286c657373207468616e202d313030290000\n      0x20\n      dup3\n      add\n      mstore\n      swap1\n        /* \"8-Conditionals/conditionals.sol\":3088:3534  function checkRange(int256 a) public pure returns(string memory) {... */\n      jump\t// out\n        /* \"8-Conditionals/conditionals.sol\":3163:3528  if (a < -100) {... */\n    tag_57:\n        /* \"8-Conditionals/conditionals.sol\":3255:3256  0 */\n      0x00\n        /* \"8-Conditionals/conditionals.sol\":3251:3252  a */\n      dup3\n        /* \"8-Conditionals/conditionals.sol\":3251:3256  a < 0 */\n      slt\n        /* \"8-Conditionals/conditionals.sol\":3247:3528  if (a < 0) {... */\n      iszero\n      tag_59\n      jumpi\n      pop\n      pop\n        /* \"8-Conditionals/conditionals.sol\":3272:3310  return \"Negative (between -100 and 0)\" */\n      0x40\n      dup1\n      mload\n      dup1\n      dup3\n      add\n      swap1\n      swap2\n      mstore\n      0x1d\n      dup2\n      mstore\n      0x4e6567617469766520286265747765656e202d31303020616e64203029000000\n      0x20\n      dup3\n      add\n      mstore\n      swap1\n        /* \"8-Conditionals/conditionals.sol\":3088:3534  function checkRange(int256 a) public pure returns(string memory) {... */\n      jump\t// out\n        /* \"8-Conditionals/conditionals.sol\":3247:3528  if (a < 0) {... */\n    tag_59:\n        /* \"8-Conditionals/conditionals.sol\":3331:3332  a */\n      dup2\n        /* \"8-Conditionals/conditionals.sol\":3336:3337  0 */\n      0x00\n        /* \"8-Conditionals/conditionals.sol\":3331:3337  a == 0 */\n      sub\n        /* \"8-Conditionals/conditionals.sol\":3327:3528  if (a == 0) {... */\n      tag_61\n      jumpi\n      pop\n      pop\n        /* \"8-Conditionals/conditionals.sol\":3353:3366  return \"Zero\" */\n      0x40\n      dup1\n      mload\n      dup1\n      dup3\n      add\n      swap1\n      swap2\n      mstore\n      0x04\n      dup2\n      mstore\n      shl(0xe0, 0x5a65726f)\n      0x20\n      dup3\n      add\n      mstore\n      swap1\n        /* \"8-Conditionals/conditionals.sol\":3088:3534  function checkRange(int256 a) public pure returns(string memory) {... */\n      jump\t// out\n        /* \"8-Conditionals/conditionals.sol\":3327:3528  if (a == 0) {... */\n    tag_61:\n        /* \"8-Conditionals/conditionals.sol\":3391:3394  100 */\n      0x64\n        /* \"8-Conditionals/conditionals.sol\":3387:3388  a */\n      dup3\n        /* \"8-Conditionals/conditionals.sol\":3387:3394  a < 100 */\n      slt\n        /* \"8-Conditionals/conditionals.sol\":3383:3528  if (a < 100) {... */\n      iszero\n      tag_63\n      jumpi\n      pop\n      pop\n        /* \"8-Conditionals/conditionals.sol\":3410:3447  return \"Positive (between 0 and 100)\" */\n      0x40\n      dup1\n      mload\n      dup1\n      dup3\n      add\n      swap1\n      swap2\n      mstore\n      0x1c\n      dup2\n      mstore\n      0x506f73697469766520286265747765656e203020616e64203130302900000000\n      0x20\n      dup3\n      add\n      mstore\n      swap1\n        /* \"8-Conditionals/conditionals.sol\":3088:3534  function checkRange(int256 a) public pure returns(string memory) {... */\n      jump\t// out\n        /* \"8-Conditionals/conditionals.sol\":3383:3528  if (a < 100) {... */\n    tag_63:\n      pop\n      pop\n        /* \"8-Conditionals/conditionals.sol\":3478:3517  return \"Very positive (100 or greater)\" */\n      0x40\n      dup1\n      mload\n      dup1\n      dup3\n      add\n      swap1\n      swap2\n      mstore\n      0x1e\n      dup2\n      mstore\n      0x5665727920706f7369746976652028313030206f722067726561746572290000\n      0x20\n      dup3\n      add\n      mstore\n      swap1\n        /* \"8-Conditionals/conditionals.sol\":3088:3534  function checkRange(int256 a) public pure returns(string memory) {... */\n      jump\t// out\n        /* \"8-Conditionals/conditionals.sol\":2710:2842  function checkEvenOdd(int256 a) public pure returns(string memory) {... */\n    tag_36:\n        /* \"8-Conditionals/conditionals.sol\":2762:2775  string memory */\n      0x60\n        /* \"8-Conditionals/conditionals.sol\":2794:2799  a % 2 */\n      tag_66\n        /* \"8-Conditionals/conditionals.sol\":2798:2799  2 */\n      0x02\n        /* \"8-Conditionals/conditionals.sol\":2794:2795  a */\n      dup4\n        /* \"8-Conditionals/conditionals.sol\":2794:2799  a % 2 */\n      tag_67\n      jump\t// in\n    tag_66:\n        /* \"8-Conditionals/conditionals.sol\":2794:2804  a % 2 == 0 */\n      iszero\n        /* \"8-Conditionals/conditionals.sol\":2794:2835  a % 2 == 0 ? \"Even number\" : \"Odd number\" */\n      tag_68\n      jumpi\n      mload(0x40)\n      dup1\n      0x40\n      add\n      0x40\n      mstore\n      dup1\n      0x0a\n      dup2\n      mstore\n      0x20\n      add\n      shl(0xb1, 0x27b23210373ab6b132b9)\n      dup2\n      mstore\n      pop\n      jump(tag_42)\n    tag_68:\n      pop\n      pop\n      0x40\n      dup1\n      mload\n      dup1\n      dup3\n      add\n      swap1\n      swap2\n      mstore\n      0x0b\n      dup2\n      mstore\n      shl(0xa9, 0x22bb32b710373ab6b132b9)\n      0x20\n      dup3\n      add\n      mstore\n      swap1\n        /* \"8-Conditionals/conditionals.sol\":2710:2842  function checkEvenOdd(int256 a) public pure returns(string memory) {... */\n      jump\t// out\n        /* \"#utility.yul\":14:239   */\n    tag_11:\n        /* \"#utility.yul\":72:78   */\n      0x00\n        /* \"#utility.yul\":125:127   */\n      0x20\n        /* \"#utility.yul\":113:122   */\n      dup3\n        /* \"#utility.yul\":104:111   */\n      dup5\n        /* \"#utility.yul\":100:123   */\n      sub\n        /* \"#utility.yul\":96:128   */\n      slt\n        /* \"#utility.yul\":93:145   */\n      iszero\n      tag_72\n      jumpi\n        /* \"#utility.yul\":141:142   */\n      0x00\n        /* \"#utility.yul\":138:139   */\n      0x00\n        /* \"#utility.yul\":131:143   */\n      revert\n        /* \"#utility.yul\":93:145   */\n    tag_72:\n      pop\n        /* \"#utility.yul\":186:209   */\n      calldataload\n      swap2\n        /* \"#utility.yul\":14:239   */\n      swap1\n      pop\n      jump\t// out\n        /* \"#utility.yul\":244:662   */\n    tag_14:\n        /* \"#utility.yul\":393:395   */\n      0x20\n        /* \"#utility.yul\":382:391   */\n      dup2\n        /* \"#utility.yul\":375:396   */\n      mstore\n        /* \"#utility.yul\":356:360   */\n      0x00\n        /* \"#utility.yul\":425:431   */\n      dup3\n        /* \"#utility.yul\":419:432   */\n      mload\n        /* \"#utility.yul\":468:474   */\n      dup1\n        /* \"#utility.yul\":463:465   */\n      0x20\n        /* \"#utility.yul\":452:461   */\n      dup5\n        /* \"#utility.yul\":448:466   */\n      add\n        /* \"#utility.yul\":441:475   */\n      mstore\n        /* \"#utility.yul\":527:533   */\n      dup1\n        /* \"#utility.yul\":522:524   */\n      0x20\n        /* \"#utility.yul\":514:520   */\n      dup6\n        /* \"#utility.yul\":510:525   */\n      add\n        /* \"#utility.yul\":505:507   */\n      0x40\n        /* \"#utility.yul\":494:503   */\n      dup6\n        /* \"#utility.yul\":490:508   */\n      add\n        /* \"#utility.yul\":484:534   */\n      mcopy\n        /* \"#utility.yul\":583:584   */\n      0x00\n        /* \"#utility.yul\":578:580   */\n      0x40\n        /* \"#utility.yul\":569:575   */\n      dup3\n        /* \"#utility.yul\":558:567   */\n      dup6\n        /* \"#utility.yul\":554:576   */\n      add\n        /* \"#utility.yul\":550:581   */\n      add\n        /* \"#utility.yul\":543:585   */\n      mstore\n        /* \"#utility.yul\":653:655   */\n      0x40\n        /* \"#utility.yul\":646:648   */\n      0x1f\n        /* \"#utility.yul\":642:649   */\n      not\n        /* \"#utility.yul\":637:639   */\n      0x1f\n        /* \"#utility.yul\":629:635   */\n      dup4\n        /* \"#utility.yul\":625:640   */\n      add\n        /* \"#utility.yul\":621:650   */\n      and\n        /* \"#utility.yul\":610:619   */\n      dup5\n        /* \"#utility.yul\":606:651   */\n      add\n        /* \"#utility.yul\":602:656   */\n      add\n        /* \"#utility.yul\":594:656   */\n      swap2\n      pop\n      pop\n        /* \"#utility.yul\":244:662   */\n      swap3\n      swap2\n      pop\n      pop\n      jump\t// out\n        /* \"#utility.yul\":667:940   */\n    tag_17:\n        /* \"#utility.yul\":723:729   */\n      0x00\n        /* \"#utility.yul\":776:778   */\n      0x20\n        /* \"#utility.yul\":764:773   */\n      dup3\n        /* \"#utility.yul\":755:762   */\n      dup5\n        /* \"#utility.yul\":751:774   */\n      sub\n        /* \"#utility.yul\":747:779   */\n      slt\n        /* \"#utility.yul\":744:796   */\n      iszero\n      tag_75\n      jumpi\n        /* \"#utility.yul\":792:793   */\n      0x00\n        /* \"#utility.yul\":789:790   */\n      0x00\n        /* \"#utility.yul\":782:794   */\n      revert\n        /* \"#utility.yul\":744:796   */\n    tag_75:\n        /* \"#utility.yul\":831:840   */\n      dup2\n        /* \"#utility.yul\":818:841   */\n      calldataload\n        /* \"#utility.yul\":884:889   */\n      dup1\n        /* \"#utility.yul\":877:890   */\n      iszero\n        /* \"#utility.yul\":870:891   */\n      iszero\n        /* \"#utility.yul\":863:868   */\n      dup2\n        /* \"#utility.yul\":860:892   */\n      eq\n        /* \"#utility.yul\":850:910   */\n      tag_76\n      jumpi\n        /* \"#utility.yul\":906:907   */\n      0x00\n        /* \"#utility.yul\":903:904   */\n      0x00\n        /* \"#utility.yul\":896:908   */\n      revert\n        /* \"#utility.yul\":850:910   */\n    tag_76:\n        /* \"#utility.yul\":929:934   */\n      swap4\n        /* \"#utility.yul\":667:940   */\n      swap3\n      pop\n      pop\n      pop\n      jump\t// out\n        /* \"#utility.yul\":945:1408   */\n    tag_26:\n        /* \"#utility.yul\":1019:1025   */\n      0x00\n        /* \"#utility.yul\":1027:1033   */\n      0x00\n        /* \"#utility.yul\":1035:1041   */\n      0x00\n        /* \"#utility.yul\":1088:1090   */\n      0x60\n        /* \"#utility.yul\":1076:1085   */\n      dup5\n        /* \"#utility.yul\":1067:1074   */\n      dup7\n        /* \"#utility.yul\":1063:1086   */\n      sub\n        /* \"#utility.yul\":1059:1091   */\n      slt\n        /* \"#utility.yul\":1056:1108   */\n      iszero\n      tag_78\n      jumpi\n        /* \"#utility.yul\":1104:1105   */\n      0x00\n        /* \"#utility.yul\":1101:1102   */\n      0x00\n        /* \"#utility.yul\":1094:1106   */\n      revert\n        /* \"#utility.yul\":1056:1108   */\n    tag_78:\n      pop\n      pop\n        /* \"#utility.yul\":1149:1172   */\n      dup2\n      calldataload\n      swap4\n        /* \"#utility.yul\":1269:1271   */\n      0x20\n        /* \"#utility.yul\":1254:1272   */\n      dup4\n      add\n        /* \"#utility.yul\":1241:1273   */\n      calldataload\n      swap4\n      pop\n        /* \"#utility.yul\":1372:1374   */\n      0x40\n        /* \"#utility.yul\":1357:1375   */\n      swap1\n      swap3\n      add\n        /* \"#utility.yul\":1344:1376   */\n      calldataload\n      swap2\n        /* \"#utility.yul\":945:1408   */\n      swap1\n      pop\n      jump\t// out\n        /* \"#utility.yul\":2023:2232   */\n    tag_67:\n        /* \"#utility.yul\":2054:2055   */\n      0x00\n        /* \"#utility.yul\":2080:2081   */\n      dup3\n        /* \"#utility.yul\":2070:2202   */\n      tag_82\n      jumpi\n        /* \"#utility.yul\":2124:2134   */\n      0x4e487b71\n        /* \"#utility.yul\":2119:2122   */\n      0xe0\n        /* \"#utility.yul\":2115:2135   */\n      shl\n        /* \"#utility.yul\":2112:2113   */\n      0x00\n        /* \"#utility.yul\":2105:2136   */\n      mstore\n        /* \"#utility.yul\":2159:2163   */\n      0x12\n        /* \"#utility.yul\":2156:2157   */\n      0x04\n        /* \"#utility.yul\":2149:2164   */\n      mstore\n        /* \"#utility.yul\":2187:2191   */\n      0x24\n        /* \"#utility.yul\":2184:2185   */\n      0x00\n        /* \"#utility.yul\":2177:2192   */\n      revert\n        /* \"#utility.yul\":2070:2202   */\n    tag_82:\n      pop\n        /* \"#utility.yul\":2216:2226   */\n      smod\n      swap1\n        /* \"#utility.yul\":2023:2232   */\n      jump\t// out\n\n    auxdata: 0xa264697066735822122018ab6c39e2d4bc91bbfdf58f8327a1334b75375854466fd0dd9191ab6c0e3e8164736f6c634300081e0033\n}\n",
				"bytecode": {
					"linkReferences": {},
					"object": "6080604052348015600e575f5ffd5b506105918061001c5f395ff3fe608060405234801561000f575f5ffd5b5060043610610060575f3560e01c80639943d66914610064578063c0ea78301461008d578063c46f9988146100a0578063c9363b81146100b3578063e196f0c6146100d6578063ee708b53146100e9575b5f5ffd5b6100776100723660046104a1565b6100fc565b60405161008491906104b8565b60405180910390f35b61007761009b3660046104ed565b610197565b6100776100ae3660046104a1565b6101fa565b6100c66100c1366004610513565b610291565b6040519015158152602001610084565b6100776100e43660046104a1565b610318565b6100776100f73660046104a1565b610440565b6060805f831315610135575060408051808201909152601181527047726561746572207468616e207a65726f60781b6020820152610191565b5f83121561016b5750604080518082019091526011815270536d616c6c6572207468616e207a65726f60781b6020820152610191565b5060408051808201909152600d81526c457175616c20746f207a65726f60981b60208201525b92915050565b606081156101cc575050604080518082019091526011815270436f6e646974696f6e206973207472756560781b602082015290565b5050604080518082019091526012815271436f6e646974696f6e2069732066616c736560701b602082015290565b60605f8213610264575f8212610235576040518060400160405280600d81526020016c457175616c20746f207a65726f60981b815250610191565b60405180604001604052806011815260200170536d616c6c6572207468616e207a65726f60781b815250610191565b505060408051808201909152601181527047726561746572207468616e207a65726f60781b602082015290565b5f818313156103005760405162461bcd60e51b815260206004820152603160248201527f496e76616c69642072616e67653a206c6f77657220626f756e64206d757374206044820152701899480f0f481d5c1c195c88189bdd5b99607a1b606482015260840160405180910390fd5b8284121580156103105750818413155b949350505050565b606060631982121561035d57505060408051808201909152601e81527f56657279206e6567617469766520286c657373207468616e202d313030290000602082015290565b5f82121561039e57505060408051808201909152601d81527f4e6567617469766520286265747765656e202d31303020616e64203029000000602082015290565b815f036103c55750506040805180820190915260048152635a65726f60e01b602082015290565b606482121561040757505060408051808201909152601c81527f506f73697469766520286265747765656e203020616e64203130302900000000602082015290565b505060408051808201909152601e81527f5665727920706f7369746976652028313030206f722067726561746572290000602082015290565b606061044d60028361053c565b1561047a576040518060400160405280600a81526020016927b23210373ab6b132b960b11b815250610191565b505060408051808201909152600b81526a22bb32b710373ab6b132b960a91b602082015290565b5f602082840312156104b1575f5ffd5b5035919050565b602081525f82518060208401528060208501604085015e5f604082850101526040601f19601f83011684010191505092915050565b5f602082840312156104fd575f5ffd5b8135801515811461050c575f5ffd5b9392505050565b5f5f5f60608486031215610525575f5ffd5b505081359360208301359350604090920135919050565b5f8261055657634e487b7160e01b5f52601260045260245ffd5b50079056fea264697066735822122018ab6c39e2d4bc91bbfdf58f8327a1334b75375854466fd0dd9191ab6c0e3e8164736f6c634300081e0033",
					"opcodes": "PUSH1 0x80 PUSH1 0x40 MSTORE CALLVALUE DUP1 ISZERO PUSH1 0xE JUMPI PUSH0 PUSH0 REVERT JUMPDEST POP PUSH2 0x591 DUP1 PUSH2 0x1C PUSH0 CODECOPY PUSH0 RETURN INVALID PUSH1 0x80 PUSH1 0x40 MSTORE CALLVALUE DUP1 ISZERO PUSH2 0xF JUMPI PUSH0 PUSH0 REVERT JUMPDEST POP PUSH1 0x4 CALLDATASIZE LT PUSH2 0x60 JUMPI PUSH0 CALLDATALOAD PUSH1 0xE0 SHR DUP1 PUSH4 0x9943D669 EQ PUSH2 0x64 JUMPI DUP1 PUSH4 0xC0EA7830 EQ PUSH2 0x8D JUMPI DUP1 PUSH4 0xC46F9988 EQ PUSH2 0xA0 JUMPI DUP1 PUSH4 0xC9363B81 EQ PUSH2 0xB3 JUMPI DUP1 PUSH4 0xE196F0C6 EQ PUSH2 0xD6 JUMPI DUP1 PUSH4 0xEE708B53 EQ PUSH2 0xE9 JUMPI JUMPDEST PUSH0 PUSH0 REVERT JUMPDEST PUSH2 0x77 PUSH2 0x72 CALLDATASIZE PUSH1 0x4 PUSH2 0x4A1 JUMP JUMPDEST PUSH2 0xFC JUMP JUMPDEST PUSH1 0x40 MLOAD PUSH2 0x84 SWAP2 SWAP1 PUSH2 0x4B8 JUMP JUMPDEST PUSH1 0x40 MLOAD DUP1 SWAP2 SUB SWAP1 RETURN JUMPDEST PUSH2 0x77 PUSH2 0x9B CALLDATASIZE PUSH1 0x4 PUSH2 0x4ED JUMP JUMPDEST PUSH2 0x197 JUMP JUMPDEST PUSH2 0x77 PUSH2 0xAE CALLDATASIZE PUSH1 0x4 PUSH2 0x4A1 JUMP JUMPDEST PUSH2 0x1FA JUMP JUMPDEST PUSH2 0xC6 PUSH2 0xC1 CALLDATASIZE PUSH1 0x4 PUSH2 0x513 JUMP JUMPDEST PUSH2 0x291 JUMP JUMPDEST PUSH1 0x40 MLOAD SWAP1 ISZERO ISZERO DUP2 MSTORE PUSH1 0x20 ADD PUSH2 0x84 JUMP JUMPDEST PUSH2 0x77 PUSH2 0xE4 CALLDATASIZE PUSH1 0x4 PUSH2 0x4A1 JUMP JUMPDEST PUSH2 0x318 JUMP JUMPDEST PUSH2 0x77 PUSH2 0xF7 CALLDATASIZE PUSH1 0x4 PUSH2 0x4A1 JUMP JUMPDEST PUSH2 0x440 JUMP JUMPDEST PUSH1 0x60 DUP1 PUSH0 DUP4 SGT ISZERO PUSH2 0x135 JUMPI POP PUSH1 0x40 DUP1 MLOAD DUP1 DUP3 ADD SWAP1 SWAP2 MSTORE PUSH1 0x11 DUP2 MSTORE PUSH17 0x47726561746572207468616E207A65726F PUSH1 0x78 SHL PUSH1 0x20 DUP3 ADD MSTORE PUSH2 0x191 JUMP JUMPDEST PUSH0 DUP4 SLT ISZERO PUSH2 0x16B JUMPI POP PUSH1 0x40 DUP1 MLOAD DUP1 DUP3 ADD SWAP1 SWAP2 MSTORE PUSH1 0x11 DUP2 MSTORE PUSH17 0x536D616C6C6572207468616E207A65726F PUSH1 0x78 SHL PUSH1 0x20 DUP3 ADD MSTORE PUSH2 0x191 JUMP JUMPDEST POP PUSH1 0x40 DUP1 MLOAD DUP1 DUP3 ADD SWAP1 SWAP2 MSTORE PUSH1 0xD DUP2 MSTORE PUSH13 0x457175616C20746F207A65726F PUSH1 0x98 SHL PUSH1 0x20 DUP3 ADD MSTORE JUMPDEST SWAP3 SWAP2 POP POP JUMP JUMPDEST PUSH1 0x60 DUP2 ISZERO PUSH2 0x1CC JUMPI POP POP PUSH1 0x40 DUP1 MLOAD DUP1 DUP3 ADD SWAP1 SWAP2 MSTORE PUSH1 0x11 DUP2 MSTORE PUSH17 0x436F6E646974696F6E2069732074727565 PUSH1 0x78 SHL PUSH1 0x20 DUP3 ADD MSTORE SWAP1 JUMP JUMPDEST POP POP PUSH1 0x40 DUP1 MLOAD DUP1 DUP3 ADD SWAP1 SWAP2 MSTORE PUSH1 0x12 DUP2 MSTORE PUSH18 0x436F6E646974696F6E2069732066616C7365 PUSH1 0x70 SHL PUSH1 0x20 DUP3 ADD MSTORE SWAP1 JUMP JUMPDEST PUSH1 0x60 PUSH0 DUP3 SGT PUSH2 0x264 JUMPI PUSH0 DUP3 SLT PUSH2 0x235 JUMPI PUSH1 0x40 MLOAD DUP1 PUSH1 0x40 ADD PUSH1 0x40 MSTORE DUP1 PUSH1 0xD DUP2 MSTORE PUSH1 0x20 ADD PUSH13 0x457175616C20746F207A65726F PUSH1 0x98 SHL DUP2 MSTORE POP PUSH2 0x191 JUMP JUMPDEST PUSH1 0x40 MLOAD DUP1 PUSH1 0x40 ADD PUSH1 0x40 MSTORE DUP1 PUSH1 0x11 DUP2 MSTORE PUSH1 0x20 ADD PUSH17 0x536D616C6C6572207468616E207A65726F PUSH1 0x78 SHL DUP2 MSTORE POP PUSH2 0x191 JUMP JUMPDEST POP POP PUSH1 0x40 DUP1 MLOAD DUP1 DUP3 ADD SWAP1 SWAP2 MSTORE PUSH1 0x11 DUP2 MSTORE PUSH17 0x47726561746572207468616E207A65726F PUSH1 0x78 SHL PUSH1 0x20 DUP3 ADD MSTORE SWAP1 JUMP JUMPDEST PUSH0 DUP2 DUP4 SGT ISZERO PUSH2 0x300 JUMPI PUSH1 0x40 MLOAD PUSH3 0x461BCD PUSH1 0xE5 SHL DUP2 MSTORE PUSH1 0x20 PUSH1 0x4 DUP3 ADD MSTORE PUSH1 0x31 PUSH1 0x24 DUP3 ADD MSTORE PUSH32 0x496E76616C69642072616E67653A206C6F77657220626F756E64206D75737420 PUSH1 0x44 DUP3 ADD MSTORE PUSH17 0x1899480F0F481D5C1C195C88189BDD5B99 PUSH1 0x7A SHL PUSH1 0x64 DUP3 ADD MSTORE PUSH1 0x84 ADD PUSH1 0x40 MLOAD DUP1 SWAP2 SUB SWAP1 REVERT JUMPDEST DUP3 DUP5 SLT ISZERO DUP1 ISZERO PUSH2 0x310 JUMPI POP DUP2 DUP5 SGT ISZERO JUMPDEST SWAP5 SWAP4 POP POP POP POP JUMP JUMPDEST PUSH1 0x60 PUSH1 0x63 NOT DUP3 SLT ISZERO PUSH2 0x35D JUMPI POP POP PUSH1 0x40 DUP1 MLOAD DUP1 DUP3 ADD SWAP1 SWAP2 MSTORE PUSH1 0x1E DUP2 MSTORE PUSH32 0x56657279206E6567617469766520286C657373207468616E202D313030290000 PUSH1 0x20 DUP3 ADD MSTORE SWAP1 JUMP JUMPDEST PUSH0 DUP3 SLT ISZERO PUSH2 0x39E JUMPI POP POP PUSH1 0x40 DUP1 MLOAD DUP1 DUP3 ADD SWAP1 SWAP2 MSTORE PUSH1 0x1D DUP2 MSTORE PUSH32 0x4E6567617469766520286265747765656E202D31303020616E64203029000000 PUSH1 0x20 DUP3 ADD MSTORE SWAP1 JUMP JUMPDEST DUP2 PUSH0 SUB PUSH2 0x3C5 JUMPI POP POP PUSH1 0x40 DUP1 MLOAD DUP1 DUP3 ADD SWAP1 SWAP2 MSTORE PUSH1 0x4 DUP2 MSTORE PUSH4 0x5A65726F PUSH1 0xE0 SHL PUSH1 0x20 DUP3 ADD MSTORE SWAP1 JUMP JUMPDEST PUSH1 0x64 DUP3 SLT ISZERO PUSH2 0x407 JUMPI POP POP PUSH1 0x40 DUP1 MLOAD DUP1 DUP3 ADD SWAP1 SWAP2 MSTORE PUSH1 0x1C DUP2 MSTORE PUSH32 0x506F73697469766520286265747765656E203020616E64203130302900000000 PUSH1 0x20 DUP3 ADD MSTORE SWAP1 JUMP JUMPDEST POP POP PUSH1 0x40 DUP1 MLOAD DUP1 DUP3 ADD SWAP1 SWAP2 MSTORE PUSH1 0x1E DUP2 MSTORE PUSH32 0x5665727920706F7369746976652028313030206F722067726561746572290000 PUSH1 0x20 DUP3 ADD MSTORE SWAP1 JUMP JUMPDEST PUSH1 0x60 PUSH2 0x44D PUSH1 0x2 DUP4 PUSH2 0x53C JUMP JUMPDEST ISZERO PUSH2 0x47A JUMPI PUSH1 0x40 MLOAD DUP1 PUSH1 0x40 ADD PUSH1 0x40 MSTORE DUP1 PUSH1 0xA DUP2 MSTORE PUSH1 0x20 ADD PUSH10 0x27B23210373AB6B132B9 PUSH1 0xB1 SHL DUP2 MSTORE POP PUSH2 0x191 JUMP JUMPDEST POP POP PUSH1 0x40 DUP1 MLOAD DUP1 DUP3 ADD SWAP1 SWAP2 MSTORE PUSH1 0xB DUP2 MSTORE PUSH11 0x22BB32B710373AB6B132B9 PUSH1 0xA9 SHL PUSH1 0x20 DUP3 ADD MSTORE SWAP1 JUMP JUMPDEST PUSH0 PUSH1 0x20 DUP3 DUP5 SUB SLT ISZERO PUSH2 0x4B1 JUMPI PUSH0 PUSH0 REVERT JUMPDEST POP CALLDATALOAD SWAP2 SWAP1 POP JUMP JUMPDEST PUSH1 0x20 DUP2 MSTORE PUSH0 DUP3 MLOAD DUP1 PUSH1 0x20 DUP5 ADD MSTORE DUP1 PUSH1 0x20 DUP6 ADD PUSH1 0x40 DUP6 ADD MCOPY PUSH0 PUSH1 0x40 DUP3 DUP6 ADD ADD MSTORE PUSH1 0x40 PUSH1 0x1F NOT PUSH1 0x1F DUP4 ADD AND DUP5 ADD ADD SWAP2 POP POP SWAP3 SWAP2 POP POP JUMP JUMPDEST PUSH0 PUSH1 0x20 DUP3 DUP5 SUB SLT ISZERO PUSH2 0x4FD JUMPI PUSH0 PUSH0 REVERT JUMPDEST DUP2 CALLDATALOAD DUP1 ISZERO ISZERO DUP2 EQ PUSH2 0x50C JUMPI PUSH0 PUSH0 REVERT JUMPDEST SWAP4 SWAP3 POP POP POP JUMP JUMPDEST PUSH0 PUSH0 PUSH0 PUSH1 0x60 DUP5 DUP7 SUB SLT ISZERO PUSH2 0x525 JUMPI PUSH0 PUSH0 REVERT JUMPDEST POP POP DUP2 CALLDATALOAD SWAP4 PUSH1 0x20 DUP4 ADD CALLDATALOAD SWAP4 POP PUSH1 0x40 SWAP1 SWAP3 ADD CALLDATALOAD SWAP2 SWAP1 POP JUMP JUMPDEST PUSH0 DUP3 PUSH2 0x556 JUMPI PUSH4 0x4E487B71 PUSH1 0xE0 SHL PUSH0 MSTORE PUSH1 0x12 PUSH1 0x4 MSTORE PUSH1 0x24 PUSH0 REVERT JUMPDEST POP SMOD SWAP1 JUMP INVALID LOG2 PUSH5 0x6970667358 0x22 SLT KECCAK256 XOR 0xAB PUSH13 0x39E2D4BC91BBFDF58F8327A133 0x4B PUSH22 0x375854466FD0DD9191AB6C0E3E8164736F6C63430008 0x1E STOP CALLER "
				},
				"gasEstimates": {
					"creation": {
						"codeDepositCost": "285000",
						"executionCost": "322",
						"totalCost": "285322"
					},
					"external": {
						"check(int256)": "infinite",
						"checkBoolean(bool)": "infinite",
						"checkEvenOdd(int256)": "infinite",
						"checkRange(int256)": "infinite",
						"checkTernary(int256)": "infinite",
						"isInRange(int256,int256,int256)": "458"
					}
				},
				"methodIdentifiers": {
					"check(int256)": "9943d669",
					"checkBoolean(bool)": "c0ea7830",
					"checkEvenOdd(int256)": "ee708b53",
					"checkRange(int256)": "e196f0c6",
					"checkTernary(int256)": "c46f9988",
					"isInRange(int256,int256,int256)": "c9363b81"
				}
			},
			"storageLayout": {
				"storage": [],
				"types": null
			},
			"userdoc": {
				"kind": "user",
				"methods": {
					"check(int256)": {
						"notice": "Pure function - doesn't read or modify contract stateDemonstrates if-else-if-else conditional structureUses signed integer (int) to allow negative values"
					},
					"checkBoolean(bool)": {
						"notice": "Shows simple if-else with boolean values"
					},
					"checkEvenOdd(int256)": {
						"notice": "Demonstrates modulo operation for parity checking"
					},
					"checkRange(int256)": {
						"notice": "Demonstrates multiple conditions with logical operators"
					},
					"checkTernary(int256)": {
						"notice": "Shows how the same logic can be implemented more concisely"
					},
					"isInRange(int256,int256,int256)": {
						"notice": "Demonstrates compound conditions with logical AND"
					}
				},
				"notice": "Shows how to implement decision making based on input valuesUses signed integers to demonstrate comparison with zero",
				"version": 1
			}
		}
	}
}