{
	"10-Mapping/demo.sol": {
		"mapDemo": {
			"abi": [
				{
					"inputs": [
						{
							"internalType": "uint256",
							"name": "",
							"type": "uint256"
						}
					],
					"name": "data",
					"outputs": [
						{
							"internalType": "uint256",
							"name": "class",
							"type": "uint256"
						},
						{
							"internalType": "string",
							"name": "name",
							"type": "string"
						}
					],
					"stateMutability": "view",
					"type": "function"
				},
				{
					"inputs": [
						{
							"internalType": "uint256",
							"name": "_roll",
							"type": "uint256"
						},
						{
							"internalType": "uint256",
							"name": "class",
							"type": "uint256"
						},
						{
							"internalType": "string",
							"name": "name",
							"type": "string"
						}
					],
					"name": "dataSetter",
					"outputs": [],
					"stateMutability": "nonpayable",
					"type": "function"
				},
				{
					"inputs": [
						{
							"internalType": "uint256",
							"name": "_key",
							"type": "uint256"
						}
					],
					"name": "getRollNo",
					"outputs": [
						{
							"internalType": "string",
							"name": "",
							"type": "string"
						}
					],
					"stateMutability": "view",
					"type": "function"
				},
				{
					"inputs": [
						{
							"internalType": "uint256",
							"name": "_roll",
							"type": "uint256"
						}
					],
					"name": "getStudentData",
					"outputs": [
						{
							"internalType": "uint256",
							"name": "",
							"type": "uint256"
						},
						{
							"internalType": "string",
							"name": "",
							"type": "string"
						}
					],
					"stateMutability": "view",
					"type": "function"
				},
				{
					"inputs": [
						{
							"internalType": "uint256",
							"name": "_key",
							"type": "uint256"
						}
					],
					"name": "keyExists",
					"outputs": [
						{
							"internalType": "bool",
							"name": "",
							"type": "bool"
						}
					],
					"stateMutability": "view",
					"type": "function"
				},
				{
					"inputs": [
						{
							"internalType": "uint256",
							"name": "_key",
							"type": "uint256"
						}
					],
					"name": "removeKey",
					"outputs": [],
					"stateMutability": "nonpayable",
					"type": "function"
				},
				{
					"inputs": [
						{
							"internalType": "uint256",
							"name": "",
							"type": "uint256"
						}
					],
					"name": "roll_no",
					"outputs": [
						{
							"internalType": "string",
							"name": "",
							"type": "string"
						}
					],
					"stateMutability": "view",
					"type": "function"
				},
				{
					"inputs": [
						{
							"internalType": "uint256",
							"name": "_key",
							"type": "uint256"
						},
						{
							"internalType": "string",
							"name": "_value",
							"type": "string"
						}
					],
					"name": "setter",
					"outputs": [],
					"stateMutability": "nonpayable",
					"type": "function"
				},
				{
					"inputs": [
						{
							"internalType": "uint256",
							"name": "_roll",
							"type": "uint256"
						},
						{
							"internalType": "uint256",
							"name": "newClass",
							"type": "uint256"
						}
					],
					"name": "updateStudentClass",
					"outputs": [],
					"stateMutability": "nonpayable",
					"type": "function"
				},
				{
					"inputs": [
						{
							"internalType": "uint256",
							"name": "_roll",
							"type": "uint256"
						},
						{
							"internalType": "string",
							"name": "newName",
							"type": "string"
						}
					],
					"name": "updateStudentName",
					"outputs": [],
					"stateMutability": "nonpayable",
					"type": "function"
				}
			],
			"devdoc": {
				"details": "Shows how to use mappings to store and retrieve data efficiently",
				"kind": "dev",
				"methods": {
					"dataSetter(uint256,uint256,string)": {
						"details": "Sets student data in the mappingGas cost: ~40,000-60,000 (higher due to struct storage)",
						"params": {
							"_roll": "The student's roll number (key)",
							"class": "The class/grade the student is in",
							"name": "The student's name"
						}
					},
					"getRollNo(uint256)": {
						"details": "Gets a value from the roll_no mapping",
						"params": {
							"_key": "The key to look up"
						},
						"returns": {
							"_0": "The string value associated with the key, or empty string if not set"
						}
					},
					"getStudentData(uint256)": {
						"details": "Gets student data from the mapping",
						"params": {
							"_roll": "The student's roll number"
						},
						"returns": {
							"_0": "The class and name of the student"
						}
					},
					"keyExists(uint256)": {
						"details": "Checks if a key exists in the roll_no mappingNote: There's no direct way to check if a key exists - we check if the value is empty",
						"params": {
							"_key": "The key to check"
						},
						"returns": {
							"_0": "true if the key has a non-empty value, false otherwise"
						}
					},
					"removeKey(uint256)": {
						"details": "Removes a key-value pair from the roll_no mappingNote: The key still exists in the mapping but maps to an empty value",
						"params": {
							"_key": "The key to remove"
						}
					},
					"setter(uint256,string)": {
						"details": "Sets a value in the roll_no mappingGas cost: ~20,000-40,000 (varies based on storage operations)",
						"params": {
							"_key": "The uint256 key (e.g., student roll number)",
							"_value": "The string value to associate with the key (e.g., student name)"
						}
					},
					"updateStudentClass(uint256,uint256)": {
						"details": "Updates the class of an existing studentRequires the student to already exist in the mapping",
						"params": {
							"_roll": "The student's roll number",
							"newClass": "The new class to assign"
						}
					},
					"updateStudentName(uint256,string)": {
						"details": "Updates the name of an existing student",
						"params": {
							"_roll": "The student's roll number",
							"newName": "The new name to assign"
						}
					}
				},
				"stateVariables": {
					"data": {
						"details": "Mapping from uint keys to Student struct values"
					},
					"roll_no": {
						"details": "Mapping from uint256 keys to string valuesStorage Characteristics: - Doesn't occupy storage slots for unused keys - Keys are hashed to find the storage location - No length or way to enumerate keys - Very gas efficient for access (O(1) complexity)"
					}
				},
				"title": "Mapping Demonstration in Solidity",
				"version": 1
			},
			"evm": {
				"assembly": "    /* \"10-Mapping/demo.sol\":437:5828  contract mapDemo {... */\n  mstore(0x40, 0x80)\n  callvalue\n  dup1\n  iszero\n  tag_1\n  jumpi\n  revert(0x00, 0x00)\ntag_1:\n  pop\n  dataSize(sub_0)\n  dup1\n  dataOffset(sub_0)\n  0x00\n  codecopy\n  0x00\n  return\nstop\n\nsub_0: assembly {\n        /* \"10-Mapping/demo.sol\":437:5828  contract mapDemo {... */\n      mstore(0x40, 0x80)\n      callvalue\n      dup1\n      iszero\n      tag_1\n      jumpi\n      revert(0x00, 0x00)\n    tag_1:\n      pop\n      jumpi(tag_2, lt(calldatasize, 0x04))\n      shr(0xe0, calldataload(0x00))\n      dup1\n      0x898786ac\n      gt\n      tag_13\n      jumpi\n      dup1\n      0x898786ac\n      eq\n      tag_8\n      jumpi\n      dup1\n      0xa8d20d61\n      eq\n      tag_9\n      jumpi\n      dup1\n      0xbcb131c9\n      eq\n      tag_10\n      jumpi\n      dup1\n      0xe14077cb\n      eq\n      tag_11\n      jumpi\n      dup1\n      0xf0ba8440\n      eq\n      tag_12\n      jumpi\n      revert(0x00, 0x00)\n    tag_13:\n      dup1\n      0x3d301c2a\n      eq\n      tag_3\n      jumpi\n      dup1\n      0x440dba6c\n      eq\n      tag_4\n      jumpi\n      dup1\n      0x79bab0c2\n      eq\n      tag_5\n      jumpi\n      dup1\n      0x82d1eac8\n      eq\n      tag_6\n      jumpi\n      dup1\n      0x874e5bb8\n      eq\n      tag_7\n      jumpi\n    tag_2:\n      revert(0x00, 0x00)\n        /* \"10-Mapping/demo.sol\":2617:3020  function dataSetter(uint256 _roll, uint256 class, string memory name) public {... */\n    tag_3:\n      tag_14\n      tag_15\n      calldatasize\n      0x04\n      tag_16\n      jump\t// in\n    tag_15:\n      tag_17\n      jump\t// in\n    tag_14:\n      stop\n        /* \"10-Mapping/demo.sol\":5552:5826  function updateStudentName(uint256 _roll, string memory newName) public {... */\n    tag_4:\n      tag_14\n      tag_19\n      calldatasize\n      0x04\n      tag_20\n      jump\t// in\n    tag_19:\n      tag_21\n      jump\t// in\n        /* \"10-Mapping/demo.sol\":5031:5304  function updateStudentClass(uint256 _roll, uint256 newClass) public {... */\n    tag_5:\n      tag_14\n      tag_23\n      calldatasize\n      0x04\n      tag_24\n      jump\t// in\n    tag_23:\n      tag_25\n      jump\t// in\n        /* \"10-Mapping/demo.sol\":4159:4274  function keyExists(uint256 _key) public view returns (bool) {... */\n    tag_6:\n      tag_26\n      tag_27\n      calldatasize\n      0x04\n      tag_28\n      jump\t// in\n    tag_27:\n      tag_29\n      jump\t// in\n    tag_26:\n      mload(0x40)\n        /* \"#utility.yul\":2626:2640   */\n      swap1\n      iszero\n        /* \"#utility.yul\":2619:2641   */\n      iszero\n        /* \"#utility.yul\":2601:2642   */\n      dup2\n      mstore\n        /* \"#utility.yul\":2589:2591   */\n      0x20\n        /* \"#utility.yul\":2574:2592   */\n      add\n        /* \"10-Mapping/demo.sol\":4159:4274  function keyExists(uint256 _key) public view returns (bool) {... */\n    tag_30:\n      mload(0x40)\n      dup1\n      swap2\n      sub\n      swap1\n      return\n        /* \"10-Mapping/demo.sol\":3633:3816  function getStudentData(uint256 _roll) public view returns (uint256, string memory) {... */\n    tag_7:\n      tag_32\n      tag_33\n      calldatasize\n      0x04\n      tag_28\n      jump\t// in\n    tag_33:\n      tag_34\n      jump\t// in\n    tag_32:\n      mload(0x40)\n      tag_30\n      swap3\n      swap2\n      swap1\n      tag_36\n      jump\t// in\n        /* \"10-Mapping/demo.sol\":1035:1076  mapping(uint256 => string) public roll_no */\n    tag_8:\n      tag_37\n      tag_38\n      calldatasize\n      0x04\n      tag_28\n      jump\t// in\n    tag_38:\n      tag_39\n      jump\t// in\n    tag_37:\n      mload(0x40)\n      tag_30\n      swap2\n      swap1\n      tag_41\n      jump\t// in\n        /* \"10-Mapping/demo.sol\":4562:4715  function removeKey(uint256 _key) public {... */\n    tag_9:\n      tag_14\n      tag_43\n      calldatasize\n      0x04\n      tag_28\n      jump\t// in\n    tag_43:\n      tag_44\n      jump\t// in\n        /* \"10-Mapping/demo.sol\":1430:1665  function setter(uint256 _key, string memory _value) public {... */\n    tag_10:\n      tag_14\n      tag_46\n      calldatasize\n      0x04\n      tag_20\n      jump\t// in\n    tag_46:\n      tag_47\n      jump\t// in\n        /* \"10-Mapping/demo.sol\":3299:3405  function getRollNo(uint256 _key) public view returns (string memory) {... */\n    tag_11:\n      tag_37\n      tag_49\n      calldatasize\n      0x04\n      tag_28\n      jump\t// in\n    tag_49:\n      tag_50\n      jump\t// in\n        /* \"10-Mapping/demo.sol\":2237:2276  mapping(uint256 => Student) public data */\n    tag_12:\n      tag_32\n      tag_53\n      calldatasize\n      0x04\n      tag_28\n      jump\t// in\n    tag_53:\n      tag_54\n      jump\t// in\n        /* \"10-Mapping/demo.sol\":2617:3020  function dataSetter(uint256 _roll, uint256 class, string memory name) public {... */\n    tag_17:\n        /* \"10-Mapping/demo.sol\":2844:2913  Student({... */\n      0x40\n      dup1\n      mload\n      dup1\n      dup3\n      add\n      dup3\n      mstore\n      dup4\n      dup2\n      mstore\n      0x20\n      dup1\n      dup3\n      add\n      dup5\n      dup2\n      mstore\n      0x00\n        /* \"10-Mapping/demo.sol\":2830:2841  data[_roll] */\n      dup8\n      dup2\n      mstore\n        /* \"10-Mapping/demo.sol\":2830:2834  data */\n      0x01\n        /* \"10-Mapping/demo.sol\":2830:2841  data[_roll] */\n      swap3\n      dup4\n      swap1\n      mstore\n      swap4\n      swap1\n      swap4\n      keccak256\n        /* \"10-Mapping/demo.sol\":2830:2913  data[_roll] = Student({... */\n      dup3\n      mload\n      dup2\n      sstore\n      swap3\n      mload\n        /* \"10-Mapping/demo.sol\":2844:2913  Student({... */\n      swap2\n      swap3\n        /* \"10-Mapping/demo.sol\":2830:2841  data[_roll] */\n      swap2\n        /* \"10-Mapping/demo.sol\":2830:2913  data[_roll] = Student({... */\n      swap1\n      dup3\n      add\n      swap1\n      tag_57\n      swap1\n      dup3\n      tag_58\n      jump\t// in\n    tag_57:\n      pop\n      pop\n      pop\n      pop\n      pop\n      pop\n        /* \"10-Mapping/demo.sol\":2617:3020  function dataSetter(uint256 _roll, uint256 class, string memory name) public {... */\n      jump\t// out\n        /* \"10-Mapping/demo.sol\":5552:5826  function updateStudentName(uint256 _roll, string memory newName) public {... */\n    tag_21:\n        /* \"10-Mapping/demo.sol\":5716:5717  0 */\n      0x00\n        /* \"10-Mapping/demo.sol\":5689:5700  data[_roll] */\n      dup3\n      dup2\n      mstore\n        /* \"10-Mapping/demo.sol\":5689:5693  data */\n      0x01\n        /* \"10-Mapping/demo.sol\":5689:5700  data[_roll] */\n      0x20\n      dup2\n      swap1\n      mstore\n      0x40\n      dup3\n      keccak256\n        /* \"10-Mapping/demo.sol\":5689:5705  data[_roll].name */\n      add\n        /* \"10-Mapping/demo.sol\":5683:5713  bytes(data[_roll].name).length */\n      dup1\n      sload\n      tag_60\n      swap1\n      tag_61\n      jump\t// in\n    tag_60:\n      swap1\n      pop\n        /* \"10-Mapping/demo.sol\":5683:5717  bytes(data[_roll].name).length > 0 */\n      gt\n        /* \"10-Mapping/demo.sol\":5675:5744  require(bytes(data[_roll].name).length > 0, \"Student does not exist\") */\n      tag_62\n      jumpi\n      mload(0x40)\n      shl(0xe5, 0x461bcd)\n      dup2\n      mstore\n        /* \"#utility.yul\":6179:6181   */\n      0x20\n        /* \"10-Mapping/demo.sol\":5675:5744  require(bytes(data[_roll].name).length > 0, \"Student does not exist\") */\n      0x04\n      dup3\n      add\n        /* \"#utility.yul\":6161:6182   */\n      mstore\n        /* \"#utility.yul\":6218:6220   */\n      0x16\n        /* \"#utility.yul\":6198:6216   */\n      0x24\n      dup3\n      add\n        /* \"#utility.yul\":6191:6221   */\n      mstore\n      shl(0x52, 0x14dd1d59195b9d08191bd95cc81b9bdd08195e1a5cdd)\n        /* \"#utility.yul\":6237:6255   */\n      0x44\n      dup3\n      add\n        /* \"#utility.yul\":6230:6282   */\n      mstore\n        /* \"#utility.yul\":6299:6317   */\n      0x64\n      add\n        /* \"10-Mapping/demo.sol\":5675:5744  require(bytes(data[_roll].name).length > 0, \"Student does not exist\") */\n    tag_63:\n      mload(0x40)\n      dup1\n      swap2\n      sub\n      swap1\n      revert\n    tag_62:\n        /* \"10-Mapping/demo.sol\":5793:5804  data[_roll] */\n      0x00\n      dup3\n      dup2\n      mstore\n        /* \"10-Mapping/demo.sol\":5793:5797  data */\n      0x01\n        /* \"10-Mapping/demo.sol\":5793:5804  data[_roll] */\n      0x20\n      dup2\n      swap1\n      mstore\n      0x40\n      swap1\n      swap2\n      keccak256\n        /* \"10-Mapping/demo.sol\":5793:5809  data[_roll].name */\n      add\n        /* \"10-Mapping/demo.sol\":5793:5819  data[_roll].name = newName */\n      tag_65\n        /* \"10-Mapping/demo.sol\":5812:5819  newName */\n      dup3\n        /* \"10-Mapping/demo.sol\":5793:5809  data[_roll].name */\n      dup3\n        /* \"10-Mapping/demo.sol\":5793:5819  data[_roll].name = newName */\n      tag_58\n      jump\t// in\n    tag_65:\n      pop\n        /* \"10-Mapping/demo.sol\":5552:5826  function updateStudentName(uint256 _roll, string memory newName) public {... */\n      pop\n      pop\n      jump\t// out\n        /* \"10-Mapping/demo.sol\":5031:5304  function updateStudentClass(uint256 _roll, uint256 newClass) public {... */\n    tag_25:\n        /* \"10-Mapping/demo.sol\":5191:5192  0 */\n      0x00\n        /* \"10-Mapping/demo.sol\":5164:5175  data[_roll] */\n      dup3\n      dup2\n      mstore\n        /* \"10-Mapping/demo.sol\":5164:5168  data */\n      0x01\n        /* \"10-Mapping/demo.sol\":5164:5175  data[_roll] */\n      0x20\n      dup2\n      swap1\n      mstore\n      0x40\n      dup3\n      keccak256\n        /* \"10-Mapping/demo.sol\":5164:5180  data[_roll].name */\n      add\n        /* \"10-Mapping/demo.sol\":5158:5188  bytes(data[_roll].name).length */\n      dup1\n      sload\n      tag_67\n      swap1\n      tag_61\n      jump\t// in\n    tag_67:\n      swap1\n      pop\n        /* \"10-Mapping/demo.sol\":5158:5192  bytes(data[_roll].name).length > 0 */\n      gt\n        /* \"10-Mapping/demo.sol\":5150:5219  require(bytes(data[_roll].name).length > 0, \"Student does not exist\") */\n      tag_68\n      jumpi\n      mload(0x40)\n      shl(0xe5, 0x461bcd)\n      dup2\n      mstore\n        /* \"#utility.yul\":6179:6181   */\n      0x20\n        /* \"10-Mapping/demo.sol\":5150:5219  require(bytes(data[_roll].name).length > 0, \"Student does not exist\") */\n      0x04\n      dup3\n      add\n        /* \"#utility.yul\":6161:6182   */\n      mstore\n        /* \"#utility.yul\":6218:6220   */\n      0x16\n        /* \"#utility.yul\":6198:6216   */\n      0x24\n      dup3\n      add\n        /* \"#utility.yul\":6191:6221   */\n      mstore\n      shl(0x52, 0x14dd1d59195b9d08191bd95cc81b9bdd08195e1a5cdd)\n        /* \"#utility.yul\":6237:6255   */\n      0x44\n      dup3\n      add\n        /* \"#utility.yul\":6230:6282   */\n      mstore\n        /* \"#utility.yul\":6299:6317   */\n      0x64\n      add\n        /* \"10-Mapping/demo.sol\":5150:5219  require(bytes(data[_roll].name).length > 0, \"Student does not exist\") */\n      tag_63\n        /* \"#utility.yul\":5977:6323   */\n      jump\n        /* \"10-Mapping/demo.sol\":5150:5219  require(bytes(data[_roll].name).length > 0, \"Student does not exist\") */\n    tag_68:\n        /* \"10-Mapping/demo.sol\":5269:5280  data[_roll] */\n      0x00\n      swap2\n      dup3\n      mstore\n        /* \"10-Mapping/demo.sol\":5269:5273  data */\n      0x01\n        /* \"10-Mapping/demo.sol\":5269:5280  data[_roll] */\n      0x20\n      mstore\n      0x40\n      swap1\n      swap2\n      keccak256\n        /* \"10-Mapping/demo.sol\":5269:5297  data[_roll].class = newClass */\n      sstore\n        /* \"10-Mapping/demo.sol\":5031:5304  function updateStudentClass(uint256 _roll, uint256 newClass) public {... */\n      jump\t// out\n        /* \"10-Mapping/demo.sol\":4159:4274  function keyExists(uint256 _key) public view returns (bool) {... */\n    tag_29:\n        /* \"10-Mapping/demo.sol\":4213:4217  bool */\n      0x00\n        /* \"10-Mapping/demo.sol\":4242:4255  roll_no[_key] */\n      dup2\n      dup2\n      mstore\n      0x20\n      dup2\n      swap1\n      mstore\n      0x40\n      dup2\n      keccak256\n        /* \"10-Mapping/demo.sol\":4236:4263  bytes(roll_no[_key]).length */\n      dup1\n      sload\n        /* \"10-Mapping/demo.sol\":4213:4217  bool */\n      dup3\n      swap2\n        /* \"10-Mapping/demo.sol\":4242:4255  roll_no[_key] */\n      swap1\n        /* \"10-Mapping/demo.sol\":4236:4263  bytes(roll_no[_key]).length */\n      tag_71\n      swap1\n      tag_61\n      jump\t// in\n    tag_71:\n      swap1\n      pop\n        /* \"10-Mapping/demo.sol\":4236:4267  bytes(roll_no[_key]).length > 0 */\n      gt\n        /* \"10-Mapping/demo.sol\":4229:4267  return bytes(roll_no[_key]).length > 0 */\n      swap1\n      pop\n        /* \"10-Mapping/demo.sol\":4159:4274  function keyExists(uint256 _key) public view returns (bool) {... */\n      swap2\n      swap1\n      pop\n      jump\t// out\n        /* \"10-Mapping/demo.sol\":3633:3816  function getStudentData(uint256 _roll) public view returns (uint256, string memory) {... */\n    tag_34:\n        /* \"10-Mapping/demo.sol\":3693:3700  uint256 */\n      0x00\n        /* \"10-Mapping/demo.sol\":3702:3715  string memory */\n      0x60\n        /* \"10-Mapping/demo.sol\":3727:3749  Student memory student */\n      0x00\n        /* \"10-Mapping/demo.sol\":3752:3756  data */\n      0x01\n        /* \"10-Mapping/demo.sol\":3752:3763  data[_roll] */\n      0x00\n        /* \"10-Mapping/demo.sol\":3757:3762  _roll */\n      dup6\n        /* \"10-Mapping/demo.sol\":3752:3763  data[_roll] */\n      dup2\n      mstore\n      0x20\n      add\n      swap1\n      dup2\n      mstore\n      0x20\n      add\n      0x00\n      keccak256\n        /* \"10-Mapping/demo.sol\":3727:3763  Student memory student = data[_roll] */\n      mload(0x40)\n      dup1\n      0x40\n      add\n      0x40\n      mstore\n      swap1\n      dup2\n      0x00\n      dup3\n      add\n      sload\n      dup2\n      mstore\n      0x20\n      add\n      0x01\n      dup3\n      add\n      dup1\n      sload\n      tag_73\n      swap1\n      tag_61\n      jump\t// in\n    tag_73:\n      dup1\n      0x1f\n      add\n      0x20\n      dup1\n      swap2\n      div\n      mul\n      0x20\n      add\n      mload(0x40)\n      swap1\n      dup2\n      add\n      0x40\n      mstore\n      dup1\n      swap3\n      swap2\n      swap1\n      dup2\n      dup2\n      mstore\n      0x20\n      add\n      dup3\n      dup1\n      sload\n      tag_74\n      swap1\n      tag_61\n      jump\t// in\n    tag_74:\n      dup1\n      iszero\n      tag_75\n      jumpi\n      dup1\n      0x1f\n      lt\n      tag_76\n      jumpi\n      0x0100\n      dup1\n      dup4\n      sload\n      div\n      mul\n      dup4\n      mstore\n      swap2\n      0x20\n      add\n      swap2\n      jump(tag_75)\n    tag_76:\n      dup3\n      add\n      swap2\n      swap1\n      0x00\n      mstore\n      keccak256(0x00, 0x20)\n      swap1\n    tag_77:\n      dup2\n      sload\n      dup2\n      mstore\n      swap1\n      0x01\n      add\n      swap1\n      0x20\n      add\n      dup1\n      dup4\n      gt\n      tag_77\n      jumpi\n      dup3\n      swap1\n      sub\n      0x1f\n      and\n      dup3\n      add\n      swap2\n    tag_75:\n      pop\n      pop\n      pop\n      pop\n      pop\n      dup2\n      mstore\n      pop\n      pop\n      swap1\n      pop\n        /* \"10-Mapping/demo.sol\":3781:3788  student */\n      dup1\n        /* \"10-Mapping/demo.sol\":3781:3794  student.class */\n      0x00\n      add\n      mload\n        /* \"10-Mapping/demo.sol\":3796:3803  student */\n      dup2\n        /* \"10-Mapping/demo.sol\":3796:3808  student.name */\n      0x20\n      add\n      mload\n        /* \"10-Mapping/demo.sol\":3773:3809  return (student.class, student.name) */\n      swap3\n      pop\n      swap3\n      pop\n      pop\n        /* \"10-Mapping/demo.sol\":3633:3816  function getStudentData(uint256 _roll) public view returns (uint256, string memory) {... */\n      swap2\n      pop\n      swap2\n      jump\t// out\n        /* \"10-Mapping/demo.sol\":1035:1076  mapping(uint256 => string) public roll_no */\n    tag_39:\n      0x00\n      0x20\n      dup2\n      swap1\n      mstore\n      swap1\n      dup2\n      mstore\n      0x40\n      swap1\n      keccak256\n      dup1\n      sload\n      tag_78\n      swap1\n      tag_61\n      jump\t// in\n    tag_78:\n      dup1\n      0x1f\n      add\n      0x20\n      dup1\n      swap2\n      div\n      mul\n      0x20\n      add\n      mload(0x40)\n      swap1\n      dup2\n      add\n      0x40\n      mstore\n      dup1\n      swap3\n      swap2\n      swap1\n      dup2\n      dup2\n      mstore\n      0x20\n      add\n      dup3\n      dup1\n      sload\n      tag_79\n      swap1\n      tag_61\n      jump\t// in\n    tag_79:\n      dup1\n      iszero\n      tag_80\n      jumpi\n      dup1\n      0x1f\n      lt\n      tag_81\n      jumpi\n      0x0100\n      dup1\n      dup4\n      sload\n      div\n      mul\n      dup4\n      mstore\n      swap2\n      0x20\n      add\n      swap2\n      jump(tag_80)\n    tag_81:\n      dup3\n      add\n      swap2\n      swap1\n      0x00\n      mstore\n      keccak256(0x00, 0x20)\n      swap1\n    tag_82:\n      dup2\n      sload\n      dup2\n      mstore\n      swap1\n      0x01\n      add\n      swap1\n      0x20\n      add\n      dup1\n      dup4\n      gt\n      tag_82\n      jumpi\n      dup3\n      swap1\n      sub\n      0x1f\n      and\n      dup3\n      add\n      swap2\n    tag_80:\n      pop\n      pop\n      pop\n      pop\n      pop\n      dup2\n      jump\t// out\n        /* \"10-Mapping/demo.sol\":4562:4715  function removeKey(uint256 _key) public {... */\n    tag_44:\n        /* \"10-Mapping/demo.sol\":4619:4626  roll_no */\n      0x00\n        /* \"10-Mapping/demo.sol\":4619:4632  roll_no[_key] */\n      dup2\n      dup2\n      mstore\n      0x20\n      dup2\n      swap1\n      mstore\n      0x40\n      dup2\n      keccak256\n        /* \"10-Mapping/demo.sol\":4612:4632  delete roll_no[_key] */\n      tag_84\n      swap2\n      tag_85\n      jump\t// in\n    tag_84:\n        /* \"10-Mapping/demo.sol\":4562:4715  function removeKey(uint256 _key) public {... */\n      pop\n      jump\t// out\n        /* \"10-Mapping/demo.sol\":1430:1665  function setter(uint256 _key, string memory _value) public {... */\n    tag_47:\n        /* \"10-Mapping/demo.sol\":1636:1643  roll_no */\n      0x00\n        /* \"10-Mapping/demo.sol\":1636:1649  roll_no[_key] */\n      dup3\n      dup2\n      mstore\n      0x20\n      dup2\n      swap1\n      mstore\n      0x40\n      swap1\n      keccak256\n        /* \"10-Mapping/demo.sol\":1636:1658  roll_no[_key] = _value */\n      tag_65\n        /* \"10-Mapping/demo.sol\":1652:1658  _value */\n      dup3\n        /* \"10-Mapping/demo.sol\":1636:1649  roll_no[_key] */\n      dup3\n        /* \"10-Mapping/demo.sol\":1636:1658  roll_no[_key] = _value */\n      tag_58\n      jump\t// in\n        /* \"10-Mapping/demo.sol\":3299:3405  function getRollNo(uint256 _key) public view returns (string memory) {... */\n    tag_50:\n        /* \"10-Mapping/demo.sol\":3385:3392  roll_no */\n      0x00\n        /* \"10-Mapping/demo.sol\":3385:3398  roll_no[_key] */\n      dup2\n      dup2\n      mstore\n      0x20\n      dup2\n      swap1\n      mstore\n      0x40\n      swap1\n      keccak256\n        /* \"10-Mapping/demo.sol\":3378:3398  return roll_no[_key] */\n      dup1\n      sload\n        /* \"10-Mapping/demo.sol\":3353:3366  string memory */\n      0x60\n      swap2\n        /* \"10-Mapping/demo.sol\":3385:3398  roll_no[_key] */\n      swap1\n        /* \"10-Mapping/demo.sol\":3378:3398  return roll_no[_key] */\n      tag_89\n      swap1\n      tag_61\n      jump\t// in\n    tag_89:\n      dup1\n      0x1f\n      add\n      0x20\n      dup1\n      swap2\n      div\n      mul\n      0x20\n      add\n      mload(0x40)\n      swap1\n      dup2\n      add\n      0x40\n      mstore\n      dup1\n      swap3\n      swap2\n      swap1\n      dup2\n      dup2\n      mstore\n      0x20\n      add\n      dup3\n      dup1\n      sload\n      tag_90\n      swap1\n      tag_61\n      jump\t// in\n    tag_90:\n      dup1\n      iszero\n      tag_91\n      jumpi\n      dup1\n      0x1f\n      lt\n      tag_92\n      jumpi\n      0x0100\n      dup1\n      dup4\n      sload\n      div\n      mul\n      dup4\n      mstore\n      swap2\n      0x20\n      add\n      swap2\n      jump(tag_91)\n    tag_92:\n      dup3\n      add\n      swap2\n      swap1\n      0x00\n      mstore\n      keccak256(0x00, 0x20)\n      swap1\n    tag_93:\n      dup2\n      sload\n      dup2\n      mstore\n      swap1\n      0x01\n      add\n      swap1\n      0x20\n      add\n      dup1\n      dup4\n      gt\n      tag_93\n      jumpi\n      dup3\n      swap1\n      sub\n      0x1f\n      and\n      dup3\n      add\n      swap2\n    tag_91:\n      pop\n      pop\n      pop\n      pop\n      pop\n      swap1\n      pop\n        /* \"10-Mapping/demo.sol\":3299:3405  function getRollNo(uint256 _key) public view returns (string memory) {... */\n      swap2\n      swap1\n      pop\n      jump\t// out\n        /* \"10-Mapping/demo.sol\":2237:2276  mapping(uint256 => Student) public data */\n    tag_54:\n      0x01\n      0x20\n      dup2\n      swap1\n      mstore\n      0x00\n      swap2\n      dup3\n      mstore\n      0x40\n      swap1\n      swap2\n      keccak256\n      dup1\n      sload\n      swap2\n      dup2\n      add\n      dup1\n      sload\n      tag_94\n      swap1\n      tag_61\n      jump\t// in\n    tag_94:\n      dup1\n      0x1f\n      add\n      0x20\n      dup1\n      swap2\n      div\n      mul\n      0x20\n      add\n      mload(0x40)\n      swap1\n      dup2\n      add\n      0x40\n      mstore\n      dup1\n      swap3\n      swap2\n      swap1\n      dup2\n      dup2\n      mstore\n      0x20\n      add\n      dup3\n      dup1\n      sload\n      tag_95\n      swap1\n      tag_61\n      jump\t// in\n    tag_95:\n      dup1\n      iszero\n      tag_96\n      jumpi\n      dup1\n      0x1f\n      lt\n      tag_97\n      jumpi\n      0x0100\n      dup1\n      dup4\n      sload\n      div\n      mul\n      dup4\n      mstore\n      swap2\n      0x20\n      add\n      swap2\n      jump(tag_96)\n    tag_97:\n      dup3\n      add\n      swap2\n      swap1\n      0x00\n      mstore\n      keccak256(0x00, 0x20)\n      swap1\n    tag_98:\n      dup2\n      sload\n      dup2\n      mstore\n      swap1\n      0x01\n      add\n      swap1\n      0x20\n      add\n      dup1\n      dup4\n      gt\n      tag_98\n      jumpi\n      dup3\n      swap1\n      sub\n      0x1f\n      and\n      dup3\n      add\n      swap2\n    tag_96:\n      pop\n      pop\n      pop\n      pop\n      pop\n      swap1\n      pop\n      dup3\n      jump\t// out\n    tag_85:\n      pop\n      dup1\n      sload\n      tag_99\n      swap1\n      tag_61\n      jump\t// in\n    tag_99:\n      0x00\n      dup3\n      sstore\n      dup1\n      0x1f\n      lt\n      tag_101\n      jumpi\n      pop\n      pop\n      jump\t// out\n    tag_101:\n      0x1f\n      add\n      0x20\n      swap1\n      div\n      swap1\n      0x00\n      mstore\n      keccak256(0x00, 0x20)\n      swap1\n      dup2\n      add\n      swap1\n      tag_84\n      swap2\n      swap1\n    tag_104:\n      dup1\n      dup3\n      gt\n      iszero\n      tag_105\n      jumpi\n      0x00\n      dup2\n      sstore\n      0x01\n      add\n      jump(tag_104)\n    tag_105:\n      pop\n      swap1\n      jump\t// out\n        /* \"#utility.yul\":14:141   */\n    tag_106:\n        /* \"#utility.yul\":75:85   */\n      0x4e487b71\n        /* \"#utility.yul\":70:73   */\n      0xe0\n        /* \"#utility.yul\":66:86   */\n      shl\n        /* \"#utility.yul\":63:64   */\n      0x00\n        /* \"#utility.yul\":56:87   */\n      mstore\n        /* \"#utility.yul\":106:110   */\n      0x41\n        /* \"#utility.yul\":103:104   */\n      0x04\n        /* \"#utility.yul\":96:111   */\n      mstore\n        /* \"#utility.yul\":130:134   */\n      0x24\n        /* \"#utility.yul\":127:128   */\n      0x00\n        /* \"#utility.yul\":120:135   */\n      revert\n        /* \"#utility.yul\":146:872   */\n    tag_107:\n        /* \"#utility.yul\":189:194   */\n      0x00\n        /* \"#utility.yul\":242:245   */\n      dup3\n        /* \"#utility.yul\":235:239   */\n      0x1f\n        /* \"#utility.yul\":227:233   */\n      dup4\n        /* \"#utility.yul\":223:240   */\n      add\n        /* \"#utility.yul\":219:246   */\n      slt\n        /* \"#utility.yul\":209:264   */\n      tag_115\n      jumpi\n        /* \"#utility.yul\":260:261   */\n      0x00\n        /* \"#utility.yul\":257:258   */\n      0x00\n        /* \"#utility.yul\":250:262   */\n      revert\n        /* \"#utility.yul\":209:264   */\n    tag_115:\n        /* \"#utility.yul\":300:306   */\n      dup2\n        /* \"#utility.yul\":287:307   */\n      calldataload\n        /* \"#utility.yul\":330:348   */\n      0xffffffffffffffff\n        /* \"#utility.yul\":322:328   */\n      dup2\n        /* \"#utility.yul\":319:349   */\n      gt\n        /* \"#utility.yul\":316:372   */\n      iszero\n      tag_117\n      jumpi\n        /* \"#utility.yul\":352:370   */\n      tag_117\n      tag_106\n      jump\t// in\n    tag_117:\n        /* \"#utility.yul\":401:403   */\n      0x40\n        /* \"#utility.yul\":395:404   */\n      mload\n        /* \"#utility.yul\":493:495   */\n      0x1f\n        /* \"#utility.yul\":455:472   */\n      dup3\n      add\n      not(0x1f)\n        /* \"#utility.yul\":451:482   */\n      swap1\n      dup2\n      and\n        /* \"#utility.yul\":484:486   */\n      0x3f\n        /* \"#utility.yul\":447:487   */\n      add\n        /* \"#utility.yul\":443:497   */\n      and\n        /* \"#utility.yul\":431:498   */\n      dup2\n      add\n        /* \"#utility.yul\":528:546   */\n      0xffffffffffffffff\n        /* \"#utility.yul\":513:547   */\n      dup2\n      gt\n        /* \"#utility.yul\":549:571   */\n      dup3\n      dup3\n      lt\n        /* \"#utility.yul\":510:572   */\n      or\n        /* \"#utility.yul\":507:595   */\n      iszero\n      tag_119\n      jumpi\n        /* \"#utility.yul\":575:593   */\n      tag_119\n      tag_106\n      jump\t// in\n    tag_119:\n        /* \"#utility.yul\":611:613   */\n      0x40\n        /* \"#utility.yul\":604:626   */\n      mstore\n        /* \"#utility.yul\":635:657   */\n      dup2\n      dup2\n      mstore\n        /* \"#utility.yul\":676:695   */\n      dup4\n      dup3\n      add\n        /* \"#utility.yul\":697:701   */\n      0x20\n        /* \"#utility.yul\":672:702   */\n      add\n        /* \"#utility.yul\":669:708   */\n      dup6\n      lt\n        /* \"#utility.yul\":666:725   */\n      iszero\n      tag_120\n      jumpi\n        /* \"#utility.yul\":721:722   */\n      0x00\n        /* \"#utility.yul\":718:719   */\n      0x00\n        /* \"#utility.yul\":711:723   */\n      revert\n        /* \"#utility.yul\":666:725   */\n    tag_120:\n        /* \"#utility.yul\":785:791   */\n      dup2\n        /* \"#utility.yul\":778:782   */\n      0x20\n        /* \"#utility.yul\":770:776   */\n      dup6\n        /* \"#utility.yul\":766:783   */\n      add\n        /* \"#utility.yul\":759:763   */\n      0x20\n        /* \"#utility.yul\":751:757   */\n      dup4\n        /* \"#utility.yul\":747:764   */\n      add\n        /* \"#utility.yul\":734:792   */\n      calldatacopy\n        /* \"#utility.yul\":840:841   */\n      0x00\n        /* \"#utility.yul\":812:831   */\n      swap2\n      dup2\n      add\n        /* \"#utility.yul\":833:837   */\n      0x20\n        /* \"#utility.yul\":808:838   */\n      add\n        /* \"#utility.yul\":801:842   */\n      swap2\n      swap1\n      swap2\n      mstore\n        /* \"#utility.yul\":816:822   */\n      swap4\n        /* \"#utility.yul\":146:872   */\n      swap3\n      pop\n      pop\n      pop\n      jump\t// out\n        /* \"#utility.yul\":877:1433   */\n    tag_16:\n        /* \"#utility.yul\":964:970   */\n      0x00\n        /* \"#utility.yul\":972:978   */\n      0x00\n        /* \"#utility.yul\":980:986   */\n      0x00\n        /* \"#utility.yul\":1033:1035   */\n      0x60\n        /* \"#utility.yul\":1021:1030   */\n      dup5\n        /* \"#utility.yul\":1012:1019   */\n      dup7\n        /* \"#utility.yul\":1008:1031   */\n      sub\n        /* \"#utility.yul\":1004:1036   */\n      slt\n        /* \"#utility.yul\":1001:1053   */\n      iszero\n      tag_122\n      jumpi\n        /* \"#utility.yul\":1049:1050   */\n      0x00\n        /* \"#utility.yul\":1046:1047   */\n      0x00\n        /* \"#utility.yul\":1039:1051   */\n      revert\n        /* \"#utility.yul\":1001:1053   */\n    tag_122:\n        /* \"#utility.yul\":1094:1117   */\n      dup4\n      calldataload\n      swap3\n      pop\n        /* \"#utility.yul\":1214:1216   */\n      0x20\n        /* \"#utility.yul\":1199:1217   */\n      dup5\n      add\n        /* \"#utility.yul\":1186:1218   */\n      calldataload\n      swap2\n      pop\n        /* \"#utility.yul\":1295:1297   */\n      0x40\n        /* \"#utility.yul\":1280:1298   */\n      dup5\n      add\n        /* \"#utility.yul\":1267:1299   */\n      calldataload\n        /* \"#utility.yul\":1322:1340   */\n      0xffffffffffffffff\n        /* \"#utility.yul\":1311:1341   */\n      dup2\n      gt\n        /* \"#utility.yul\":1308:1358   */\n      iszero\n      tag_123\n      jumpi\n        /* \"#utility.yul\":1354:1355   */\n      0x00\n        /* \"#utility.yul\":1351:1352   */\n      0x00\n        /* \"#utility.yul\":1344:1356   */\n      revert\n        /* \"#utility.yul\":1308:1358   */\n    tag_123:\n        /* \"#utility.yul\":1377:1427   */\n      tag_124\n        /* \"#utility.yul\":1419:1426   */\n      dup7\n        /* \"#utility.yul\":1410:1416   */\n      dup3\n        /* \"#utility.yul\":1399:1408   */\n      dup8\n        /* \"#utility.yul\":1395:1417   */\n      add\n        /* \"#utility.yul\":1377:1427   */\n      tag_107\n      jump\t// in\n    tag_124:\n        /* \"#utility.yul\":1367:1427   */\n      swap2\n      pop\n      pop\n        /* \"#utility.yul\":877:1433   */\n      swap3\n      pop\n      swap3\n      pop\n      swap3\n      jump\t// out\n        /* \"#utility.yul\":1438:1874   */\n    tag_20:\n        /* \"#utility.yul\":1516:1522   */\n      0x00\n        /* \"#utility.yul\":1524:1530   */\n      0x00\n        /* \"#utility.yul\":1577:1579   */\n      0x40\n        /* \"#utility.yul\":1565:1574   */\n      dup4\n        /* \"#utility.yul\":1556:1563   */\n      dup6\n        /* \"#utility.yul\":1552:1575   */\n      sub\n        /* \"#utility.yul\":1548:1580   */\n      slt\n        /* \"#utility.yul\":1545:1597   */\n      iszero\n      tag_126\n      jumpi\n        /* \"#utility.yul\":1593:1594   */\n      0x00\n        /* \"#utility.yul\":1590:1591   */\n      0x00\n        /* \"#utility.yul\":1583:1595   */\n      revert\n        /* \"#utility.yul\":1545:1597   */\n    tag_126:\n        /* \"#utility.yul\":1638:1661   */\n      dup3\n      calldataload\n      swap2\n      pop\n        /* \"#utility.yul\":1736:1738   */\n      0x20\n        /* \"#utility.yul\":1721:1739   */\n      dup4\n      add\n        /* \"#utility.yul\":1708:1740   */\n      calldataload\n        /* \"#utility.yul\":1763:1781   */\n      0xffffffffffffffff\n        /* \"#utility.yul\":1752:1782   */\n      dup2\n      gt\n        /* \"#utility.yul\":1749:1799   */\n      iszero\n      tag_127\n      jumpi\n        /* \"#utility.yul\":1795:1796   */\n      0x00\n        /* \"#utility.yul\":1792:1793   */\n      0x00\n        /* \"#utility.yul\":1785:1797   */\n      revert\n        /* \"#utility.yul\":1749:1799   */\n    tag_127:\n        /* \"#utility.yul\":1818:1868   */\n      tag_128\n        /* \"#utility.yul\":1860:1867   */\n      dup6\n        /* \"#utility.yul\":1851:1857   */\n      dup3\n        /* \"#utility.yul\":1840:1849   */\n      dup7\n        /* \"#utility.yul\":1836:1858   */\n      add\n        /* \"#utility.yul\":1818:1868   */\n      tag_107\n      jump\t// in\n    tag_128:\n        /* \"#utility.yul\":1808:1868   */\n      swap2\n      pop\n      pop\n        /* \"#utility.yul\":1438:1874   */\n      swap3\n      pop\n      swap3\n      swap1\n      pop\n      jump\t// out\n        /* \"#utility.yul\":1879:2225   */\n    tag_24:\n        /* \"#utility.yul\":1947:1953   */\n      0x00\n        /* \"#utility.yul\":1955:1961   */\n      0x00\n        /* \"#utility.yul\":2008:2010   */\n      0x40\n        /* \"#utility.yul\":1996:2005   */\n      dup4\n        /* \"#utility.yul\":1987:1994   */\n      dup6\n        /* \"#utility.yul\":1983:2006   */\n      sub\n        /* \"#utility.yul\":1979:2011   */\n      slt\n        /* \"#utility.yul\":1976:2028   */\n      iszero\n      tag_130\n      jumpi\n        /* \"#utility.yul\":2024:2025   */\n      0x00\n        /* \"#utility.yul\":2021:2022   */\n      0x00\n        /* \"#utility.yul\":2014:2026   */\n      revert\n        /* \"#utility.yul\":1976:2028   */\n    tag_130:\n      pop\n      pop\n        /* \"#utility.yul\":2069:2092   */\n      dup1\n      calldataload\n      swap3\n        /* \"#utility.yul\":2189:2191   */\n      0x20\n        /* \"#utility.yul\":2174:2192   */\n      swap1\n      swap2\n      add\n        /* \"#utility.yul\":2161:2193   */\n      calldataload\n      swap2\n      pop\n        /* \"#utility.yul\":1879:2225   */\n      jump\t// out\n        /* \"#utility.yul\":2230:2456   */\n    tag_28:\n        /* \"#utility.yul\":2289:2295   */\n      0x00\n        /* \"#utility.yul\":2342:2344   */\n      0x20\n        /* \"#utility.yul\":2330:2339   */\n      dup3\n        /* \"#utility.yul\":2321:2328   */\n      dup5\n        /* \"#utility.yul\":2317:2340   */\n      sub\n        /* \"#utility.yul\":2313:2345   */\n      slt\n        /* \"#utility.yul\":2310:2362   */\n      iszero\n      tag_132\n      jumpi\n        /* \"#utility.yul\":2358:2359   */\n      0x00\n        /* \"#utility.yul\":2355:2356   */\n      0x00\n        /* \"#utility.yul\":2348:2360   */\n      revert\n        /* \"#utility.yul\":2310:2362   */\n    tag_132:\n      pop\n        /* \"#utility.yul\":2403:2426   */\n      calldataload\n      swap2\n        /* \"#utility.yul\":2230:2456   */\n      swap1\n      pop\n      jump\t// out\n        /* \"#utility.yul\":2653:2942   */\n    tag_108:\n        /* \"#utility.yul\":2695:2698   */\n      0x00\n        /* \"#utility.yul\":2733:2738   */\n      dup2\n        /* \"#utility.yul\":2727:2739   */\n      mload\n        /* \"#utility.yul\":2760:2766   */\n      dup1\n        /* \"#utility.yul\":2755:2758   */\n      dup5\n        /* \"#utility.yul\":2748:2767   */\n      mstore\n        /* \"#utility.yul\":2816:2822   */\n      dup1\n        /* \"#utility.yul\":2809:2813   */\n      0x20\n        /* \"#utility.yul\":2802:2807   */\n      dup5\n        /* \"#utility.yul\":2798:2814   */\n      add\n        /* \"#utility.yul\":2791:2795   */\n      0x20\n        /* \"#utility.yul\":2786:2789   */\n      dup7\n        /* \"#utility.yul\":2782:2796   */\n      add\n        /* \"#utility.yul\":2776:2823   */\n      mcopy\n        /* \"#utility.yul\":2868:2869   */\n      0x00\n        /* \"#utility.yul\":2861:2865   */\n      0x20\n        /* \"#utility.yul\":2852:2858   */\n      dup3\n        /* \"#utility.yul\":2847:2850   */\n      dup7\n        /* \"#utility.yul\":2843:2859   */\n      add\n        /* \"#utility.yul\":2839:2866   */\n      add\n        /* \"#utility.yul\":2832:2870   */\n      mstore\n        /* \"#utility.yul\":2931:2935   */\n      0x20\n        /* \"#utility.yul\":2924:2926   */\n      0x1f\n        /* \"#utility.yul\":2920:2927   */\n      not\n        /* \"#utility.yul\":2915:2917   */\n      0x1f\n        /* \"#utility.yul\":2907:2913   */\n      dup4\n        /* \"#utility.yul\":2903:2918   */\n      add\n        /* \"#utility.yul\":2899:2928   */\n      and\n        /* \"#utility.yul\":2894:2897   */\n      dup6\n        /* \"#utility.yul\":2890:2929   */\n      add\n        /* \"#utility.yul\":2886:2936   */\n      add\n        /* \"#utility.yul\":2879:2936   */\n      swap2\n      pop\n      pop\n        /* \"#utility.yul\":2653:2942   */\n      swap3\n      swap2\n      pop\n      pop\n      jump\t// out\n        /* \"#utility.yul\":2947:3238   */\n    tag_36:\n        /* \"#utility.yul\":3124:3130   */\n      dup3\n        /* \"#utility.yul\":3113:3122   */\n      dup2\n        /* \"#utility.yul\":3106:3131   */\n      mstore\n        /* \"#utility.yul\":3167:3169   */\n      0x40\n        /* \"#utility.yul\":3162:3164   */\n      0x20\n        /* \"#utility.yul\":3151:3160   */\n      dup3\n        /* \"#utility.yul\":3147:3165   */\n      add\n        /* \"#utility.yul\":3140:3170   */\n      mstore\n        /* \"#utility.yul\":3087:3091   */\n      0x00\n        /* \"#utility.yul\":3187:3232   */\n      tag_136\n        /* \"#utility.yul\":3228:3230   */\n      0x40\n        /* \"#utility.yul\":3217:3226   */\n      dup4\n        /* \"#utility.yul\":3213:3231   */\n      add\n        /* \"#utility.yul\":3205:3211   */\n      dup5\n        /* \"#utility.yul\":3187:3232   */\n      tag_108\n      jump\t// in\n    tag_136:\n        /* \"#utility.yul\":3179:3232   */\n      swap5\n        /* \"#utility.yul\":2947:3238   */\n      swap4\n      pop\n      pop\n      pop\n      pop\n      jump\t// out\n        /* \"#utility.yul\":3243:3463   */\n    tag_41:\n        /* \"#utility.yul\":3392:3394   */\n      0x20\n        /* \"#utility.yul\":3381:3390   */\n      dup2\n        /* \"#utility.yul\":3374:3395   */\n      mstore\n        /* \"#utility.yul\":3355:3359   */\n      0x00\n        /* \"#utility.yul\":3412:3457   */\n      tag_138\n        /* \"#utility.yul\":3453:3455   */\n      0x20\n        /* \"#utility.yul\":3442:3451   */\n      dup4\n        /* \"#utility.yul\":3438:3456   */\n      add\n        /* \"#utility.yul\":3430:3436   */\n      dup5\n        /* \"#utility.yul\":3412:3457   */\n      tag_108\n      jump\t// in\n    tag_138:\n        /* \"#utility.yul\":3404:3457   */\n      swap4\n        /* \"#utility.yul\":3243:3463   */\n      swap3\n      pop\n      pop\n      pop\n      jump\t// out\n        /* \"#utility.yul\":3468:3848   */\n    tag_61:\n        /* \"#utility.yul\":3547:3548   */\n      0x01\n        /* \"#utility.yul\":3543:3555   */\n      dup2\n      dup2\n      shr\n      swap1\n        /* \"#utility.yul\":3590:3602   */\n      dup3\n      and\n      dup1\n        /* \"#utility.yul\":3611:3672   */\n      tag_140\n      jumpi\n        /* \"#utility.yul\":3665:3669   */\n      0x7f\n        /* \"#utility.yul\":3657:3663   */\n      dup3\n        /* \"#utility.yul\":3653:3670   */\n      and\n        /* \"#utility.yul\":3643:3670   */\n      swap2\n      pop\n        /* \"#utility.yul\":3611:3672   */\n    tag_140:\n        /* \"#utility.yul\":3718:3720   */\n      0x20\n        /* \"#utility.yul\":3710:3716   */\n      dup3\n        /* \"#utility.yul\":3707:3721   */\n      lt\n        /* \"#utility.yul\":3687:3705   */\n      dup2\n        /* \"#utility.yul\":3684:3722   */\n      sub\n        /* \"#utility.yul\":3681:3842   */\n      tag_141\n      jumpi\n        /* \"#utility.yul\":3764:3774   */\n      0x4e487b71\n        /* \"#utility.yul\":3759:3762   */\n      0xe0\n        /* \"#utility.yul\":3755:3775   */\n      shl\n        /* \"#utility.yul\":3752:3753   */\n      0x00\n        /* \"#utility.yul\":3745:3776   */\n      mstore\n        /* \"#utility.yul\":3799:3803   */\n      0x22\n        /* \"#utility.yul\":3796:3797   */\n      0x04\n        /* \"#utility.yul\":3789:3804   */\n      mstore\n        /* \"#utility.yul\":3827:3831   */\n      0x24\n        /* \"#utility.yul\":3824:3825   */\n      0x00\n        /* \"#utility.yul\":3817:3832   */\n      revert\n        /* \"#utility.yul\":3681:3842   */\n    tag_141:\n      pop\n        /* \"#utility.yul\":3468:3848   */\n      swap2\n      swap1\n      pop\n      jump\t// out\n        /* \"#utility.yul\":3979:4497   */\n    tag_110:\n        /* \"#utility.yul\":4081:4083   */\n      0x1f\n        /* \"#utility.yul\":4076:4079   */\n      dup3\n        /* \"#utility.yul\":4073:4084   */\n      gt\n        /* \"#utility.yul\":4070:4491   */\n      iszero\n      tag_65\n      jumpi\n        /* \"#utility.yul\":4117:4122   */\n      dup1\n        /* \"#utility.yul\":4114:4115   */\n      0x00\n        /* \"#utility.yul\":4107:4123   */\n      mstore\n        /* \"#utility.yul\":4161:4165   */\n      0x20\n        /* \"#utility.yul\":4158:4159   */\n      0x00\n        /* \"#utility.yul\":4148:4166   */\n      keccak256\n        /* \"#utility.yul\":4231:4233   */\n      0x1f\n        /* \"#utility.yul\":4219:4229   */\n      dup5\n        /* \"#utility.yul\":4215:4234   */\n      add\n        /* \"#utility.yul\":4212:4213   */\n      0x05\n        /* \"#utility.yul\":4208:4235   */\n      shr\n        /* \"#utility.yul\":4202:4206   */\n      dup2\n        /* \"#utility.yul\":4198:4236   */\n      add\n        /* \"#utility.yul\":4267:4271   */\n      0x20\n        /* \"#utility.yul\":4255:4265   */\n      dup6\n        /* \"#utility.yul\":4252:4272   */\n      lt\n        /* \"#utility.yul\":4249:4296   */\n      iszero\n      tag_145\n      jumpi\n      pop\n        /* \"#utility.yul\":4290:4294   */\n      dup1\n        /* \"#utility.yul\":4249:4296   */\n    tag_145:\n        /* \"#utility.yul\":4345:4347   */\n      0x1f\n        /* \"#utility.yul\":4340:4343   */\n      dup5\n        /* \"#utility.yul\":4336:4348   */\n      add\n        /* \"#utility.yul\":4333:4334   */\n      0x05\n        /* \"#utility.yul\":4329:4349   */\n      shr\n        /* \"#utility.yul\":4323:4327   */\n      dup3\n        /* \"#utility.yul\":4319:4350   */\n      add\n        /* \"#utility.yul\":4309:4350   */\n      swap2\n      pop\n        /* \"#utility.yul\":4400:4481   */\n    tag_146:\n        /* \"#utility.yul\":4418:4420   */\n      dup2\n        /* \"#utility.yul\":4411:4416   */\n      dup2\n        /* \"#utility.yul\":4408:4421   */\n      lt\n        /* \"#utility.yul\":4400:4481   */\n      iszero\n      tag_148\n      jumpi\n        /* \"#utility.yul\":4477:4478   */\n      0x00\n        /* \"#utility.yul\":4463:4479   */\n      dup2\n      sstore\n        /* \"#utility.yul\":4444:4445   */\n      0x01\n        /* \"#utility.yul\":4433:4446   */\n      add\n        /* \"#utility.yul\":4400:4481   */\n      jump(tag_146)\n    tag_148:\n        /* \"#utility.yul\":4404:4407   */\n      pop\n      pop\n        /* \"#utility.yul\":3979:4497   */\n      pop\n      pop\n      pop\n      jump\t// out\n        /* \"#utility.yul\":4673:5972   */\n    tag_58:\n        /* \"#utility.yul\":4799:4802   */\n      dup2\n        /* \"#utility.yul\":4793:4803   */\n      mload\n        /* \"#utility.yul\":4826:4844   */\n      0xffffffffffffffff\n        /* \"#utility.yul\":4818:4824   */\n      dup2\n        /* \"#utility.yul\":4815:4845   */\n      gt\n        /* \"#utility.yul\":4812:4868   */\n      iszero\n      tag_152\n      jumpi\n        /* \"#utility.yul\":4848:4866   */\n      tag_152\n      tag_106\n      jump\t// in\n    tag_152:\n        /* \"#utility.yul\":4877:4974   */\n      tag_153\n        /* \"#utility.yul\":4967:4973   */\n      dup2\n        /* \"#utility.yul\":4927:4965   */\n      tag_154\n        /* \"#utility.yul\":4959:4963   */\n      dup5\n        /* \"#utility.yul\":4953:4964   */\n      sload\n        /* \"#utility.yul\":4927:4965   */\n      tag_61\n      jump\t// in\n    tag_154:\n        /* \"#utility.yul\":4921:4925   */\n      dup5\n        /* \"#utility.yul\":4877:4974   */\n      tag_110\n      jump\t// in\n    tag_153:\n        /* \"#utility.yul\":5023:5027   */\n      0x20\n        /* \"#utility.yul\":5054:5056   */\n      0x1f\n        /* \"#utility.yul\":5043:5057   */\n      dup3\n      gt\n        /* \"#utility.yul\":5071:5072   */\n      0x01\n        /* \"#utility.yul\":5066:5715   */\n      dup2\n      eq\n      tag_156\n      jumpi\n        /* \"#utility.yul\":5759:5760   */\n      0x00\n        /* \"#utility.yul\":5776:5782   */\n      dup4\n        /* \"#utility.yul\":5773:5862   */\n      iszero\n      tag_157\n      jumpi\n      pop\n        /* \"#utility.yul\":5828:5847   */\n      dup5\n      dup3\n      add\n        /* \"#utility.yul\":5822:5848   */\n      mload\n        /* \"#utility.yul\":5773:5862   */\n    tag_157:\n      not(0x00)\n        /* \"#utility.yul\":4630:4631   */\n      0x03\n        /* \"#utility.yul\":4626:4637   */\n      dup6\n      swap1\n      shl\n        /* \"#utility.yul\":4622:4646   */\n      shr\n        /* \"#utility.yul\":4618:4647   */\n      not\n        /* \"#utility.yul\":4608:4648   */\n      and\n        /* \"#utility.yul\":4654:4655   */\n      0x01\n        /* \"#utility.yul\":4650:4661   */\n      dup5\n      swap1\n      shl\n        /* \"#utility.yul\":4605:4662   */\n      or\n        /* \"#utility.yul\":5875:5956   */\n      dup5\n      sstore\n        /* \"#utility.yul\":5036:5966   */\n      jump(tag_148)\n        /* \"#utility.yul\":5066:5715   */\n    tag_156:\n        /* \"#utility.yul\":3926:3927   */\n      0x00\n        /* \"#utility.yul\":3919:3933   */\n      dup5\n      dup2\n      mstore\n        /* \"#utility.yul\":3963:3967   */\n      0x20\n        /* \"#utility.yul\":3950:3968   */\n      dup2\n      keccak256\n      not(0x1f)\n        /* \"#utility.yul\":5102:5122   */\n      dup6\n      and\n      swap2\n        /* \"#utility.yul\":5220:5442   */\n    tag_160:\n        /* \"#utility.yul\":5234:5241   */\n      dup3\n        /* \"#utility.yul\":5231:5232   */\n      dup2\n        /* \"#utility.yul\":5228:5242   */\n      lt\n        /* \"#utility.yul\":5220:5442   */\n      iszero\n      tag_162\n      jumpi\n        /* \"#utility.yul\":5316:5335   */\n      dup8\n      dup6\n      add\n        /* \"#utility.yul\":5310:5336   */\n      mload\n        /* \"#utility.yul\":5295:5337   */\n      dup3\n      sstore\n        /* \"#utility.yul\":5423:5427   */\n      0x20\n        /* \"#utility.yul\":5408:5428   */\n      swap5\n      dup6\n      add\n      swap5\n        /* \"#utility.yul\":5376:5377   */\n      0x01\n        /* \"#utility.yul\":5364:5378   */\n      swap1\n      swap3\n      add\n      swap2\n        /* \"#utility.yul\":5250:5262   */\n      add\n        /* \"#utility.yul\":5220:5442   */\n      jump(tag_160)\n    tag_162:\n        /* \"#utility.yul\":5224:5227   */\n      pop\n        /* \"#utility.yul\":5470:5476   */\n      dup5\n        /* \"#utility.yul\":5461:5468   */\n      dup3\n        /* \"#utility.yul\":5458:5477   */\n      lt\n        /* \"#utility.yul\":5455:5656   */\n      iszero\n      tag_163\n      jumpi\n        /* \"#utility.yul\":5531:5550   */\n      dup7\n      dup5\n      add\n        /* \"#utility.yul\":5525:5551   */\n      mload\n      not(0x00)\n        /* \"#utility.yul\":5614:5615   */\n      0x03\n        /* \"#utility.yul\":5610:5624   */\n      dup8\n      swap1\n      shl\n        /* \"#utility.yul\":5626:5629   */\n      0xf8\n        /* \"#utility.yul\":5606:5630   */\n      and\n        /* \"#utility.yul\":5602:5639   */\n      shr\n        /* \"#utility.yul\":5598:5640   */\n      not\n        /* \"#utility.yul\":5583:5641   */\n      and\n        /* \"#utility.yul\":5568:5642   */\n      dup2\n      sstore\n        /* \"#utility.yul\":5455:5656   */\n    tag_163:\n      pop\n      pop\n      pop\n      pop\n        /* \"#utility.yul\":5702:5703   */\n      0x01\n        /* \"#utility.yul\":5686:5700   */\n      swap1\n      dup2\n      shl\n        /* \"#utility.yul\":5682:5704   */\n      add\n        /* \"#utility.yul\":5669:5705   */\n      swap1\n      sstore\n      pop\n        /* \"#utility.yul\":4673:5972   */\n      jump\t// out\n\n    auxdata: 0xa26469706673582212204d9cd517ae250f261380b013bdc01dcf1ca6e4a4b72d18fdf76dede816527b5464736f6c634300081e0033\n}\n",
				"bytecode": {
					"linkReferences": {},
					"object": "6080604052348015600e575f5ffd5b506109518061001c5f395ff3fe608060405234801561000f575f5ffd5b506004361061009b575f3560e01c8063898786ac11610063578063898786ac14610123578063a8d20d6114610143578063bcb131c914610156578063e14077cb14610169578063f0ba84401461017c575f5ffd5b80633d301c2a1461009f578063440dba6c146100b457806379bab0c2146100c757806382d1eac8146100da578063874e5bb814610102575b5f5ffd5b6100b26100ad3660046106af565b61018f565b005b6100b26100c23660046106fb565b6101d0565b6100b26100d536600461073f565b610258565b6100ed6100e836600461075f565b6102cc565b60405190151581526020015b60405180910390f35b61011561011036600461075f565b6102f1565b6040516100f99291906107a4565b61013661013136600461075f565b6103bf565b6040516100f991906107c4565b6100b261015136600461075f565b610456565b6100b26101643660046106fb565b61046f565b61013661017736600461075f565b610486565b61011561018a36600461075f565b610525565b60408051808201825283815260208082018481525f87815260019283905293909320825181559251919291908201906101c89082610860565b505050505050565b5f82815260016020819052604082200180546101eb906107dd565b9050116102385760405162461bcd60e51b815260206004820152601660248201527514dd1d59195b9d08191bd95cc81b9bdd08195e1a5cdd60521b60448201526064015b60405180910390fd5b5f828152600160208190526040909120016102538282610860565b505050565b5f8281526001602081905260408220018054610273906107dd565b9050116102bb5760405162461bcd60e51b815260206004820152601660248201527514dd1d59195b9d08191bd95cc81b9bdd08195e1a5cdd60521b604482015260640161022f565b5f9182526001602052604090912055565b5f81815260208190526040812080548291906102e7906107dd565b9050119050919050565b5f60605f60015f8581526020019081526020015f206040518060400160405290815f820154815260200160018201805461032a906107dd565b80601f0160208091040260200160405190810160405280929190818152602001828054610356906107dd565b80156103a15780601f10610378576101008083540402835291602001916103a1565b820191905f5260205f20905b81548152906001019060200180831161038457829003601f168201915b5050505050815250509050805f015181602001519250925050915091565b5f60208190529081526040902080546103d7906107dd565b80601f0160208091040260200160405190810160405280929190818152602001828054610403906107dd565b801561044e5780601f106104255761010080835404028352916020019161044e565b820191905f5260205f20905b81548152906001019060200180831161043157829003601f168201915b505050505081565b5f81815260208190526040812061046c916105c6565b50565b5f8281526020819052604090206102538282610860565b5f8181526020819052604090208054606091906104a2906107dd565b80601f01602080910402602001604051908101604052809291908181526020018280546104ce906107dd565b80156105195780601f106104f057610100808354040283529160200191610519565b820191905f5260205f20905b8154815290600101906020018083116104fc57829003601f168201915b50505050509050919050565b600160208190525f918252604090912080549181018054610545906107dd565b80601f0160208091040260200160405190810160405280929190818152602001828054610571906107dd565b80156105bc5780601f10610593576101008083540402835291602001916105bc565b820191905f5260205f20905b81548152906001019060200180831161059f57829003601f168201915b5050505050905082565b5080546105d2906107dd565b5f825580601f106105e1575050565b601f0160209004905f5260205f209081019061046c91905b8082111561060c575f81556001016105f9565b5090565b634e487b7160e01b5f52604160045260245ffd5b5f82601f830112610633575f5ffd5b813567ffffffffffffffff81111561064d5761064d610610565b604051601f8201601f19908116603f0116810167ffffffffffffffff8111828210171561067c5761067c610610565b604052818152838201602001851015610693575f5ffd5b816020850160208301375f918101602001919091529392505050565b5f5f5f606084860312156106c1575f5ffd5b8335925060208401359150604084013567ffffffffffffffff8111156106e5575f5ffd5b6106f186828701610624565b9150509250925092565b5f5f6040838503121561070c575f5ffd5b82359150602083013567ffffffffffffffff811115610729575f5ffd5b61073585828601610624565b9150509250929050565b5f5f60408385031215610750575f5ffd5b50508035926020909101359150565b5f6020828403121561076f575f5ffd5b5035919050565b5f81518084528060208401602086015e5f602082860101526020601f19601f83011685010191505092915050565b828152604060208201525f6107bc6040830184610776565b949350505050565b602081525f6107d66020830184610776565b9392505050565b600181811c908216806107f157607f821691505b60208210810361080f57634e487b7160e01b5f52602260045260245ffd5b50919050565b601f82111561025357805f5260205f20601f840160051c8101602085101561083a5750805b601f840160051c820191505b81811015610859575f8155600101610846565b5050505050565b815167ffffffffffffffff81111561087a5761087a610610565b61088e8161088884546107dd565b84610815565b6020601f8211600181146108c0575f83156108a95750848201515b5f19600385901b1c1916600184901b178455610859565b5f84815260208120601f198516915b828110156108ef57878501518255602094850194600190920191016108cf565b508482101561090c57868401515f19600387901b60f8161c191681555b50505050600190811b0190555056fea26469706673582212204d9cd517ae250f261380b013bdc01dcf1ca6e4a4b72d18fdf76dede816527b5464736f6c634300081e0033",
					"opcodes": "PUSH1 0x80 PUSH1 0x40 MSTORE CALLVALUE DUP1 ISZERO PUSH1 0xE JUMPI PUSH0 PUSH0 REVERT JUMPDEST POP PUSH2 0x951 DUP1 PUSH2 0x1C PUSH0 CODECOPY PUSH0 RETURN INVALID PUSH1 0x80 PUSH1 0x40 MSTORE CALLVALUE DUP1 ISZERO PUSH2 0xF JUMPI PUSH0 PUSH0 REVERT JUMPDEST POP PUSH1 0x4 CALLDATASIZE LT PUSH2 0x9B JUMPI PUSH0 CALLDATALOAD PUSH1 0xE0 SHR DUP1 PUSH4 0x898786AC GT PUSH2 0x63 JUMPI DUP1 PUSH4 0x898786AC EQ PUSH2 0x123 JUMPI DUP1 PUSH4 0xA8D20D61 EQ PUSH2 0x143 JUMPI DUP1 PUSH4 0xBCB131C9 EQ PUSH2 0x156 JUMPI DUP1 PUSH4 0xE14077CB EQ PUSH2 0x169 JUMPI DUP1 PUSH4 0xF0BA8440 EQ PUSH2 0x17C JUMPI PUSH0 PUSH0 REVERT JUMPDEST DUP1 PUSH4 0x3D301C2A EQ PUSH2 0x9F JUMPI DUP1 PUSH4 0x440DBA6C EQ PUSH2 0xB4 JUMPI DUP1 PUSH4 0x79BAB0C2 EQ PUSH2 0xC7 JUMPI DUP1 PUSH4 0x82D1EAC8 EQ PUSH2 0xDA JUMPI DUP1 PUSH4 0x874E5BB8 EQ PUSH2 0x102 JUMPI JUMPDEST PUSH0 PUSH0 REVERT JUMPDEST PUSH2 0xB2 PUSH2 0xAD CALLDATASIZE PUSH1 0x4 PUSH2 0x6AF JUMP JUMPDEST PUSH2 0x18F JUMP JUMPDEST STOP JUMPDEST PUSH2 0xB2 PUSH2 0xC2 CALLDATASIZE PUSH1 0x4 PUSH2 0x6FB JUMP JUMPDEST PUSH2 0x1D0 JUMP JUMPDEST PUSH2 0xB2 PUSH2 0xD5 CALLDATASIZE PUSH1 0x4 PUSH2 0x73F JUMP JUMPDEST PUSH2 0x258 JUMP JUMPDEST PUSH2 0xED PUSH2 0xE8 CALLDATASIZE PUSH1 0x4 PUSH2 0x75F JUMP JUMPDEST PUSH2 0x2CC JUMP JUMPDEST PUSH1 0x40 MLOAD SWAP1 ISZERO ISZERO DUP2 MSTORE PUSH1 0x20 ADD JUMPDEST PUSH1 0x40 MLOAD DUP1 SWAP2 SUB SWAP1 RETURN JUMPDEST PUSH2 0x115 PUSH2 0x110 CALLDATASIZE PUSH1 0x4 PUSH2 0x75F JUMP JUMPDEST PUSH2 0x2F1 JUMP JUMPDEST PUSH1 0x40 MLOAD PUSH2 0xF9 SWAP3 SWAP2 SWAP1 PUSH2 0x7A4 JUMP JUMPDEST PUSH2 0x136 PUSH2 0x131 CALLDATASIZE PUSH1 0x4 PUSH2 0x75F JUMP JUMPDEST PUSH2 0x3BF JUMP JUMPDEST PUSH1 0x40 MLOAD PUSH2 0xF9 SWAP2 SWAP1 PUSH2 0x7C4 JUMP JUMPDEST PUSH2 0xB2 PUSH2 0x151 CALLDATASIZE PUSH1 0x4 PUSH2 0x75F JUMP JUMPDEST PUSH2 0x456 JUMP JUMPDEST PUSH2 0xB2 PUSH2 0x164 CALLDATASIZE PUSH1 0x4 PUSH2 0x6FB JUMP JUMPDEST PUSH2 0x46F JUMP JUMPDEST PUSH2 0x136 PUSH2 0x177 CALLDATASIZE PUSH1 0x4 PUSH2 0x75F JUMP JUMPDEST PUSH2 0x486 JUMP JUMPDEST PUSH2 0x115 PUSH2 0x18A CALLDATASIZE PUSH1 0x4 PUSH2 0x75F JUMP JUMPDEST PUSH2 0x525 JUMP JUMPDEST PUSH1 0x40 DUP1 MLOAD DUP1 DUP3 ADD DUP3 MSTORE DUP4 DUP2 MSTORE PUSH1 0x20 DUP1 DUP3 ADD DUP5 DUP2 MSTORE PUSH0 DUP8 DUP2 MSTORE PUSH1 0x1 SWAP3 DUP4 SWAP1 MSTORE SWAP4 SWAP1 SWAP4 KECCAK256 DUP3 MLOAD DUP2 SSTORE SWAP3 MLOAD SWAP2 SWAP3 SWAP2 SWAP1 DUP3 ADD SWAP1 PUSH2 0x1C8 SWAP1 DUP3 PUSH2 0x860 JUMP JUMPDEST POP POP POP POP POP POP JUMP JUMPDEST PUSH0 DUP3 DUP2 MSTORE PUSH1 0x1 PUSH1 0x20 DUP2 SWAP1 MSTORE PUSH1 0x40 DUP3 KECCAK256 ADD DUP1 SLOAD PUSH2 0x1EB SWAP1 PUSH2 0x7DD JUMP JUMPDEST SWAP1 POP GT PUSH2 0x238 JUMPI PUSH1 0x40 MLOAD PUSH3 0x461BCD PUSH1 0xE5 SHL DUP2 MSTORE PUSH1 0x20 PUSH1 0x4 DUP3 ADD MSTORE PUSH1 0x16 PUSH1 0x24 DUP3 ADD MSTORE PUSH22 0x14DD1D59195B9D08191BD95CC81B9BDD08195E1A5CDD PUSH1 0x52 SHL PUSH1 0x44 DUP3 ADD MSTORE PUSH1 0x64 ADD JUMPDEST PUSH1 0x40 MLOAD DUP1 SWAP2 SUB SWAP1 REVERT JUMPDEST PUSH0 DUP3 DUP2 MSTORE PUSH1 0x1 PUSH1 0x20 DUP2 SWAP1 MSTORE PUSH1 0x40 SWAP1 SWAP2 KECCAK256 ADD PUSH2 0x253 DUP3 DUP3 PUSH2 0x860 JUMP JUMPDEST POP POP POP JUMP JUMPDEST PUSH0 DUP3 DUP2 MSTORE PUSH1 0x1 PUSH1 0x20 DUP2 SWAP1 MSTORE PUSH1 0x40 DUP3 KECCAK256 ADD DUP1 SLOAD PUSH2 0x273 SWAP1 PUSH2 0x7DD JUMP JUMPDEST SWAP1 POP GT PUSH2 0x2BB JUMPI PUSH1 0x40 MLOAD PUSH3 0x461BCD PUSH1 0xE5 SHL DUP2 MSTORE PUSH1 0x20 PUSH1 0x4 DUP3 ADD MSTORE PUSH1 0x16 PUSH1 0x24 DUP3 ADD MSTORE PUSH22 0x14DD1D59195B9D08191BD95CC81B9BDD08195E1A5CDD PUSH1 0x52 SHL PUSH1 0x44 DUP3 ADD MSTORE PUSH1 0x64 ADD PUSH2 0x22F JUMP JUMPDEST PUSH0 SWAP2 DUP3 MSTORE PUSH1 0x1 PUSH1 0x20 MSTORE PUSH1 0x40 SWAP1 SWAP2 KECCAK256 SSTORE JUMP JUMPDEST PUSH0 DUP2 DUP2 MSTORE PUSH1 0x20 DUP2 SWAP1 MSTORE PUSH1 0x40 DUP2 KECCAK256 DUP1 SLOAD DUP3 SWAP2 SWAP1 PUSH2 0x2E7 SWAP1 PUSH2 0x7DD JUMP JUMPDEST SWAP1 POP GT SWAP1 POP SWAP2 SWAP1 POP JUMP JUMPDEST PUSH0 PUSH1 0x60 PUSH0 PUSH1 0x1 PUSH0 DUP6 DUP2 MSTORE PUSH1 0x20 ADD SWAP1 DUP2 MSTORE PUSH1 0x20 ADD PUSH0 KECCAK256 PUSH1 0x40 MLOAD DUP1 PUSH1 0x40 ADD PUSH1 0x40 MSTORE SWAP1 DUP2 PUSH0 DUP3 ADD SLOAD DUP2 MSTORE PUSH1 0x20 ADD PUSH1 0x1 DUP3 ADD DUP1 SLOAD PUSH2 0x32A SWAP1 PUSH2 0x7DD JUMP JUMPDEST DUP1 PUSH1 0x1F ADD PUSH1 0x20 DUP1 SWAP2 DIV MUL PUSH1 0x20 ADD PUSH1 0x40 MLOAD SWAP1 DUP2 ADD PUSH1 0x40 MSTORE DUP1 SWAP3 SWAP2 SWAP1 DUP2 DUP2 MSTORE PUSH1 0x20 ADD DUP3 DUP1 SLOAD PUSH2 0x356 SWAP1 PUSH2 0x7DD JUMP JUMPDEST DUP1 ISZERO PUSH2 0x3A1 JUMPI DUP1 PUSH1 0x1F LT PUSH2 0x378 JUMPI PUSH2 0x100 DUP1 DUP4 SLOAD DIV MUL DUP4 MSTORE SWAP2 PUSH1 0x20 ADD SWAP2 PUSH2 0x3A1 JUMP JUMPDEST DUP3 ADD SWAP2 SWAP1 PUSH0 MSTORE PUSH1 0x20 PUSH0 KECCAK256 SWAP1 JUMPDEST DUP2 SLOAD DUP2 MSTORE SWAP1 PUSH1 0x1 ADD SWAP1 PUSH1 0x20 ADD DUP1 DUP4 GT PUSH2 0x384 JUMPI DUP3 SWAP1 SUB PUSH1 0x1F AND DUP3 ADD SWAP2 JUMPDEST POP POP POP POP POP DUP2 MSTORE POP POP SWAP1 POP DUP1 PUSH0 ADD MLOAD DUP2 PUSH1 0x20 ADD MLOAD SWAP3 POP SWAP3 POP POP SWAP2 POP SWAP2 JUMP JUMPDEST PUSH0 PUSH1 0x20 DUP2 SWAP1 MSTORE SWAP1 DUP2 MSTORE PUSH1 0x40 SWAP1 KECCAK256 DUP1 SLOAD PUSH2 0x3D7 SWAP1 PUSH2 0x7DD JUMP JUMPDEST DUP1 PUSH1 0x1F ADD PUSH1 0x20 DUP1 SWAP2 DIV MUL PUSH1 0x20 ADD PUSH1 0x40 MLOAD SWAP1 DUP2 ADD PUSH1 0x40 MSTORE DUP1 SWAP3 SWAP2 SWAP1 DUP2 DUP2 MSTORE PUSH1 0x20 ADD DUP3 DUP1 SLOAD PUSH2 0x403 SWAP1 PUSH2 0x7DD JUMP JUMPDEST DUP1 ISZERO PUSH2 0x44E JUMPI DUP1 PUSH1 0x1F LT PUSH2 0x425 JUMPI PUSH2 0x100 DUP1 DUP4 SLOAD DIV MUL DUP4 MSTORE SWAP2 PUSH1 0x20 ADD SWAP2 PUSH2 0x44E JUMP JUMPDEST DUP3 ADD SWAP2 SWAP1 PUSH0 MSTORE PUSH1 0x20 PUSH0 KECCAK256 SWAP1 JUMPDEST DUP2 SLOAD DUP2 MSTORE SWAP1 PUSH1 0x1 ADD SWAP1 PUSH1 0x20 ADD DUP1 DUP4 GT PUSH2 0x431 JUMPI DUP3 SWAP1 SUB PUSH1 0x1F AND DUP3 ADD SWAP2 JUMPDEST POP POP POP POP POP DUP2 JUMP JUMPDEST PUSH0 DUP2 DUP2 MSTORE PUSH1 0x20 DUP2 SWAP1 MSTORE PUSH1 0x40 DUP2 KECCAK256 PUSH2 0x46C SWAP2 PUSH2 0x5C6 JUMP JUMPDEST POP JUMP JUMPDEST PUSH0 DUP3 DUP2 MSTORE PUSH1 0x20 DUP2 SWAP1 MSTORE PUSH1 0x40 SWAP1 KECCAK256 PUSH2 0x253 DUP3 DUP3 PUSH2 0x860 JUMP JUMPDEST PUSH0 DUP2 DUP2 MSTORE PUSH1 0x20 DUP2 SWAP1 MSTORE PUSH1 0x40 SWAP1 KECCAK256 DUP1 SLOAD PUSH1 0x60 SWAP2 SWAP1 PUSH2 0x4A2 SWAP1 PUSH2 0x7DD JUMP JUMPDEST DUP1 PUSH1 0x1F ADD PUSH1 0x20 DUP1 SWAP2 DIV MUL PUSH1 0x20 ADD PUSH1 0x40 MLOAD SWAP1 DUP2 ADD PUSH1 0x40 MSTORE DUP1 SWAP3 SWAP2 SWAP1 DUP2 DUP2 MSTORE PUSH1 0x20 ADD DUP3 DUP1 SLOAD PUSH2 0x4CE SWAP1 PUSH2 0x7DD JUMP JUMPDEST DUP1 ISZERO PUSH2 0x519 JUMPI DUP1 PUSH1 0x1F LT PUSH2 0x4F0 JUMPI PUSH2 0x100 DUP1 DUP4 SLOAD DIV MUL DUP4 MSTORE SWAP2 PUSH1 0x20 ADD SWAP2 PUSH2 0x519 JUMP JUMPDEST DUP3 ADD SWAP2 SWAP1 PUSH0 MSTORE PUSH1 0x20 PUSH0 KECCAK256 SWAP1 JUMPDEST DUP2 SLOAD DUP2 MSTORE SWAP1 PUSH1 0x1 ADD SWAP1 PUSH1 0x20 ADD DUP1 DUP4 GT PUSH2 0x4FC JUMPI DUP3 SWAP1 SUB PUSH1 0x1F AND DUP3 ADD SWAP2 JUMPDEST POP POP POP POP POP SWAP1 POP SWAP2 SWAP1 POP JUMP JUMPDEST PUSH1 0x1 PUSH1 0x20 DUP2 SWAP1 MSTORE PUSH0 SWAP2 DUP3 MSTORE PUSH1 0x40 SWAP1 SWAP2 KECCAK256 DUP1 SLOAD SWAP2 DUP2 ADD DUP1 SLOAD PUSH2 0x545 SWAP1 PUSH2 0x7DD JUMP JUMPDEST DUP1 PUSH1 0x1F ADD PUSH1 0x20 DUP1 SWAP2 DIV MUL PUSH1 0x20 ADD PUSH1 0x40 MLOAD SWAP1 DUP2 ADD PUSH1 0x40 MSTORE DUP1 SWAP3 SWAP2 SWAP1 DUP2 DUP2 MSTORE PUSH1 0x20 ADD DUP3 DUP1 SLOAD PUSH2 0x571 SWAP1 PUSH2 0x7DD JUMP JUMPDEST DUP1 ISZERO PUSH2 0x5BC JUMPI DUP1 PUSH1 0x1F LT PUSH2 0x593 JUMPI PUSH2 0x100 DUP1 DUP4 SLOAD DIV MUL DUP4 MSTORE SWAP2 PUSH1 0x20 ADD SWAP2 PUSH2 0x5BC JUMP JUMPDEST DUP3 ADD SWAP2 SWAP1 PUSH0 MSTORE PUSH1 0x20 PUSH0 KECCAK256 SWAP1 JUMPDEST DUP2 SLOAD DUP2 MSTORE SWAP1 PUSH1 0x1 ADD SWAP1 PUSH1 0x20 ADD DUP1 DUP4 GT PUSH2 0x59F JUMPI DUP3 SWAP1 SUB PUSH1 0x1F AND DUP3 ADD SWAP2 JUMPDEST POP POP POP POP POP SWAP1 POP DUP3 JUMP JUMPDEST POP DUP1 SLOAD PUSH2 0x5D2 SWAP1 PUSH2 0x7DD JUMP JUMPDEST PUSH0 DUP3 SSTORE DUP1 PUSH1 0x1F LT PUSH2 0x5E1 JUMPI POP POP JUMP JUMPDEST PUSH1 0x1F ADD PUSH1 0x20 SWAP1 DIV SWAP1 PUSH0 MSTORE PUSH1 0x20 PUSH0 KECCAK256 SWAP1 DUP2 ADD SWAP1 PUSH2 0x46C SWAP2 SWAP1 JUMPDEST DUP1 DUP3 GT ISZERO PUSH2 0x60C JUMPI PUSH0 DUP2 SSTORE PUSH1 0x1 ADD PUSH2 0x5F9 JUMP JUMPDEST POP SWAP1 JUMP JUMPDEST PUSH4 0x4E487B71 PUSH1 0xE0 SHL PUSH0 MSTORE PUSH1 0x41 PUSH1 0x4 MSTORE PUSH1 0x24 PUSH0 REVERT JUMPDEST PUSH0 DUP3 PUSH1 0x1F DUP4 ADD SLT PUSH2 0x633 JUMPI PUSH0 PUSH0 REVERT JUMPDEST DUP2 CALLDATALOAD PUSH8 0xFFFFFFFFFFFFFFFF DUP2 GT ISZERO PUSH2 0x64D JUMPI PUSH2 0x64D PUSH2 0x610 JUMP JUMPDEST PUSH1 0x40 MLOAD PUSH1 0x1F DUP3 ADD PUSH1 0x1F NOT SWAP1 DUP2 AND PUSH1 0x3F ADD AND DUP2 ADD PUSH8 0xFFFFFFFFFFFFFFFF DUP2 GT DUP3 DUP3 LT OR ISZERO PUSH2 0x67C JUMPI PUSH2 0x67C PUSH2 0x610 JUMP JUMPDEST PUSH1 0x40 MSTORE DUP2 DUP2 MSTORE DUP4 DUP3 ADD PUSH1 0x20 ADD DUP6 LT ISZERO PUSH2 0x693 JUMPI PUSH0 PUSH0 REVERT JUMPDEST DUP2 PUSH1 0x20 DUP6 ADD PUSH1 0x20 DUP4 ADD CALLDATACOPY PUSH0 SWAP2 DUP2 ADD PUSH1 0x20 ADD SWAP2 SWAP1 SWAP2 MSTORE SWAP4 SWAP3 POP POP POP JUMP JUMPDEST PUSH0 PUSH0 PUSH0 PUSH1 0x60 DUP5 DUP7 SUB SLT ISZERO PUSH2 0x6C1 JUMPI PUSH0 PUSH0 REVERT JUMPDEST DUP4 CALLDATALOAD SWAP3 POP PUSH1 0x20 DUP5 ADD CALLDATALOAD SWAP2 POP PUSH1 0x40 DUP5 ADD CALLDATALOAD PUSH8 0xFFFFFFFFFFFFFFFF DUP2 GT ISZERO PUSH2 0x6E5 JUMPI PUSH0 PUSH0 REVERT JUMPDEST PUSH2 0x6F1 DUP7 DUP3 DUP8 ADD PUSH2 0x624 JUMP JUMPDEST SWAP2 POP POP SWAP3 POP SWAP3 POP SWAP3 JUMP JUMPDEST PUSH0 PUSH0 PUSH1 0x40 DUP4 DUP6 SUB SLT ISZERO PUSH2 0x70C JUMPI PUSH0 PUSH0 REVERT JUMPDEST DUP3 CALLDATALOAD SWAP2 POP PUSH1 0x20 DUP4 ADD CALLDATALOAD PUSH8 0xFFFFFFFFFFFFFFFF DUP2 GT ISZERO PUSH2 0x729 JUMPI PUSH0 PUSH0 REVERT JUMPDEST PUSH2 0x735 DUP6 DUP3 DUP7 ADD PUSH2 0x624 JUMP JUMPDEST SWAP2 POP POP SWAP3 POP SWAP3 SWAP1 POP JUMP JUMPDEST PUSH0 PUSH0 PUSH1 0x40 DUP4 DUP6 SUB SLT ISZERO PUSH2 0x750 JUMPI PUSH0 PUSH0 REVERT JUMPDEST POP POP DUP1 CALLDATALOAD SWAP3 PUSH1 0x20 SWAP1 SWAP2 ADD CALLDATALOAD SWAP2 POP JUMP JUMPDEST PUSH0 PUSH1 0x20 DUP3 DUP5 SUB SLT ISZERO PUSH2 0x76F JUMPI PUSH0 PUSH0 REVERT JUMPDEST POP CALLDATALOAD SWAP2 SWAP1 POP JUMP JUMPDEST PUSH0 DUP2 MLOAD DUP1 DUP5 MSTORE DUP1 PUSH1 0x20 DUP5 ADD PUSH1 0x20 DUP7 ADD MCOPY PUSH0 PUSH1 0x20 DUP3 DUP7 ADD ADD MSTORE PUSH1 0x20 PUSH1 0x1F NOT PUSH1 0x1F DUP4 ADD AND DUP6 ADD ADD SWAP2 POP POP SWAP3 SWAP2 POP POP JUMP JUMPDEST DUP3 DUP2 MSTORE PUSH1 0x40 PUSH1 0x20 DUP3 ADD MSTORE PUSH0 PUSH2 0x7BC PUSH1 0x40 DUP4 ADD DUP5 PUSH2 0x776 JUMP JUMPDEST SWAP5 SWAP4 POP POP POP POP JUMP JUMPDEST PUSH1 0x20 DUP2 MSTORE PUSH0 PUSH2 0x7D6 PUSH1 0x20 DUP4 ADD DUP5 PUSH2 0x776 JUMP JUMPDEST SWAP4 SWAP3 POP POP POP JUMP JUMPDEST PUSH1 0x1 DUP2 DUP2 SHR SWAP1 DUP3 AND DUP1 PUSH2 0x7F1 JUMPI PUSH1 0x7F DUP3 AND SWAP2 POP JUMPDEST PUSH1 0x20 DUP3 LT DUP2 SUB PUSH2 0x80F JUMPI PUSH4 0x4E487B71 PUSH1 0xE0 SHL PUSH0 MSTORE PUSH1 0x22 PUSH1 0x4 MSTORE PUSH1 0x24 PUSH0 REVERT JUMPDEST POP SWAP2 SWAP1 POP JUMP JUMPDEST PUSH1 0x1F DUP3 GT ISZERO PUSH2 0x253 JUMPI DUP1 PUSH0 MSTORE PUSH1 0x20 PUSH0 KECCAK256 PUSH1 0x1F DUP5 ADD PUSH1 0x5 SHR DUP2 ADD PUSH1 0x20 DUP6 LT ISZERO PUSH2 0x83A JUMPI POP DUP1 JUMPDEST PUSH1 0x1F DUP5 ADD PUSH1 0x5 SHR DUP3 ADD SWAP2 POP JUMPDEST DUP2 DUP2 LT ISZERO PUSH2 0x859 JUMPI PUSH0 DUP2 SSTORE PUSH1 0x1 ADD PUSH2 0x846 JUMP JUMPDEST POP POP POP POP POP JUMP JUMPDEST DUP2 MLOAD PUSH8 0xFFFFFFFFFFFFFFFF DUP2 GT ISZERO PUSH2 0x87A JUMPI PUSH2 0x87A PUSH2 0x610 JUMP JUMPDEST PUSH2 0x88E DUP2 PUSH2 0x888 DUP5 SLOAD PUSH2 0x7DD JUMP JUMPDEST DUP5 PUSH2 0x815 JUMP JUMPDEST PUSH1 0x20 PUSH1 0x1F DUP3 GT PUSH1 0x1 DUP2 EQ PUSH2 0x8C0 JUMPI PUSH0 DUP4 ISZERO PUSH2 0x8A9 JUMPI POP DUP5 DUP3 ADD MLOAD JUMPDEST PUSH0 NOT PUSH1 0x3 DUP6 SWAP1 SHL SHR NOT AND PUSH1 0x1 DUP5 SWAP1 SHL OR DUP5 SSTORE PUSH2 0x859 JUMP JUMPDEST PUSH0 DUP5 DUP2 MSTORE PUSH1 0x20 DUP2 KECCAK256 PUSH1 0x1F NOT DUP6 AND SWAP2 JUMPDEST DUP3 DUP2 LT ISZERO PUSH2 0x8EF JUMPI DUP8 DUP6 ADD MLOAD DUP3 SSTORE PUSH1 0x20 SWAP5 DUP6 ADD SWAP5 PUSH1 0x1 SWAP1 SWAP3 ADD SWAP2 ADD PUSH2 0x8CF JUMP JUMPDEST POP DUP5 DUP3 LT ISZERO PUSH2 0x90C JUMPI DUP7 DUP5 ADD MLOAD PUSH0 NOT PUSH1 0x3 DUP8 SWAP1 SHL PUSH1 0xF8 AND SHR NOT AND DUP2 SSTORE JUMPDEST POP POP POP POP PUSH1 0x1 SWAP1 DUP2 SHL ADD SWAP1 SSTORE POP JUMP INVALID LOG2 PUSH5 0x6970667358 0x22 SLT KECCAK256 0x4D SWAP13 0xD5 OR 0xAE 0x25 0xF 0x26 SGT DUP1 0xB0 SGT 0xBD 0xC0 SAR 0xCF SHR 0xA6 RETF LOG4 0xB7 0x2D XOR REVERT 0xF7 PUSH14 0xEDE816527B5464736F6C63430008 0x1E STOP CALLER "
				},
				"gasEstimates": {
					"creation": {
						"codeDepositCost": "477000",
						"executionCost": "509",
						"totalCost": "477509"
					},
					"external": {
						"data(uint256)": "infinite",
						"dataSetter(uint256,uint256,string)": "infinite",
						"getRollNo(uint256)": "infinite",
						"getStudentData(uint256)": "infinite",
						"keyExists(uint256)": "2660",
						"removeKey(uint256)": "infinite",
						"roll_no(uint256)": "infinite",
						"setter(uint256,string)": "infinite",
						"updateStudentClass(uint256,uint256)": "24777",
						"updateStudentName(uint256,string)": "infinite"
					}
				},
				"methodIdentifiers": {
					"data(uint256)": "f0ba8440",
					"dataSetter(uint256,uint256,string)": "3d301c2a",
					"getRollNo(uint256)": "e14077cb",
					"getStudentData(uint256)": "874e5bb8",
					"keyExists(uint256)": "82d1eac8",
					"removeKey(uint256)": "a8d20d61",
					"roll_no(uint256)": "898786ac",
					"setter(uint256,string)": "bcb131c9",
					"updateStudentClass(uint256,uint256)": "79bab0c2",
					"updateStudentName(uint256,string)": "440dba6c"
				}
			},
			"storageLayout": {
				"storage": [
					{
						"astId": 7,
						"contract": "10-Mapping/demo.sol:mapDemo",
						"label": "roll_no",
						"offset": 0,
						"slot": "0",
						"type": "t_mapping(t_uint256,t_string_storage)"
					},
					{
						"astId": 34,
						"contract": "10-Mapping/demo.sol:mapDemo",
						"label": "data",
						"offset": 0,
						"slot": "1",
						"type": "t_mapping(t_uint256,t_struct(Student)28_storage)"
					}
				],
				"types": {
					"t_mapping(t_uint256,t_string_storage)": {
						"encoding": "mapping",
						"key": "t_uint256",
						"label": "mapping(uint256 => string)",
						"numberOfBytes": "32",
						"value": "t_string_storage"
					},
					"t_mapping(t_uint256,t_struct(Student)28_storage)": {
						"encoding": "mapping",
						"key": "t_uint256",
						"label": "mapping(uint256 => struct mapDemo.Student)",
						"numberOfBytes": "32",
						"value": "t_struct(Student)28_storage"
					},
					"t_string_storage": {
						"encoding": "bytes",
						"label": "string",
						"numberOfBytes": "32"
					},
					"t_struct(Student)28_storage": {
						"encoding": "inplace",
						"label": "struct mapDemo.Student",
						"members": [
							{
								"astId": 25,
								"contract": "10-Mapping/demo.sol:mapDemo",
								"label": "class",
								"offset": 0,
								"slot": "0",
								"type": "t_uint256"
							},
							{
								"astId": 27,
								"contract": "10-Mapping/demo.sol:mapDemo",
								"label": "name",
								"offset": 0,
								"slot": "1",
								"type": "t_string_storage"
							}
						],
						"numberOfBytes": "64"
					},
					"t_uint256": {
						"encoding": "inplace",
						"label": "uint256",
						"numberOfBytes": "32"
					}
				}
			},
			"userdoc": {
				"kind": "user",
				"methods": {
					"data(uint256)": {
						"notice": "Demonstrates using complex types (structs) as mapping valuesPublic visibility creates a getter that returns the entire struct"
					},
					"dataSetter(uint256,uint256,string)": {
						"notice": "Shows how to store struct values in a mapping"
					},
					"getRollNo(uint256)": {
						"notice": "Explicit getter function (though public mapping already provides one)"
					},
					"getStudentData(uint256)": {
						"notice": "Shows how to retrieve struct data from a mapping"
					},
					"keyExists(uint256)": {
						"notice": "Demonstrates how to check for key existence"
					},
					"removeKey(uint256)": {
						"notice": "Sets the value to empty string, effectively removing the mapping entry"
					},
					"roll_no(uint256)": {
						"notice": "Public visibility automatically creates a getter functionExample use case: mapping student roll numbers (keys) to student names (values)Keys are unique - setting a key twice overwrites the previous value"
					},
					"setter(uint256,string)": {
						"notice": "Demonstrates how to store values in a mapping"
					},
					"updateStudentClass(uint256,uint256)": {
						"notice": "Shows how to update specific fields in a struct stored in a mapping"
					},
					"updateStudentName(uint256,string)": {
						"notice": "Shows how to update specific fields in a struct stored in a mapping"
					}
				},
				"notice": "Mappings are key-value stores where keys map to valuesAnalogous to hash tables or dictionaries in other languagesAll mappings in Solidity are virtual - they don't store all keys, just the ones that have been set",
				"version": 1
			}
		}
	}
}