{
	"6-Data Types/Enum.sol": {
		"enumDemo": {
			"abi": [
				{
					"inputs": [],
					"name": "changeOwner",
					"outputs": [],
					"stateMutability": "nonpayable",
					"type": "function"
				},
				{
					"inputs": [],
					"name": "getDefaultSize",
					"outputs": [
						{
							"internalType": "enum enumDemo.size",
							"name": "",
							"type": "uint8"
						}
					],
					"stateMutability": "pure",
					"type": "function"
				},
				{
					"inputs": [],
					"name": "getUserStatus",
					"outputs": [
						{
							"internalType": "string",
							"name": "",
							"type": "string"
						}
					],
					"stateMutability": "view",
					"type": "function"
				},
				{
					"inputs": [],
					"name": "lottery",
					"outputs": [
						{
							"internalType": "uint256",
							"name": "",
							"type": "uint256"
						}
					],
					"stateMutability": "view",
					"type": "function"
				},
				{
					"inputs": [],
					"name": "owner",
					"outputs": [],
					"stateMutability": "nonpayable",
					"type": "function"
				},
				{
					"inputs": [
						{
							"internalType": "uint256",
							"name": "newStatus",
							"type": "uint256"
						}
					],
					"name": "setUserStatus",
					"outputs": [],
					"stateMutability": "nonpayable",
					"type": "function"
				},
				{
					"inputs": [],
					"name": "u1",
					"outputs": [
						{
							"internalType": "enum enumDemo.user",
							"name": "",
							"type": "uint8"
						}
					],
					"stateMutability": "view",
					"type": "function"
				},
				{
					"inputs": [],
					"name": "u2",
					"outputs": [
						{
							"internalType": "enum enumDemo.user",
							"name": "",
							"type": "uint8"
						}
					],
					"stateMutability": "view",
					"type": "function"
				},
				{
					"inputs": [],
					"name": "u3",
					"outputs": [
						{
							"internalType": "enum enumDemo.user",
							"name": "",
							"type": "uint8"
						}
					],
					"stateMutability": "view",
					"type": "function"
				}
			],
			"devdoc": {
				"details": "Demonstrates the use of enums in Solidity",
				"kind": "dev",
				"methods": {
					"changeOwner()": {
						"details": "Function to change the owner status to not_allowed"
					},
					"getDefaultSize()": {
						"details": "Function to get the current size",
						"returns": {
							"_0": "The current size enum value"
						}
					},
					"getUserStatus()": {
						"details": "Function to get the current user status as a string",
						"returns": {
							"_0": "A string representation of the current user status"
						}
					},
					"owner()": {
						"details": "Function to check owner status and potentially release lottery funds"
					},
					"setUserStatus(uint256)": {
						"details": "Function to set a new user status",
						"params": {
							"newStatus": "The new status to set (0=allowed, 1=not_allowed, 2=wait)"
						}
					}
				},
				"stateVariables": {
					"lottery": {
						"details": "Lottery amount in wei "
					},
					"u1": {
						"details": "User status set to allowed (value 0) "
					},
					"u2": {
						"details": "User status set to not_allowed (value 1) "
					},
					"u3": {
						"details": "User status set to wait (value 2) "
					}
				},
				"title": "Enum Demo Contract",
				"version": 1
			},
			"evm": {
				"assembly": "    /* \"6-Data Types/Enum.sol\":342:3437  contract enumDemo {... */\n  mstore(0x40, 0x80)\n    /* \"6-Data Types/Enum.sol\":1074:1086  user.allowed */\n  0x00\n    /* \"6-Data Types/Enum.sol\":1057:1086  user public u1 = user.allowed */\n  dup1\n  sload\n  not(0xffffff)\n    /* \"6-Data Types/Enum.sol\":1240:1266  user public u3 = user.wait */\n  and\n  0x020100\n  or\n  swap1\n  sstore\n    /* \"6-Data Types/Enum.sol\":1333:1337  3000 */\n  0x0bb8\n  0x01\n    /* \"6-Data Types/Enum.sol\":1311:1337  uint public lottery = 3000 */\n  sstore\n    /* \"6-Data Types/Enum.sol\":342:3437  contract enumDemo {... */\n  callvalue\n  dup1\n  iszero\n  tag_8\n  jumpi\n  revert(0x00, 0x00)\ntag_8:\n  pop\n  dataSize(sub_0)\n  dup1\n  dataOffset(sub_0)\n  0x00\n  codecopy\n  0x00\n  return\nstop\n\nsub_0: assembly {\n        /* \"6-Data Types/Enum.sol\":342:3437  contract enumDemo {... */\n      mstore(0x40, 0x80)\n      callvalue\n      dup1\n      iszero\n      tag_1\n      jumpi\n      revert(0x00, 0x00)\n    tag_1:\n      pop\n      jumpi(tag_2, lt(calldatasize, 0x04))\n      shr(0xe0, calldataload(0x00))\n      dup1\n      0x8da5cb5b\n      gt\n      tag_12\n      jumpi\n      dup1\n      0x8da5cb5b\n      eq\n      tag_7\n      jumpi\n      dup1\n      0xba13a572\n      eq\n      tag_8\n      jumpi\n      dup1\n      0xd6ae2cdf\n      eq\n      tag_9\n      jumpi\n      dup1\n      0xe650f536\n      eq\n      tag_10\n      jumpi\n      dup1\n      0xf0849992\n      eq\n      tag_11\n      jumpi\n      revert(0x00, 0x00)\n    tag_12:\n      dup1\n      0x1aa35610\n      eq\n      tag_3\n      jumpi\n      dup1\n      0x62a09477\n      eq\n      tag_4\n      jumpi\n      dup1\n      0x75da9f76\n      eq\n      tag_5\n      jumpi\n      dup1\n      0x8424c8d8\n      eq\n      tag_6\n      jumpi\n    tag_2:\n      revert(0x00, 0x00)\n        /* \"6-Data Types/Enum.sol\":1057:1086  user public u1 = user.allowed */\n    tag_3:\n      sload(0x00)\n      tag_13\n      swap1\n      0xff\n      and\n      dup2\n      jump\n    tag_13:\n      mload(0x40)\n      tag_15\n      swap2\n      swap1\n      tag_16\n      jump\t// in\n    tag_15:\n      mload(0x40)\n      dup1\n      swap2\n      sub\n      swap1\n      return\n        /* \"6-Data Types/Enum.sol\":2086:2211  function changeOwner() public {... */\n    tag_4:\n      tag_17\n        /* \"6-Data Types/Enum.sol\":2183:2185  u1 */\n      0x00\n        /* \"6-Data Types/Enum.sol\":2183:2204  u1 = user.not_allowed */\n      dup1\n      sload\n      not(0xff)\n      and\n        /* \"6-Data Types/Enum.sol\":2188:2204  user.not_allowed */\n      0x01\n        /* \"6-Data Types/Enum.sol\":2183:2204  u1 = user.not_allowed */\n      or\n      swap1\n      sstore\n        /* \"6-Data Types/Enum.sol\":2086:2211  function changeOwner() public {... */\n      jump\n    tag_17:\n      stop\n        /* \"6-Data Types/Enum.sol\":1150:1183  user public u2 = user.not_allowed */\n    tag_5:\n      sload(0x00)\n      tag_13\n      swap1\n      0x0100\n      swap1\n      div\n      0xff\n      and\n      dup2\n      jump\n        /* \"6-Data Types/Enum.sol\":1240:1266  user public u3 = user.wait */\n    tag_6:\n      sload(0x00)\n      tag_13\n      swap1\n      0x010000\n      swap1\n      div\n      0xff\n      and\n      dup2\n      jump\n        /* \"6-Data Types/Enum.sol\":1589:1938  function owner() public {... */\n    tag_7:\n      tag_17\n      tag_26\n      jump\t// in\n        /* \"6-Data Types/Enum.sol\":1311:1337  uint public lottery = 3000 */\n    tag_8:\n      tag_27\n      sload(0x01)\n      dup2\n      jump\n    tag_27:\n      mload(0x40)\n        /* \"#utility.yul\":534:559   */\n      swap1\n      dup2\n      mstore\n        /* \"#utility.yul\":522:524   */\n      0x20\n        /* \"#utility.yul\":507:525   */\n      add\n        /* \"6-Data Types/Enum.sol\":1311:1337  uint public lottery = 3000 */\n      tag_15\n        /* \"#utility.yul\":388:565   */\n      jump\n        /* \"6-Data Types/Enum.sol\":2926:3142  function setUserStatus(uint newStatus) public {... */\n    tag_9:\n      tag_17\n      tag_32\n      calldatasize\n      0x04\n      tag_33\n      jump\t// in\n    tag_32:\n      tag_34\n      jump\t// in\n        /* \"6-Data Types/Enum.sol\":2453:2718  function getUserStatus() public view returns (string memory) {... */\n    tag_10:\n      tag_35\n      tag_36\n      jump\t// in\n    tag_35:\n      mload(0x40)\n      tag_15\n      swap2\n      swap1\n      tag_38\n      jump\t// in\n        /* \"6-Data Types/Enum.sol\":3304:3435  function getDefaultSize() public pure returns (size) {... */\n    tag_11:\n        /* \"6-Data Types/Enum.sol\":3351:3355  size */\n      0x00\n        /* \"6-Data Types/Enum.sol\":3304:3435  function getDefaultSize() public pure returns (size) {... */\n      mload(0x40)\n      tag_15\n      swap2\n      swap1\n      tag_42\n      jump\t// in\n        /* \"6-Data Types/Enum.sol\":1589:1938  function owner() public {... */\n    tag_26:\n        /* \"6-Data Types/Enum.sol\":1691:1703  user.allowed */\n      0x00\n        /* \"6-Data Types/Enum.sol\":1685:1687  u1 */\n      and(0xff, sload(0x00))\n        /* \"6-Data Types/Enum.sol\":1685:1703  u1 == user.allowed */\n      0x02\n      dup2\n      gt\n      iszero\n      tag_51\n      jumpi\n      tag_51\n      tag_46\n      jump\t// in\n    tag_51:\n      sub\n        /* \"6-Data Types/Enum.sol\":1681:1872  if (u1 == user.allowed) {... */\n      tag_52\n      jumpi\n        /* \"6-Data Types/Enum.sol\":1729:1730  0 */\n      0x00\n        /* \"6-Data Types/Enum.sol\":1719:1726  lottery */\n      0x01\n        /* \"6-Data Types/Enum.sol\":1719:1730  lottery = 0 */\n      sstore\n        /* \"6-Data Types/Enum.sol\":1681:1872  if (u1 == user.allowed) {... */\n    tag_52:\n        /* \"6-Data Types/Enum.sol\":1589:1938  function owner() public {... */\n      jump\t// out\n        /* \"6-Data Types/Enum.sol\":2926:3142  function setUserStatus(uint newStatus) public {... */\n    tag_34:\n        /* \"6-Data Types/Enum.sol\":3125:3134  newStatus */\n      dup1\n        /* \"6-Data Types/Enum.sol\":3120:3135  user(newStatus) */\n      0x02\n      dup2\n      gt\n      iszero\n      tag_55\n      jumpi\n      tag_55\n      tag_46\n      jump\t// in\n    tag_55:\n        /* \"6-Data Types/Enum.sol\":3115:3117  u1 */\n      0x00\n        /* \"6-Data Types/Enum.sol\":3115:3135  u1 = user(newStatus) */\n      dup1\n      sload\n      not(0xff)\n      and\n      0x01\n      dup4\n      0x02\n      dup2\n      gt\n      iszero\n      tag_57\n      jumpi\n      tag_57\n      tag_46\n      jump\t// in\n    tag_57:\n      mul\n      or\n      swap1\n      sstore\n      pop\n        /* \"6-Data Types/Enum.sol\":2926:3142  function setUserStatus(uint newStatus) public {... */\n      pop\n      jump\t// out\n        /* \"6-Data Types/Enum.sol\":2453:2718  function getUserStatus() public view returns (string memory) {... */\n    tag_36:\n        /* \"6-Data Types/Enum.sol\":2499:2512  string memory */\n      0x60\n        /* \"6-Data Types/Enum.sol\":2534:2546  user.allowed */\n      0x00\n        /* \"6-Data Types/Enum.sol\":2528:2530  u1 */\n      and(0xff, sload(0x00))\n        /* \"6-Data Types/Enum.sol\":2528:2546  u1 == user.allowed */\n      0x02\n      dup2\n      gt\n      iszero\n      tag_62\n      jumpi\n      tag_62\n      tag_46\n      jump\t// in\n    tag_62:\n      sub\n        /* \"6-Data Types/Enum.sol\":2524:2712  if (u1 == user.allowed) {... */\n      tag_63\n      jumpi\n      pop\n        /* \"6-Data Types/Enum.sol\":2562:2578  return \"Allowed\" */\n      0x40\n      dup1\n      mload\n      dup1\n      dup3\n      add\n      swap1\n      swap2\n      mstore\n      0x07\n      dup2\n      mstore\n      shl(0xca, 0x105b1b1bddd959)\n      0x20\n      dup3\n      add\n      mstore\n      swap1\n        /* \"6-Data Types/Enum.sol\":2453:2718  function getUserStatus() public view returns (string memory) {... */\n      jump\t// out\n        /* \"6-Data Types/Enum.sol\":2524:2712  if (u1 == user.allowed) {... */\n    tag_63:\n        /* \"6-Data Types/Enum.sol\":2605:2621  user.not_allowed */\n      0x01\n        /* \"6-Data Types/Enum.sol\":2599:2601  u1 */\n      and(0xff, sload(0x00))\n        /* \"6-Data Types/Enum.sol\":2599:2621  u1 == user.not_allowed */\n      0x02\n      dup2\n      gt\n      iszero\n      tag_68\n      jumpi\n      tag_68\n      tag_46\n      jump\t// in\n    tag_68:\n      sub\n        /* \"6-Data Types/Enum.sol\":2595:2712  if (u1 == user.not_allowed) {... */\n      tag_69\n      jumpi\n      pop\n        /* \"6-Data Types/Enum.sol\":2637:2657  return \"Not Allowed\" */\n      0x40\n      dup1\n      mload\n      dup1\n      dup3\n      add\n      swap1\n      swap2\n      mstore\n      0x0b\n      dup2\n      mstore\n      shl(0xaa, 0x139bdd08105b1b1bddd959)\n      0x20\n      dup3\n      add\n      mstore\n      swap1\n        /* \"6-Data Types/Enum.sol\":2453:2718  function getUserStatus() public view returns (string memory) {... */\n      jump\t// out\n        /* \"6-Data Types/Enum.sol\":2595:2712  if (u1 == user.not_allowed) {... */\n    tag_69:\n      pop\n        /* \"6-Data Types/Enum.sol\":2688:2701  return \"Wait\" */\n      0x40\n      dup1\n      mload\n      dup1\n      dup3\n      add\n      swap1\n      swap2\n      mstore\n      0x04\n      dup2\n      mstore\n      shl(0xe2, 0x15d85a5d)\n      0x20\n      dup3\n      add\n      mstore\n      swap1\n        /* \"6-Data Types/Enum.sol\":2453:2718  function getUserStatus() public view returns (string memory) {... */\n      jump\t// out\n        /* \"#utility.yul\":14:141   */\n    tag_46:\n        /* \"#utility.yul\":75:85   */\n      0x4e487b71\n        /* \"#utility.yul\":70:73   */\n      0xe0\n        /* \"#utility.yul\":66:86   */\n      shl\n        /* \"#utility.yul\":63:64   */\n      0x00\n        /* \"#utility.yul\":56:87   */\n      mstore\n        /* \"#utility.yul\":106:110   */\n      0x21\n        /* \"#utility.yul\":103:104   */\n      0x04\n        /* \"#utility.yul\":96:111   */\n      mstore\n        /* \"#utility.yul\":130:134   */\n      0x24\n        /* \"#utility.yul\":127:128   */\n      0x00\n        /* \"#utility.yul\":120:135   */\n      revert\n        /* \"#utility.yul\":146:383   */\n    tag_16:\n        /* \"#utility.yul\":284:286   */\n      0x20\n        /* \"#utility.yul\":269:287   */\n      dup2\n      add\n        /* \"#utility.yul\":317:318   */\n      0x03\n        /* \"#utility.yul\":306:319   */\n      dup4\n      lt\n        /* \"#utility.yul\":296:343   */\n      tag_76\n      jumpi\n        /* \"#utility.yul\":323:341   */\n      tag_76\n      tag_46\n      jump\t// in\n    tag_76:\n        /* \"#utility.yul\":352:377   */\n      swap2\n      swap1\n      mstore\n        /* \"#utility.yul\":146:383   */\n      swap1\n      jump\t// out\n        /* \"#utility.yul\":570:750   */\n    tag_33:\n        /* \"#utility.yul\":629:635   */\n      0x00\n        /* \"#utility.yul\":682:684   */\n      0x20\n        /* \"#utility.yul\":670:679   */\n      dup3\n        /* \"#utility.yul\":661:668   */\n      dup5\n        /* \"#utility.yul\":657:680   */\n      sub\n        /* \"#utility.yul\":653:685   */\n      slt\n        /* \"#utility.yul\":650:702   */\n      iszero\n      tag_79\n      jumpi\n        /* \"#utility.yul\":698:699   */\n      0x00\n        /* \"#utility.yul\":695:696   */\n      0x00\n        /* \"#utility.yul\":688:700   */\n      revert\n        /* \"#utility.yul\":650:702   */\n    tag_79:\n      pop\n        /* \"#utility.yul\":721:744   */\n      calldataload\n      swap2\n        /* \"#utility.yul\":570:750   */\n      swap1\n      pop\n      jump\t// out\n        /* \"#utility.yul\":755:1173   */\n    tag_38:\n        /* \"#utility.yul\":904:906   */\n      0x20\n        /* \"#utility.yul\":893:902   */\n      dup2\n        /* \"#utility.yul\":886:907   */\n      mstore\n        /* \"#utility.yul\":867:871   */\n      0x00\n        /* \"#utility.yul\":936:942   */\n      dup3\n        /* \"#utility.yul\":930:943   */\n      mload\n        /* \"#utility.yul\":979:985   */\n      dup1\n        /* \"#utility.yul\":974:976   */\n      0x20\n        /* \"#utility.yul\":963:972   */\n      dup5\n        /* \"#utility.yul\":959:977   */\n      add\n        /* \"#utility.yul\":952:986   */\n      mstore\n        /* \"#utility.yul\":1038:1044   */\n      dup1\n        /* \"#utility.yul\":1033:1035   */\n      0x20\n        /* \"#utility.yul\":1025:1031   */\n      dup6\n        /* \"#utility.yul\":1021:1036   */\n      add\n        /* \"#utility.yul\":1016:1018   */\n      0x40\n        /* \"#utility.yul\":1005:1014   */\n      dup6\n        /* \"#utility.yul\":1001:1019   */\n      add\n        /* \"#utility.yul\":995:1045   */\n      mcopy\n        /* \"#utility.yul\":1094:1095   */\n      0x00\n        /* \"#utility.yul\":1089:1091   */\n      0x40\n        /* \"#utility.yul\":1080:1086   */\n      dup3\n        /* \"#utility.yul\":1069:1078   */\n      dup6\n        /* \"#utility.yul\":1065:1087   */\n      add\n        /* \"#utility.yul\":1061:1092   */\n      add\n        /* \"#utility.yul\":1054:1096   */\n      mstore\n        /* \"#utility.yul\":1164:1166   */\n      0x40\n        /* \"#utility.yul\":1157:1159   */\n      0x1f\n        /* \"#utility.yul\":1153:1160   */\n      not\n        /* \"#utility.yul\":1148:1150   */\n      0x1f\n        /* \"#utility.yul\":1140:1146   */\n      dup4\n        /* \"#utility.yul\":1136:1151   */\n      add\n        /* \"#utility.yul\":1132:1161   */\n      and\n        /* \"#utility.yul\":1121:1130   */\n      dup5\n        /* \"#utility.yul\":1117:1162   */\n      add\n        /* \"#utility.yul\":1113:1167   */\n      add\n        /* \"#utility.yul\":1105:1167   */\n      swap2\n      pop\n      pop\n        /* \"#utility.yul\":755:1173   */\n      swap3\n      swap2\n      pop\n      pop\n      jump\t// out\n        /* \"#utility.yul\":1178:1416   */\n    tag_42:\n        /* \"#utility.yul\":1317:1319   */\n      0x20\n        /* \"#utility.yul\":1302:1320   */\n      dup2\n      add\n        /* \"#utility.yul\":1350:1351   */\n      0x05\n        /* \"#utility.yul\":1339:1352   */\n      dup4\n      lt\n        /* \"#utility.yul\":1329:1376   */\n      tag_76\n      jumpi\n        /* \"#utility.yul\":1356:1374   */\n      tag_76\n      tag_46\n      jump\t// in\n\n    auxdata: 0xa2646970667358221220e14fe2dfffd9f3cb28fdafd0ce9bbe2a6346471363f275f0dde229c48e098aaa64736f6c634300081e0033\n}\n",
				"bytecode": {
					"linkReferences": {},
					"object": "60806040525f805462ffffff191662020100179055610bb86001553480156024575f5ffd5b506102ff806100325f395ff3fe608060405234801561000f575f5ffd5b5060043610610090575f3560e01c80638da5cb5b116100635780638da5cb5b146100ec578063ba13a572146100f4578063d6ae2cdf1461010b578063e650f5361461011e578063f084999214610133575f5ffd5b80631aa356101461009457806362a09477146100b657806375da9f76146100c95780638424c8d8146100da575b5f5ffd5b5f546100a09060ff1681565b6040516100ad919061024f565b60405180910390f35b6100c75f805460ff19166001179055565b005b5f546100a090610100900460ff1681565b5f546100a09062010000900460ff1681565b6100c7610141565b6100fd60015481565b6040519081526020016100ad565b6100c7610119366004610269565b610164565b610126610199565b6040516100ad9190610280565b5f6040516100ad91906102b5565b5f5f5460ff1660028111156101585761015861023b565b03610162575f6001555b565b8060028111156101765761017661023b565b5f805460ff191660018360028111156101915761019161023b565b021790555050565b60605f5f5460ff1660028111156101b2576101b261023b565b036101d95750604080518082019091526007815266105b1b1bddd95960ca1b602082015290565b60015f5460ff1660028111156101f1576101f161023b565b0361021c575060408051808201909152600b81526a139bdd08105b1b1bddd95960aa1b602082015290565b5060408051808201909152600481526315d85a5d60e21b602082015290565b634e487b7160e01b5f52602160045260245ffd5b60208101600383106102635761026361023b565b91905290565b5f60208284031215610279575f5ffd5b5035919050565b602081525f82518060208401528060208501604085015e5f604082850101526040601f19601f83011684010191505092915050565b60208101600583106102635761026361023b56fea2646970667358221220e14fe2dfffd9f3cb28fdafd0ce9bbe2a6346471363f275f0dde229c48e098aaa64736f6c634300081e0033",
					"opcodes": "PUSH1 0x80 PUSH1 0x40 MSTORE PUSH0 DUP1 SLOAD PUSH3 0xFFFFFF NOT AND PUSH3 0x20100 OR SWAP1 SSTORE PUSH2 0xBB8 PUSH1 0x1 SSTORE CALLVALUE DUP1 ISZERO PUSH1 0x24 JUMPI PUSH0 PUSH0 REVERT JUMPDEST POP PUSH2 0x2FF DUP1 PUSH2 0x32 PUSH0 CODECOPY PUSH0 RETURN INVALID PUSH1 0x80 PUSH1 0x40 MSTORE CALLVALUE DUP1 ISZERO PUSH2 0xF JUMPI PUSH0 PUSH0 REVERT JUMPDEST POP PUSH1 0x4 CALLDATASIZE LT PUSH2 0x90 JUMPI PUSH0 CALLDATALOAD PUSH1 0xE0 SHR DUP1 PUSH4 0x8DA5CB5B GT PUSH2 0x63 JUMPI DUP1 PUSH4 0x8DA5CB5B EQ PUSH2 0xEC JUMPI DUP1 PUSH4 0xBA13A572 EQ PUSH2 0xF4 JUMPI DUP1 PUSH4 0xD6AE2CDF EQ PUSH2 0x10B JUMPI DUP1 PUSH4 0xE650F536 EQ PUSH2 0x11E JUMPI DUP1 PUSH4 0xF0849992 EQ PUSH2 0x133 JUMPI PUSH0 PUSH0 REVERT JUMPDEST DUP1 PUSH4 0x1AA35610 EQ PUSH2 0x94 JUMPI DUP1 PUSH4 0x62A09477 EQ PUSH2 0xB6 JUMPI DUP1 PUSH4 0x75DA9F76 EQ PUSH2 0xC9 JUMPI DUP1 PUSH4 0x8424C8D8 EQ PUSH2 0xDA JUMPI JUMPDEST PUSH0 PUSH0 REVERT JUMPDEST PUSH0 SLOAD PUSH2 0xA0 SWAP1 PUSH1 0xFF AND DUP2 JUMP JUMPDEST PUSH1 0x40 MLOAD PUSH2 0xAD SWAP2 SWAP1 PUSH2 0x24F JUMP JUMPDEST PUSH1 0x40 MLOAD DUP1 SWAP2 SUB SWAP1 RETURN JUMPDEST PUSH2 0xC7 PUSH0 DUP1 SLOAD PUSH1 0xFF NOT AND PUSH1 0x1 OR SWAP1 SSTORE JUMP JUMPDEST STOP JUMPDEST PUSH0 SLOAD PUSH2 0xA0 SWAP1 PUSH2 0x100 SWAP1 DIV PUSH1 0xFF AND DUP2 JUMP JUMPDEST PUSH0 SLOAD PUSH2 0xA0 SWAP1 PUSH3 0x10000 SWAP1 DIV PUSH1 0xFF AND DUP2 JUMP JUMPDEST PUSH2 0xC7 PUSH2 0x141 JUMP JUMPDEST PUSH2 0xFD PUSH1 0x1 SLOAD DUP2 JUMP JUMPDEST PUSH1 0x40 MLOAD SWAP1 DUP2 MSTORE PUSH1 0x20 ADD PUSH2 0xAD JUMP JUMPDEST PUSH2 0xC7 PUSH2 0x119 CALLDATASIZE PUSH1 0x4 PUSH2 0x269 JUMP JUMPDEST PUSH2 0x164 JUMP JUMPDEST PUSH2 0x126 PUSH2 0x199 JUMP JUMPDEST PUSH1 0x40 MLOAD PUSH2 0xAD SWAP2 SWAP1 PUSH2 0x280 JUMP JUMPDEST PUSH0 PUSH1 0x40 MLOAD PUSH2 0xAD SWAP2 SWAP1 PUSH2 0x2B5 JUMP JUMPDEST PUSH0 PUSH0 SLOAD PUSH1 0xFF AND PUSH1 0x2 DUP2 GT ISZERO PUSH2 0x158 JUMPI PUSH2 0x158 PUSH2 0x23B JUMP JUMPDEST SUB PUSH2 0x162 JUMPI PUSH0 PUSH1 0x1 SSTORE JUMPDEST JUMP JUMPDEST DUP1 PUSH1 0x2 DUP2 GT ISZERO PUSH2 0x176 JUMPI PUSH2 0x176 PUSH2 0x23B JUMP JUMPDEST PUSH0 DUP1 SLOAD PUSH1 0xFF NOT AND PUSH1 0x1 DUP4 PUSH1 0x2 DUP2 GT ISZERO PUSH2 0x191 JUMPI PUSH2 0x191 PUSH2 0x23B JUMP JUMPDEST MUL OR SWAP1 SSTORE POP POP JUMP JUMPDEST PUSH1 0x60 PUSH0 PUSH0 SLOAD PUSH1 0xFF AND PUSH1 0x2 DUP2 GT ISZERO PUSH2 0x1B2 JUMPI PUSH2 0x1B2 PUSH2 0x23B JUMP JUMPDEST SUB PUSH2 0x1D9 JUMPI POP PUSH1 0x40 DUP1 MLOAD DUP1 DUP3 ADD SWAP1 SWAP2 MSTORE PUSH1 0x7 DUP2 MSTORE PUSH7 0x105B1B1BDDD959 PUSH1 0xCA SHL PUSH1 0x20 DUP3 ADD MSTORE SWAP1 JUMP JUMPDEST PUSH1 0x1 PUSH0 SLOAD PUSH1 0xFF AND PUSH1 0x2 DUP2 GT ISZERO PUSH2 0x1F1 JUMPI PUSH2 0x1F1 PUSH2 0x23B JUMP JUMPDEST SUB PUSH2 0x21C JUMPI POP PUSH1 0x40 DUP1 MLOAD DUP1 DUP3 ADD SWAP1 SWAP2 MSTORE PUSH1 0xB DUP2 MSTORE PUSH11 0x139BDD08105B1B1BDDD959 PUSH1 0xAA SHL PUSH1 0x20 DUP3 ADD MSTORE SWAP1 JUMP JUMPDEST POP PUSH1 0x40 DUP1 MLOAD DUP1 DUP3 ADD SWAP1 SWAP2 MSTORE PUSH1 0x4 DUP2 MSTORE PUSH4 0x15D85A5D PUSH1 0xE2 SHL PUSH1 0x20 DUP3 ADD MSTORE SWAP1 JUMP JUMPDEST PUSH4 0x4E487B71 PUSH1 0xE0 SHL PUSH0 MSTORE PUSH1 0x21 PUSH1 0x4 MSTORE PUSH1 0x24 PUSH0 REVERT JUMPDEST PUSH1 0x20 DUP2 ADD PUSH1 0x3 DUP4 LT PUSH2 0x263 JUMPI PUSH2 0x263 PUSH2 0x23B JUMP JUMPDEST SWAP2 SWAP1 MSTORE SWAP1 JUMP JUMPDEST PUSH0 PUSH1 0x20 DUP3 DUP5 SUB SLT ISZERO PUSH2 0x279 JUMPI PUSH0 PUSH0 REVERT JUMPDEST POP CALLDATALOAD SWAP2 SWAP1 POP JUMP JUMPDEST PUSH1 0x20 DUP2 MSTORE PUSH0 DUP3 MLOAD DUP1 PUSH1 0x20 DUP5 ADD MSTORE DUP1 PUSH1 0x20 DUP6 ADD PUSH1 0x40 DUP6 ADD MCOPY PUSH0 PUSH1 0x40 DUP3 DUP6 ADD ADD MSTORE PUSH1 0x40 PUSH1 0x1F NOT PUSH1 0x1F DUP4 ADD AND DUP5 ADD ADD SWAP2 POP POP SWAP3 SWAP2 POP POP JUMP JUMPDEST PUSH1 0x20 DUP2 ADD PUSH1 0x5 DUP4 LT PUSH2 0x263 JUMPI PUSH2 0x263 PUSH2 0x23B JUMP INVALID LOG2 PUSH5 0x6970667358 0x22 SLT KECCAK256 RJUMPI 0x4FE2 0xDF SELFDESTRUCT 0xD9 RETURN 0xCB 0x28 REVERT 0xAF 0xD0 0xCE SWAP12 0xBE 0x2A PUSH4 0x46471363 CALLCODE PUSH22 0xF0DDE229C48E098AAA64736F6C634300081E00330000 "
				},
				"gasEstimates": {
					"creation": {
						"codeDepositCost": "153400",
						"executionCost": "46523",
						"totalCost": "199923"
					},
					"external": {
						"changeOwner()": "24377",
						"getDefaultSize()": "313",
						"getUserStatus()": "infinite",
						"lottery()": "2316",
						"owner()": "7301",
						"setUserStatus(uint256)": "24553",
						"u1()": "2350",
						"u2()": "2405",
						"u3()": "2427"
					}
				},
				"methodIdentifiers": {
					"changeOwner()": "62a09477",
					"getDefaultSize()": "f0849992",
					"getUserStatus()": "e650f536",
					"lottery()": "ba13a572",
					"owner()": "8da5cb5b",
					"setUserStatus(uint256)": "d6ae2cdf",
					"u1()": "1aa35610",
					"u2()": "75da9f76",
					"u3()": "8424c8d8"
				}
			},
			"storageLayout": {
				"storage": [
					{
						"astId": 20,
						"contract": "6-Data Types/Enum.sol:enumDemo",
						"label": "u1",
						"offset": 0,
						"slot": "0",
						"type": "t_enum(user)7"
					},
					{
						"astId": 26,
						"contract": "6-Data Types/Enum.sol:enumDemo",
						"label": "u2",
						"offset": 1,
						"slot": "0",
						"type": "t_enum(user)7"
					},
					{
						"astId": 32,
						"contract": "6-Data Types/Enum.sol:enumDemo",
						"label": "u3",
						"offset": 2,
						"slot": "0",
						"type": "t_enum(user)7"
					},
					{
						"astId": 36,
						"contract": "6-Data Types/Enum.sol:enumDemo",
						"label": "lottery",
						"offset": 0,
						"slot": "1",
						"type": "t_uint256"
					}
				],
				"types": {
					"t_enum(user)7": {
						"encoding": "inplace",
						"label": "enum enumDemo.user",
						"numberOfBytes": "1"
					},
					"t_uint256": {
						"encoding": "inplace",
						"label": "uint256",
						"numberOfBytes": "32"
					}
				}
			},
			"userdoc": {
				"kind": "user",
				"methods": {
					"changeOwner()": {
						"notice": "This shows how to update an enum state variable"
					},
					"getDefaultSize()": {
						"notice": "Demonstrates returning an enum value"
					},
					"getUserStatus()": {
						"notice": "This demonstrates how to work with enum values in a more user-friendly way"
					},
					"owner()": {
						"notice": "This demonstrates how to use enums in conditional logicIf u1 is 'allowed', the lottery amount is set to 0 (released)"
					},
					"setUserStatus(uint256)": {
						"notice": "Shows how to pass enum values as parameters"
					}
				},
				"notice": "Enums are a way to create user-defined data types with a fixed set of named constantsThey improve code readability by using meaningful names instead of numeric values",
				"version": 1
			}
		}
	}
}