{
	"6-Array/DynamicArray.sol": {
		"arrays": {
			"abi": [
				{
					"inputs": [
						{
							"internalType": "uint256",
							"name": "",
							"type": "uint256"
						}
					],
					"name": "arr",
					"outputs": [
						{
							"internalType": "uint256",
							"name": "",
							"type": "uint256"
						}
					],
					"stateMutability": "view",
					"type": "function"
				},
				{
					"inputs": [],
					"name": "clearArray",
					"outputs": [],
					"stateMutability": "nonpayable",
					"type": "function"
				},
				{
					"inputs": [],
					"name": "getAllElements",
					"outputs": [
						{
							"internalType": "uint256[]",
							"name": "",
							"type": "uint256[]"
						}
					],
					"stateMutability": "view",
					"type": "function"
				},
				{
					"inputs": [
						{
							"internalType": "uint256",
							"name": "index",
							"type": "uint256"
						}
					],
					"name": "getElement",
					"outputs": [
						{
							"internalType": "uint256",
							"name": "",
							"type": "uint256"
						}
					],
					"stateMutability": "view",
					"type": "function"
				},
				{
					"inputs": [],
					"name": "getSum",
					"outputs": [
						{
							"internalType": "uint256",
							"name": "",
							"type": "uint256"
						}
					],
					"stateMutability": "view",
					"type": "function"
				},
				{
					"inputs": [],
					"name": "isEmpty",
					"outputs": [
						{
							"internalType": "bool",
							"name": "",
							"type": "bool"
						}
					],
					"stateMutability": "view",
					"type": "function"
				},
				{
					"inputs": [],
					"name": "length",
					"outputs": [
						{
							"internalType": "uint256",
							"name": "",
							"type": "uint256"
						}
					],
					"stateMutability": "view",
					"type": "function"
				},
				{
					"inputs": [],
					"name": "popElement",
					"outputs": [],
					"stateMutability": "nonpayable",
					"type": "function"
				},
				{
					"inputs": [],
					"name": "printPopElement",
					"outputs": [
						{
							"internalType": "uint256",
							"name": "",
							"type": "uint256"
						}
					],
					"stateMutability": "nonpayable",
					"type": "function"
				},
				{
					"inputs": [
						{
							"internalType": "uint256",
							"name": "item",
							"type": "uint256"
						}
					],
					"name": "pushElement",
					"outputs": [],
					"stateMutability": "nonpayable",
					"type": "function"
				},
				{
					"inputs": [
						{
							"internalType": "uint256",
							"name": "index",
							"type": "uint256"
						},
						{
							"internalType": "uint256",
							"name": "value",
							"type": "uint256"
						}
					],
					"name": "setElement",
					"outputs": [],
					"stateMutability": "nonpayable",
					"type": "function"
				}
			],
			"devdoc": {
				"details": "Shows how to work with dynamically-sized arrays in Solidity",
				"kind": "dev",
				"methods": {
					"clearArray()": {
						"details": "Removes all elements from the array"
					},
					"getAllElements()": {
						"details": "Gets the entire array",
						"returns": {
							"_0": "The complete array"
						}
					},
					"getElement(uint256)": {
						"details": "Gets an element at a specific index",
						"params": {
							"index": "The position of the element to retrieve (0-based)"
						},
						"returns": {
							"_0": "The value at the specified index"
						}
					},
					"getSum()": {
						"details": "Gets the sum of all elements in the array",
						"returns": {
							"_0": "The sum of all values in the array"
						}
					},
					"isEmpty()": {
						"details": "Checks if the array is empty",
						"returns": {
							"_0": "true if the array has no elements, false otherwise"
						}
					},
					"length()": {
						"details": "Gets the current length of the array",
						"returns": {
							"_0": "The number of elements in the array"
						}
					},
					"popElement()": {
						"details": "Removes the last element from the array"
					},
					"printPopElement()": {
						"details": "Removes and returns the last element from the arrayIMPORTANT: Contains a potential reentrancy-like issue if used improperly       (though not actual reentrancy since it's not calling external contracts)",
						"returns": {
							"_0": "The value that was removed from the end of the array"
						}
					},
					"pushElement(uint256)": {
						"details": "Adds an element to the end of the array",
						"params": {
							"item": "The uint256 value to add to the array"
						}
					},
					"setElement(uint256,uint256)": {
						"details": "Updates an element at a specific index",
						"params": {
							"index": "The position of the element to update (0-based)",
							"value": "The new value to store at the specified index"
						}
					}
				},
				"stateVariables": {
					"arr": {
						"details": "Dynamic array declaration"
					}
				},
				"title": "Dynamic Array Demonstration",
				"version": 1
			},
			"evm": {
				"assembly": "    /* \"6-Array/DynamicArray.sol\":397:5683  contract arrays {... */\n  mstore(0x40, 0x80)\n  callvalue\n  dup1\n  iszero\n  tag_1\n  jumpi\n  revert(0x00, 0x00)\ntag_1:\n  pop\n  dataSize(sub_0)\n  dup1\n  dataOffset(sub_0)\n  0x00\n  codecopy\n  0x00\n  return\nstop\n\nsub_0: assembly {\n        /* \"6-Array/DynamicArray.sol\":397:5683  contract arrays {... */\n      mstore(0x40, 0x80)\n      callvalue\n      dup1\n      iszero\n      tag_1\n      jumpi\n      revert(0x00, 0x00)\n    tag_1:\n      pop\n      jumpi(tag_2, lt(calldatasize, 0x04))\n      shr(0xe0, calldataload(0x00))\n      dup1\n      0x71e5ee5f\n      gt\n      tag_14\n      jumpi\n      dup1\n      0x71e5ee5f\n      eq\n      tag_8\n      jumpi\n      dup1\n      0x78321efb\n      eq\n      tag_9\n      jumpi\n      dup1\n      0x9a6fcbdd\n      eq\n      tag_10\n      jumpi\n      dup1\n      0xa16e7215\n      eq\n      tag_11\n      jumpi\n      dup1\n      0xd5c22bef\n      eq\n      tag_12\n      jumpi\n      dup1\n      0xe80b7ab6\n      eq\n      tag_13\n      jumpi\n      revert(0x00, 0x00)\n    tag_14:\n      dup1\n      0x1f7b6d32\n      eq\n      tag_3\n      jumpi\n      dup1\n      0x280ca666\n      eq\n      tag_4\n      jumpi\n      dup1\n      0x3a7d22bc\n      eq\n      tag_5\n      jumpi\n      dup1\n      0x569c5f6d\n      eq\n      tag_6\n      jumpi\n      dup1\n      0x681fe70c\n      eq\n      tag_7\n      jumpi\n    tag_2:\n      revert(0x00, 0x00)\n        /* \"6-Array/DynamicArray.sol\":1684:1766  function length() public view returns (uint256) {... */\n    tag_3:\n        /* \"6-Array/DynamicArray.sol\":1723:1730  uint256 */\n      0x00\n        /* \"6-Array/DynamicArray.sol\":1749:1759  arr.length */\n      sload\n        /* \"6-Array/DynamicArray.sol\":1684:1766  function length() public view returns (uint256) {... */\n    tag_15:\n      mload(0x40)\n        /* \"#utility.yul\":160:185   */\n      swap1\n      dup2\n      mstore\n        /* \"#utility.yul\":148:150   */\n      0x20\n        /* \"#utility.yul\":133:151   */\n      add\n        /* \"6-Array/DynamicArray.sol\":1684:1766  function length() public view returns (uint256) {... */\n    tag_17:\n      mload(0x40)\n      dup1\n      swap2\n      sub\n      swap1\n      return\n        /* \"6-Array/DynamicArray.sol\":4808:4900  function getAllElements() public view returns (uint256[] memory) {... */\n    tag_4:\n      tag_19\n      tag_20\n      jump\t// in\n    tag_19:\n      mload(0x40)\n      tag_17\n      swap2\n      swap1\n      tag_22\n      jump\t// in\n        /* \"6-Array/DynamicArray.sol\":3605:3704  function getElement(uint256 index) public view returns (uint256) {... */\n    tag_5:\n      tag_15\n      tag_24\n      calldatasize\n      0x04\n      tag_25\n      jump\t// in\n    tag_24:\n      tag_26\n      jump\t// in\n        /* \"6-Array/DynamicArray.sol\":5487:5681  function getSum() public view returns (uint256) {... */\n    tag_6:\n      tag_15\n      tag_29\n      jump\t// in\n        /* \"6-Array/DynamicArray.sol\":5087:5172  function isEmpty() public view returns (bool) {... */\n    tag_7:\n        /* \"6-Array/DynamicArray.sol\":5127:5131  bool */\n      0x00\n        /* \"6-Array/DynamicArray.sol\":5150:5160  arr.length */\n      sload\n        /* \"6-Array/DynamicArray.sol\":5087:5172  function isEmpty() public view returns (bool) {... */\n      mload(0x40)\n        /* \"6-Array/DynamicArray.sol\":5150:5165  arr.length == 0 */\n      swap1\n      iszero\n        /* \"#utility.yul\":1183:1224   */\n      dup2\n      mstore\n        /* \"#utility.yul\":1171:1173   */\n      0x20\n        /* \"#utility.yul\":1156:1174   */\n      add\n        /* \"6-Array/DynamicArray.sol\":5087:5172  function isEmpty() public view returns (bool) {... */\n      tag_17\n        /* \"#utility.yul\":1043:1230   */\n      jump\n        /* \"6-Array/DynamicArray.sol\":775:795  uint256[] public arr */\n    tag_8:\n      tag_15\n      tag_36\n      calldatasize\n      0x04\n      tag_25\n      jump\t// in\n    tag_36:\n      tag_37\n      jump\t// in\n        /* \"6-Array/DynamicArray.sol\":1201:1383  function pushElement(uint256 item) public {... */\n    tag_9:\n      tag_39\n      tag_40\n      calldatasize\n      0x04\n      tag_25\n      jump\t// in\n    tag_40:\n        /* \"6-Array/DynamicArray.sol\":1362:1365  arr */\n      0x00\n        /* \"6-Array/DynamicArray.sol\":1362:1376  arr.push(item) */\n      dup1\n      sload\n      0x01\n      dup2\n      add\n      dup3\n      sstore\n      swap1\n      dup1\n      mstore\n      0x290decd9548b62a8d60345a988386fc84ba6bc95484008f6362f93160ef3e563\n      add\n      sstore\n        /* \"6-Array/DynamicArray.sol\":1201:1383  function pushElement(uint256 item) public {... */\n      jump\n    tag_39:\n      stop\n        /* \"6-Array/DynamicArray.sol\":2116:2318  function popElement() public {... */\n    tag_10:\n      tag_39\n      tag_43\n      jump\t// in\n        /* \"6-Array/DynamicArray.sol\":4029:4121  function setElement(uint256 index, uint256 value) public {... */\n    tag_11:\n      tag_39\n      tag_45\n      calldatasize\n      0x04\n      tag_46\n      jump\t// in\n    tag_45:\n      tag_47\n      jump\t// in\n        /* \"6-Array/DynamicArray.sol\":2856:3303  function printPopElement() public returns (uint256) {... */\n    tag_12:\n      tag_15\n      tag_49\n      jump\t// in\n        /* \"6-Array/DynamicArray.sol\":4409:4541  function clearArray() public {... */\n    tag_13:\n      tag_39\n      tag_52\n      jump\t// in\n        /* \"6-Array/DynamicArray.sol\":4808:4900  function getAllElements() public view returns (uint256[] memory) {... */\n    tag_20:\n        /* \"6-Array/DynamicArray.sol\":4855:4871  uint256[] memory */\n      0x60\n        /* \"6-Array/DynamicArray.sol\":4890:4893  arr */\n      0x00\n        /* \"6-Array/DynamicArray.sol\":4883:4893  return arr */\n      dup1\n      sload\n      dup1\n      0x20\n      mul\n      0x20\n      add\n      mload(0x40)\n      swap1\n      dup2\n      add\n      0x40\n      mstore\n      dup1\n      swap3\n      swap2\n      swap1\n      dup2\n      dup2\n      mstore\n      0x20\n      add\n      dup3\n      dup1\n      sload\n      dup1\n      iszero\n      tag_55\n      jumpi\n      0x20\n      mul\n      dup3\n      add\n      swap2\n      swap1\n      0x00\n      mstore\n      keccak256(0x00, 0x20)\n      swap1\n    tag_56:\n      dup2\n      sload\n      dup2\n      mstore\n      0x20\n      add\n      swap1\n      0x01\n      add\n      swap1\n      dup1\n      dup4\n      gt\n      tag_56\n      jumpi\n    tag_55:\n      pop\n      pop\n      pop\n      pop\n      pop\n      swap1\n      pop\n        /* \"6-Array/DynamicArray.sol\":4808:4900  function getAllElements() public view returns (uint256[] memory) {... */\n      swap1\n      jump\t// out\n        /* \"6-Array/DynamicArray.sol\":3605:3704  function getElement(uint256 index) public view returns (uint256) {... */\n    tag_26:\n        /* \"6-Array/DynamicArray.sol\":3661:3668  uint256 */\n      0x00\n        /* \"6-Array/DynamicArray.sol\":3687:3690  arr */\n      0x00\n        /* \"6-Array/DynamicArray.sol\":3691:3696  index */\n      dup3\n        /* \"6-Array/DynamicArray.sol\":3687:3697  arr[index] */\n      dup2\n      sload\n      dup2\n      lt\n      tag_59\n      jumpi\n      tag_59\n      tag_60\n      jump\t// in\n    tag_59:\n      swap1\n      0x00\n      mstore\n      keccak256(0x00, 0x20)\n      add\n      sload\n        /* \"6-Array/DynamicArray.sol\":3680:3697  return arr[index] */\n      swap1\n      pop\n        /* \"6-Array/DynamicArray.sol\":3605:3704  function getElement(uint256 index) public view returns (uint256) {... */\n      swap2\n      swap1\n      pop\n      jump\t// out\n        /* \"6-Array/DynamicArray.sol\":5487:5681  function getSum() public view returns (uint256) {... */\n    tag_29:\n        /* \"6-Array/DynamicArray.sol\":5526:5533  uint256 */\n      0x00\n      dup1\n      dup1\n        /* \"6-Array/DynamicArray.sol\":5572:5653  for (uint256 i = 0; i < arr.length; i++) {... */\n    tag_63:\n        /* \"6-Array/DynamicArray.sol\":5596:5599  arr */\n      0x00\n        /* \"6-Array/DynamicArray.sol\":5596:5606  arr.length */\n      sload\n        /* \"6-Array/DynamicArray.sol\":5592:5606  i < arr.length */\n      dup2\n      lt\n        /* \"6-Array/DynamicArray.sol\":5572:5653  for (uint256 i = 0; i < arr.length; i++) {... */\n      iszero\n      tag_64\n      jumpi\n        /* \"6-Array/DynamicArray.sol\":5636:5639  arr */\n      0x00\n        /* \"6-Array/DynamicArray.sol\":5640:5641  i */\n      dup2\n        /* \"6-Array/DynamicArray.sol\":5636:5642  arr[i] */\n      dup2\n      sload\n      dup2\n      lt\n      tag_67\n      jumpi\n      tag_67\n      tag_60\n      jump\t// in\n    tag_67:\n      swap1\n      0x00\n      mstore\n      keccak256(0x00, 0x20)\n      add\n      sload\n        /* \"6-Array/DynamicArray.sol\":5627:5642  total += arr[i] */\n      dup3\n      tag_69\n      swap2\n      swap1\n      tag_70\n      jump\t// in\n    tag_69:\n      swap2\n      pop\n        /* \"6-Array/DynamicArray.sol\":5608:5611  i++ */\n      0x01\n      add\n        /* \"6-Array/DynamicArray.sol\":5572:5653  for (uint256 i = 0; i < arr.length; i++) {... */\n      jump(tag_63)\n    tag_64:\n      pop\n        /* \"6-Array/DynamicArray.sol\":5669:5674  total */\n      swap2\n        /* \"6-Array/DynamicArray.sol\":5487:5681  function getSum() public view returns (uint256) {... */\n      swap1\n      pop\n      jump\t// out\n        /* \"6-Array/DynamicArray.sol\":775:795  uint256[] public arr */\n    tag_37:\n      0x00\n      dup2\n      dup2\n      sload\n      dup2\n      lt\n      tag_72\n      jumpi\n      0x00\n      dup1\n      revert\n    tag_72:\n      0x00\n      swap2\n      dup3\n      mstore\n      0x20\n      swap1\n      swap2\n      keccak256\n      add\n      sload\n      swap1\n      pop\n      dup2\n      jump\t// out\n        /* \"6-Array/DynamicArray.sol\":2116:2318  function popElement() public {... */\n    tag_43:\n        /* \"6-Array/DynamicArray.sol\":2302:2305  arr */\n      0x00\n        /* \"6-Array/DynamicArray.sol\":2302:2311  arr.pop() */\n      dup1\n      sload\n      dup1\n      tag_78\n      jumpi\n      tag_78\n      tag_79\n      jump\t// in\n    tag_78:\n      0x01\n      swap1\n      sub\n      dup2\n      dup2\n      swap1\n      0x00\n      mstore\n      keccak256(0x00, 0x20)\n      add\n      0x00\n      swap1\n      sstore\n      swap1\n      sstore\n        /* \"6-Array/DynamicArray.sol\":2116:2318  function popElement() public {... */\n      jump\t// out\n        /* \"6-Array/DynamicArray.sol\":4029:4121  function setElement(uint256 index, uint256 value) public {... */\n    tag_47:\n        /* \"6-Array/DynamicArray.sol\":4109:4114  value */\n      dup1\n        /* \"6-Array/DynamicArray.sol\":4096:4099  arr */\n      0x00\n        /* \"6-Array/DynamicArray.sol\":4100:4105  index */\n      dup4\n        /* \"6-Array/DynamicArray.sol\":4096:4106  arr[index] */\n      dup2\n      sload\n      dup2\n      lt\n      tag_83\n      jumpi\n      tag_83\n      tag_60\n      jump\t// in\n    tag_83:\n      0x00\n      swap2\n      dup3\n      mstore\n      0x20\n      swap1\n      swap2\n      keccak256\n      add\n        /* \"6-Array/DynamicArray.sol\":4096:4114  arr[index] = value */\n      sstore\n      pop\n      pop\n        /* \"6-Array/DynamicArray.sol\":4029:4121  function setElement(uint256 index, uint256 value) public {... */\n      jump\t// out\n        /* \"6-Array/DynamicArray.sol\":2856:3303  function printPopElement() public returns (uint256) {... */\n    tag_49:\n        /* \"6-Array/DynamicArray.sol\":2899:2906  uint256 */\n      0x00\n        /* \"6-Array/DynamicArray.sol\":2994:3004  arr.length */\n      dup1\n      sload\n        /* \"6-Array/DynamicArray.sol\":2899:2906  uint256 */\n      dup2\n      dup1\n        /* \"6-Array/DynamicArray.sol\":3123:3130  len - 1 */\n      tag_86\n        /* \"6-Array/DynamicArray.sol\":3129:3130  1 */\n      0x01\n        /* \"6-Array/DynamicArray.sol\":2994:3004  arr.length */\n      dup5\n        /* \"6-Array/DynamicArray.sol\":3123:3130  len - 1 */\n      tag_87\n      jump\t// in\n    tag_86:\n        /* \"6-Array/DynamicArray.sol\":3119:3131  arr[len - 1] */\n      dup2\n      sload\n      dup2\n      lt\n      tag_89\n      jumpi\n      tag_89\n      tag_60\n      jump\t// in\n    tag_89:\n      swap1\n      0x00\n      mstore\n      keccak256(0x00, 0x20)\n      add\n      sload\n        /* \"6-Array/DynamicArray.sol\":3105:3131  uint256 val = arr[len - 1] */\n      swap1\n      pop\n        /* \"6-Array/DynamicArray.sol\":3221:3224  arr */\n      0x00\n        /* \"6-Array/DynamicArray.sol\":3221:3230  arr.pop() */\n      dup1\n      sload\n      dup1\n      tag_92\n      jumpi\n      tag_92\n      tag_79\n      jump\t// in\n    tag_92:\n      0x01\n      swap1\n      sub\n      dup2\n      dup2\n      swap1\n      0x00\n      mstore\n      keccak256(0x00, 0x20)\n      add\n      0x00\n      swap1\n      sstore\n      swap1\n      sstore\n        /* \"6-Array/DynamicArray.sol\":3293:3296  val */\n      dup1\n        /* \"6-Array/DynamicArray.sol\":3286:3296  return val */\n      swap3\n      pop\n      pop\n      pop\n        /* \"6-Array/DynamicArray.sol\":2856:3303  function printPopElement() public returns (uint256) {... */\n      swap1\n      jump\t// out\n        /* \"6-Array/DynamicArray.sol\":4409:4541  function clearArray() public {... */\n    tag_52:\n        /* \"6-Array/DynamicArray.sol\":4448:4458  delete arr */\n      tag_95\n        /* \"6-Array/DynamicArray.sol\":4455:4458  arr */\n      0x00\n      dup1\n        /* \"6-Array/DynamicArray.sol\":4448:4458  delete arr */\n      tag_96\n      jump\t// in\n    tag_95:\n        /* \"6-Array/DynamicArray.sol\":4409:4541  function clearArray() public {... */\n      jump\t// out\n    tag_96:\n      pop\n      dup1\n      sload\n      0x00\n      dup3\n      sstore\n      swap1\n      0x00\n      mstore\n      keccak256(0x00, 0x20)\n      swap1\n      dup2\n      add\n      swap1\n      tag_98\n      swap2\n      swap1\n      tag_99\n      jump\t// in\n    tag_98:\n      pop\n      jump\t// out\n    tag_99:\n    tag_100:\n      dup1\n      dup3\n      gt\n      iszero\n      tag_101\n      jumpi\n      0x00\n      dup2\n      sstore\n      0x01\n      add\n      jump(tag_100)\n    tag_101:\n      pop\n      swap1\n      jump\t// out\n        /* \"#utility.yul\":196:807   */\n    tag_22:\n        /* \"#utility.yul\":386:388   */\n      0x20\n        /* \"#utility.yul\":398:419   */\n      dup1\n      dup3\n      mstore\n        /* \"#utility.yul\":468:481   */\n      dup3\n      mload\n        /* \"#utility.yul\":371:389   */\n      dup3\n      dup3\n      add\n        /* \"#utility.yul\":490:512   */\n      dup2\n      swap1\n      mstore\n        /* \"#utility.yul\":338:342   */\n      0x00\n      swap2\n        /* \"#utility.yul\":569:584   */\n      dup5\n      add\n      swap1\n        /* \"#utility.yul\":543:545   */\n      0x40\n        /* \"#utility.yul\":528:546   */\n      dup5\n      add\n      swap1\n        /* \"#utility.yul\":338:342   */\n      dup4\n        /* \"#utility.yul\":612:781   */\n    tag_106:\n        /* \"#utility.yul\":626:632   */\n      dup2\n        /* \"#utility.yul\":623:624   */\n      dup2\n        /* \"#utility.yul\":620:633   */\n      lt\n        /* \"#utility.yul\":612:781   */\n      iszero\n      tag_108\n      jumpi\n        /* \"#utility.yul\":687:700   */\n      dup4\n      mload\n        /* \"#utility.yul\":675:701   */\n      dup4\n      mstore\n        /* \"#utility.yul\":730:732   */\n      0x20\n        /* \"#utility.yul\":756:771   */\n      swap4\n      dup5\n      add\n      swap4\n        /* \"#utility.yul\":721:733   */\n      swap1\n      swap3\n      add\n      swap2\n        /* \"#utility.yul\":648:649   */\n      0x01\n        /* \"#utility.yul\":641:650   */\n      add\n        /* \"#utility.yul\":612:781   */\n      jump(tag_106)\n    tag_108:\n      pop\n        /* \"#utility.yul\":798:801   */\n      swap1\n      swap6\n        /* \"#utility.yul\":196:807   */\n      swap5\n      pop\n      pop\n      pop\n      pop\n      pop\n      jump\t// out\n        /* \"#utility.yul\":812:1038   */\n    tag_25:\n        /* \"#utility.yul\":871:877   */\n      0x00\n        /* \"#utility.yul\":924:926   */\n      0x20\n        /* \"#utility.yul\":912:921   */\n      dup3\n        /* \"#utility.yul\":903:910   */\n      dup5\n        /* \"#utility.yul\":899:922   */\n      sub\n        /* \"#utility.yul\":895:927   */\n      slt\n        /* \"#utility.yul\":892:944   */\n      iszero\n      tag_110\n      jumpi\n        /* \"#utility.yul\":940:941   */\n      0x00\n        /* \"#utility.yul\":937:938   */\n      0x00\n        /* \"#utility.yul\":930:942   */\n      revert\n        /* \"#utility.yul\":892:944   */\n    tag_110:\n      pop\n        /* \"#utility.yul\":985:1008   */\n      calldataload\n      swap2\n        /* \"#utility.yul\":812:1038   */\n      swap1\n      pop\n      jump\t// out\n        /* \"#utility.yul\":1235:1581   */\n    tag_46:\n        /* \"#utility.yul\":1303:1309   */\n      0x00\n        /* \"#utility.yul\":1311:1317   */\n      0x00\n        /* \"#utility.yul\":1364:1366   */\n      0x40\n        /* \"#utility.yul\":1352:1361   */\n      dup4\n        /* \"#utility.yul\":1343:1350   */\n      dup6\n        /* \"#utility.yul\":1339:1362   */\n      sub\n        /* \"#utility.yul\":1335:1367   */\n      slt\n        /* \"#utility.yul\":1332:1384   */\n      iszero\n      tag_113\n      jumpi\n        /* \"#utility.yul\":1380:1381   */\n      0x00\n        /* \"#utility.yul\":1377:1378   */\n      0x00\n        /* \"#utility.yul\":1370:1382   */\n      revert\n        /* \"#utility.yul\":1332:1384   */\n    tag_113:\n      pop\n      pop\n        /* \"#utility.yul\":1425:1448   */\n      dup1\n      calldataload\n      swap3\n        /* \"#utility.yul\":1545:1547   */\n      0x20\n        /* \"#utility.yul\":1530:1548   */\n      swap1\n      swap2\n      add\n        /* \"#utility.yul\":1517:1549   */\n      calldataload\n      swap2\n      pop\n        /* \"#utility.yul\":1235:1581   */\n      jump\t// out\n        /* \"#utility.yul\":1586:1713   */\n    tag_60:\n        /* \"#utility.yul\":1647:1657   */\n      0x4e487b71\n        /* \"#utility.yul\":1642:1645   */\n      0xe0\n        /* \"#utility.yul\":1638:1658   */\n      shl\n        /* \"#utility.yul\":1635:1636   */\n      0x00\n        /* \"#utility.yul\":1628:1659   */\n      mstore\n        /* \"#utility.yul\":1678:1682   */\n      0x32\n        /* \"#utility.yul\":1675:1676   */\n      0x04\n        /* \"#utility.yul\":1668:1683   */\n      mstore\n        /* \"#utility.yul\":1702:1706   */\n      0x24\n        /* \"#utility.yul\":1699:1700   */\n      0x00\n        /* \"#utility.yul\":1692:1707   */\n      revert\n        /* \"#utility.yul\":1718:1845   */\n    tag_102:\n        /* \"#utility.yul\":1779:1789   */\n      0x4e487b71\n        /* \"#utility.yul\":1774:1777   */\n      0xe0\n        /* \"#utility.yul\":1770:1790   */\n      shl\n        /* \"#utility.yul\":1767:1768   */\n      0x00\n        /* \"#utility.yul\":1760:1791   */\n      mstore\n        /* \"#utility.yul\":1810:1814   */\n      0x11\n        /* \"#utility.yul\":1807:1808   */\n      0x04\n        /* \"#utility.yul\":1800:1815   */\n      mstore\n        /* \"#utility.yul\":1834:1838   */\n      0x24\n        /* \"#utility.yul\":1831:1832   */\n      0x00\n        /* \"#utility.yul\":1824:1839   */\n      revert\n        /* \"#utility.yul\":1850:1975   */\n    tag_70:\n        /* \"#utility.yul\":1915:1924   */\n      dup1\n      dup3\n      add\n        /* \"#utility.yul\":1936:1946   */\n      dup1\n      dup3\n      gt\n        /* \"#utility.yul\":1933:1969   */\n      iszero\n      tag_118\n      jumpi\n        /* \"#utility.yul\":1949:1967   */\n      tag_118\n      tag_102\n      jump\t// in\n    tag_118:\n        /* \"#utility.yul\":1850:1975   */\n      swap3\n      swap2\n      pop\n      pop\n      jump\t// out\n        /* \"#utility.yul\":1980:2107   */\n    tag_79:\n        /* \"#utility.yul\":2041:2051   */\n      0x4e487b71\n        /* \"#utility.yul\":2036:2039   */\n      0xe0\n        /* \"#utility.yul\":2032:2052   */\n      shl\n        /* \"#utility.yul\":2029:2030   */\n      0x00\n        /* \"#utility.yul\":2022:2053   */\n      mstore\n        /* \"#utility.yul\":2072:2076   */\n      0x31\n        /* \"#utility.yul\":2069:2070   */\n      0x04\n        /* \"#utility.yul\":2062:2077   */\n      mstore\n        /* \"#utility.yul\":2096:2100   */\n      0x24\n        /* \"#utility.yul\":2093:2094   */\n      0x00\n        /* \"#utility.yul\":2086:2101   */\n      revert\n        /* \"#utility.yul\":2112:2240   */\n    tag_87:\n        /* \"#utility.yul\":2179:2188   */\n      dup2\n      dup2\n      sub\n        /* \"#utility.yul\":2200:2211   */\n      dup2\n      dup2\n      gt\n        /* \"#utility.yul\":2197:2234   */\n      iszero\n      tag_118\n      jumpi\n        /* \"#utility.yul\":2214:2232   */\n      tag_118\n      tag_102\n      jump\t// in\n\n    auxdata: 0xa2646970667358221220ee7ce888d9ba8a5e4d01ddc19f00f19904d2ae12b0db65e62b54e08a4958909b64736f6c634300081e0033\n}\n",
				"bytecode": {
					"linkReferences": {},
					"object": "6080604052348015600e575f5ffd5b5061044f8061001c5f395ff3fe608060405234801561000f575f5ffd5b50600436106100a6575f3560e01c806371e5ee5f1161006e57806371e5ee5f1461010157806378321efb146101145780639a6fcbdd14610155578063a16e72151461015d578063d5c22bef14610170578063e80b7ab614610178575f5ffd5b80631f7b6d32146100aa578063280ca666146100c05780633a7d22bc146100d5578063569c5f6d146100e8578063681fe70c146100f0575b5f5ffd5b5f545b6040519081526020015b60405180910390f35b6100c8610180565b6040516100b79190610338565b6100ad6100e336600461037a565b6101d5565b6100ad6101f8565b5f54604051901581526020016100b7565b6100ad61010f36600461037a565b61023b565b61015361012236600461037a565b5f80546001810182559080527f290decd9548b62a8d60345a988386fc84ba6bc95484008f6362f93160ef3e5630155565b005b610153610259565b61015361016b366004610391565b61027e565b6100ad6102a0565b6101536102f6565b60605f8054806020026020016040519081016040528092919081815260200182805480156101cb57602002820191905f5260205f20905b8154815260200190600101908083116101b7575b5050505050905090565b5f5f82815481106101e8576101e86103b1565b905f5260205f2001549050919050565b5f80805b5f54811015610235575f8181548110610217576102176103b1565b905f5260205f2001548261022b91906103d9565b91506001016101fc565b50919050565b5f8181548110610249575f80fd5b5f91825260209091200154905081565b5f805480610269576102696103f2565b600190038181905f5260205f20015f90559055565b805f8381548110610291576102916103b1565b5f918252602090912001555050565b5f805481806102b0600184610406565b815481106102c0576102c06103b1565b905f5260205f20015490505f8054806102db576102db6103f2565b600190038181905f5260205f20015f90559055809250505090565b6103005f80610302565b565b5080545f8255905f5260205f209081019061031d9190610320565b50565b5b80821115610334575f8155600101610321565b5090565b602080825282518282018190525f918401906040840190835b8181101561036f578351835260209384019390920191600101610351565b509095945050505050565b5f6020828403121561038a575f5ffd5b5035919050565b5f5f604083850312156103a2575f5ffd5b50508035926020909101359150565b634e487b7160e01b5f52603260045260245ffd5b634e487b7160e01b5f52601160045260245ffd5b808201808211156103ec576103ec6103c5565b92915050565b634e487b7160e01b5f52603160045260245ffd5b818103818111156103ec576103ec6103c556fea2646970667358221220ee7ce888d9ba8a5e4d01ddc19f00f19904d2ae12b0db65e62b54e08a4958909b64736f6c634300081e0033",
					"opcodes": "PUSH1 0x80 PUSH1 0x40 MSTORE CALLVALUE DUP1 ISZERO PUSH1 0xE JUMPI PUSH0 PUSH0 REVERT JUMPDEST POP PUSH2 0x44F DUP1 PUSH2 0x1C PUSH0 CODECOPY PUSH0 RETURN INVALID PUSH1 0x80 PUSH1 0x40 MSTORE CALLVALUE DUP1 ISZERO PUSH2 0xF JUMPI PUSH0 PUSH0 REVERT JUMPDEST POP PUSH1 0x4 CALLDATASIZE LT PUSH2 0xA6 JUMPI PUSH0 CALLDATALOAD PUSH1 0xE0 SHR DUP1 PUSH4 0x71E5EE5F GT PUSH2 0x6E JUMPI DUP1 PUSH4 0x71E5EE5F EQ PUSH2 0x101 JUMPI DUP1 PUSH4 0x78321EFB EQ PUSH2 0x114 JUMPI DUP1 PUSH4 0x9A6FCBDD EQ PUSH2 0x155 JUMPI DUP1 PUSH4 0xA16E7215 EQ PUSH2 0x15D JUMPI DUP1 PUSH4 0xD5C22BEF EQ PUSH2 0x170 JUMPI DUP1 PUSH4 0xE80B7AB6 EQ PUSH2 0x178 JUMPI PUSH0 PUSH0 REVERT JUMPDEST DUP1 PUSH4 0x1F7B6D32 EQ PUSH2 0xAA JUMPI DUP1 PUSH4 0x280CA666 EQ PUSH2 0xC0 JUMPI DUP1 PUSH4 0x3A7D22BC EQ PUSH2 0xD5 JUMPI DUP1 PUSH4 0x569C5F6D EQ PUSH2 0xE8 JUMPI DUP1 PUSH4 0x681FE70C EQ PUSH2 0xF0 JUMPI JUMPDEST PUSH0 PUSH0 REVERT JUMPDEST PUSH0 SLOAD JUMPDEST PUSH1 0x40 MLOAD SWAP1 DUP2 MSTORE PUSH1 0x20 ADD JUMPDEST PUSH1 0x40 MLOAD DUP1 SWAP2 SUB SWAP1 RETURN JUMPDEST PUSH2 0xC8 PUSH2 0x180 JUMP JUMPDEST PUSH1 0x40 MLOAD PUSH2 0xB7 SWAP2 SWAP1 PUSH2 0x338 JUMP JUMPDEST PUSH2 0xAD PUSH2 0xE3 CALLDATASIZE PUSH1 0x4 PUSH2 0x37A JUMP JUMPDEST PUSH2 0x1D5 JUMP JUMPDEST PUSH2 0xAD PUSH2 0x1F8 JUMP JUMPDEST PUSH0 SLOAD PUSH1 0x40 MLOAD SWAP1 ISZERO DUP2 MSTORE PUSH1 0x20 ADD PUSH2 0xB7 JUMP JUMPDEST PUSH2 0xAD PUSH2 0x10F CALLDATASIZE PUSH1 0x4 PUSH2 0x37A JUMP JUMPDEST PUSH2 0x23B JUMP JUMPDEST PUSH2 0x153 PUSH2 0x122 CALLDATASIZE PUSH1 0x4 PUSH2 0x37A JUMP JUMPDEST PUSH0 DUP1 SLOAD PUSH1 0x1 DUP2 ADD DUP3 SSTORE SWAP1 DUP1 MSTORE PUSH32 0x290DECD9548B62A8D60345A988386FC84BA6BC95484008F6362F93160EF3E563 ADD SSTORE JUMP JUMPDEST STOP JUMPDEST PUSH2 0x153 PUSH2 0x259 JUMP JUMPDEST PUSH2 0x153 PUSH2 0x16B CALLDATASIZE PUSH1 0x4 PUSH2 0x391 JUMP JUMPDEST PUSH2 0x27E JUMP JUMPDEST PUSH2 0xAD PUSH2 0x2A0 JUMP JUMPDEST PUSH2 0x153 PUSH2 0x2F6 JUMP JUMPDEST PUSH1 0x60 PUSH0 DUP1 SLOAD DUP1 PUSH1 0x20 MUL PUSH1 0x20 ADD PUSH1 0x40 MLOAD SWAP1 DUP2 ADD PUSH1 0x40 MSTORE DUP1 SWAP3 SWAP2 SWAP1 DUP2 DUP2 MSTORE PUSH1 0x20 ADD DUP3 DUP1 SLOAD DUP1 ISZERO PUSH2 0x1CB JUMPI PUSH1 0x20 MUL DUP3 ADD SWAP2 SWAP1 PUSH0 MSTORE PUSH1 0x20 PUSH0 KECCAK256 SWAP1 JUMPDEST DUP2 SLOAD DUP2 MSTORE PUSH1 0x20 ADD SWAP1 PUSH1 0x1 ADD SWAP1 DUP1 DUP4 GT PUSH2 0x1B7 JUMPI JUMPDEST POP POP POP POP POP SWAP1 POP SWAP1 JUMP JUMPDEST PUSH0 PUSH0 DUP3 DUP2 SLOAD DUP2 LT PUSH2 0x1E8 JUMPI PUSH2 0x1E8 PUSH2 0x3B1 JUMP JUMPDEST SWAP1 PUSH0 MSTORE PUSH1 0x20 PUSH0 KECCAK256 ADD SLOAD SWAP1 POP SWAP2 SWAP1 POP JUMP JUMPDEST PUSH0 DUP1 DUP1 JUMPDEST PUSH0 SLOAD DUP2 LT ISZERO PUSH2 0x235 JUMPI PUSH0 DUP2 DUP2 SLOAD DUP2 LT PUSH2 0x217 JUMPI PUSH2 0x217 PUSH2 0x3B1 JUMP JUMPDEST SWAP1 PUSH0 MSTORE PUSH1 0x20 PUSH0 KECCAK256 ADD SLOAD DUP3 PUSH2 0x22B SWAP2 SWAP1 PUSH2 0x3D9 JUMP JUMPDEST SWAP2 POP PUSH1 0x1 ADD PUSH2 0x1FC JUMP JUMPDEST POP SWAP2 SWAP1 POP JUMP JUMPDEST PUSH0 DUP2 DUP2 SLOAD DUP2 LT PUSH2 0x249 JUMPI PUSH0 DUP1 REVERT JUMPDEST PUSH0 SWAP2 DUP3 MSTORE PUSH1 0x20 SWAP1 SWAP2 KECCAK256 ADD SLOAD SWAP1 POP DUP2 JUMP JUMPDEST PUSH0 DUP1 SLOAD DUP1 PUSH2 0x269 JUMPI PUSH2 0x269 PUSH2 0x3F2 JUMP JUMPDEST PUSH1 0x1 SWAP1 SUB DUP2 DUP2 SWAP1 PUSH0 MSTORE PUSH1 0x20 PUSH0 KECCAK256 ADD PUSH0 SWAP1 SSTORE SWAP1 SSTORE JUMP JUMPDEST DUP1 PUSH0 DUP4 DUP2 SLOAD DUP2 LT PUSH2 0x291 JUMPI PUSH2 0x291 PUSH2 0x3B1 JUMP JUMPDEST PUSH0 SWAP2 DUP3 MSTORE PUSH1 0x20 SWAP1 SWAP2 KECCAK256 ADD SSTORE POP POP JUMP JUMPDEST PUSH0 DUP1 SLOAD DUP2 DUP1 PUSH2 0x2B0 PUSH1 0x1 DUP5 PUSH2 0x406 JUMP JUMPDEST DUP2 SLOAD DUP2 LT PUSH2 0x2C0 JUMPI PUSH2 0x2C0 PUSH2 0x3B1 JUMP JUMPDEST SWAP1 PUSH0 MSTORE PUSH1 0x20 PUSH0 KECCAK256 ADD SLOAD SWAP1 POP PUSH0 DUP1 SLOAD DUP1 PUSH2 0x2DB JUMPI PUSH2 0x2DB PUSH2 0x3F2 JUMP JUMPDEST PUSH1 0x1 SWAP1 SUB DUP2 DUP2 SWAP1 PUSH0 MSTORE PUSH1 0x20 PUSH0 KECCAK256 ADD PUSH0 SWAP1 SSTORE SWAP1 SSTORE DUP1 SWAP3 POP POP POP SWAP1 JUMP JUMPDEST PUSH2 0x300 PUSH0 DUP1 PUSH2 0x302 JUMP JUMPDEST JUMP JUMPDEST POP DUP1 SLOAD PUSH0 DUP3 SSTORE SWAP1 PUSH0 MSTORE PUSH1 0x20 PUSH0 KECCAK256 SWAP1 DUP2 ADD SWAP1 PUSH2 0x31D SWAP2 SWAP1 PUSH2 0x320 JUMP JUMPDEST POP JUMP JUMPDEST JUMPDEST DUP1 DUP3 GT ISZERO PUSH2 0x334 JUMPI PUSH0 DUP2 SSTORE PUSH1 0x1 ADD PUSH2 0x321 JUMP JUMPDEST POP SWAP1 JUMP JUMPDEST PUSH1 0x20 DUP1 DUP3 MSTORE DUP3 MLOAD DUP3 DUP3 ADD DUP2 SWAP1 MSTORE PUSH0 SWAP2 DUP5 ADD SWAP1 PUSH1 0x40 DUP5 ADD SWAP1 DUP4 JUMPDEST DUP2 DUP2 LT ISZERO PUSH2 0x36F JUMPI DUP4 MLOAD DUP4 MSTORE PUSH1 0x20 SWAP4 DUP5 ADD SWAP4 SWAP1 SWAP3 ADD SWAP2 PUSH1 0x1 ADD PUSH2 0x351 JUMP JUMPDEST POP SWAP1 SWAP6 SWAP5 POP POP POP POP POP JUMP JUMPDEST PUSH0 PUSH1 0x20 DUP3 DUP5 SUB SLT ISZERO PUSH2 0x38A JUMPI PUSH0 PUSH0 REVERT JUMPDEST POP CALLDATALOAD SWAP2 SWAP1 POP JUMP JUMPDEST PUSH0 PUSH0 PUSH1 0x40 DUP4 DUP6 SUB SLT ISZERO PUSH2 0x3A2 JUMPI PUSH0 PUSH0 REVERT JUMPDEST POP POP DUP1 CALLDATALOAD SWAP3 PUSH1 0x20 SWAP1 SWAP2 ADD CALLDATALOAD SWAP2 POP JUMP JUMPDEST PUSH4 0x4E487B71 PUSH1 0xE0 SHL PUSH0 MSTORE PUSH1 0x32 PUSH1 0x4 MSTORE PUSH1 0x24 PUSH0 REVERT JUMPDEST PUSH4 0x4E487B71 PUSH1 0xE0 SHL PUSH0 MSTORE PUSH1 0x11 PUSH1 0x4 MSTORE PUSH1 0x24 PUSH0 REVERT JUMPDEST DUP1 DUP3 ADD DUP1 DUP3 GT ISZERO PUSH2 0x3EC JUMPI PUSH2 0x3EC PUSH2 0x3C5 JUMP JUMPDEST SWAP3 SWAP2 POP POP JUMP JUMPDEST PUSH4 0x4E487B71 PUSH1 0xE0 SHL PUSH0 MSTORE PUSH1 0x31 PUSH1 0x4 MSTORE PUSH1 0x24 PUSH0 REVERT JUMPDEST DUP2 DUP2 SUB DUP2 DUP2 GT ISZERO PUSH2 0x3EC JUMPI PUSH2 0x3EC PUSH2 0x3C5 JUMP INVALID LOG2 PUSH5 0x6970667358 0x22 SLT KECCAK256 RETURNCONTRACT 0x7C 0xE8 DUP9 0xD9 0xBA DUP11 MCOPY 0x4D ADD 0xDD 0xC1 SWAP16 STOP CALL SWAP10 DIV 0xD2 0xAE SLT 0xB0 0xDB PUSH6 0xE62B54E08A49 PC SWAP1 SWAP12 PUSH5 0x736F6C6343 STOP ADDMOD 0x1E STOP CALLER "
				},
				"gasEstimates": {
					"creation": {
						"codeDepositCost": "220600",
						"executionCost": "261",
						"totalCost": "220861"
					},
					"external": {
						"arr(uint256)": "4560",
						"clearArray()": "infinite",
						"getAllElements()": "infinite",
						"getElement(uint256)": "4605",
						"getSum()": "infinite",
						"isEmpty()": "2370",
						"length()": "2269",
						"popElement()": "29484",
						"printPopElement()": "36055",
						"pushElement(uint256)": "46561",
						"setElement(uint256,uint256)": "24601"
					}
				},
				"methodIdentifiers": {
					"arr(uint256)": "71e5ee5f",
					"clearArray()": "e80b7ab6",
					"getAllElements()": "280ca666",
					"getElement(uint256)": "3a7d22bc",
					"getSum()": "569c5f6d",
					"isEmpty()": "681fe70c",
					"length()": "1f7b6d32",
					"popElement()": "9a6fcbdd",
					"printPopElement()": "d5c22bef",
					"pushElement(uint256)": "78321efb",
					"setElement(uint256,uint256)": "a16e7215"
				}
			},
			"storageLayout": {
				"storage": [
					{
						"astId": 6,
						"contract": "6-Array/DynamicArray.sol:arrays",
						"label": "arr",
						"offset": 0,
						"slot": "0",
						"type": "t_array(t_uint256)dyn_storage"
					}
				],
				"types": {
					"t_array(t_uint256)dyn_storage": {
						"base": "t_uint256",
						"encoding": "dynamic_array",
						"label": "uint256[]",
						"numberOfBytes": "32"
					},
					"t_uint256": {
						"encoding": "inplace",
						"label": "uint256",
						"numberOfBytes": "32"
					}
				}
			},
			"userdoc": {
				"kind": "user",
				"methods": {
					"arr(uint256)": {
						"notice": "No size specified in the declaration (contrasts with fixed-size arrays like uint256[4])Public visibility automatically generates a getter functionInitially empty (length = 0)Stored in storage, so modifications persist between transactions"
					},
					"clearArray()": {
						"notice": "Sets the array length to 0, effectively clearing itMore gas efficient than popping all elements individuallyStorage slots are not actually cleared (just marked as unused)"
					},
					"getAllElements()": {
						"notice": "Returns a copy of the current arrayFor large arrays, this can consume significant gasThe returned array is in memory, not storage"
					},
					"getElement(uint256)": {
						"notice": "Demonstrates array element accessReverts if index is out of bounds (>= arr.length)"
					},
					"getSum()": {
						"notice": "Demonstrates iterating through a dynamic arrayGas cost grows with array size (O(n) complexity)Could hit block gas limit for very large arrays"
					},
					"isEmpty()": {
						"notice": "More readable than checking if length == 0"
					},
					"length()": {
						"notice": "For dynamic arrays, length can change with each push/pop operationView function - doesn't modify contract state, no gas cost when called externally"
					},
					"popElement()": {
						"notice": "Uses the pop() method which removes the last element and decreases length by 1Time complexity: O(1)Reverts if called on an empty arrayDoesn't return the removed value (use printPopElement() if you need the value)"
					},
					"printPopElement()": {
						"notice": "Combines the functionality of peek (get last element) and popMore gas efficient than calling length() and arr[length-1] separatelyReverts if called on an empty array"
					},
					"pushElement(uint256)": {
						"notice": "Uses the push() method which appends to the end and increases length by 1Time complexity: O(1) for single element (amortized, as storage may need to be extended)Gas cost increases with array size due to storage expansion costs"
					},
					"setElement(uint256,uint256)": {
						"notice": "Demonstrates modifying array elementsReverts if index is out of bounds (>= arr.length)"
					}
				},
				"notice": "Dynamic arrays can grow and shrink in size at runtimeUnlike fixed-size arrays, their length is not determined at compile timeUseful when the number of elements is unknown or variable",
				"version": 1
			}
		}
	}
}