{
	"6-Data Types/overflow.sol": {
		"overflow": {
			"abi": [
				{
					"inputs": [],
					"name": "decrement",
					"outputs": [],
					"stateMutability": "nonpayable",
					"type": "function"
				},
				{
					"inputs": [],
					"name": "getMoney",
					"outputs": [
						{
							"internalType": "uint8",
							"name": "",
							"type": "uint8"
						}
					],
					"stateMutability": "view",
					"type": "function"
				},
				{
					"inputs": [],
					"name": "money",
					"outputs": [
						{
							"internalType": "uint8",
							"name": "",
							"type": "uint8"
						}
					],
					"stateMutability": "view",
					"type": "function"
				},
				{
					"inputs": [],
					"name": "resetToMax",
					"outputs": [],
					"stateMutability": "nonpayable",
					"type": "function"
				},
				{
					"inputs": [],
					"name": "safeSetter",
					"outputs": [],
					"stateMutability": "nonpayable",
					"type": "function"
				},
				{
					"inputs": [],
					"name": "setter",
					"outputs": [],
					"stateMutability": "nonpayable",
					"type": "function"
				},
				{
					"inputs": [],
					"name": "uncheckedSetter",
					"outputs": [
						{
							"internalType": "uint8",
							"name": "",
							"type": "uint8"
						}
					],
					"stateMutability": "nonpayable",
					"type": "function"
				}
			],
			"devdoc": {
				"details": "Shows how Solidity 0.8.0+ handles integer overflow",
				"kind": "dev",
				"methods": {
					"decrement()": {
						"details": "Function to demonstrate underflow protection"
					},
					"getMoney()": {
						"details": "Function to get the current value",
						"returns": {
							"_0": "The current value of money"
						}
					},
					"resetToMax()": {
						"details": "Function to reset the value to maximum"
					},
					"safeSetter()": {
						"details": "Function that demonstrates safe increment with require check"
					},
					"setter()": {
						"details": "Function that attempts to increment money by 1IMPORTANT: In production code, you should handle this case gracefully       or use SafeMath library for more control over error messages"
					},
					"uncheckedSetter()": {
						"details": "Function that demonstrates using unchecked block to allow overflow",
						"returns": {
							"_0": "The new value after potential overflow"
						}
					}
				},
				"stateVariables": {
					"money": {
						"details": "Unsigned 8-bit integer initialized to maximum value (255)"
					}
				},
				"title": "Integer Overflow Demonstration",
				"version": 1
			},
			"evm": {
				"assembly": "    /* \"6-Data Types/overflow.sol\":463:3284  contract overflow {... */\n  mstore(0x40, 0x80)\n    /* \"6-Data Types/overflow.sol\":707:731  uint8 public money = 255 */\n  0x00\n  dup1\n  sload\n  not(0xff)\n  and\n    /* \"6-Data Types/overflow.sol\":728:731  255 */\n  0xff\n    /* \"6-Data Types/overflow.sol\":707:731  uint8 public money = 255 */\n  or\n  swap1\n  sstore\n    /* \"6-Data Types/overflow.sol\":463:3284  contract overflow {... */\n  callvalue\n  dup1\n  iszero\n  tag_1\n  jumpi\n  revert(0x00, 0x00)\ntag_1:\n  pop\n  dataSize(sub_0)\n  dup1\n  dataOffset(sub_0)\n  0x00\n  codecopy\n  0x00\n  return\nstop\n\nsub_0: assembly {\n        /* \"6-Data Types/overflow.sol\":463:3284  contract overflow {... */\n      mstore(0x40, 0x80)\n      callvalue\n      dup1\n      iszero\n      tag_1\n      jumpi\n      revert(0x00, 0x00)\n    tag_1:\n      pop\n      jumpi(tag_2, lt(calldatasize, 0x04))\n      shr(0xe0, calldataload(0x00))\n      dup1\n      0x3f3108f7\n      gt\n      tag_10\n      jumpi\n      dup1\n      0x3f3108f7\n      eq\n      tag_6\n      jumpi\n      dup1\n      0x4ddd108a\n      eq\n      tag_7\n      jumpi\n      dup1\n      0x80945bfb\n      eq\n      tag_8\n      jumpi\n      dup1\n      0x98e1b410\n      eq\n      tag_9\n      jumpi\n      revert(0x00, 0x00)\n    tag_10:\n      dup1\n      0x01efc450\n      eq\n      tag_3\n      jumpi\n      dup1\n      0x2baeceb7\n      eq\n      tag_4\n      jumpi\n      dup1\n      0x3db598b0\n      eq\n      tag_5\n      jumpi\n    tag_2:\n      revert(0x00, 0x00)\n        /* \"6-Data Types/overflow.sol\":2385:2629  function uncheckedSetter() public returns (uint8) {... */\n    tag_3:\n      tag_11\n        /* \"6-Data Types/overflow.sol\":2428:2433  uint8 */\n      0x00\n        /* \"6-Data Types/overflow.sol\":2581:2586  money */\n      dup1\n      sload\n      0xff\n      dup1\n      dup3\n      and\n      0x01\n        /* \"6-Data Types/overflow.sol\":2581:2590  money + 1 */\n      add\n        /* \"6-Data Types/overflow.sol\":2573:2590  money = money + 1 */\n      and\n      not(0xff)\n      swap1\n      swap2\n      and\n      dup2\n      or\n      swap1\n      swap2\n      sstore\n      swap1\n        /* \"6-Data Types/overflow.sol\":2385:2629  function uncheckedSetter() public returns (uint8) {... */\n      jump\n    tag_11:\n      mload(0x40)\n        /* \"#utility.yul\":186:190   */\n      0xff\n        /* \"#utility.yul\":174:191   */\n      swap1\n      swap2\n      and\n        /* \"#utility.yul\":156:192   */\n      dup2\n      mstore\n        /* \"#utility.yul\":144:146   */\n      0x20\n        /* \"#utility.yul\":129:147   */\n      add\n        /* \"6-Data Types/overflow.sol\":2385:2629  function uncheckedSetter() public returns (uint8) {... */\n      mload(0x40)\n      dup1\n      swap2\n      sub\n      swap1\n      return\n        /* \"6-Data Types/overflow.sol\":3033:3095  function decrement() public {... */\n    tag_4:\n      tag_15\n      tag_16\n      jump\t// in\n    tag_15:\n      stop\n        /* \"6-Data Types/overflow.sol\":2773:2830  function resetToMax() public {... */\n    tag_5:\n      tag_15\n        /* \"6-Data Types/overflow.sol\":2812:2817  money */\n      0x00\n        /* \"6-Data Types/overflow.sol\":2812:2823  money = 255 */\n      dup1\n      sload\n      not(0xff)\n      and\n        /* \"6-Data Types/overflow.sol\":2820:2823  255 */\n      0xff\n        /* \"6-Data Types/overflow.sol\":2812:2823  money = 255 */\n      or\n      swap1\n      sstore\n        /* \"6-Data Types/overflow.sol\":2773:2830  function resetToMax() public {... */\n      jump\n        /* \"6-Data Types/overflow.sol\":1242:1548  function setter() public {... */\n    tag_6:\n      tag_15\n      tag_20\n      jump\t// in\n        /* \"6-Data Types/overflow.sol\":707:731  uint8 public money = 255 */\n    tag_7:\n      sload(0x00)\n      tag_11\n      swap1\n      0xff\n      and\n      dup2\n      jump\n        /* \"6-Data Types/overflow.sol\":1844:1994  function safeSetter() public {... */\n    tag_8:\n      tag_15\n      tag_25\n      jump\t// in\n        /* \"6-Data Types/overflow.sol\":3205:3282  function getMoney() public view returns (uint8) {... */\n    tag_9:\n        /* \"6-Data Types/overflow.sol\":3246:3251  uint8 */\n      0x00\n        /* \"6-Data Types/overflow.sol\":3270:3275  money */\n      sload\n      0xff\n      and\n        /* \"6-Data Types/overflow.sol\":3205:3282  function getMoney() public view returns (uint8) {... */\n      jump(tag_11)\n        /* \"6-Data Types/overflow.sol\":3033:3095  function decrement() public {... */\n    tag_16:\n        /* \"6-Data Types/overflow.sol\":3079:3084  money */\n      sload(0x00)\n        /* \"6-Data Types/overflow.sol\":3079:3088  money - 1 */\n      tag_31\n      swap1\n        /* \"6-Data Types/overflow.sol\":3087:3088  1 */\n      0x01\n      swap1\n        /* \"6-Data Types/overflow.sol\":3079:3084  money */\n      0xff\n      and\n        /* \"6-Data Types/overflow.sol\":3079:3088  money - 1 */\n      tag_32\n      jump\t// in\n    tag_31:\n        /* \"6-Data Types/overflow.sol\":3071:3076  money */\n      0x00\n        /* \"6-Data Types/overflow.sol\":3071:3088  money = money - 1 */\n      dup1\n      sload\n      not(0xff)\n      and\n      0xff\n      swap3\n      swap1\n      swap3\n      and\n      swap2\n      swap1\n      swap2\n      or\n      swap1\n      sstore\n        /* \"6-Data Types/overflow.sol\":3033:3095  function decrement() public {... */\n      jump\t// out\n        /* \"6-Data Types/overflow.sol\":1242:1548  function setter() public {... */\n    tag_20:\n        /* \"6-Data Types/overflow.sol\":1432:1437  money */\n      sload(0x00)\n        /* \"6-Data Types/overflow.sol\":1432:1441  money + 1 */\n      tag_31\n      swap1\n        /* \"6-Data Types/overflow.sol\":1432:1437  money */\n      0xff\n      and\n      0x01\n        /* \"6-Data Types/overflow.sol\":1432:1441  money + 1 */\n      tag_36\n      jump\t// in\n        /* \"6-Data Types/overflow.sol\":1844:1994  function safeSetter() public {... */\n    tag_25:\n        /* \"6-Data Types/overflow.sol\":1891:1896  money */\n      sload(0x00)\n        /* \"6-Data Types/overflow.sol\":1899:1902  255 */\n      0xff\n        /* \"6-Data Types/overflow.sol\":1891:1896  money */\n      swap1\n      dup2\n      and\n        /* \"6-Data Types/overflow.sol\":1891:1902  money < 255 */\n      lt\n        /* \"6-Data Types/overflow.sol\":1883:1960  require(money < 255, \"Overflow: Cannot increment beyond maximum uint8 value\") */\n      tag_20\n      jumpi\n      mload(0x40)\n      shl(0xe5, 0x461bcd)\n      dup2\n      mstore\n        /* \"#utility.yul\":846:848   */\n      0x20\n        /* \"6-Data Types/overflow.sol\":1883:1960  require(money < 255, \"Overflow: Cannot increment beyond maximum uint8 value\") */\n      0x04\n      dup3\n      add\n        /* \"#utility.yul\":828:849   */\n      mstore\n        /* \"#utility.yul\":885:887   */\n      0x35\n        /* \"#utility.yul\":865:883   */\n      0x24\n      dup3\n      add\n        /* \"#utility.yul\":858:888   */\n      mstore\n        /* \"#utility.yul\":924:958   */\n      0x4f766572666c6f773a2043616e6e6f7420696e6372656d656e74206265796f6e\n        /* \"#utility.yul\":904:922   */\n      0x44\n      dup3\n      add\n        /* \"#utility.yul\":897:959   */\n      mstore\n      shl(0x58, 0x64206d6178696d756d2075696e74382076616c7565)\n        /* \"#utility.yul\":975:993   */\n      0x64\n      dup3\n      add\n        /* \"#utility.yul\":968:1019   */\n      mstore\n        /* \"#utility.yul\":1036:1055   */\n      0x84\n      add\n        /* \"6-Data Types/overflow.sol\":1883:1960  require(money < 255, \"Overflow: Cannot increment beyond maximum uint8 value\") */\n      mload(0x40)\n      dup1\n      swap2\n      sub\n      swap1\n      revert\n        /* \"#utility.yul\":203:330   */\n    tag_43:\n        /* \"#utility.yul\":264:274   */\n      0x4e487b71\n        /* \"#utility.yul\":259:262   */\n      0xe0\n        /* \"#utility.yul\":255:275   */\n      shl\n        /* \"#utility.yul\":252:253   */\n      0x00\n        /* \"#utility.yul\":245:276   */\n      mstore\n        /* \"#utility.yul\":295:299   */\n      0x11\n        /* \"#utility.yul\":292:293   */\n      0x04\n        /* \"#utility.yul\":285:300   */\n      mstore\n        /* \"#utility.yul\":319:323   */\n      0x24\n        /* \"#utility.yul\":316:317   */\n      0x00\n        /* \"#utility.yul\":309:324   */\n      revert\n        /* \"#utility.yul\":335:486   */\n    tag_32:\n        /* \"#utility.yul\":425:429   */\n      0xff\n        /* \"#utility.yul\":418:430   */\n      dup3\n      dup2\n      and\n        /* \"#utility.yul\":404:416   */\n      dup3\n      dup3\n      and\n        /* \"#utility.yul\":400:431   */\n      sub\n      swap1\n        /* \"#utility.yul\":443:457   */\n      dup2\n      gt\n        /* \"#utility.yul\":440:480   */\n      iszero\n      tag_49\n      jumpi\n        /* \"#utility.yul\":460:478   */\n      tag_49\n      tag_43\n      jump\t// in\n    tag_49:\n        /* \"#utility.yul\":335:486   */\n      swap3\n      swap2\n      pop\n      pop\n      jump\t// out\n        /* \"#utility.yul\":491:639   */\n    tag_36:\n        /* \"#utility.yul\":579:583   */\n      0xff\n        /* \"#utility.yul\":558:570   */\n      dup2\n      dup2\n      and\n        /* \"#utility.yul\":572:584   */\n      dup4\n      dup3\n      and\n        /* \"#utility.yul\":554:585   */\n      add\n      swap1\n        /* \"#utility.yul\":597:610   */\n      dup2\n      gt\n        /* \"#utility.yul\":594:633   */\n      iszero\n      tag_49\n      jumpi\n        /* \"#utility.yul\":613:631   */\n      tag_49\n      tag_43\n      jump\t// in\n\n    auxdata: 0xa264697066735822122022efa373fc7294c0a0c0788b54e446811c69baa15fa6a8c789799fbdaed4bb5964736f6c634300081e0033\n}\n",
				"bytecode": {
					"linkReferences": {},
					"object": "60806040525f805460ff191660ff179055348015601a575f5ffd5b50610220806100285f395ff3fe608060405234801561000f575f5ffd5b506004361061007a575f3560e01c80633f3108f7116100585780633f3108f7146100cc5780634ddd108a146100d457806380945bfb146100e057806398e1b410146100e8575f5ffd5b806301efc4501461007e5780632baeceb7146100b15780633db598b0146100bb575b5f5ffd5b61009b5f805460ff8082166001011660ff19909116811790915590565b60405160ff909116815260200160405180910390f35b6100b96100f2565b005b6100b95f805460ff191660ff179055565b6100b9610118565b5f5461009b9060ff1681565b6100b9610128565b5f5460ff1661009b565b5f546101039060019060ff166101b2565b5f805460ff191660ff92909216919091179055565b5f546101039060ff1660016101d1565b5f5460ff908116106101185760405162461bcd60e51b815260206004820152603560248201527f4f766572666c6f773a2043616e6e6f7420696e6372656d656e74206265796f6e60448201527464206d6178696d756d2075696e74382076616c756560581b606482015260840160405180910390fd5b634e487b7160e01b5f52601160045260245ffd5b60ff82811682821603908111156101cb576101cb61019e565b92915050565b60ff81811683821601908111156101cb576101cb61019e56fea264697066735822122022efa373fc7294c0a0c0788b54e446811c69baa15fa6a8c789799fbdaed4bb5964736f6c634300081e0033",
					"opcodes": "PUSH1 0x80 PUSH1 0x40 MSTORE PUSH0 DUP1 SLOAD PUSH1 0xFF NOT AND PUSH1 0xFF OR SWAP1 SSTORE CALLVALUE DUP1 ISZERO PUSH1 0x1A JUMPI PUSH0 PUSH0 REVERT JUMPDEST POP PUSH2 0x220 DUP1 PUSH2 0x28 PUSH0 CODECOPY PUSH0 RETURN INVALID PUSH1 0x80 PUSH1 0x40 MSTORE CALLVALUE DUP1 ISZERO PUSH2 0xF JUMPI PUSH0 PUSH0 REVERT JUMPDEST POP PUSH1 0x4 CALLDATASIZE LT PUSH2 0x7A JUMPI PUSH0 CALLDATALOAD PUSH1 0xE0 SHR DUP1 PUSH4 0x3F3108F7 GT PUSH2 0x58 JUMPI DUP1 PUSH4 0x3F3108F7 EQ PUSH2 0xCC JUMPI DUP1 PUSH4 0x4DDD108A EQ PUSH2 0xD4 JUMPI DUP1 PUSH4 0x80945BFB EQ PUSH2 0xE0 JUMPI DUP1 PUSH4 0x98E1B410 EQ PUSH2 0xE8 JUMPI PUSH0 PUSH0 REVERT JUMPDEST DUP1 PUSH4 0x1EFC450 EQ PUSH2 0x7E JUMPI DUP1 PUSH4 0x2BAECEB7 EQ PUSH2 0xB1 JUMPI DUP1 PUSH4 0x3DB598B0 EQ PUSH2 0xBB JUMPI JUMPDEST PUSH0 PUSH0 REVERT JUMPDEST PUSH2 0x9B PUSH0 DUP1 SLOAD PUSH1 0xFF DUP1 DUP3 AND PUSH1 0x1 ADD AND PUSH1 0xFF NOT SWAP1 SWAP2 AND DUP2 OR SWAP1 SWAP2 SSTORE SWAP1 JUMP JUMPDEST PUSH1 0x40 MLOAD PUSH1 0xFF SWAP1 SWAP2 AND DUP2 MSTORE PUSH1 0x20 ADD PUSH1 0x40 MLOAD DUP1 SWAP2 SUB SWAP1 RETURN JUMPDEST PUSH2 0xB9 PUSH2 0xF2 JUMP JUMPDEST STOP JUMPDEST PUSH2 0xB9 PUSH0 DUP1 SLOAD PUSH1 0xFF NOT AND PUSH1 0xFF OR SWAP1 SSTORE JUMP JUMPDEST PUSH2 0xB9 PUSH2 0x118 JUMP JUMPDEST PUSH0 SLOAD PUSH2 0x9B SWAP1 PUSH1 0xFF AND DUP2 JUMP JUMPDEST PUSH2 0xB9 PUSH2 0x128 JUMP JUMPDEST PUSH0 SLOAD PUSH1 0xFF AND PUSH2 0x9B JUMP JUMPDEST PUSH0 SLOAD PUSH2 0x103 SWAP1 PUSH1 0x1 SWAP1 PUSH1 0xFF AND PUSH2 0x1B2 JUMP JUMPDEST PUSH0 DUP1 SLOAD PUSH1 0xFF NOT AND PUSH1 0xFF SWAP3 SWAP1 SWAP3 AND SWAP2 SWAP1 SWAP2 OR SWAP1 SSTORE JUMP JUMPDEST PUSH0 SLOAD PUSH2 0x103 SWAP1 PUSH1 0xFF AND PUSH1 0x1 PUSH2 0x1D1 JUMP JUMPDEST PUSH0 SLOAD PUSH1 0xFF SWAP1 DUP2 AND LT PUSH2 0x118 JUMPI PUSH1 0x40 MLOAD PUSH3 0x461BCD PUSH1 0xE5 SHL DUP2 MSTORE PUSH1 0x20 PUSH1 0x4 DUP3 ADD MSTORE PUSH1 0x35 PUSH1 0x24 DUP3 ADD MSTORE PUSH32 0x4F766572666C6F773A2043616E6E6F7420696E6372656D656E74206265796F6E PUSH1 0x44 DUP3 ADD MSTORE PUSH21 0x64206D6178696D756D2075696E74382076616C7565 PUSH1 0x58 SHL PUSH1 0x64 DUP3 ADD MSTORE PUSH1 0x84 ADD PUSH1 0x40 MLOAD DUP1 SWAP2 SUB SWAP1 REVERT JUMPDEST PUSH4 0x4E487B71 PUSH1 0xE0 SHL PUSH0 MSTORE PUSH1 0x11 PUSH1 0x4 MSTORE PUSH1 0x24 PUSH0 REVERT JUMPDEST PUSH1 0xFF DUP3 DUP2 AND DUP3 DUP3 AND SUB SWAP1 DUP2 GT ISZERO PUSH2 0x1CB JUMPI PUSH2 0x1CB PUSH2 0x19E JUMP JUMPDEST SWAP3 SWAP2 POP POP JUMP JUMPDEST PUSH1 0xFF DUP2 DUP2 AND DUP4 DUP3 AND ADD SWAP1 DUP2 GT ISZERO PUSH2 0x1CB JUMPI PUSH2 0x1CB PUSH2 0x19E JUMP INVALID LOG2 PUSH5 0x6970667358 0x22 SLT KECCAK256 0x22 0xEF LOG3 PUSH20 0xFC7294C0A0C0788B54E446811C69BAA15FA6A8C7 DUP10 PUSH26 0x9FBDAED4BB5964736F6C634300081E0033000000000000000000 "
				},
				"gasEstimates": {
					"creation": {
						"codeDepositCost": "108800",
						"executionCost": "24374",
						"totalCost": "133174"
					},
					"external": {
						"decrement()": "26611",
						"getMoney()": "2359",
						"money()": "2321",
						"resetToMax()": "24399",
						"safeSetter()": "28760",
						"setter()": "26585",
						"uncheckedSetter()": "24442"
					}
				},
				"methodIdentifiers": {
					"decrement()": "2baeceb7",
					"getMoney()": "98e1b410",
					"money()": "4ddd108a",
					"resetToMax()": "3db598b0",
					"safeSetter()": "80945bfb",
					"setter()": "3f3108f7",
					"uncheckedSetter()": "01efc450"
				}
			},
			"storageLayout": {
				"storage": [
					{
						"astId": 6,
						"contract": "6-Data Types/overflow.sol:overflow",
						"label": "money",
						"offset": 0,
						"slot": "0",
						"type": "t_uint8"
					}
				],
				"types": {
					"t_uint8": {
						"encoding": "inplace",
						"label": "uint8",
						"numberOfBytes": "1"
					}
				}
			},
			"userdoc": {
				"kind": "user",
				"methods": {
					"decrement()": {
						"notice": "Shows that Solidity also protects against underflowThis will revert if called when money = 0"
					},
					"money()": {
						"notice": "uint8 can hold values from 0 to 255 (2^8 - 1)We initialize to 255 to demonstrate overflow on increment"
					},
					"resetToMax()": {
						"notice": "Useful for testing the overflow behavior multiple times"
					},
					"safeSetter()": {
						"notice": "This shows how to manually prevent overflowEven though Solidity 0.8.0+ has built-in overflow protection,         explicit checks can provide better error messages"
					},
					"setter()": {
						"notice": "This will cause an overflow since money is already at max value (255)In Solidity 0.8.0+, this transaction will revert with:         \"Arithmetic operation underflowed or overflowed outside of unchecked block\""
					},
					"uncheckedSetter()": {
						"notice": "Shows how to bypass Solidity's built-in overflow protectionWARNING: This is unsafe and should only be used when absolutely necessaryIn this case, money would wrap around to 0 (255 + 1 = 0)"
					}
				},
				"notice": "This contract demonstrates the built-in overflow protection in modern SolidityIn versions before 0.8.0, this would silently wrap around (255 + 1 = 0)In 0.8.0+, this will revert with an overflow error",
				"version": 1
			}
		}
	}
}