{
	"2-State Variables/state.sol": {
		"State": {
			"abi": [
				{
					"inputs": [],
					"stateMutability": "nonpayable",
					"type": "constructor"
				},
				{
					"inputs": [],
					"name": "age",
					"outputs": [
						{
							"internalType": "uint256",
							"name": "",
							"type": "uint256"
						}
					],
					"stateMutability": "view",
					"type": "function"
				},
				{
					"inputs": [],
					"name": "name",
					"outputs": [
						{
							"internalType": "string",
							"name": "",
							"type": "string"
						}
					],
					"stateMutability": "view",
					"type": "function"
				},
				{
					"inputs": [],
					"name": "setAge",
					"outputs": [
						{
							"internalType": "uint256",
							"name": "",
							"type": "uint256"
						}
					],
					"stateMutability": "nonpayable",
					"type": "function"
				},
				{
					"inputs": [
						{
							"internalType": "string",
							"name": "_newName",
							"type": "string"
						}
					],
					"name": "setName",
					"outputs": [],
					"stateMutability": "nonpayable",
					"type": "function"
				}
			],
			"devdoc": {
				"kind": "dev",
				"methods": {},
				"version": 1
			},
			"evm": {
				"assembly": "    /* \"2-State Variables/state.sol\":177:1259  contract State {... */\n  mstore(0x40, 0x80)\n    /* \"2-State Variables/state.sol\":691:796  constructor() {... */\n  callvalue\n  dup1\n  iszero\n  tag_1\n  jumpi\n  revert(0x00, 0x00)\ntag_1:\n  pop\n    /* \"2-State Variables/state.sol\":721:723  10 */\n  0x0a\n    /* \"2-State Variables/state.sol\":715:718  age */\n  0x00\n    /* \"2-State Variables/state.sol\":715:723  age = 10 */\n  sstore\n    /* \"2-State Variables/state.sol\":733:753  name = \"DefaultName\" */\n  0x40\n  dup1\n  mload\n  dup1\n  dup3\n  add\n  swap1\n  swap2\n  mstore\n  0x0b\n  dup2\n  mstore\n  shl(0xa8, 0x44656661756c744e616d65)\n  0x20\n  dup3\n  add\n  mstore\n    /* \"2-State Variables/state.sol\":733:737  name */\n  0x01\n  swap1\n    /* \"2-State Variables/state.sol\":733:753  name = \"DefaultName\" */\n  tag_4\n  swap1\n    /* \"2-State Variables/state.sol\":733:737  name */\n  dup3\n    /* \"2-State Variables/state.sol\":733:753  name = \"DefaultName\" */\n  tag_5\n  jump\t// in\ntag_4:\n  pop\n    /* \"2-State Variables/state.sol\":177:1259  contract State {... */\n  jump(tag_12)\n    /* \"#utility.yul\":14:141   */\ntag_7:\n    /* \"#utility.yul\":75:85   */\n  0x4e487b71\n    /* \"#utility.yul\":70:73   */\n  0xe0\n    /* \"#utility.yul\":66:86   */\n  shl\n    /* \"#utility.yul\":63:64   */\n  0x00\n    /* \"#utility.yul\":56:87   */\n  mstore\n    /* \"#utility.yul\":106:110   */\n  0x41\n    /* \"#utility.yul\":103:104   */\n  0x04\n    /* \"#utility.yul\":96:111   */\n  mstore\n    /* \"#utility.yul\":130:134   */\n  0x24\n    /* \"#utility.yul\":127:128   */\n  0x00\n    /* \"#utility.yul\":120:135   */\n  revert\n    /* \"#utility.yul\":146:526   */\ntag_8:\n    /* \"#utility.yul\":225:226   */\n  0x01\n    /* \"#utility.yul\":221:233   */\n  dup2\n  dup2\n  shr\n  swap1\n    /* \"#utility.yul\":268:280   */\n  dup3\n  and\n  dup1\n    /* \"#utility.yul\":289:350   */\n  tag_15\n  jumpi\n    /* \"#utility.yul\":343:347   */\n  0x7f\n    /* \"#utility.yul\":335:341   */\n  dup3\n    /* \"#utility.yul\":331:348   */\n  and\n    /* \"#utility.yul\":321:348   */\n  swap2\n  pop\n    /* \"#utility.yul\":289:350   */\ntag_15:\n    /* \"#utility.yul\":396:398   */\n  0x20\n    /* \"#utility.yul\":388:394   */\n  dup3\n    /* \"#utility.yul\":385:399   */\n  lt\n    /* \"#utility.yul\":365:383   */\n  dup2\n    /* \"#utility.yul\":362:400   */\n  sub\n    /* \"#utility.yul\":359:520   */\n  tag_16\n  jumpi\n    /* \"#utility.yul\":442:452   */\n  0x4e487b71\n    /* \"#utility.yul\":437:440   */\n  0xe0\n    /* \"#utility.yul\":433:453   */\n  shl\n    /* \"#utility.yul\":430:431   */\n  0x00\n    /* \"#utility.yul\":423:454   */\n  mstore\n    /* \"#utility.yul\":477:481   */\n  0x22\n    /* \"#utility.yul\":474:475   */\n  0x04\n    /* \"#utility.yul\":467:482   */\n  mstore\n    /* \"#utility.yul\":505:509   */\n  0x24\n    /* \"#utility.yul\":502:503   */\n  0x00\n    /* \"#utility.yul\":495:510   */\n  revert\n    /* \"#utility.yul\":359:520   */\ntag_16:\n  pop\n    /* \"#utility.yul\":146:526   */\n  swap2\n  swap1\n  pop\n  jump\t// out\n    /* \"#utility.yul\":657:1175   */\ntag_10:\n    /* \"#utility.yul\":759:761   */\n  0x1f\n    /* \"#utility.yul\":754:757   */\n  dup3\n    /* \"#utility.yul\":751:762   */\n  gt\n    /* \"#utility.yul\":748:1169   */\n  iszero\n  tag_19\n  jumpi\n    /* \"#utility.yul\":795:800   */\n  dup1\n    /* \"#utility.yul\":792:793   */\n  0x00\n    /* \"#utility.yul\":785:801   */\n  mstore\n    /* \"#utility.yul\":839:843   */\n  0x20\n    /* \"#utility.yul\":836:837   */\n  0x00\n    /* \"#utility.yul\":826:844   */\n  keccak256\n    /* \"#utility.yul\":909:911   */\n  0x1f\n    /* \"#utility.yul\":897:907   */\n  dup5\n    /* \"#utility.yul\":893:912   */\n  add\n    /* \"#utility.yul\":890:891   */\n  0x05\n    /* \"#utility.yul\":886:913   */\n  shr\n    /* \"#utility.yul\":880:884   */\n  dup2\n    /* \"#utility.yul\":876:914   */\n  add\n    /* \"#utility.yul\":945:949   */\n  0x20\n    /* \"#utility.yul\":933:943   */\n  dup6\n    /* \"#utility.yul\":930:950   */\n  lt\n    /* \"#utility.yul\":927:974   */\n  iszero\n  tag_20\n  jumpi\n  pop\n    /* \"#utility.yul\":968:972   */\n  dup1\n    /* \"#utility.yul\":927:974   */\ntag_20:\n    /* \"#utility.yul\":1023:1025   */\n  0x1f\n    /* \"#utility.yul\":1018:1021   */\n  dup5\n    /* \"#utility.yul\":1014:1026   */\n  add\n    /* \"#utility.yul\":1011:1012   */\n  0x05\n    /* \"#utility.yul\":1007:1027   */\n  shr\n    /* \"#utility.yul\":1001:1005   */\n  dup3\n    /* \"#utility.yul\":997:1028   */\n  add\n    /* \"#utility.yul\":987:1028   */\n  swap2\n  pop\n    /* \"#utility.yul\":1078:1159   */\ntag_21:\n    /* \"#utility.yul\":1096:1098   */\n  dup2\n    /* \"#utility.yul\":1089:1094   */\n  dup2\n    /* \"#utility.yul\":1086:1099   */\n  lt\n    /* \"#utility.yul\":1078:1159   */\n  iszero\n  tag_23\n  jumpi\n    /* \"#utility.yul\":1155:1156   */\n  0x00\n    /* \"#utility.yul\":1141:1157   */\n  dup2\n  sstore\n    /* \"#utility.yul\":1122:1123   */\n  0x01\n    /* \"#utility.yul\":1111:1124   */\n  add\n    /* \"#utility.yul\":1078:1159   */\n  jump(tag_21)\ntag_23:\n    /* \"#utility.yul\":1082:1085   */\n  pop\n  pop\n    /* \"#utility.yul\":748:1169   */\ntag_19:\n    /* \"#utility.yul\":657:1175   */\n  pop\n  pop\n  pop\n  jump\t// out\n    /* \"#utility.yul\":1351:2650   */\ntag_5:\n    /* \"#utility.yul\":1471:1481   */\n  dup2\n  mload\n  sub(shl(0x40, 0x01), 0x01)\n    /* \"#utility.yul\":1493:1523   */\n  dup2\n  gt\n    /* \"#utility.yul\":1490:1546   */\n  iszero\n  tag_27\n  jumpi\n    /* \"#utility.yul\":1526:1544   */\n  tag_27\n  tag_7\n  jump\t// in\ntag_27:\n    /* \"#utility.yul\":1555:1652   */\n  tag_28\n    /* \"#utility.yul\":1645:1651   */\n  dup2\n    /* \"#utility.yul\":1605:1643   */\n  tag_29\n    /* \"#utility.yul\":1637:1641   */\n  dup5\n    /* \"#utility.yul\":1631:1642   */\n  sload\n    /* \"#utility.yul\":1605:1643   */\n  tag_8\n  jump\t// in\ntag_29:\n    /* \"#utility.yul\":1599:1603   */\n  dup5\n    /* \"#utility.yul\":1555:1652   */\n  tag_10\n  jump\t// in\ntag_28:\n    /* \"#utility.yul\":1701:1705   */\n  0x20\n    /* \"#utility.yul\":1732:1734   */\n  0x1f\n    /* \"#utility.yul\":1721:1735   */\n  dup3\n  gt\n    /* \"#utility.yul\":1749:1750   */\n  0x01\n    /* \"#utility.yul\":1744:2393   */\n  dup2\n  eq\n  tag_31\n  jumpi\n    /* \"#utility.yul\":2437:2438   */\n  0x00\n    /* \"#utility.yul\":2454:2460   */\n  dup4\n    /* \"#utility.yul\":2451:2540   */\n  iszero\n  tag_32\n  jumpi\n  pop\n    /* \"#utility.yul\":2506:2525   */\n  dup5\n  dup3\n  add\n    /* \"#utility.yul\":2500:2526   */\n  mload\n    /* \"#utility.yul\":2451:2540   */\ntag_32:\n  not(0x00)\n    /* \"#utility.yul\":1308:1309   */\n  0x03\n    /* \"#utility.yul\":1304:1315   */\n  dup6\n  swap1\n  shl\n    /* \"#utility.yul\":1300:1324   */\n  shr\n    /* \"#utility.yul\":1296:1325   */\n  not\n    /* \"#utility.yul\":1286:1326   */\n  and\n    /* \"#utility.yul\":1332:1333   */\n  0x01\n    /* \"#utility.yul\":1328:1339   */\n  dup5\n  swap1\n  shl\n    /* \"#utility.yul\":1283:1340   */\n  or\n    /* \"#utility.yul\":2553:2634   */\n  dup5\n  sstore\n    /* \"#utility.yul\":1714:2644   */\n  jump(tag_23)\n    /* \"#utility.yul\":1744:2393   */\ntag_31:\n    /* \"#utility.yul\":604:605   */\n  0x00\n    /* \"#utility.yul\":597:611   */\n  dup5\n  dup2\n  mstore\n    /* \"#utility.yul\":641:645   */\n  0x20\n    /* \"#utility.yul\":628:646   */\n  dup2\n  keccak256\n  not(0x1f)\n    /* \"#utility.yul\":1780:1800   */\n  dup6\n  and\n  swap2\n    /* \"#utility.yul\":1898:2120   */\ntag_35:\n    /* \"#utility.yul\":1912:1919   */\n  dup3\n    /* \"#utility.yul\":1909:1910   */\n  dup2\n    /* \"#utility.yul\":1906:1920   */\n  lt\n    /* \"#utility.yul\":1898:2120   */\n  iszero\n  tag_37\n  jumpi\n    /* \"#utility.yul\":1994:2013   */\n  dup8\n  dup6\n  add\n    /* \"#utility.yul\":1988:2014   */\n  mload\n    /* \"#utility.yul\":1973:2015   */\n  dup3\n  sstore\n    /* \"#utility.yul\":2101:2105   */\n  0x20\n    /* \"#utility.yul\":2086:2106   */\n  swap5\n  dup6\n  add\n  swap5\n    /* \"#utility.yul\":2054:2055   */\n  0x01\n    /* \"#utility.yul\":2042:2056   */\n  swap1\n  swap3\n  add\n  swap2\n    /* \"#utility.yul\":1928:1940   */\n  add\n    /* \"#utility.yul\":1898:2120   */\n  jump(tag_35)\ntag_37:\n    /* \"#utility.yul\":1902:1905   */\n  pop\n    /* \"#utility.yul\":2148:2154   */\n  dup5\n    /* \"#utility.yul\":2139:2146   */\n  dup3\n    /* \"#utility.yul\":2136:2155   */\n  lt\n    /* \"#utility.yul\":2133:2334   */\n  iszero\n  tag_38\n  jumpi\n    /* \"#utility.yul\":2209:2228   */\n  dup7\n  dup5\n  add\n    /* \"#utility.yul\":2203:2229   */\n  mload\n  not(0x00)\n    /* \"#utility.yul\":2292:2293   */\n  0x03\n    /* \"#utility.yul\":2288:2302   */\n  dup8\n  swap1\n  shl\n    /* \"#utility.yul\":2304:2307   */\n  0xf8\n    /* \"#utility.yul\":2284:2308   */\n  and\n    /* \"#utility.yul\":2280:2317   */\n  shr\n    /* \"#utility.yul\":2276:2318   */\n  not\n    /* \"#utility.yul\":2261:2319   */\n  and\n    /* \"#utility.yul\":2246:2320   */\n  dup2\n  sstore\n    /* \"#utility.yul\":2133:2334   */\ntag_38:\n  pop\n  pop\n  pop\n  pop\n    /* \"#utility.yul\":2380:2381   */\n  0x01\n    /* \"#utility.yul\":2364:2378   */\n  swap1\n  dup2\n  shl\n    /* \"#utility.yul\":2360:2382   */\n  add\n    /* \"#utility.yul\":2347:2383   */\n  swap1\n  sstore\n  pop\n    /* \"#utility.yul\":1351:2650   */\n  jump\t// out\ntag_12:\n    /* \"2-State Variables/state.sol\":177:1259  contract State {... */\n  dataSize(sub_0)\n  dup1\n  dataOffset(sub_0)\n  0x00\n  codecopy\n  0x00\n  return\nstop\n\nsub_0: assembly {\n        /* \"2-State Variables/state.sol\":177:1259  contract State {... */\n      mstore(0x40, 0x80)\n      callvalue\n      dup1\n      iszero\n      tag_1\n      jumpi\n      revert(0x00, 0x00)\n    tag_1:\n      pop\n      jumpi(tag_2, lt(calldatasize, 0x04))\n      shr(0xe0, calldataload(0x00))\n      dup1\n      0x06fdde03\n      eq\n      tag_3\n      jumpi\n      dup1\n      0x262a9dff\n      eq\n      tag_4\n      jumpi\n      dup1\n      0x457676ee\n      eq\n      tag_5\n      jumpi\n      dup1\n      0xc47f0027\n      eq\n      tag_6\n      jumpi\n    tag_2:\n      revert(0x00, 0x00)\n        /* \"2-State Variables/state.sol\":537:555  string public name */\n    tag_3:\n      tag_7\n      tag_8\n      jump\t// in\n    tag_7:\n      mload(0x40)\n      tag_9\n      swap2\n      swap1\n      tag_10\n      jump\t// in\n    tag_9:\n      mload(0x40)\n      dup1\n      swap2\n      sub\n      swap1\n      return\n        /* \"2-State Variables/state.sol\":355:370  uint public age */\n    tag_4:\n      tag_11\n      sload(0x00)\n      dup2\n      jump\n    tag_11:\n      mload(0x40)\n        /* \"#utility.yul\":583:608   */\n      swap1\n      dup2\n      mstore\n        /* \"#utility.yul\":571:573   */\n      0x20\n        /* \"#utility.yul\":556:574   */\n      add\n        /* \"2-State Variables/state.sol\":355:370  uint public age */\n      tag_9\n        /* \"#utility.yul\":437:614   */\n      jump\n        /* \"2-State Variables/state.sol\":945:1102  function setAge() public returns (uint) {... */\n    tag_5:\n      tag_11\n      tag_16\n      jump\t// in\n        /* \"2-State Variables/state.sol\":1177:1257  function setName(string memory _newName) public {... */\n    tag_6:\n      tag_18\n      tag_19\n      calldatasize\n      0x04\n      tag_20\n      jump\t// in\n    tag_19:\n      tag_21\n      jump\t// in\n    tag_18:\n      stop\n        /* \"2-State Variables/state.sol\":537:555  string public name */\n    tag_8:\n      0x01\n      dup1\n      sload\n      tag_22\n      swap1\n      tag_23\n      jump\t// in\n    tag_22:\n      dup1\n      0x1f\n      add\n      0x20\n      dup1\n      swap2\n      div\n      mul\n      0x20\n      add\n      mload(0x40)\n      swap1\n      dup2\n      add\n      0x40\n      mstore\n      dup1\n      swap3\n      swap2\n      swap1\n      dup2\n      dup2\n      mstore\n      0x20\n      add\n      dup3\n      dup1\n      sload\n      tag_24\n      swap1\n      tag_23\n      jump\t// in\n    tag_24:\n      dup1\n      iszero\n      tag_25\n      jumpi\n      dup1\n      0x1f\n      lt\n      tag_26\n      jumpi\n      0x0100\n      dup1\n      dup4\n      sload\n      div\n      mul\n      dup4\n      mstore\n      swap2\n      0x20\n      add\n      swap2\n      jump(tag_25)\n    tag_26:\n      dup3\n      add\n      swap2\n      swap1\n      0x00\n      mstore\n      keccak256(0x00, 0x20)\n      swap1\n    tag_27:\n      dup2\n      sload\n      dup2\n      mstore\n      swap1\n      0x01\n      add\n      swap1\n      0x20\n      add\n      dup1\n      dup4\n      gt\n      tag_27\n      jumpi\n      dup3\n      swap1\n      sub\n      0x1f\n      and\n      dup3\n      add\n      swap2\n    tag_25:\n      pop\n      pop\n      pop\n      pop\n      pop\n      dup2\n      jump\t// out\n        /* \"2-State Variables/state.sol\":945:1102  function setAge() public returns (uint) {... */\n    tag_16:\n        /* \"2-State Variables/state.sol\":979:983  uint */\n      0x00\n        /* \"2-State Variables/state.sol\":1002:1003  1 */\n      0x01\n        /* \"2-State Variables/state.sol\":995:998  age */\n      0x00\n      0x00\n        /* \"2-State Variables/state.sol\":995:1003  age += 1 */\n      dup3\n      dup3\n      sload\n      tag_29\n      swap2\n      swap1\n      tag_30\n      jump\t// in\n    tag_29:\n      swap1\n      swap2\n      sstore\n      pop\n      pop\n        /* \"2-State Variables/state.sol\":1054:1057  age */\n      sload(0x00)\n      swap2\n        /* \"2-State Variables/state.sol\":945:1102  function setAge() public returns (uint) {... */\n      swap1\n      pop\n      jump\t// out\n        /* \"2-State Variables/state.sol\":1177:1257  function setName(string memory _newName) public {... */\n    tag_21:\n        /* \"2-State Variables/state.sol\":1235:1239  name */\n      0x01\n        /* \"2-State Variables/state.sol\":1235:1250  name = _newName */\n      tag_32\n        /* \"2-State Variables/state.sol\":1242:1250  _newName */\n      dup3\n        /* \"2-State Variables/state.sol\":1235:1239  name */\n      dup3\n        /* \"2-State Variables/state.sol\":1235:1250  name = _newName */\n      tag_33\n      jump\t// in\n    tag_32:\n      pop\n        /* \"2-State Variables/state.sol\":1177:1257  function setName(string memory _newName) public {... */\n      pop\n      jump\t// out\n        /* \"#utility.yul\":14:432   */\n    tag_10:\n        /* \"#utility.yul\":163:165   */\n      0x20\n        /* \"#utility.yul\":152:161   */\n      dup2\n        /* \"#utility.yul\":145:166   */\n      mstore\n        /* \"#utility.yul\":126:130   */\n      0x00\n        /* \"#utility.yul\":195:201   */\n      dup3\n        /* \"#utility.yul\":189:202   */\n      mload\n        /* \"#utility.yul\":238:244   */\n      dup1\n        /* \"#utility.yul\":233:235   */\n      0x20\n        /* \"#utility.yul\":222:231   */\n      dup5\n        /* \"#utility.yul\":218:236   */\n      add\n        /* \"#utility.yul\":211:245   */\n      mstore\n        /* \"#utility.yul\":297:303   */\n      dup1\n        /* \"#utility.yul\":292:294   */\n      0x20\n        /* \"#utility.yul\":284:290   */\n      dup6\n        /* \"#utility.yul\":280:295   */\n      add\n        /* \"#utility.yul\":275:277   */\n      0x40\n        /* \"#utility.yul\":264:273   */\n      dup6\n        /* \"#utility.yul\":260:278   */\n      add\n        /* \"#utility.yul\":254:304   */\n      mcopy\n        /* \"#utility.yul\":353:354   */\n      0x00\n        /* \"#utility.yul\":348:350   */\n      0x40\n        /* \"#utility.yul\":339:345   */\n      dup3\n        /* \"#utility.yul\":328:337   */\n      dup6\n        /* \"#utility.yul\":324:346   */\n      add\n        /* \"#utility.yul\":320:351   */\n      add\n        /* \"#utility.yul\":313:355   */\n      mstore\n        /* \"#utility.yul\":423:425   */\n      0x40\n        /* \"#utility.yul\":416:418   */\n      0x1f\n        /* \"#utility.yul\":412:419   */\n      not\n        /* \"#utility.yul\":407:409   */\n      0x1f\n        /* \"#utility.yul\":399:405   */\n      dup4\n        /* \"#utility.yul\":395:410   */\n      add\n        /* \"#utility.yul\":391:420   */\n      and\n        /* \"#utility.yul\":380:389   */\n      dup5\n        /* \"#utility.yul\":376:421   */\n      add\n        /* \"#utility.yul\":372:426   */\n      add\n        /* \"#utility.yul\":364:426   */\n      swap2\n      pop\n      pop\n        /* \"#utility.yul\":14:432   */\n      swap3\n      swap2\n      pop\n      pop\n      jump\t// out\n        /* \"#utility.yul\":619:746   */\n    tag_34:\n        /* \"#utility.yul\":680:690   */\n      0x4e487b71\n        /* \"#utility.yul\":675:678   */\n      0xe0\n        /* \"#utility.yul\":671:691   */\n      shl\n        /* \"#utility.yul\":668:669   */\n      0x00\n        /* \"#utility.yul\":661:692   */\n      mstore\n        /* \"#utility.yul\":711:715   */\n      0x41\n        /* \"#utility.yul\":708:709   */\n      0x04\n        /* \"#utility.yul\":701:716   */\n      mstore\n        /* \"#utility.yul\":735:739   */\n      0x24\n        /* \"#utility.yul\":732:733   */\n      0x00\n        /* \"#utility.yul\":725:740   */\n      revert\n        /* \"#utility.yul\":751:1696   */\n    tag_20:\n        /* \"#utility.yul\":820:826   */\n      0x00\n        /* \"#utility.yul\":873:875   */\n      0x20\n        /* \"#utility.yul\":861:870   */\n      dup3\n        /* \"#utility.yul\":852:859   */\n      dup5\n        /* \"#utility.yul\":848:871   */\n      sub\n        /* \"#utility.yul\":844:876   */\n      slt\n        /* \"#utility.yul\":841:893   */\n      iszero\n      tag_43\n      jumpi\n        /* \"#utility.yul\":889:890   */\n      0x00\n        /* \"#utility.yul\":886:887   */\n      0x00\n        /* \"#utility.yul\":879:891   */\n      revert\n        /* \"#utility.yul\":841:893   */\n    tag_43:\n        /* \"#utility.yul\":929:938   */\n      dup2\n        /* \"#utility.yul\":916:939   */\n      calldataload\n        /* \"#utility.yul\":962:980   */\n      0xffffffffffffffff\n        /* \"#utility.yul\":954:960   */\n      dup2\n        /* \"#utility.yul\":951:981   */\n      gt\n        /* \"#utility.yul\":948:998   */\n      iszero\n      tag_44\n      jumpi\n        /* \"#utility.yul\":994:995   */\n      0x00\n        /* \"#utility.yul\":991:992   */\n      0x00\n        /* \"#utility.yul\":984:996   */\n      revert\n        /* \"#utility.yul\":948:998   */\n    tag_44:\n        /* \"#utility.yul\":1017:1039   */\n      dup3\n      add\n        /* \"#utility.yul\":1070:1074   */\n      0x1f\n        /* \"#utility.yul\":1062:1075   */\n      dup2\n      add\n        /* \"#utility.yul\":1058:1085   */\n      dup5\n      sgt\n        /* \"#utility.yul\":1048:1103   */\n      tag_45\n      jumpi\n        /* \"#utility.yul\":1099:1100   */\n      0x00\n        /* \"#utility.yul\":1096:1097   */\n      0x00\n        /* \"#utility.yul\":1089:1101   */\n      revert\n        /* \"#utility.yul\":1048:1103   */\n    tag_45:\n        /* \"#utility.yul\":1139:1141   */\n      dup1\n        /* \"#utility.yul\":1126:1142   */\n      calldataload\n        /* \"#utility.yul\":1165:1183   */\n      0xffffffffffffffff\n        /* \"#utility.yul\":1157:1163   */\n      dup2\n        /* \"#utility.yul\":1154:1184   */\n      gt\n        /* \"#utility.yul\":1151:1207   */\n      iszero\n      tag_47\n      jumpi\n        /* \"#utility.yul\":1187:1205   */\n      tag_47\n      tag_34\n      jump\t// in\n    tag_47:\n        /* \"#utility.yul\":1236:1238   */\n      0x40\n        /* \"#utility.yul\":1230:1239   */\n      mload\n        /* \"#utility.yul\":1328:1330   */\n      0x1f\n        /* \"#utility.yul\":1290:1307   */\n      dup3\n      add\n      not(0x1f)\n        /* \"#utility.yul\":1286:1317   */\n      swap1\n      dup2\n      and\n        /* \"#utility.yul\":1319:1321   */\n      0x3f\n        /* \"#utility.yul\":1282:1322   */\n      add\n        /* \"#utility.yul\":1278:1332   */\n      and\n        /* \"#utility.yul\":1266:1333   */\n      dup2\n      add\n        /* \"#utility.yul\":1363:1381   */\n      0xffffffffffffffff\n        /* \"#utility.yul\":1348:1382   */\n      dup2\n      gt\n        /* \"#utility.yul\":1384:1406   */\n      dup3\n      dup3\n      lt\n        /* \"#utility.yul\":1345:1407   */\n      or\n        /* \"#utility.yul\":1342:1430   */\n      iszero\n      tag_49\n      jumpi\n        /* \"#utility.yul\":1410:1428   */\n      tag_49\n      tag_34\n      jump\t// in\n    tag_49:\n        /* \"#utility.yul\":1446:1448   */\n      0x40\n        /* \"#utility.yul\":1439:1461   */\n      mstore\n        /* \"#utility.yul\":1470:1492   */\n      dup2\n      dup2\n      mstore\n        /* \"#utility.yul\":1511:1526   */\n      dup3\n      dup3\n      add\n        /* \"#utility.yul\":1528:1530   */\n      0x20\n        /* \"#utility.yul\":1507:1531   */\n      add\n        /* \"#utility.yul\":1504:1541   */\n      dup7\n      lt\n        /* \"#utility.yul\":1501:1558   */\n      iszero\n      tag_50\n      jumpi\n        /* \"#utility.yul\":1554:1555   */\n      0x00\n        /* \"#utility.yul\":1551:1552   */\n      0x00\n        /* \"#utility.yul\":1544:1556   */\n      revert\n        /* \"#utility.yul\":1501:1558   */\n    tag_50:\n        /* \"#utility.yul\":1610:1616   */\n      dup2\n        /* \"#utility.yul\":1605:1607   */\n      0x20\n        /* \"#utility.yul\":1601:1603   */\n      dup5\n        /* \"#utility.yul\":1597:1608   */\n      add\n        /* \"#utility.yul\":1592:1594   */\n      0x20\n        /* \"#utility.yul\":1584:1590   */\n      dup4\n        /* \"#utility.yul\":1580:1595   */\n      add\n        /* \"#utility.yul\":1567:1617   */\n      calldatacopy\n        /* \"#utility.yul\":1663:1664   */\n      0x00\n        /* \"#utility.yul\":1637:1656   */\n      swap2\n      dup2\n      add\n        /* \"#utility.yul\":1658:1660   */\n      0x20\n        /* \"#utility.yul\":1633:1661   */\n      add\n        /* \"#utility.yul\":1626:1665   */\n      swap2\n      swap1\n      swap2\n      mstore\n        /* \"#utility.yul\":1641:1647   */\n      swap5\n        /* \"#utility.yul\":751:1696   */\n      swap4\n      pop\n      pop\n      pop\n      pop\n      jump\t// out\n        /* \"#utility.yul\":1701:2081   */\n    tag_23:\n        /* \"#utility.yul\":1780:1781   */\n      0x01\n        /* \"#utility.yul\":1776:1788   */\n      dup2\n      dup2\n      shr\n      swap1\n        /* \"#utility.yul\":1823:1835   */\n      dup3\n      and\n      dup1\n        /* \"#utility.yul\":1844:1905   */\n      tag_52\n      jumpi\n        /* \"#utility.yul\":1898:1902   */\n      0x7f\n        /* \"#utility.yul\":1890:1896   */\n      dup3\n        /* \"#utility.yul\":1886:1903   */\n      and\n        /* \"#utility.yul\":1876:1903   */\n      swap2\n      pop\n        /* \"#utility.yul\":1844:1905   */\n    tag_52:\n        /* \"#utility.yul\":1951:1953   */\n      0x20\n        /* \"#utility.yul\":1943:1949   */\n      dup3\n        /* \"#utility.yul\":1940:1954   */\n      lt\n        /* \"#utility.yul\":1920:1938   */\n      dup2\n        /* \"#utility.yul\":1917:1955   */\n      sub\n        /* \"#utility.yul\":1914:2075   */\n      tag_53\n      jumpi\n        /* \"#utility.yul\":1997:2007   */\n      0x4e487b71\n        /* \"#utility.yul\":1992:1995   */\n      0xe0\n        /* \"#utility.yul\":1988:2008   */\n      shl\n        /* \"#utility.yul\":1985:1986   */\n      0x00\n        /* \"#utility.yul\":1978:2009   */\n      mstore\n        /* \"#utility.yul\":2032:2036   */\n      0x22\n        /* \"#utility.yul\":2029:2030   */\n      0x04\n        /* \"#utility.yul\":2022:2037   */\n      mstore\n        /* \"#utility.yul\":2060:2064   */\n      0x24\n        /* \"#utility.yul\":2057:2058   */\n      0x00\n        /* \"#utility.yul\":2050:2065   */\n      revert\n        /* \"#utility.yul\":1914:2075   */\n    tag_53:\n      pop\n        /* \"#utility.yul\":1701:2081   */\n      swap2\n      swap1\n      pop\n      jump\t// out\n        /* \"#utility.yul\":2086:2308   */\n    tag_30:\n        /* \"#utility.yul\":2151:2160   */\n      dup1\n      dup3\n      add\n        /* \"#utility.yul\":2172:2182   */\n      dup1\n      dup3\n      gt\n        /* \"#utility.yul\":2169:2302   */\n      iszero\n      tag_55\n      jumpi\n        /* \"#utility.yul\":2224:2234   */\n      0x4e487b71\n        /* \"#utility.yul\":2219:2222   */\n      0xe0\n        /* \"#utility.yul\":2215:2235   */\n      shl\n        /* \"#utility.yul\":2212:2213   */\n      0x00\n        /* \"#utility.yul\":2205:2236   */\n      mstore\n        /* \"#utility.yul\":2259:2263   */\n      0x11\n        /* \"#utility.yul\":2256:2257   */\n      0x04\n        /* \"#utility.yul\":2249:2264   */\n      mstore\n        /* \"#utility.yul\":2287:2291   */\n      0x24\n        /* \"#utility.yul\":2284:2285   */\n      0x00\n        /* \"#utility.yul\":2277:2292   */\n      revert\n        /* \"#utility.yul\":2169:2302   */\n    tag_55:\n        /* \"#utility.yul\":2086:2308   */\n      swap3\n      swap2\n      pop\n      pop\n      jump\t// out\n        /* \"#utility.yul\":2439:2957   */\n    tag_36:\n        /* \"#utility.yul\":2541:2543   */\n      0x1f\n        /* \"#utility.yul\":2536:2539   */\n      dup3\n        /* \"#utility.yul\":2533:2544   */\n      gt\n        /* \"#utility.yul\":2530:2951   */\n      iszero\n      tag_58\n      jumpi\n        /* \"#utility.yul\":2577:2582   */\n      dup1\n        /* \"#utility.yul\":2574:2575   */\n      0x00\n        /* \"#utility.yul\":2567:2583   */\n      mstore\n        /* \"#utility.yul\":2621:2625   */\n      0x20\n        /* \"#utility.yul\":2618:2619   */\n      0x00\n        /* \"#utility.yul\":2608:2626   */\n      keccak256\n        /* \"#utility.yul\":2691:2693   */\n      0x1f\n        /* \"#utility.yul\":2679:2689   */\n      dup5\n        /* \"#utility.yul\":2675:2694   */\n      add\n        /* \"#utility.yul\":2672:2673   */\n      0x05\n        /* \"#utility.yul\":2668:2695   */\n      shr\n        /* \"#utility.yul\":2662:2666   */\n      dup2\n        /* \"#utility.yul\":2658:2696   */\n      add\n        /* \"#utility.yul\":2727:2731   */\n      0x20\n        /* \"#utility.yul\":2715:2725   */\n      dup6\n        /* \"#utility.yul\":2712:2732   */\n      lt\n        /* \"#utility.yul\":2709:2756   */\n      iszero\n      tag_59\n      jumpi\n      pop\n        /* \"#utility.yul\":2750:2754   */\n      dup1\n        /* \"#utility.yul\":2709:2756   */\n    tag_59:\n        /* \"#utility.yul\":2805:2807   */\n      0x1f\n        /* \"#utility.yul\":2800:2803   */\n      dup5\n        /* \"#utility.yul\":2796:2808   */\n      add\n        /* \"#utility.yul\":2793:2794   */\n      0x05\n        /* \"#utility.yul\":2789:2809   */\n      shr\n        /* \"#utility.yul\":2783:2787   */\n      dup3\n        /* \"#utility.yul\":2779:2810   */\n      add\n        /* \"#utility.yul\":2769:2810   */\n      swap2\n      pop\n        /* \"#utility.yul\":2860:2941   */\n    tag_60:\n        /* \"#utility.yul\":2878:2880   */\n      dup2\n        /* \"#utility.yul\":2871:2876   */\n      dup2\n        /* \"#utility.yul\":2868:2881   */\n      lt\n        /* \"#utility.yul\":2860:2941   */\n      iszero\n      tag_62\n      jumpi\n        /* \"#utility.yul\":2937:2938   */\n      0x00\n        /* \"#utility.yul\":2923:2939   */\n      dup2\n      sstore\n        /* \"#utility.yul\":2904:2905   */\n      0x01\n        /* \"#utility.yul\":2893:2906   */\n      add\n        /* \"#utility.yul\":2860:2941   */\n      jump(tag_60)\n    tag_62:\n        /* \"#utility.yul\":2864:2867   */\n      pop\n      pop\n        /* \"#utility.yul\":2530:2951   */\n    tag_58:\n        /* \"#utility.yul\":2439:2957   */\n      pop\n      pop\n      pop\n      jump\t// out\n        /* \"#utility.yul\":3133:4432   */\n    tag_33:\n        /* \"#utility.yul\":3259:3262   */\n      dup2\n        /* \"#utility.yul\":3253:3263   */\n      mload\n        /* \"#utility.yul\":3286:3304   */\n      0xffffffffffffffff\n        /* \"#utility.yul\":3278:3284   */\n      dup2\n        /* \"#utility.yul\":3275:3305   */\n      gt\n        /* \"#utility.yul\":3272:3328   */\n      iszero\n      tag_66\n      jumpi\n        /* \"#utility.yul\":3308:3326   */\n      tag_66\n      tag_34\n      jump\t// in\n    tag_66:\n        /* \"#utility.yul\":3337:3434   */\n      tag_67\n        /* \"#utility.yul\":3427:3433   */\n      dup2\n        /* \"#utility.yul\":3387:3425   */\n      tag_68\n        /* \"#utility.yul\":3419:3423   */\n      dup5\n        /* \"#utility.yul\":3413:3424   */\n      sload\n        /* \"#utility.yul\":3387:3425   */\n      tag_23\n      jump\t// in\n    tag_68:\n        /* \"#utility.yul\":3381:3385   */\n      dup5\n        /* \"#utility.yul\":3337:3434   */\n      tag_36\n      jump\t// in\n    tag_67:\n        /* \"#utility.yul\":3483:3487   */\n      0x20\n        /* \"#utility.yul\":3514:3516   */\n      0x1f\n        /* \"#utility.yul\":3503:3517   */\n      dup3\n      gt\n        /* \"#utility.yul\":3531:3532   */\n      0x01\n        /* \"#utility.yul\":3526:4175   */\n      dup2\n      eq\n      tag_70\n      jumpi\n        /* \"#utility.yul\":4219:4220   */\n      0x00\n        /* \"#utility.yul\":4236:4242   */\n      dup4\n        /* \"#utility.yul\":4233:4322   */\n      iszero\n      tag_71\n      jumpi\n      pop\n        /* \"#utility.yul\":4288:4307   */\n      dup5\n      dup3\n      add\n        /* \"#utility.yul\":4282:4308   */\n      mload\n        /* \"#utility.yul\":4233:4322   */\n    tag_71:\n      not(0x00)\n        /* \"#utility.yul\":3090:3091   */\n      0x03\n        /* \"#utility.yul\":3086:3097   */\n      dup6\n      swap1\n      shl\n        /* \"#utility.yul\":3082:3106   */\n      shr\n        /* \"#utility.yul\":3078:3107   */\n      not\n        /* \"#utility.yul\":3068:3108   */\n      and\n        /* \"#utility.yul\":3114:3115   */\n      0x01\n        /* \"#utility.yul\":3110:3121   */\n      dup5\n      swap1\n      shl\n        /* \"#utility.yul\":3065:3122   */\n      or\n        /* \"#utility.yul\":4335:4416   */\n      dup5\n      sstore\n        /* \"#utility.yul\":3496:4426   */\n      jump(tag_62)\n        /* \"#utility.yul\":3526:4175   */\n    tag_70:\n        /* \"#utility.yul\":2386:2387   */\n      0x00\n        /* \"#utility.yul\":2379:2393   */\n      dup5\n      dup2\n      mstore\n        /* \"#utility.yul\":2423:2427   */\n      0x20\n        /* \"#utility.yul\":2410:2428   */\n      dup2\n      keccak256\n      not(0x1f)\n        /* \"#utility.yul\":3562:3582   */\n      dup6\n      and\n      swap2\n        /* \"#utility.yul\":3680:3902   */\n    tag_74:\n        /* \"#utility.yul\":3694:3701   */\n      dup3\n        /* \"#utility.yul\":3691:3692   */\n      dup2\n        /* \"#utility.yul\":3688:3702   */\n      lt\n        /* \"#utility.yul\":3680:3902   */\n      iszero\n      tag_76\n      jumpi\n        /* \"#utility.yul\":3776:3795   */\n      dup8\n      dup6\n      add\n        /* \"#utility.yul\":3770:3796   */\n      mload\n        /* \"#utility.yul\":3755:3797   */\n      dup3\n      sstore\n        /* \"#utility.yul\":3883:3887   */\n      0x20\n        /* \"#utility.yul\":3868:3888   */\n      swap5\n      dup6\n      add\n      swap5\n        /* \"#utility.yul\":3836:3837   */\n      0x01\n        /* \"#utility.yul\":3824:3838   */\n      swap1\n      swap3\n      add\n      swap2\n        /* \"#utility.yul\":3710:3722   */\n      add\n        /* \"#utility.yul\":3680:3902   */\n      jump(tag_74)\n    tag_76:\n        /* \"#utility.yul\":3684:3687   */\n      pop\n        /* \"#utility.yul\":3930:3936   */\n      dup5\n        /* \"#utility.yul\":3921:3928   */\n      dup3\n        /* \"#utility.yul\":3918:3937   */\n      lt\n        /* \"#utility.yul\":3915:4116   */\n      iszero\n      tag_77\n      jumpi\n        /* \"#utility.yul\":3991:4010   */\n      dup7\n      dup5\n      add\n        /* \"#utility.yul\":3985:4011   */\n      mload\n      not(0x00)\n        /* \"#utility.yul\":4074:4075   */\n      0x03\n        /* \"#utility.yul\":4070:4084   */\n      dup8\n      swap1\n      shl\n        /* \"#utility.yul\":4086:4089   */\n      0xf8\n        /* \"#utility.yul\":4066:4090   */\n      and\n        /* \"#utility.yul\":4062:4099   */\n      shr\n        /* \"#utility.yul\":4058:4100   */\n      not\n        /* \"#utility.yul\":4043:4101   */\n      and\n        /* \"#utility.yul\":4028:4102   */\n      dup2\n      sstore\n        /* \"#utility.yul\":3915:4116   */\n    tag_77:\n      pop\n      pop\n      pop\n      pop\n        /* \"#utility.yul\":4162:4163   */\n      0x01\n        /* \"#utility.yul\":4146:4160   */\n      swap1\n      dup2\n      shl\n        /* \"#utility.yul\":4142:4164   */\n      add\n        /* \"#utility.yul\":4129:4165   */\n      swap1\n      sstore\n      pop\n        /* \"#utility.yul\":3133:4432   */\n      jump\t// out\n\n    auxdata: 0xa26469706673582212208802ebd1ff8c60bec64045e98afdcd2a5c9ef22012cd6018ee4ba650cee12ffd64736f6c634300081e0033\n}\n",
				"bytecode": {
					"linkReferences": {},
					"object": "608060405234801561000f575f5ffd5b50600a5f5560408051808201909152600b81526a44656661756c744e616d6560a81b602082015260019061004390826100e1565b5061019b565b634e487b7160e01b5f52604160045260245ffd5b600181811c9082168061007157607f821691505b60208210810361008f57634e487b7160e01b5f52602260045260245ffd5b50919050565b601f8211156100dc57805f5260205f20601f840160051c810160208510156100ba5750805b601f840160051c820191505b818110156100d9575f81556001016100c6565b50505b505050565b81516001600160401b038111156100fa576100fa610049565b61010e81610108845461005d565b84610095565b6020601f821160018114610140575f83156101295750848201515b5f19600385901b1c1916600184901b1784556100d9565b5f84815260208120601f198516915b8281101561016f578785015182556020948501946001909201910161014f565b508482101561018c57868401515f19600387901b60f8161c191681555b50505050600190811b01905550565b6103ef806101a85f395ff3fe608060405234801561000f575f5ffd5b506004361061004a575f3560e01c806306fdde031461004e578063262a9dff1461006c578063457676ee14610082578063c47f00271461008a575b5f5ffd5b61005661009f565b6040516100639190610159565b60405180910390f35b6100745f5481565b604051908152602001610063565b61007461012b565b61009d6100983660046101a2565b610149565b005b600180546100ac90610255565b80601f01602080910402602001604051908101604052809291908181526020018280546100d890610255565b80156101235780601f106100fa57610100808354040283529160200191610123565b820191905f5260205f20905b81548152906001019060200180831161010657829003601f168201915b505050505081565b5f60015f5f82825461013d919061028d565b90915550505f54919050565b600161015582826102fe565b5050565b602081525f82518060208401528060208501604085015e5f604082850101526040601f19601f83011684010191505092915050565b634e487b7160e01b5f52604160045260245ffd5b5f602082840312156101b2575f5ffd5b813567ffffffffffffffff8111156101c8575f5ffd5b8201601f810184136101d8575f5ffd5b803567ffffffffffffffff8111156101f2576101f261018e565b604051601f8201601f19908116603f0116810167ffffffffffffffff811182821017156102215761022161018e565b604052818152828201602001861015610238575f5ffd5b816020840160208301375f91810160200191909152949350505050565b600181811c9082168061026957607f821691505b60208210810361028757634e487b7160e01b5f52602260045260245ffd5b50919050565b808201808211156102ac57634e487b7160e01b5f52601160045260245ffd5b92915050565b601f8211156102f957805f5260205f20601f840160051c810160208510156102d75750805b601f840160051c820191505b818110156102f6575f81556001016102e3565b50505b505050565b815167ffffffffffffffff8111156103185761031861018e565b61032c816103268454610255565b846102b2565b6020601f82116001811461035e575f83156103475750848201515b5f19600385901b1c1916600184901b1784556102f6565b5f84815260208120601f198516915b8281101561038d578785015182556020948501946001909201910161036d565b50848210156103aa57868401515f19600387901b60f8161c191681555b50505050600190811b0190555056fea26469706673582212208802ebd1ff8c60bec64045e98afdcd2a5c9ef22012cd6018ee4ba650cee12ffd64736f6c634300081e0033",
					"opcodes": "PUSH1 0x80 PUSH1 0x40 MSTORE CALLVALUE DUP1 ISZERO PUSH2 0xF JUMPI PUSH0 PUSH0 REVERT JUMPDEST POP PUSH1 0xA PUSH0 SSTORE PUSH1 0x40 DUP1 MLOAD DUP1 DUP3 ADD SWAP1 SWAP2 MSTORE PUSH1 0xB DUP2 MSTORE PUSH11 0x44656661756C744E616D65 PUSH1 0xA8 SHL PUSH1 0x20 DUP3 ADD MSTORE PUSH1 0x1 SWAP1 PUSH2 0x43 SWAP1 DUP3 PUSH2 0xE1 JUMP JUMPDEST POP PUSH2 0x19B JUMP JUMPDEST PUSH4 0x4E487B71 PUSH1 0xE0 SHL PUSH0 MSTORE PUSH1 0x41 PUSH1 0x4 MSTORE PUSH1 0x24 PUSH0 REVERT JUMPDEST PUSH1 0x1 DUP2 DUP2 SHR SWAP1 DUP3 AND DUP1 PUSH2 0x71 JUMPI PUSH1 0x7F DUP3 AND SWAP2 POP JUMPDEST PUSH1 0x20 DUP3 LT DUP2 SUB PUSH2 0x8F JUMPI PUSH4 0x4E487B71 PUSH1 0xE0 SHL PUSH0 MSTORE PUSH1 0x22 PUSH1 0x4 MSTORE PUSH1 0x24 PUSH0 REVERT JUMPDEST POP SWAP2 SWAP1 POP JUMP JUMPDEST PUSH1 0x1F DUP3 GT ISZERO PUSH2 0xDC JUMPI DUP1 PUSH0 MSTORE PUSH1 0x20 PUSH0 KECCAK256 PUSH1 0x1F DUP5 ADD PUSH1 0x5 SHR DUP2 ADD PUSH1 0x20 DUP6 LT ISZERO PUSH2 0xBA JUMPI POP DUP1 JUMPDEST PUSH1 0x1F DUP5 ADD PUSH1 0x5 SHR DUP3 ADD SWAP2 POP JUMPDEST DUP2 DUP2 LT ISZERO PUSH2 0xD9 JUMPI PUSH0 DUP2 SSTORE PUSH1 0x1 ADD PUSH2 0xC6 JUMP JUMPDEST POP POP JUMPDEST POP POP POP JUMP JUMPDEST DUP2 MLOAD PUSH1 0x1 PUSH1 0x1 PUSH1 0x40 SHL SUB DUP2 GT ISZERO PUSH2 0xFA JUMPI PUSH2 0xFA PUSH2 0x49 JUMP JUMPDEST PUSH2 0x10E DUP2 PUSH2 0x108 DUP5 SLOAD PUSH2 0x5D JUMP JUMPDEST DUP5 PUSH2 0x95 JUMP JUMPDEST PUSH1 0x20 PUSH1 0x1F DUP3 GT PUSH1 0x1 DUP2 EQ PUSH2 0x140 JUMPI PUSH0 DUP4 ISZERO PUSH2 0x129 JUMPI POP DUP5 DUP3 ADD MLOAD JUMPDEST PUSH0 NOT PUSH1 0x3 DUP6 SWAP1 SHL SHR NOT AND PUSH1 0x1 DUP5 SWAP1 SHL OR DUP5 SSTORE PUSH2 0xD9 JUMP JUMPDEST PUSH0 DUP5 DUP2 MSTORE PUSH1 0x20 DUP2 KECCAK256 PUSH1 0x1F NOT DUP6 AND SWAP2 JUMPDEST DUP3 DUP2 LT ISZERO PUSH2 0x16F JUMPI DUP8 DUP6 ADD MLOAD DUP3 SSTORE PUSH1 0x20 SWAP5 DUP6 ADD SWAP5 PUSH1 0x1 SWAP1 SWAP3 ADD SWAP2 ADD PUSH2 0x14F JUMP JUMPDEST POP DUP5 DUP3 LT ISZERO PUSH2 0x18C JUMPI DUP7 DUP5 ADD MLOAD PUSH0 NOT PUSH1 0x3 DUP8 SWAP1 SHL PUSH1 0xF8 AND SHR NOT AND DUP2 SSTORE JUMPDEST POP POP POP POP PUSH1 0x1 SWAP1 DUP2 SHL ADD SWAP1 SSTORE POP JUMP JUMPDEST PUSH2 0x3EF DUP1 PUSH2 0x1A8 PUSH0 CODECOPY PUSH0 RETURN INVALID PUSH1 0x80 PUSH1 0x40 MSTORE CALLVALUE DUP1 ISZERO PUSH2 0xF JUMPI PUSH0 PUSH0 REVERT JUMPDEST POP PUSH1 0x4 CALLDATASIZE LT PUSH2 0x4A JUMPI PUSH0 CALLDATALOAD PUSH1 0xE0 SHR DUP1 PUSH4 0x6FDDE03 EQ PUSH2 0x4E JUMPI DUP1 PUSH4 0x262A9DFF EQ PUSH2 0x6C JUMPI DUP1 PUSH4 0x457676EE EQ PUSH2 0x82 JUMPI DUP1 PUSH4 0xC47F0027 EQ PUSH2 0x8A JUMPI JUMPDEST PUSH0 PUSH0 REVERT JUMPDEST PUSH2 0x56 PUSH2 0x9F JUMP JUMPDEST PUSH1 0x40 MLOAD PUSH2 0x63 SWAP2 SWAP1 PUSH2 0x159 JUMP JUMPDEST PUSH1 0x40 MLOAD DUP1 SWAP2 SUB SWAP1 RETURN JUMPDEST PUSH2 0x74 PUSH0 SLOAD DUP2 JUMP JUMPDEST PUSH1 0x40 MLOAD SWAP1 DUP2 MSTORE PUSH1 0x20 ADD PUSH2 0x63 JUMP JUMPDEST PUSH2 0x74 PUSH2 0x12B JUMP JUMPDEST PUSH2 0x9D PUSH2 0x98 CALLDATASIZE PUSH1 0x4 PUSH2 0x1A2 JUMP JUMPDEST PUSH2 0x149 JUMP JUMPDEST STOP JUMPDEST PUSH1 0x1 DUP1 SLOAD PUSH2 0xAC SWAP1 PUSH2 0x255 JUMP JUMPDEST DUP1 PUSH1 0x1F ADD PUSH1 0x20 DUP1 SWAP2 DIV MUL PUSH1 0x20 ADD PUSH1 0x40 MLOAD SWAP1 DUP2 ADD PUSH1 0x40 MSTORE DUP1 SWAP3 SWAP2 SWAP1 DUP2 DUP2 MSTORE PUSH1 0x20 ADD DUP3 DUP1 SLOAD PUSH2 0xD8 SWAP1 PUSH2 0x255 JUMP JUMPDEST DUP1 ISZERO PUSH2 0x123 JUMPI DUP1 PUSH1 0x1F LT PUSH2 0xFA JUMPI PUSH2 0x100 DUP1 DUP4 SLOAD DIV MUL DUP4 MSTORE SWAP2 PUSH1 0x20 ADD SWAP2 PUSH2 0x123 JUMP JUMPDEST DUP3 ADD SWAP2 SWAP1 PUSH0 MSTORE PUSH1 0x20 PUSH0 KECCAK256 SWAP1 JUMPDEST DUP2 SLOAD DUP2 MSTORE SWAP1 PUSH1 0x1 ADD SWAP1 PUSH1 0x20 ADD DUP1 DUP4 GT PUSH2 0x106 JUMPI DUP3 SWAP1 SUB PUSH1 0x1F AND DUP3 ADD SWAP2 JUMPDEST POP POP POP POP POP DUP2 JUMP JUMPDEST PUSH0 PUSH1 0x1 PUSH0 PUSH0 DUP3 DUP3 SLOAD PUSH2 0x13D SWAP2 SWAP1 PUSH2 0x28D JUMP JUMPDEST SWAP1 SWAP2 SSTORE POP POP PUSH0 SLOAD SWAP2 SWAP1 POP JUMP JUMPDEST PUSH1 0x1 PUSH2 0x155 DUP3 DUP3 PUSH2 0x2FE JUMP JUMPDEST POP POP JUMP JUMPDEST PUSH1 0x20 DUP2 MSTORE PUSH0 DUP3 MLOAD DUP1 PUSH1 0x20 DUP5 ADD MSTORE DUP1 PUSH1 0x20 DUP6 ADD PUSH1 0x40 DUP6 ADD MCOPY PUSH0 PUSH1 0x40 DUP3 DUP6 ADD ADD MSTORE PUSH1 0x40 PUSH1 0x1F NOT PUSH1 0x1F DUP4 ADD AND DUP5 ADD ADD SWAP2 POP POP SWAP3 SWAP2 POP POP JUMP JUMPDEST PUSH4 0x4E487B71 PUSH1 0xE0 SHL PUSH0 MSTORE PUSH1 0x41 PUSH1 0x4 MSTORE PUSH1 0x24 PUSH0 REVERT JUMPDEST PUSH0 PUSH1 0x20 DUP3 DUP5 SUB SLT ISZERO PUSH2 0x1B2 JUMPI PUSH0 PUSH0 REVERT JUMPDEST DUP2 CALLDATALOAD PUSH8 0xFFFFFFFFFFFFFFFF DUP2 GT ISZERO PUSH2 0x1C8 JUMPI PUSH0 PUSH0 REVERT JUMPDEST DUP3 ADD PUSH1 0x1F DUP2 ADD DUP5 SGT PUSH2 0x1D8 JUMPI PUSH0 PUSH0 REVERT JUMPDEST DUP1 CALLDATALOAD PUSH8 0xFFFFFFFFFFFFFFFF DUP2 GT ISZERO PUSH2 0x1F2 JUMPI PUSH2 0x1F2 PUSH2 0x18E JUMP JUMPDEST PUSH1 0x40 MLOAD PUSH1 0x1F DUP3 ADD PUSH1 0x1F NOT SWAP1 DUP2 AND PUSH1 0x3F ADD AND DUP2 ADD PUSH8 0xFFFFFFFFFFFFFFFF DUP2 GT DUP3 DUP3 LT OR ISZERO PUSH2 0x221 JUMPI PUSH2 0x221 PUSH2 0x18E JUMP JUMPDEST PUSH1 0x40 MSTORE DUP2 DUP2 MSTORE DUP3 DUP3 ADD PUSH1 0x20 ADD DUP7 LT ISZERO PUSH2 0x238 JUMPI PUSH0 PUSH0 REVERT JUMPDEST DUP2 PUSH1 0x20 DUP5 ADD PUSH1 0x20 DUP4 ADD CALLDATACOPY PUSH0 SWAP2 DUP2 ADD PUSH1 0x20 ADD SWAP2 SWAP1 SWAP2 MSTORE SWAP5 SWAP4 POP POP POP POP JUMP JUMPDEST PUSH1 0x1 DUP2 DUP2 SHR SWAP1 DUP3 AND DUP1 PUSH2 0x269 JUMPI PUSH1 0x7F DUP3 AND SWAP2 POP JUMPDEST PUSH1 0x20 DUP3 LT DUP2 SUB PUSH2 0x287 JUMPI PUSH4 0x4E487B71 PUSH1 0xE0 SHL PUSH0 MSTORE PUSH1 0x22 PUSH1 0x4 MSTORE PUSH1 0x24 PUSH0 REVERT JUMPDEST POP SWAP2 SWAP1 POP JUMP JUMPDEST DUP1 DUP3 ADD DUP1 DUP3 GT ISZERO PUSH2 0x2AC JUMPI PUSH4 0x4E487B71 PUSH1 0xE0 SHL PUSH0 MSTORE PUSH1 0x11 PUSH1 0x4 MSTORE PUSH1 0x24 PUSH0 REVERT JUMPDEST SWAP3 SWAP2 POP POP JUMP JUMPDEST PUSH1 0x1F DUP3 GT ISZERO PUSH2 0x2F9 JUMPI DUP1 PUSH0 MSTORE PUSH1 0x20 PUSH0 KECCAK256 PUSH1 0x1F DUP5 ADD PUSH1 0x5 SHR DUP2 ADD PUSH1 0x20 DUP6 LT ISZERO PUSH2 0x2D7 JUMPI POP DUP1 JUMPDEST PUSH1 0x1F DUP5 ADD PUSH1 0x5 SHR DUP3 ADD SWAP2 POP JUMPDEST DUP2 DUP2 LT ISZERO PUSH2 0x2F6 JUMPI PUSH0 DUP2 SSTORE PUSH1 0x1 ADD PUSH2 0x2E3 JUMP JUMPDEST POP POP JUMPDEST POP POP POP JUMP JUMPDEST DUP2 MLOAD PUSH8 0xFFFFFFFFFFFFFFFF DUP2 GT ISZERO PUSH2 0x318 JUMPI PUSH2 0x318 PUSH2 0x18E JUMP JUMPDEST PUSH2 0x32C DUP2 PUSH2 0x326 DUP5 SLOAD PUSH2 0x255 JUMP JUMPDEST DUP5 PUSH2 0x2B2 JUMP JUMPDEST PUSH1 0x20 PUSH1 0x1F DUP3 GT PUSH1 0x1 DUP2 EQ PUSH2 0x35E JUMPI PUSH0 DUP4 ISZERO PUSH2 0x347 JUMPI POP DUP5 DUP3 ADD MLOAD JUMPDEST PUSH0 NOT PUSH1 0x3 DUP6 SWAP1 SHL SHR NOT AND PUSH1 0x1 DUP5 SWAP1 SHL OR DUP5 SSTORE PUSH2 0x2F6 JUMP JUMPDEST PUSH0 DUP5 DUP2 MSTORE PUSH1 0x20 DUP2 KECCAK256 PUSH1 0x1F NOT DUP6 AND SWAP2 JUMPDEST DUP3 DUP2 LT ISZERO PUSH2 0x38D JUMPI DUP8 DUP6 ADD MLOAD DUP3 SSTORE PUSH1 0x20 SWAP5 DUP6 ADD SWAP5 PUSH1 0x1 SWAP1 SWAP3 ADD SWAP2 ADD PUSH2 0x36D JUMP JUMPDEST POP DUP5 DUP3 LT ISZERO PUSH2 0x3AA JUMPI DUP7 DUP5 ADD MLOAD PUSH0 NOT PUSH1 0x3 DUP8 SWAP1 SHL PUSH1 0xF8 AND SHR NOT AND DUP2 SSTORE JUMPDEST POP POP POP POP PUSH1 0x1 SWAP1 DUP2 SHL ADD SWAP1 SSTORE POP JUMP INVALID LOG2 PUSH5 0x6970667358 0x22 SLT KECCAK256 DUP9 MUL 0xEB DATALOADN 0xFF8C PUSH1 0xBE 0xC6 BLOCKHASH GASLIMIT 0xE9 DUP11 REVERT 0xCD 0x2A TLOAD SWAP15 CALLCODE KECCAK256 SLT 0xCD PUSH1 0x18 RETURNCONTRACT 0x4B 0xA6 POP 0xCE RJUMPI 0x2FFD PUSH5 0x736F6C6343 STOP ADDMOD 0x1E STOP CALLER "
				},
				"gasEstimates": {
					"creation": {
						"codeDepositCost": "201400",
						"executionCost": "infinite",
						"totalCost": "infinite"
					},
					"external": {
						"age()": "2293",
						"name()": "infinite",
						"setAge()": "26632",
						"setName(string)": "infinite"
					}
				},
				"methodIdentifiers": {
					"age()": "262a9dff",
					"name()": "06fdde03",
					"setAge()": "457676ee",
					"setName(string)": "c47f0027"
				}
			},
			"storageLayout": {
				"storage": [
					{
						"astId": 3,
						"contract": "2-State Variables/state.sol:State",
						"label": "age",
						"offset": 0,
						"slot": "0",
						"type": "t_uint256"
					},
					{
						"astId": 5,
						"contract": "2-State Variables/state.sol:State",
						"label": "name",
						"offset": 0,
						"slot": "1",
						"type": "t_string_storage"
					}
				],
				"types": {
					"t_string_storage": {
						"encoding": "bytes",
						"label": "string",
						"numberOfBytes": "32"
					},
					"t_uint256": {
						"encoding": "inplace",
						"label": "uint256",
						"numberOfBytes": "32"
					}
				}
			},
			"userdoc": {
				"kind": "user",
				"methods": {},
				"version": 1
			}
		}
	}
}