{
	"11-Storage Locations/Storage_Memory.sol": {
		"demo": {
			"abi": [
				{
					"inputs": [],
					"name": "demonstrateGasCosts",
					"outputs": [],
					"stateMutability": "nonpayable",
					"type": "function"
				},
				{
					"inputs": [],
					"name": "getStudentArray",
					"outputs": [
						{
							"internalType": "string[]",
							"name": "",
							"type": "string[]"
						}
					],
					"stateMutability": "view",
					"type": "function"
				},
				{
					"inputs": [],
					"name": "hasMemory",
					"outputs": [],
					"stateMutability": "nonpayable",
					"type": "function"
				},
				{
					"inputs": [],
					"name": "hasStorage",
					"outputs": [],
					"stateMutability": "nonpayable",
					"type": "function"
				},
				{
					"inputs": [],
					"name": "memoryVsStorageStruct",
					"outputs": [],
					"stateMutability": "nonpayable",
					"type": "function"
				},
				{
					"inputs": [],
					"name": "person",
					"outputs": [
						{
							"internalType": "string",
							"name": "name",
							"type": "string"
						},
						{
							"internalType": "uint256",
							"name": "age",
							"type": "uint256"
						}
					],
					"stateMutability": "view",
					"type": "function"
				},
				{
					"inputs": [
						{
							"internalType": "uint256",
							"name": "",
							"type": "uint256"
						}
					],
					"name": "student",
					"outputs": [
						{
							"internalType": "string",
							"name": "",
							"type": "string"
						}
					],
					"stateMutability": "view",
					"type": "function"
				}
			],
			"devdoc": {
				"details": "Shows the difference between storage and memory data locations in Solidity",
				"kind": "dev",
				"methods": {
					"demonstrateGasCosts()": {
						"details": "Function showing gas costs of memory vs storage operations"
					},
					"getStudentArray()": {
						"details": "Function showing the current state of the student array",
						"returns": {
							"_0": "The current student array from storage"
						}
					},
					"hasMemory()": {
						"details": "Function demonstrating memory data location behaviorData Location: memory - Creates an independent copy of the array - Changes to s1 don't affect the original student array - Memory arrays are temporary and exist only during execution - More gas efficient for read operations but creates copiesUse Case: When you need to work with array data without modifying storage"
					},
					"hasStorage()": {
						"details": "Function demonstrating storage data location behaviorData Location: storage - Creates a reference to the existing storage array - Changes to s1 directly modify the original student array - No copying overhead but modifies persistent storage - More gas efficient for write operations but changes are permanentUse Case: When you need to modify the original storage arrayWARNING: Be careful as this modifies contract state directly"
					}
				},
				"stateVariables": {
					"student": {
						"details": "Storage array initialized with three student names"
					}
				},
				"title": "Storage vs Memory Demonstration",
				"version": 1
			},
			"evm": {
				"assembly": "    /* \"11-Storage Locations/Storage_Memory.sol\":666:719  string[] public student = [\"Alice\", \"Bob\", \"Charlie\"] */\n  0x05\n  0xe0\n  swap1\n  dup2\n  mstore\n  mstore(0x0100, shl(0xd8, 0x416c696365))\n    /* \"11-Storage Locations/Storage_Memory.sol\":360:4668  contract demo {... */\n  0x80\n    /* \"11-Storage Locations/Storage_Memory.sol\":666:719  string[] public student = [\"Alice\", \"Bob\", \"Charlie\"] */\n  swap1\n  dup2\n  mstore\n  0x03\n  0x0120\n  dup2\n  dup2\n  mstore\n  mstore(0x0140, shl(0xe9, 0x2137b1))\n  0xa0\n  mstore\n  0x01a0\n    /* \"11-Storage Locations/Storage_Memory.sol\":360:4668  contract demo {... */\n  0x40\n    /* \"11-Storage Locations/Storage_Memory.sol\":666:719  string[] public student = [\"Alice\", \"Bob\", \"Charlie\"] */\n  mstore\n  0x07\n  0x0160\n  swap1\n  dup2\n  mstore\n  mstore(0x0180, shl(0xc8, 0x436861726c6965))\n  0xc0\n  mstore\n  tag_1\n  swap2\n  0x00\n  swap2\n  tag_2\n  jump\t// in\ntag_1:\n  pop\n    /* \"11-Storage Locations/Storage_Memory.sol\":3645:3664  Person(\"Alice\", 25) */\n  0x40\n  dup1\n  mload\n  0x80\n  dup2\n  add\n  dup3\n  mstore\n  0x05\n  swap2\n  dup2\n  add\n  swap2\n  dup3\n  mstore\n  shl(0xd8, 0x416c696365)\n  0x60\n  dup3\n  add\n  mstore\n  dup2\n  dup2\n  mstore\n    /* \"11-Storage Locations/Storage_Memory.sol\":3661:3663  25 */\n  0x19\n    /* \"11-Storage Locations/Storage_Memory.sol\":3645:3664  Person(\"Alice\", 25) */\n  0x20\n  dup3\n  add\n  mstore\n  swap1\n    /* \"11-Storage Locations/Storage_Memory.sol\":3622:3664  Person public person = Person(\"Alice\", 25) */\n  0x01\n  swap1\n  dup2\n  swap1\n  tag_3\n  swap1\n  dup3\n  tag_4\n  jump\t// in\ntag_3:\n  pop\n  0x20\n  dup3\n  add\n  mload\n  dup2\n  0x01\n  add\n  sstore\n  pop\n  pop\n    /* \"11-Storage Locations/Storage_Memory.sol\":360:4668  contract demo {... */\n  callvalue\n  dup1\n  iszero\n  tag_5\n  jumpi\n  revert(0x00, 0x00)\ntag_5:\n  pop\n  jump(tag_29)\ntag_2:\n  dup3\n  dup1\n  sload\n  dup3\n  dup3\n  sstore\n  swap1\n  0x00\n  mstore\n  keccak256(0x00, 0x20)\n  swap1\n  dup2\n  add\n  swap3\n  dup3\n  iszero\n  tag_9\n  jumpi\n  swap2\n  0x20\n  mul\n  dup3\n  add\ntag_8:\n  dup3\n  dup2\n  gt\n  iszero\n  tag_9\n  jumpi\n  dup3\n  mload\n  dup3\n  swap1\n  tag_10\n  swap1\n  dup3\n  tag_4\n  jump\t// in\ntag_10:\n  pop\n  swap2\n  0x20\n  add\n  swap2\n  swap1\n  0x01\n  add\n  swap1\n  jump(tag_8)\ntag_9:\n  pop\n  tag_11\n  swap3\n  swap2\n  pop\n  tag_12\n  jump\t// in\ntag_11:\n  pop\n  swap1\n  jump\t// out\ntag_12:\n  dup1\n  dup3\n  gt\n  iszero\n  tag_11\n  jumpi\n  0x00\n  tag_15\n  dup3\n  dup3\n  tag_16\n  jump\t// in\ntag_15:\n  pop\n  0x01\n  add\n  jump(tag_12)\ntag_16:\n  pop\n  dup1\n  sload\n  tag_17\n  swap1\n  tag_18\n  jump\t// in\ntag_17:\n  0x00\n  dup3\n  sstore\n  dup1\n  0x1f\n  lt\n  tag_20\n  jumpi\n  pop\n  pop\n  jump\t// out\ntag_20:\n  0x1f\n  add\n  0x20\n  swap1\n  div\n  swap1\n  0x00\n  mstore\n  keccak256(0x00, 0x20)\n  swap1\n  dup2\n  add\n  swap1\n  tag_21\n  swap2\n  swap1\n  tag_22\n  jump\t// in\ntag_21:\n  pop\n  jump\t// out\ntag_22:\ntag_23:\n  dup1\n  dup3\n  gt\n  iszero\n  tag_11\n  jumpi\n  0x00\n  dup2\n  sstore\n  0x01\n  add\n  jump(tag_23)\n    /* \"#utility.yul\":14:141   */\ntag_25:\n    /* \"#utility.yul\":75:85   */\n  0x4e487b71\n    /* \"#utility.yul\":70:73   */\n  0xe0\n    /* \"#utility.yul\":66:86   */\n  shl\n    /* \"#utility.yul\":63:64   */\n  0x00\n    /* \"#utility.yul\":56:87   */\n  mstore\n    /* \"#utility.yul\":106:110   */\n  0x41\n    /* \"#utility.yul\":103:104   */\n  0x04\n    /* \"#utility.yul\":96:111   */\n  mstore\n    /* \"#utility.yul\":130:134   */\n  0x24\n    /* \"#utility.yul\":127:128   */\n  0x00\n    /* \"#utility.yul\":120:135   */\n  revert\n    /* \"#utility.yul\":146:526   */\ntag_18:\n    /* \"#utility.yul\":225:226   */\n  0x01\n    /* \"#utility.yul\":221:233   */\n  dup2\n  dup2\n  shr\n  swap1\n    /* \"#utility.yul\":268:280   */\n  dup3\n  and\n  dup1\n    /* \"#utility.yul\":289:350   */\n  tag_32\n  jumpi\n    /* \"#utility.yul\":343:347   */\n  0x7f\n    /* \"#utility.yul\":335:341   */\n  dup3\n    /* \"#utility.yul\":331:348   */\n  and\n    /* \"#utility.yul\":321:348   */\n  swap2\n  pop\n    /* \"#utility.yul\":289:350   */\ntag_32:\n    /* \"#utility.yul\":396:398   */\n  0x20\n    /* \"#utility.yul\":388:394   */\n  dup3\n    /* \"#utility.yul\":385:399   */\n  lt\n    /* \"#utility.yul\":365:383   */\n  dup2\n    /* \"#utility.yul\":362:400   */\n  sub\n    /* \"#utility.yul\":359:520   */\n  tag_33\n  jumpi\n    /* \"#utility.yul\":442:452   */\n  0x4e487b71\n    /* \"#utility.yul\":437:440   */\n  0xe0\n    /* \"#utility.yul\":433:453   */\n  shl\n    /* \"#utility.yul\":430:431   */\n  0x00\n    /* \"#utility.yul\":423:454   */\n  mstore\n    /* \"#utility.yul\":477:481   */\n  0x22\n    /* \"#utility.yul\":474:475   */\n  0x04\n    /* \"#utility.yul\":467:482   */\n  mstore\n    /* \"#utility.yul\":505:509   */\n  0x24\n    /* \"#utility.yul\":502:503   */\n  0x00\n    /* \"#utility.yul\":495:510   */\n  revert\n    /* \"#utility.yul\":359:520   */\ntag_33:\n  pop\n    /* \"#utility.yul\":146:526   */\n  swap2\n  swap1\n  pop\n  jump\t// out\n    /* \"#utility.yul\":657:1175   */\ntag_27:\n    /* \"#utility.yul\":759:761   */\n  0x1f\n    /* \"#utility.yul\":754:757   */\n  dup3\n    /* \"#utility.yul\":751:762   */\n  gt\n    /* \"#utility.yul\":748:1169   */\n  iszero\n  tag_36\n  jumpi\n    /* \"#utility.yul\":795:800   */\n  dup1\n    /* \"#utility.yul\":792:793   */\n  0x00\n    /* \"#utility.yul\":785:801   */\n  mstore\n    /* \"#utility.yul\":839:843   */\n  0x20\n    /* \"#utility.yul\":836:837   */\n  0x00\n    /* \"#utility.yul\":826:844   */\n  keccak256\n    /* \"#utility.yul\":909:911   */\n  0x1f\n    /* \"#utility.yul\":897:907   */\n  dup5\n    /* \"#utility.yul\":893:912   */\n  add\n    /* \"#utility.yul\":890:891   */\n  0x05\n    /* \"#utility.yul\":886:913   */\n  shr\n    /* \"#utility.yul\":880:884   */\n  dup2\n    /* \"#utility.yul\":876:914   */\n  add\n    /* \"#utility.yul\":945:949   */\n  0x20\n    /* \"#utility.yul\":933:943   */\n  dup6\n    /* \"#utility.yul\":930:950   */\n  lt\n    /* \"#utility.yul\":927:974   */\n  iszero\n  tag_37\n  jumpi\n  pop\n    /* \"#utility.yul\":968:972   */\n  dup1\n    /* \"#utility.yul\":927:974   */\ntag_37:\n    /* \"#utility.yul\":1023:1025   */\n  0x1f\n    /* \"#utility.yul\":1018:1021   */\n  dup5\n    /* \"#utility.yul\":1014:1026   */\n  add\n    /* \"#utility.yul\":1011:1012   */\n  0x05\n    /* \"#utility.yul\":1007:1027   */\n  shr\n    /* \"#utility.yul\":1001:1005   */\n  dup3\n    /* \"#utility.yul\":997:1028   */\n  add\n    /* \"#utility.yul\":987:1028   */\n  swap2\n  pop\n    /* \"#utility.yul\":1078:1159   */\ntag_38:\n    /* \"#utility.yul\":1096:1098   */\n  dup2\n    /* \"#utility.yul\":1089:1094   */\n  dup2\n    /* \"#utility.yul\":1086:1099   */\n  lt\n    /* \"#utility.yul\":1078:1159   */\n  iszero\n  tag_40\n  jumpi\n    /* \"#utility.yul\":1155:1156   */\n  0x00\n    /* \"#utility.yul\":1141:1157   */\n  dup2\n  sstore\n    /* \"#utility.yul\":1122:1123   */\n  0x01\n    /* \"#utility.yul\":1111:1124   */\n  add\n    /* \"#utility.yul\":1078:1159   */\n  jump(tag_38)\ntag_40:\n    /* \"#utility.yul\":1082:1085   */\n  pop\n  pop\n    /* \"#utility.yul\":748:1169   */\ntag_36:\n    /* \"#utility.yul\":657:1175   */\n  pop\n  pop\n  pop\n  jump\t// out\n    /* \"#utility.yul\":1351:2650   */\ntag_4:\n    /* \"#utility.yul\":1471:1481   */\n  dup2\n  mload\n  sub(shl(0x40, 0x01), 0x01)\n    /* \"#utility.yul\":1493:1523   */\n  dup2\n  gt\n    /* \"#utility.yul\":1490:1546   */\n  iszero\n  tag_44\n  jumpi\n    /* \"#utility.yul\":1526:1544   */\n  tag_44\n  tag_25\n  jump\t// in\ntag_44:\n    /* \"#utility.yul\":1555:1652   */\n  tag_45\n    /* \"#utility.yul\":1645:1651   */\n  dup2\n    /* \"#utility.yul\":1605:1643   */\n  tag_46\n    /* \"#utility.yul\":1637:1641   */\n  dup5\n    /* \"#utility.yul\":1631:1642   */\n  sload\n    /* \"#utility.yul\":1605:1643   */\n  tag_18\n  jump\t// in\ntag_46:\n    /* \"#utility.yul\":1599:1603   */\n  dup5\n    /* \"#utility.yul\":1555:1652   */\n  tag_27\n  jump\t// in\ntag_45:\n    /* \"#utility.yul\":1701:1705   */\n  0x20\n    /* \"#utility.yul\":1732:1734   */\n  0x1f\n    /* \"#utility.yul\":1721:1735   */\n  dup3\n  gt\n    /* \"#utility.yul\":1749:1750   */\n  0x01\n    /* \"#utility.yul\":1744:2393   */\n  dup2\n  eq\n  tag_48\n  jumpi\n    /* \"#utility.yul\":2437:2438   */\n  0x00\n    /* \"#utility.yul\":2454:2460   */\n  dup4\n    /* \"#utility.yul\":2451:2540   */\n  iszero\n  tag_49\n  jumpi\n  pop\n    /* \"#utility.yul\":2506:2525   */\n  dup5\n  dup3\n  add\n    /* \"#utility.yul\":2500:2526   */\n  mload\n    /* \"#utility.yul\":2451:2540   */\ntag_49:\n  not(0x00)\n    /* \"#utility.yul\":1308:1309   */\n  0x03\n    /* \"#utility.yul\":1304:1315   */\n  dup6\n  swap1\n  shl\n    /* \"#utility.yul\":1300:1324   */\n  shr\n    /* \"#utility.yul\":1296:1325   */\n  not\n    /* \"#utility.yul\":1286:1326   */\n  and\n    /* \"#utility.yul\":1332:1333   */\n  0x01\n    /* \"#utility.yul\":1328:1339   */\n  dup5\n  swap1\n  shl\n    /* \"#utility.yul\":1283:1340   */\n  or\n    /* \"#utility.yul\":2553:2634   */\n  dup5\n  sstore\n    /* \"#utility.yul\":1714:2644   */\n  jump(tag_40)\n    /* \"#utility.yul\":1744:2393   */\ntag_48:\n    /* \"#utility.yul\":604:605   */\n  0x00\n    /* \"#utility.yul\":597:611   */\n  dup5\n  dup2\n  mstore\n    /* \"#utility.yul\":641:645   */\n  0x20\n    /* \"#utility.yul\":628:646   */\n  dup2\n  keccak256\n  not(0x1f)\n    /* \"#utility.yul\":1780:1800   */\n  dup6\n  and\n  swap2\n    /* \"#utility.yul\":1898:2120   */\ntag_52:\n    /* \"#utility.yul\":1912:1919   */\n  dup3\n    /* \"#utility.yul\":1909:1910   */\n  dup2\n    /* \"#utility.yul\":1906:1920   */\n  lt\n    /* \"#utility.yul\":1898:2120   */\n  iszero\n  tag_54\n  jumpi\n    /* \"#utility.yul\":1994:2013   */\n  dup8\n  dup6\n  add\n    /* \"#utility.yul\":1988:2014   */\n  mload\n    /* \"#utility.yul\":1973:2015   */\n  dup3\n  sstore\n    /* \"#utility.yul\":2101:2105   */\n  0x20\n    /* \"#utility.yul\":2086:2106   */\n  swap5\n  dup6\n  add\n  swap5\n    /* \"#utility.yul\":2054:2055   */\n  0x01\n    /* \"#utility.yul\":2042:2056   */\n  swap1\n  swap3\n  add\n  swap2\n    /* \"#utility.yul\":1928:1940   */\n  add\n    /* \"#utility.yul\":1898:2120   */\n  jump(tag_52)\ntag_54:\n    /* \"#utility.yul\":1902:1905   */\n  pop\n    /* \"#utility.yul\":2148:2154   */\n  dup5\n    /* \"#utility.yul\":2139:2146   */\n  dup3\n    /* \"#utility.yul\":2136:2155   */\n  lt\n    /* \"#utility.yul\":2133:2334   */\n  iszero\n  tag_55\n  jumpi\n    /* \"#utility.yul\":2209:2228   */\n  dup7\n  dup5\n  add\n    /* \"#utility.yul\":2203:2229   */\n  mload\n  not(0x00)\n    /* \"#utility.yul\":2292:2293   */\n  0x03\n    /* \"#utility.yul\":2288:2302   */\n  dup8\n  swap1\n  shl\n    /* \"#utility.yul\":2304:2307   */\n  0xf8\n    /* \"#utility.yul\":2284:2308   */\n  and\n    /* \"#utility.yul\":2280:2317   */\n  shr\n    /* \"#utility.yul\":2276:2318   */\n  not\n    /* \"#utility.yul\":2261:2319   */\n  and\n    /* \"#utility.yul\":2246:2320   */\n  dup2\n  sstore\n    /* \"#utility.yul\":2133:2334   */\ntag_55:\n  pop\n  pop\n  pop\n  pop\n    /* \"#utility.yul\":2380:2381   */\n  0x01\n    /* \"#utility.yul\":2364:2378   */\n  swap1\n  dup2\n  shl\n    /* \"#utility.yul\":2360:2382   */\n  add\n    /* \"#utility.yul\":2347:2383   */\n  swap1\n  sstore\n  pop\n    /* \"#utility.yul\":1351:2650   */\n  jump\t// out\ntag_29:\n    /* \"11-Storage Locations/Storage_Memory.sol\":360:4668  contract demo {... */\n  dataSize(sub_0)\n  dup1\n  dataOffset(sub_0)\n  0x00\n  codecopy\n  0x00\n  return\nstop\n\nsub_0: assembly {\n        /* \"11-Storage Locations/Storage_Memory.sol\":360:4668  contract demo {... */\n      mstore(0x40, 0x80)\n      callvalue\n      dup1\n      iszero\n      tag_1\n      jumpi\n      revert(0x00, 0x00)\n    tag_1:\n      pop\n      jumpi(tag_2, lt(calldatasize, 0x04))\n      shr(0xe0, calldataload(0x00))\n      dup1\n      0x8f23be8c\n      gt\n      tag_10\n      jumpi\n      dup1\n      0x8f23be8c\n      eq\n      tag_6\n      jumpi\n      dup1\n      0xc256f80c\n      eq\n      tag_7\n      jumpi\n      dup1\n      0xd4b9384e\n      eq\n      tag_8\n      jumpi\n      dup1\n      0xf0c9a026\n      eq\n      tag_9\n      jumpi\n      revert(0x00, 0x00)\n    tag_10:\n      dup1\n      0x35f34232\n      eq\n      tag_3\n      jumpi\n      dup1\n      0x75339cbf\n      eq\n      tag_4\n      jumpi\n      dup1\n      0x77ec2b55\n      eq\n      tag_5\n      jumpi\n    tag_2:\n      revert(0x00, 0x00)\n        /* \"11-Storage Locations/Storage_Memory.sol\":666:719  string[] public student = [\"Alice\", \"Bob\", \"Charlie\"] */\n    tag_3:\n      tag_11\n      tag_12\n      calldatasize\n      0x04\n      tag_13\n      jump\t// in\n    tag_12:\n      tag_14\n      jump\t// in\n    tag_11:\n      mload(0x40)\n      tag_15\n      swap2\n      swap1\n      tag_16\n      jump\t// in\n    tag_15:\n      mload(0x40)\n      dup1\n      swap2\n      sub\n      swap1\n      return\n        /* \"11-Storage Locations/Storage_Memory.sol\":4237:4666  function demonstrateGasCosts() public {... */\n    tag_4:\n      tag_17\n      tag_18\n      jump\t// in\n    tag_17:\n      stop\n        /* \"11-Storage Locations/Storage_Memory.sol\":3622:3664  Person public person = Person(\"Alice\", 25) */\n    tag_5:\n      tag_19\n      tag_20\n      jump\t// in\n    tag_19:\n      mload(0x40)\n      tag_15\n      swap3\n      swap2\n      swap1\n      tag_22\n      jump\t// in\n        /* \"11-Storage Locations/Storage_Memory.sol\":3301:3397  function getStudentArray() public view returns (string[] memory) {... */\n    tag_6:\n      tag_23\n      tag_24\n      jump\t// in\n    tag_23:\n      mload(0x40)\n      tag_15\n      swap2\n      swap1\n      tag_26\n      jump\t// in\n        /* \"11-Storage Locations/Storage_Memory.sol\":1306:1870  function hasMemory() public {... */\n    tag_7:\n      tag_17\n      tag_28\n      jump\t// in\n        /* \"11-Storage Locations/Storage_Memory.sol\":3671:3985  function memoryVsStorageStruct() public {... */\n    tag_8:\n      tag_17\n      tag_30\n      jump\t// in\n        /* \"11-Storage Locations/Storage_Memory.sol\":2519:3082  function hasStorage() public {... */\n    tag_9:\n      tag_17\n      tag_32\n      jump\t// in\n        /* \"11-Storage Locations/Storage_Memory.sol\":666:719  string[] public student = [\"Alice\", \"Bob\", \"Charlie\"] */\n    tag_14:\n      0x00\n      dup2\n      dup2\n      sload\n      dup2\n      lt\n      tag_33\n      jumpi\n      0x00\n      dup1\n      revert\n    tag_33:\n      swap1\n      0x00\n      mstore\n      keccak256(0x00, 0x20)\n      add\n      0x00\n      swap2\n      pop\n      swap1\n      pop\n      dup1\n      sload\n      tag_35\n      swap1\n      tag_36\n      jump\t// in\n    tag_35:\n      dup1\n      0x1f\n      add\n      0x20\n      dup1\n      swap2\n      div\n      mul\n      0x20\n      add\n      mload(0x40)\n      swap1\n      dup2\n      add\n      0x40\n      mstore\n      dup1\n      swap3\n      swap2\n      swap1\n      dup2\n      dup2\n      mstore\n      0x20\n      add\n      dup3\n      dup1\n      sload\n      tag_37\n      swap1\n      tag_36\n      jump\t// in\n    tag_37:\n      dup1\n      iszero\n      tag_38\n      jumpi\n      dup1\n      0x1f\n      lt\n      tag_39\n      jumpi\n      0x0100\n      dup1\n      dup4\n      sload\n      div\n      mul\n      dup4\n      mstore\n      swap2\n      0x20\n      add\n      swap2\n      jump(tag_38)\n    tag_39:\n      dup3\n      add\n      swap2\n      swap1\n      0x00\n      mstore\n      keccak256(0x00, 0x20)\n      swap1\n    tag_40:\n      dup2\n      sload\n      dup2\n      mstore\n      swap1\n      0x01\n      add\n      swap1\n      0x20\n      add\n      dup1\n      dup4\n      gt\n      tag_40\n      jumpi\n      dup3\n      swap1\n      sub\n      0x1f\n      and\n      dup3\n      add\n      swap2\n    tag_38:\n      pop\n      pop\n      pop\n      pop\n      pop\n      dup2\n      jump\t// out\n        /* \"11-Storage Locations/Storage_Memory.sol\":4237:4666  function demonstrateGasCosts() public {... */\n    tag_18:\n        /* \"11-Storage Locations/Storage_Memory.sol\":4440:4464  string[] memory memArray */\n      0x00\n        /* \"11-Storage Locations/Storage_Memory.sol\":4467:4474  student */\n      0x00\n        /* \"11-Storage Locations/Storage_Memory.sol\":4440:4474  string[] memory memArray = student */\n      dup1\n      sload\n      dup1\n      0x20\n      mul\n      0x20\n      add\n      mload(0x40)\n      swap1\n      dup2\n      add\n      0x40\n      mstore\n      dup1\n      swap3\n      swap2\n      swap1\n      dup2\n      dup2\n      mstore\n      0x20\n      add\n      0x00\n      swap1\n    tag_42:\n      dup3\n      dup3\n      lt\n      iszero\n      tag_43\n      jumpi\n      dup4\n      dup3\n      swap1\n      0x00\n      mstore\n      keccak256(0x00, 0x20)\n      add\n      dup1\n      sload\n      tag_45\n      swap1\n      tag_36\n      jump\t// in\n    tag_45:\n      dup1\n      0x1f\n      add\n      0x20\n      dup1\n      swap2\n      div\n      mul\n      0x20\n      add\n      mload(0x40)\n      swap1\n      dup2\n      add\n      0x40\n      mstore\n      dup1\n      swap3\n      swap2\n      swap1\n      dup2\n      dup2\n      mstore\n      0x20\n      add\n      dup3\n      dup1\n      sload\n      tag_46\n      swap1\n      tag_36\n      jump\t// in\n    tag_46:\n      dup1\n      iszero\n      tag_47\n      jumpi\n      dup1\n      0x1f\n      lt\n      tag_48\n      jumpi\n      0x0100\n      dup1\n      dup4\n      sload\n      div\n      mul\n      dup4\n      mstore\n      swap2\n      0x20\n      add\n      swap2\n      jump(tag_47)\n    tag_48:\n      dup3\n      add\n      swap2\n      swap1\n      0x00\n      mstore\n      keccak256(0x00, 0x20)\n      swap1\n    tag_49:\n      dup2\n      sload\n      dup2\n      mstore\n      swap1\n      0x01\n      add\n      swap1\n      0x20\n      add\n      dup1\n      dup4\n      gt\n      tag_49\n      jumpi\n      dup3\n      swap1\n      sub\n      0x1f\n      and\n      dup3\n      add\n      swap2\n    tag_47:\n      pop\n      pop\n      pop\n      pop\n      pop\n      dup2\n      mstore\n      0x20\n      add\n      swap1\n      0x01\n      add\n      swap1\n      jump(tag_42)\n    tag_43:\n      pop\n      pop\n      pop\n      pop\n      pop\n      pop\n        /* \"11-Storage Locations/Storage_Memory.sol\":4237:4666  function demonstrateGasCosts() public {... */\n      jump\t// out\n        /* \"11-Storage Locations/Storage_Memory.sol\":3622:3664  Person public person = Person(\"Alice\", 25) */\n    tag_20:\n      0x01\n      dup1\n      sload\n      dup2\n      swap1\n      tag_50\n      swap1\n      tag_36\n      jump\t// in\n    tag_50:\n      dup1\n      0x1f\n      add\n      0x20\n      dup1\n      swap2\n      div\n      mul\n      0x20\n      add\n      mload(0x40)\n      swap1\n      dup2\n      add\n      0x40\n      mstore\n      dup1\n      swap3\n      swap2\n      swap1\n      dup2\n      dup2\n      mstore\n      0x20\n      add\n      dup3\n      dup1\n      sload\n      tag_51\n      swap1\n      tag_36\n      jump\t// in\n    tag_51:\n      dup1\n      iszero\n      tag_52\n      jumpi\n      dup1\n      0x1f\n      lt\n      tag_53\n      jumpi\n      0x0100\n      dup1\n      dup4\n      sload\n      div\n      mul\n      dup4\n      mstore\n      swap2\n      0x20\n      add\n      swap2\n      jump(tag_52)\n    tag_53:\n      dup3\n      add\n      swap2\n      swap1\n      0x00\n      mstore\n      keccak256(0x00, 0x20)\n      swap1\n    tag_54:\n      dup2\n      sload\n      dup2\n      mstore\n      swap1\n      0x01\n      add\n      swap1\n      0x20\n      add\n      dup1\n      dup4\n      gt\n      tag_54\n      jumpi\n      dup3\n      swap1\n      sub\n      0x1f\n      and\n      dup3\n      add\n      swap2\n    tag_52:\n      pop\n      pop\n      pop\n      pop\n      pop\n      swap1\n      dup1\n      0x01\n      add\n      sload\n      swap1\n      pop\n      dup3\n      jump\t// out\n        /* \"11-Storage Locations/Storage_Memory.sol\":3301:3397  function getStudentArray() public view returns (string[] memory) {... */\n    tag_24:\n        /* \"11-Storage Locations/Storage_Memory.sol\":3349:3364  string[] memory */\n      0x60\n        /* \"11-Storage Locations/Storage_Memory.sol\":3383:3390  student */\n      0x00\n        /* \"11-Storage Locations/Storage_Memory.sol\":3376:3390  return student */\n      dup1\n      sload\n      dup1\n      0x20\n      mul\n      0x20\n      add\n      mload(0x40)\n      swap1\n      dup2\n      add\n      0x40\n      mstore\n      dup1\n      swap3\n      swap2\n      swap1\n      dup2\n      dup2\n      mstore\n      0x20\n      add\n      0x00\n      swap1\n    tag_56:\n      dup3\n      dup3\n      lt\n      iszero\n      tag_57\n      jumpi\n      dup4\n      dup3\n      swap1\n      0x00\n      mstore\n      keccak256(0x00, 0x20)\n      add\n      dup1\n      sload\n      tag_59\n      swap1\n      tag_36\n      jump\t// in\n    tag_59:\n      dup1\n      0x1f\n      add\n      0x20\n      dup1\n      swap2\n      div\n      mul\n      0x20\n      add\n      mload(0x40)\n      swap1\n      dup2\n      add\n      0x40\n      mstore\n      dup1\n      swap3\n      swap2\n      swap1\n      dup2\n      dup2\n      mstore\n      0x20\n      add\n      dup3\n      dup1\n      sload\n      tag_60\n      swap1\n      tag_36\n      jump\t// in\n    tag_60:\n      dup1\n      iszero\n      tag_61\n      jumpi\n      dup1\n      0x1f\n      lt\n      tag_62\n      jumpi\n      0x0100\n      dup1\n      dup4\n      sload\n      div\n      mul\n      dup4\n      mstore\n      swap2\n      0x20\n      add\n      swap2\n      jump(tag_61)\n    tag_62:\n      dup3\n      add\n      swap2\n      swap1\n      0x00\n      mstore\n      keccak256(0x00, 0x20)\n      swap1\n    tag_63:\n      dup2\n      sload\n      dup2\n      mstore\n      swap1\n      0x01\n      add\n      swap1\n      0x20\n      add\n      dup1\n      dup4\n      gt\n      tag_63\n      jumpi\n      dup3\n      swap1\n      sub\n      0x1f\n      and\n      dup3\n      add\n      swap2\n    tag_61:\n      pop\n      pop\n      pop\n      pop\n      pop\n      dup2\n      mstore\n      0x20\n      add\n      swap1\n      0x01\n      add\n      swap1\n      jump(tag_56)\n    tag_57:\n      pop\n      pop\n      pop\n      pop\n      swap1\n      pop\n        /* \"11-Storage Locations/Storage_Memory.sol\":3301:3397  function getStudentArray() public view returns (string[] memory) {... */\n      swap1\n      jump\t// out\n        /* \"11-Storage Locations/Storage_Memory.sol\":1306:1870  function hasMemory() public {... */\n    tag_28:\n        /* \"11-Storage Locations/Storage_Memory.sol\":1497:1515  string[] memory s1 */\n      0x00\n        /* \"11-Storage Locations/Storage_Memory.sol\":1518:1525  student */\n      0x00\n        /* \"11-Storage Locations/Storage_Memory.sol\":1497:1525  string[] memory s1 = student */\n      dup1\n      sload\n      dup1\n      0x20\n      mul\n      0x20\n      add\n      mload(0x40)\n      swap1\n      dup2\n      add\n      0x40\n      mstore\n      dup1\n      swap3\n      swap2\n      swap1\n      dup2\n      dup2\n      mstore\n      0x20\n      add\n      0x00\n      swap1\n    tag_65:\n      dup3\n      dup3\n      lt\n      iszero\n      tag_66\n      jumpi\n      dup4\n      dup3\n      swap1\n      0x00\n      mstore\n      keccak256(0x00, 0x20)\n      add\n      dup1\n      sload\n      tag_68\n      swap1\n      tag_36\n      jump\t// in\n    tag_68:\n      dup1\n      0x1f\n      add\n      0x20\n      dup1\n      swap2\n      div\n      mul\n      0x20\n      add\n      mload(0x40)\n      swap1\n      dup2\n      add\n      0x40\n      mstore\n      dup1\n      swap3\n      swap2\n      swap1\n      dup2\n      dup2\n      mstore\n      0x20\n      add\n      dup3\n      dup1\n      sload\n      tag_69\n      swap1\n      tag_36\n      jump\t// in\n    tag_69:\n      dup1\n      iszero\n      tag_70\n      jumpi\n      dup1\n      0x1f\n      lt\n      tag_71\n      jumpi\n      0x0100\n      dup1\n      dup4\n      sload\n      div\n      mul\n      dup4\n      mstore\n      swap2\n      0x20\n      add\n      swap2\n      jump(tag_70)\n    tag_71:\n      dup3\n      add\n      swap2\n      swap1\n      0x00\n      mstore\n      keccak256(0x00, 0x20)\n      swap1\n    tag_72:\n      dup2\n      sload\n      dup2\n      mstore\n      swap1\n      0x01\n      add\n      swap1\n      0x20\n      add\n      dup1\n      dup4\n      gt\n      tag_72\n      jumpi\n      dup3\n      swap1\n      sub\n      0x1f\n      and\n      dup3\n      add\n      swap2\n    tag_70:\n      pop\n      pop\n      pop\n      pop\n      pop\n      dup2\n      mstore\n      0x20\n      add\n      swap1\n      0x01\n      add\n      swap1\n      jump(tag_65)\n    tag_66:\n      pop\n      pop\n      pop\n      pop\n      swap1\n      pop\n        /* \"11-Storage Locations/Storage_Memory.sol\":1664:1679  s1[0] = \"David\" */\n      mload(0x40)\n      dup1\n      0x40\n      add\n      0x40\n      mstore\n      dup1\n      0x05\n      dup2\n      mstore\n      0x20\n      add\n      shl(0xda, 0x11185d9a59)\n      dup2\n      mstore\n      pop\n        /* \"11-Storage Locations/Storage_Memory.sol\":1664:1666  s1 */\n      dup2\n        /* \"11-Storage Locations/Storage_Memory.sol\":1667:1668  0 */\n      0x00\n        /* \"11-Storage Locations/Storage_Memory.sol\":1664:1669  s1[0] */\n      dup2\n      mload\n      dup2\n      lt\n      tag_74\n      jumpi\n      tag_74\n      tag_75\n      jump\t// in\n    tag_74:\n      0x20\n      mul\n      0x20\n      add\n      add\n        /* \"11-Storage Locations/Storage_Memory.sol\":1664:1679  s1[0] = \"David\" */\n      dup2\n      swap1\n      mstore\n      pop\n        /* \"11-Storage Locations/Storage_Memory.sol\":1334:1870  {... */\n      pop\n        /* \"11-Storage Locations/Storage_Memory.sol\":1306:1870  function hasMemory() public {... */\n      jump\t// out\n        /* \"11-Storage Locations/Storage_Memory.sol\":3671:3985  function memoryVsStorageStruct() public {... */\n    tag_30:\n        /* \"11-Storage Locations/Storage_Memory.sol\":3758:3776  Person memory pMem */\n      0x00\n        /* \"11-Storage Locations/Storage_Memory.sol\":3779:3785  person */\n      0x01\n        /* \"11-Storage Locations/Storage_Memory.sol\":3758:3785  Person memory pMem = person */\n      mload(0x40)\n      dup1\n      0x40\n      add\n      0x40\n      mstore\n      swap1\n      dup2\n      0x00\n      dup3\n      add\n      dup1\n      sload\n      tag_77\n      swap1\n      tag_36\n      jump\t// in\n    tag_77:\n      dup1\n      0x1f\n      add\n      0x20\n      dup1\n      swap2\n      div\n      mul\n      0x20\n      add\n      mload(0x40)\n      swap1\n      dup2\n      add\n      0x40\n      mstore\n      dup1\n      swap3\n      swap2\n      swap1\n      dup2\n      dup2\n      mstore\n      0x20\n      add\n      dup3\n      dup1\n      sload\n      tag_78\n      swap1\n      tag_36\n      jump\t// in\n    tag_78:\n      dup1\n      iszero\n      tag_79\n      jumpi\n      dup1\n      0x1f\n      lt\n      tag_80\n      jumpi\n      0x0100\n      dup1\n      dup4\n      sload\n      div\n      mul\n      dup4\n      mstore\n      swap2\n      0x20\n      add\n      swap2\n      jump(tag_79)\n    tag_80:\n      dup3\n      add\n      swap2\n      swap1\n      0x00\n      mstore\n      keccak256(0x00, 0x20)\n      swap1\n    tag_81:\n      dup2\n      sload\n      dup2\n      mstore\n      swap1\n      0x01\n      add\n      swap1\n      0x20\n      add\n      dup1\n      dup4\n      gt\n      tag_81\n      jumpi\n      dup3\n      swap1\n      sub\n      0x1f\n      and\n      dup3\n      add\n      swap2\n    tag_79:\n      pop\n      pop\n      pop\n      swap2\n      dup4\n      mstore\n      pop\n      pop\n      0x01\n      swap2\n      swap1\n      swap2\n      add\n      sload\n      0x20\n      swap2\n      dup3\n      add\n      mstore\n        /* \"11-Storage Locations/Storage_Memory.sol\":3795:3812  pMem.name = \"Bob\" */\n      0x40\n      dup1\n      mload\n      dup1\n      dup3\n      add\n      swap1\n      swap2\n      mstore\n      0x03\n      dup2\n      mstore\n      shl(0xe9, 0x2137b1)\n      swap2\n      dup2\n      add\n      swap2\n      swap1\n      swap2\n      mstore\n      swap1\n      mstore\n      pop\n        /* \"11-Storage Locations/Storage_Memory.sol\":3956:3958  30 */\n      0x1e\n        /* \"11-Storage Locations/Storage_Memory.sol\":3941:3953  pStorage.age */\n      0x02\n        /* \"11-Storage Locations/Storage_Memory.sol\":3941:3958  pStorage.age = 30 */\n      sstore\n        /* \"11-Storage Locations/Storage_Memory.sol\":3671:3985  function memoryVsStorageStruct() public {... */\n      jump\t// out\n        /* \"11-Storage Locations/Storage_Memory.sol\":2519:3082  function hasStorage() public {... */\n    tag_32:\n        /* \"11-Storage Locations/Storage_Memory.sol\":2698:2717  string[] storage s1 */\n      0x00\n        /* \"11-Storage Locations/Storage_Memory.sol\":2720:2727  student */\n      0x00\n        /* \"11-Storage Locations/Storage_Memory.sol\":2698:2727  string[] storage s1 = student */\n      swap1\n      pop\n        /* \"11-Storage Locations/Storage_Memory.sol\":2877:2892  s1[0] = \"David\" */\n      mload(0x40)\n      dup1\n      0x40\n      add\n      0x40\n      mstore\n      dup1\n      0x05\n      dup2\n      mstore\n      0x20\n      add\n      shl(0xda, 0x11185d9a59)\n      dup2\n      mstore\n      pop\n        /* \"11-Storage Locations/Storage_Memory.sol\":2877:2879  s1 */\n      dup2\n        /* \"11-Storage Locations/Storage_Memory.sol\":2880:2881  0 */\n      0x00\n        /* \"11-Storage Locations/Storage_Memory.sol\":2877:2882  s1[0] */\n      dup2\n      sload\n      dup2\n      lt\n      tag_84\n      jumpi\n      tag_84\n      tag_75\n      jump\t// in\n    tag_84:\n      swap1\n      0x00\n      mstore\n      keccak256(0x00, 0x20)\n      add\n        /* \"11-Storage Locations/Storage_Memory.sol\":2877:2892  s1[0] = \"David\" */\n      swap1\n      dup2\n      tag_86\n      swap2\n      swap1\n      tag_87\n      jump\t// in\n    tag_86:\n      pop\n        /* \"11-Storage Locations/Storage_Memory.sol\":2548:3082  {... */\n      pop\n        /* \"11-Storage Locations/Storage_Memory.sol\":2519:3082  function hasStorage() public {... */\n      jump\t// out\n        /* \"#utility.yul\":14:194   */\n    tag_13:\n        /* \"#utility.yul\":73:79   */\n      0x00\n        /* \"#utility.yul\":126:128   */\n      0x20\n        /* \"#utility.yul\":114:123   */\n      dup3\n        /* \"#utility.yul\":105:112   */\n      dup5\n        /* \"#utility.yul\":101:124   */\n      sub\n        /* \"#utility.yul\":97:129   */\n      slt\n        /* \"#utility.yul\":94:146   */\n      iszero\n      tag_95\n      jumpi\n        /* \"#utility.yul\":142:143   */\n      0x00\n        /* \"#utility.yul\":139:140   */\n      0x00\n        /* \"#utility.yul\":132:144   */\n      revert\n        /* \"#utility.yul\":94:146   */\n    tag_95:\n      pop\n        /* \"#utility.yul\":165:188   */\n      calldataload\n      swap2\n        /* \"#utility.yul\":14:194   */\n      swap1\n      pop\n      jump\t// out\n        /* \"#utility.yul\":199:488   */\n    tag_88:\n        /* \"#utility.yul\":241:244   */\n      0x00\n        /* \"#utility.yul\":279:284   */\n      dup2\n        /* \"#utility.yul\":273:285   */\n      mload\n        /* \"#utility.yul\":306:312   */\n      dup1\n        /* \"#utility.yul\":301:304   */\n      dup5\n        /* \"#utility.yul\":294:313   */\n      mstore\n        /* \"#utility.yul\":362:368   */\n      dup1\n        /* \"#utility.yul\":355:359   */\n      0x20\n        /* \"#utility.yul\":348:353   */\n      dup5\n        /* \"#utility.yul\":344:360   */\n      add\n        /* \"#utility.yul\":337:341   */\n      0x20\n        /* \"#utility.yul\":332:335   */\n      dup7\n        /* \"#utility.yul\":328:342   */\n      add\n        /* \"#utility.yul\":322:369   */\n      mcopy\n        /* \"#utility.yul\":414:415   */\n      0x00\n        /* \"#utility.yul\":407:411   */\n      0x20\n        /* \"#utility.yul\":398:404   */\n      dup3\n        /* \"#utility.yul\":393:396   */\n      dup7\n        /* \"#utility.yul\":389:405   */\n      add\n        /* \"#utility.yul\":385:412   */\n      add\n        /* \"#utility.yul\":378:416   */\n      mstore\n        /* \"#utility.yul\":477:481   */\n      0x20\n        /* \"#utility.yul\":470:472   */\n      0x1f\n        /* \"#utility.yul\":466:473   */\n      not\n        /* \"#utility.yul\":461:463   */\n      0x1f\n        /* \"#utility.yul\":453:459   */\n      dup4\n        /* \"#utility.yul\":449:464   */\n      add\n        /* \"#utility.yul\":445:474   */\n      and\n        /* \"#utility.yul\":440:443   */\n      dup6\n        /* \"#utility.yul\":436:475   */\n      add\n        /* \"#utility.yul\":432:482   */\n      add\n        /* \"#utility.yul\":425:482   */\n      swap2\n      pop\n      pop\n        /* \"#utility.yul\":199:488   */\n      swap3\n      swap2\n      pop\n      pop\n      jump\t// out\n        /* \"#utility.yul\":493:713   */\n    tag_16:\n        /* \"#utility.yul\":642:644   */\n      0x20\n        /* \"#utility.yul\":631:640   */\n      dup2\n        /* \"#utility.yul\":624:645   */\n      mstore\n        /* \"#utility.yul\":605:609   */\n      0x00\n        /* \"#utility.yul\":662:707   */\n      tag_98\n        /* \"#utility.yul\":703:705   */\n      0x20\n        /* \"#utility.yul\":692:701   */\n      dup4\n        /* \"#utility.yul\":688:706   */\n      add\n        /* \"#utility.yul\":680:686   */\n      dup5\n        /* \"#utility.yul\":662:707   */\n      tag_88\n      jump\t// in\n    tag_98:\n        /* \"#utility.yul\":654:707   */\n      swap4\n        /* \"#utility.yul\":493:713   */\n      swap3\n      pop\n      pop\n      pop\n      jump\t// out\n        /* \"#utility.yul\":718:1009   */\n    tag_22:\n        /* \"#utility.yul\":895:897   */\n      0x40\n        /* \"#utility.yul\":884:893   */\n      dup2\n        /* \"#utility.yul\":877:898   */\n      mstore\n        /* \"#utility.yul\":858:862   */\n      0x00\n        /* \"#utility.yul\":915:960   */\n      tag_100\n        /* \"#utility.yul\":956:958   */\n      0x40\n        /* \"#utility.yul\":945:954   */\n      dup4\n        /* \"#utility.yul\":941:959   */\n      add\n        /* \"#utility.yul\":933:939   */\n      dup6\n        /* \"#utility.yul\":915:960   */\n      tag_88\n      jump\t// in\n    tag_100:\n        /* \"#utility.yul\":907:960   */\n      swap1\n      pop\n        /* \"#utility.yul\":996:1002   */\n      dup3\n        /* \"#utility.yul\":991:993   */\n      0x20\n        /* \"#utility.yul\":980:989   */\n      dup4\n        /* \"#utility.yul\":976:994   */\n      add\n        /* \"#utility.yul\":969:1003   */\n      mstore\n        /* \"#utility.yul\":718:1009   */\n      swap4\n      swap3\n      pop\n      pop\n      pop\n      jump\t// out\n        /* \"#utility.yul\":1014:1796   */\n    tag_26:\n        /* \"#utility.yul\":1176:1180   */\n      0x00\n        /* \"#utility.yul\":1224:1226   */\n      0x20\n        /* \"#utility.yul\":1213:1222   */\n      dup3\n        /* \"#utility.yul\":1209:1227   */\n      add\n        /* \"#utility.yul\":1254:1256   */\n      0x20\n        /* \"#utility.yul\":1243:1252   */\n      dup4\n        /* \"#utility.yul\":1236:1257   */\n      mstore\n        /* \"#utility.yul\":1277:1283   */\n      dup1\n        /* \"#utility.yul\":1312:1318   */\n      dup5\n        /* \"#utility.yul\":1306:1319   */\n      mload\n        /* \"#utility.yul\":1343:1349   */\n      dup1\n        /* \"#utility.yul\":1335:1341   */\n      dup4\n        /* \"#utility.yul\":1328:1350   */\n      mstore\n        /* \"#utility.yul\":1381:1383   */\n      0x40\n        /* \"#utility.yul\":1370:1379   */\n      dup6\n        /* \"#utility.yul\":1366:1384   */\n      add\n        /* \"#utility.yul\":1359:1384   */\n      swap2\n      pop\n        /* \"#utility.yul\":1443:1445   */\n      0x40\n        /* \"#utility.yul\":1433:1439   */\n      dup2\n        /* \"#utility.yul\":1430:1431   */\n      0x05\n        /* \"#utility.yul\":1426:1440   */\n      shl\n        /* \"#utility.yul\":1415:1424   */\n      dup7\n        /* \"#utility.yul\":1411:1441   */\n      add\n        /* \"#utility.yul\":1407:1446   */\n      add\n        /* \"#utility.yul\":1393:1446   */\n      swap3\n      pop\n        /* \"#utility.yul\":1481:1483   */\n      0x20\n        /* \"#utility.yul\":1473:1479   */\n      dup7\n        /* \"#utility.yul\":1469:1484   */\n      add\n        /* \"#utility.yul\":1502:1503   */\n      0x00\n        /* \"#utility.yul\":1512:1767   */\n    tag_102:\n        /* \"#utility.yul\":1526:1532   */\n      dup3\n        /* \"#utility.yul\":1523:1524   */\n      dup2\n        /* \"#utility.yul\":1520:1533   */\n      lt\n        /* \"#utility.yul\":1512:1767   */\n      iszero\n      tag_104\n      jumpi\n        /* \"#utility.yul\":1619:1621   */\n      0x3f\n        /* \"#utility.yul\":1615:1622   */\n      not\n        /* \"#utility.yul\":1603:1612   */\n      dup8\n        /* \"#utility.yul\":1595:1601   */\n      dup7\n        /* \"#utility.yul\":1591:1613   */\n      sub\n        /* \"#utility.yul\":1587:1623   */\n      add\n        /* \"#utility.yul\":1582:1585   */\n      dup5\n        /* \"#utility.yul\":1575:1624   */\n      mstore\n        /* \"#utility.yul\":1647:1687   */\n      tag_105\n        /* \"#utility.yul\":1680:1686   */\n      dup6\n        /* \"#utility.yul\":1671:1677   */\n      dup4\n        /* \"#utility.yul\":1665:1678   */\n      mload\n        /* \"#utility.yul\":1647:1687   */\n      tag_88\n      jump\t// in\n    tag_105:\n        /* \"#utility.yul\":1637:1687   */\n      swap5\n      pop\n        /* \"#utility.yul\":1722:1724   */\n      0x20\n        /* \"#utility.yul\":1745:1757   */\n      swap4\n      dup5\n      add\n      swap4\n        /* \"#utility.yul\":1710:1725   */\n      swap2\n      swap1\n      swap2\n      add\n      swap1\n        /* \"#utility.yul\":1548:1549   */\n      0x01\n        /* \"#utility.yul\":1541:1550   */\n      add\n        /* \"#utility.yul\":1512:1767   */\n      jump(tag_102)\n    tag_104:\n      pop\n        /* \"#utility.yul\":1784:1790   */\n      swap3\n      swap7\n        /* \"#utility.yul\":1014:1796   */\n      swap6\n      pop\n      pop\n      pop\n      pop\n      pop\n      pop\n      jump\t// out\n        /* \"#utility.yul\":1801:2181   */\n    tag_36:\n        /* \"#utility.yul\":1880:1881   */\n      0x01\n        /* \"#utility.yul\":1876:1888   */\n      dup2\n      dup2\n      shr\n      swap1\n        /* \"#utility.yul\":1923:1935   */\n      dup3\n      and\n      dup1\n        /* \"#utility.yul\":1944:2005   */\n      tag_107\n      jumpi\n        /* \"#utility.yul\":1998:2002   */\n      0x7f\n        /* \"#utility.yul\":1990:1996   */\n      dup3\n        /* \"#utility.yul\":1986:2003   */\n      and\n        /* \"#utility.yul\":1976:2003   */\n      swap2\n      pop\n        /* \"#utility.yul\":1944:2005   */\n    tag_107:\n        /* \"#utility.yul\":2051:2053   */\n      0x20\n        /* \"#utility.yul\":2043:2049   */\n      dup3\n        /* \"#utility.yul\":2040:2054   */\n      lt\n        /* \"#utility.yul\":2020:2038   */\n      dup2\n        /* \"#utility.yul\":2017:2055   */\n      sub\n        /* \"#utility.yul\":2014:2175   */\n      tag_108\n      jumpi\n        /* \"#utility.yul\":2097:2107   */\n      0x4e487b71\n        /* \"#utility.yul\":2092:2095   */\n      0xe0\n        /* \"#utility.yul\":2088:2108   */\n      shl\n        /* \"#utility.yul\":2085:2086   */\n      0x00\n        /* \"#utility.yul\":2078:2109   */\n      mstore\n        /* \"#utility.yul\":2132:2136   */\n      0x22\n        /* \"#utility.yul\":2129:2130   */\n      0x04\n        /* \"#utility.yul\":2122:2137   */\n      mstore\n        /* \"#utility.yul\":2160:2164   */\n      0x24\n        /* \"#utility.yul\":2157:2158   */\n      0x00\n        /* \"#utility.yul\":2150:2165   */\n      revert\n        /* \"#utility.yul\":2014:2175   */\n    tag_108:\n      pop\n        /* \"#utility.yul\":1801:2181   */\n      swap2\n      swap1\n      pop\n      jump\t// out\n        /* \"#utility.yul\":2186:2313   */\n    tag_75:\n        /* \"#utility.yul\":2247:2257   */\n      0x4e487b71\n        /* \"#utility.yul\":2242:2245   */\n      0xe0\n        /* \"#utility.yul\":2238:2258   */\n      shl\n        /* \"#utility.yul\":2235:2236   */\n      0x00\n        /* \"#utility.yul\":2228:2259   */\n      mstore\n        /* \"#utility.yul\":2278:2282   */\n      0x32\n        /* \"#utility.yul\":2275:2276   */\n      0x04\n        /* \"#utility.yul\":2268:2283   */\n      mstore\n        /* \"#utility.yul\":2302:2306   */\n      0x24\n        /* \"#utility.yul\":2299:2300   */\n      0x00\n        /* \"#utility.yul\":2292:2307   */\n      revert\n        /* \"#utility.yul\":2318:2445   */\n    tag_89:\n        /* \"#utility.yul\":2379:2389   */\n      0x4e487b71\n        /* \"#utility.yul\":2374:2377   */\n      0xe0\n        /* \"#utility.yul\":2370:2390   */\n      shl\n        /* \"#utility.yul\":2367:2368   */\n      0x00\n        /* \"#utility.yul\":2360:2391   */\n      mstore\n        /* \"#utility.yul\":2410:2414   */\n      0x41\n        /* \"#utility.yul\":2407:2408   */\n      0x04\n        /* \"#utility.yul\":2400:2415   */\n      mstore\n        /* \"#utility.yul\":2434:2438   */\n      0x24\n        /* \"#utility.yul\":2431:2432   */\n      0x00\n        /* \"#utility.yul\":2424:2439   */\n      revert\n        /* \"#utility.yul\":2576:3094   */\n    tag_91:\n        /* \"#utility.yul\":2678:2680   */\n      0x1f\n        /* \"#utility.yul\":2673:2676   */\n      dup3\n        /* \"#utility.yul\":2670:2681   */\n      gt\n        /* \"#utility.yul\":2667:3088   */\n      iszero\n      tag_113\n      jumpi\n        /* \"#utility.yul\":2714:2719   */\n      dup1\n        /* \"#utility.yul\":2711:2712   */\n      0x00\n        /* \"#utility.yul\":2704:2720   */\n      mstore\n        /* \"#utility.yul\":2758:2762   */\n      0x20\n        /* \"#utility.yul\":2755:2756   */\n      0x00\n        /* \"#utility.yul\":2745:2763   */\n      keccak256\n        /* \"#utility.yul\":2828:2830   */\n      0x1f\n        /* \"#utility.yul\":2816:2826   */\n      dup5\n        /* \"#utility.yul\":2812:2831   */\n      add\n        /* \"#utility.yul\":2809:2810   */\n      0x05\n        /* \"#utility.yul\":2805:2832   */\n      shr\n        /* \"#utility.yul\":2799:2803   */\n      dup2\n        /* \"#utility.yul\":2795:2833   */\n      add\n        /* \"#utility.yul\":2864:2868   */\n      0x20\n        /* \"#utility.yul\":2852:2862   */\n      dup6\n        /* \"#utility.yul\":2849:2869   */\n      lt\n        /* \"#utility.yul\":2846:2893   */\n      iszero\n      tag_114\n      jumpi\n      pop\n        /* \"#utility.yul\":2887:2891   */\n      dup1\n        /* \"#utility.yul\":2846:2893   */\n    tag_114:\n        /* \"#utility.yul\":2942:2944   */\n      0x1f\n        /* \"#utility.yul\":2937:2940   */\n      dup5\n        /* \"#utility.yul\":2933:2945   */\n      add\n        /* \"#utility.yul\":2930:2931   */\n      0x05\n        /* \"#utility.yul\":2926:2946   */\n      shr\n        /* \"#utility.yul\":2920:2924   */\n      dup3\n        /* \"#utility.yul\":2916:2947   */\n      add\n        /* \"#utility.yul\":2906:2947   */\n      swap2\n      pop\n        /* \"#utility.yul\":2997:3078   */\n    tag_115:\n        /* \"#utility.yul\":3015:3017   */\n      dup2\n        /* \"#utility.yul\":3008:3013   */\n      dup2\n        /* \"#utility.yul\":3005:3018   */\n      lt\n        /* \"#utility.yul\":2997:3078   */\n      iszero\n      tag_117\n      jumpi\n        /* \"#utility.yul\":3074:3075   */\n      0x00\n        /* \"#utility.yul\":3060:3076   */\n      dup2\n      sstore\n        /* \"#utility.yul\":3041:3042   */\n      0x01\n        /* \"#utility.yul\":3030:3043   */\n      add\n        /* \"#utility.yul\":2997:3078   */\n      jump(tag_115)\n    tag_117:\n        /* \"#utility.yul\":3001:3004   */\n      pop\n      pop\n        /* \"#utility.yul\":2667:3088   */\n    tag_113:\n        /* \"#utility.yul\":2576:3094   */\n      pop\n      pop\n      pop\n      jump\t// out\n        /* \"#utility.yul\":3270:4569   */\n    tag_87:\n        /* \"#utility.yul\":3396:3399   */\n      dup2\n        /* \"#utility.yul\":3390:3400   */\n      mload\n        /* \"#utility.yul\":3423:3441   */\n      0xffffffffffffffff\n        /* \"#utility.yul\":3415:3421   */\n      dup2\n        /* \"#utility.yul\":3412:3442   */\n      gt\n        /* \"#utility.yul\":3409:3465   */\n      iszero\n      tag_121\n      jumpi\n        /* \"#utility.yul\":3445:3463   */\n      tag_121\n      tag_89\n      jump\t// in\n    tag_121:\n        /* \"#utility.yul\":3474:3571   */\n      tag_122\n        /* \"#utility.yul\":3564:3570   */\n      dup2\n        /* \"#utility.yul\":3524:3562   */\n      tag_123\n        /* \"#utility.yul\":3556:3560   */\n      dup5\n        /* \"#utility.yul\":3550:3561   */\n      sload\n        /* \"#utility.yul\":3524:3562   */\n      tag_36\n      jump\t// in\n    tag_123:\n        /* \"#utility.yul\":3518:3522   */\n      dup5\n        /* \"#utility.yul\":3474:3571   */\n      tag_91\n      jump\t// in\n    tag_122:\n        /* \"#utility.yul\":3620:3624   */\n      0x20\n        /* \"#utility.yul\":3651:3653   */\n      0x1f\n        /* \"#utility.yul\":3640:3654   */\n      dup3\n      gt\n        /* \"#utility.yul\":3668:3669   */\n      0x01\n        /* \"#utility.yul\":3663:4312   */\n      dup2\n      eq\n      tag_125\n      jumpi\n        /* \"#utility.yul\":4356:4357   */\n      0x00\n        /* \"#utility.yul\":4373:4379   */\n      dup4\n        /* \"#utility.yul\":4370:4459   */\n      iszero\n      tag_126\n      jumpi\n      pop\n        /* \"#utility.yul\":4425:4444   */\n      dup5\n      dup3\n      add\n        /* \"#utility.yul\":4419:4445   */\n      mload\n        /* \"#utility.yul\":4370:4459   */\n    tag_126:\n      not(0x00)\n        /* \"#utility.yul\":3227:3228   */\n      0x03\n        /* \"#utility.yul\":3223:3234   */\n      dup6\n      swap1\n      shl\n        /* \"#utility.yul\":3219:3243   */\n      shr\n        /* \"#utility.yul\":3215:3244   */\n      not\n        /* \"#utility.yul\":3205:3245   */\n      and\n        /* \"#utility.yul\":3251:3252   */\n      0x01\n        /* \"#utility.yul\":3247:3258   */\n      dup5\n      swap1\n      shl\n        /* \"#utility.yul\":3202:3259   */\n      or\n        /* \"#utility.yul\":4472:4553   */\n      dup5\n      sstore\n        /* \"#utility.yul\":3633:4563   */\n      jump(tag_117)\n        /* \"#utility.yul\":3663:4312   */\n    tag_125:\n        /* \"#utility.yul\":2523:2524   */\n      0x00\n        /* \"#utility.yul\":2516:2530   */\n      dup5\n      dup2\n      mstore\n        /* \"#utility.yul\":2560:2564   */\n      0x20\n        /* \"#utility.yul\":2547:2565   */\n      dup2\n      keccak256\n      not(0x1f)\n        /* \"#utility.yul\":3699:3719   */\n      dup6\n      and\n      swap2\n        /* \"#utility.yul\":3817:4039   */\n    tag_129:\n        /* \"#utility.yul\":3831:3838   */\n      dup3\n        /* \"#utility.yul\":3828:3829   */\n      dup2\n        /* \"#utility.yul\":3825:3839   */\n      lt\n        /* \"#utility.yul\":3817:4039   */\n      iszero\n      tag_131\n      jumpi\n        /* \"#utility.yul\":3913:3932   */\n      dup8\n      dup6\n      add\n        /* \"#utility.yul\":3907:3933   */\n      mload\n        /* \"#utility.yul\":3892:3934   */\n      dup3\n      sstore\n        /* \"#utility.yul\":4020:4024   */\n      0x20\n        /* \"#utility.yul\":4005:4025   */\n      swap5\n      dup6\n      add\n      swap5\n        /* \"#utility.yul\":3973:3974   */\n      0x01\n        /* \"#utility.yul\":3961:3975   */\n      swap1\n      swap3\n      add\n      swap2\n        /* \"#utility.yul\":3847:3859   */\n      add\n        /* \"#utility.yul\":3817:4039   */\n      jump(tag_129)\n    tag_131:\n        /* \"#utility.yul\":3821:3824   */\n      pop\n        /* \"#utility.yul\":4067:4073   */\n      dup5\n        /* \"#utility.yul\":4058:4065   */\n      dup3\n        /* \"#utility.yul\":4055:4074   */\n      lt\n        /* \"#utility.yul\":4052:4253   */\n      iszero\n      tag_132\n      jumpi\n        /* \"#utility.yul\":4128:4147   */\n      dup7\n      dup5\n      add\n        /* \"#utility.yul\":4122:4148   */\n      mload\n      not(0x00)\n        /* \"#utility.yul\":4211:4212   */\n      0x03\n        /* \"#utility.yul\":4207:4221   */\n      dup8\n      swap1\n      shl\n        /* \"#utility.yul\":4223:4226   */\n      0xf8\n        /* \"#utility.yul\":4203:4227   */\n      and\n        /* \"#utility.yul\":4199:4236   */\n      shr\n        /* \"#utility.yul\":4195:4237   */\n      not\n        /* \"#utility.yul\":4180:4238   */\n      and\n        /* \"#utility.yul\":4165:4239   */\n      dup2\n      sstore\n        /* \"#utility.yul\":4052:4253   */\n    tag_132:\n      pop\n      pop\n      pop\n      pop\n        /* \"#utility.yul\":4299:4300   */\n      0x01\n        /* \"#utility.yul\":4283:4297   */\n      swap1\n      dup2\n      shl\n        /* \"#utility.yul\":4279:4301   */\n      add\n        /* \"#utility.yul\":4266:4302   */\n      swap1\n      sstore\n      pop\n        /* \"#utility.yul\":3270:4569   */\n      jump\t// out\n\n    auxdata: 0xa26469706673582212209d379578c111b3e457311713061f3450ad8b39db8c12b1aea167a5d753111a5464736f6c634300081e0033\n}\n",
				"bytecode": {
					"linkReferences": {},
					"object": "600560e090815264416c69636560d81b6101005260809081526003610120818152622137b160e91b6101405260a0526101a0604052600761016090815266436861726c696560c81b6101805260c052610059915f916100b2565b5060408051608081018252600591810191825264416c69636560d81b6060820152818152601960208201529060019081906100949082610208565b506020820151816001015550503480156100ac575f5ffd5b506102c2565b828054828255905f5260205f209081019282156100f6579160200282015b828111156100f657825182906100e69082610208565b50916020019190600101906100d0565b50610102929150610106565b5090565b80821115610102575f6101198282610122565b50600101610106565b50805461012e90610184565b5f825580601f1061013d575050565b601f0160209004905f5260205f2090810190610159919061015c565b50565b5b80821115610102575f815560010161015d565b634e487b7160e01b5f52604160045260245ffd5b600181811c9082168061019857607f821691505b6020821081036101b657634e487b7160e01b5f52602260045260245ffd5b50919050565b601f82111561020357805f5260205f20601f840160051c810160208510156101e15750805b601f840160051c820191505b81811015610200575f81556001016101ed565b50505b505050565b81516001600160401b0381111561022157610221610170565b6102358161022f8454610184565b846101bc565b6020601f821160018114610267575f83156102505750848201515b5f19600385901b1c1916600184901b178455610200565b5f84815260208120601f198516915b828110156102965787850151825560209485019460019092019101610276565b50848210156102b357868401515f19600387901b60f8161c191681555b50505050600190811b01905550565b61087a806102cf5f395ff3fe608060405234801561000f575f5ffd5b506004361061007a575f3560e01c80638f23be8c116100585780638f23be8c146100c7578063c256f80c146100dc578063d4b9384e146100e4578063f0c9a026146100ec575f5ffd5b806335f342321461007e57806375339cbf146100a757806377ec2b55146100b1575b5f5ffd5b61009161008c3660046105fb565b6100f4565b60405161009e9190610640565b60405180910390f35b6100af610199565b005b6100b961026a565b60405161009e929190610659565b6100cf610300565b60405161009e919061067a565b6100af6103d3565b6100af6104e0565b6100af6105af565b5f8181548110610102575f80fd5b905f5260205f20015f91509050805461011a906106dd565b80601f0160208091040260200160405190810160405280929190818152602001828054610146906106dd565b80156101915780601f1061016857610100808354040283529160200191610191565b820191905f5260205f20905b81548152906001019060200180831161017457829003601f168201915b505050505081565b5f5f805480602002602001604051908101604052809291908181526020015f905b82821015610262578382905f5260205f200180546101d7906106dd565b80601f0160208091040260200160405190810160405280929190818152602001828054610203906106dd565b801561024e5780601f106102255761010080835404028352916020019161024e565b820191905f5260205f20905b81548152906001019060200180831161023157829003601f168201915b5050505050815260200190600101906101ba565b505050505050565b600180548190610279906106dd565b80601f01602080910402602001604051908101604052809291908181526020018280546102a5906106dd565b80156102f05780601f106102c7576101008083540402835291602001916102f0565b820191905f5260205f20905b8154815290600101906020018083116102d357829003601f168201915b5050505050908060010154905082565b60605f805480602002602001604051908101604052809291908181526020015f905b828210156103ca578382905f5260205f2001805461033f906106dd565b80601f016020809104026020016040519081016040528092919081815260200182805461036b906106dd565b80156103b65780601f1061038d576101008083540402835291602001916103b6565b820191905f5260205f20905b81548152906001019060200180831161039957829003601f168201915b505050505081526020019060010190610322565b50505050905090565b5f5f805480602002602001604051908101604052809291908181526020015f905b8282101561049c578382905f5260205f20018054610411906106dd565b80601f016020809104026020016040519081016040528092919081815260200182805461043d906106dd565b80156104885780601f1061045f57610100808354040283529160200191610488565b820191905f5260205f20905b81548152906001019060200180831161046b57829003601f168201915b5050505050815260200190600101906103f4565b5050505090506040518060400160405280600581526020016411185d9a5960da1b815250815f815181106104d2576104d2610715565b602002602001018190525050565b5f60016040518060400160405290815f820180546104fd906106dd565b80601f0160208091040260200160405190810160405280929190818152602001828054610529906106dd565b80156105745780601f1061054b57610100808354040283529160200191610574565b820191905f5260205f20905b81548152906001019060200180831161055757829003601f168201915b5050509183525050600191909101546020918201526040805180820190915260038152622137b160e91b91810191909152905250601e600255565b5f5f90506040518060400160405280600581526020016411185d9a5960da1b815250815f815481106105e3576105e3610715565b905f5260205f200190816105f79190610789565b5050565b5f6020828403121561060b575f5ffd5b5035919050565b5f81518084528060208401602086015e5f602082860101526020601f19601f83011685010191505092915050565b602081525f6106526020830184610612565b9392505050565b604081525f61066b6040830185610612565b90508260208301529392505050565b5f602082016020835280845180835260408501915060408160051b8601019250602086015f5b828110156106d157603f198786030184526106bc858351610612565b945060209384019391909101906001016106a0565b50929695505050505050565b600181811c908216806106f157607f821691505b60208210810361070f57634e487b7160e01b5f52602260045260245ffd5b50919050565b634e487b7160e01b5f52603260045260245ffd5b634e487b7160e01b5f52604160045260245ffd5b601f82111561078457805f5260205f20601f840160051c810160208510156107625750805b601f840160051c820191505b81811015610781575f815560010161076e565b50505b505050565b815167ffffffffffffffff8111156107a3576107a3610729565b6107b7816107b184546106dd565b8461073d565b6020601f8211600181146107e9575f83156107d25750848201515b5f19600385901b1c1916600184901b178455610781565b5f84815260208120601f198516915b8281101561081857878501518255602094850194600190920191016107f8565b508482101561083557868401515f19600387901b60f8161c191681555b50505050600190811b0190555056fea26469706673582212209d379578c111b3e457311713061f3450ad8b39db8c12b1aea167a5d753111a5464736f6c634300081e0033",
					"opcodes": "PUSH1 0x5 PUSH1 0xE0 SWAP1 DUP2 MSTORE PUSH5 0x416C696365 PUSH1 0xD8 SHL PUSH2 0x100 MSTORE PUSH1 0x80 SWAP1 DUP2 MSTORE PUSH1 0x3 PUSH2 0x120 DUP2 DUP2 MSTORE PUSH3 0x2137B1 PUSH1 0xE9 SHL PUSH2 0x140 MSTORE PUSH1 0xA0 MSTORE PUSH2 0x1A0 PUSH1 0x40 MSTORE PUSH1 0x7 PUSH2 0x160 SWAP1 DUP2 MSTORE PUSH7 0x436861726C6965 PUSH1 0xC8 SHL PUSH2 0x180 MSTORE PUSH1 0xC0 MSTORE PUSH2 0x59 SWAP2 PUSH0 SWAP2 PUSH2 0xB2 JUMP JUMPDEST POP PUSH1 0x40 DUP1 MLOAD PUSH1 0x80 DUP2 ADD DUP3 MSTORE PUSH1 0x5 SWAP2 DUP2 ADD SWAP2 DUP3 MSTORE PUSH5 0x416C696365 PUSH1 0xD8 SHL PUSH1 0x60 DUP3 ADD MSTORE DUP2 DUP2 MSTORE PUSH1 0x19 PUSH1 0x20 DUP3 ADD MSTORE SWAP1 PUSH1 0x1 SWAP1 DUP2 SWAP1 PUSH2 0x94 SWAP1 DUP3 PUSH2 0x208 JUMP JUMPDEST POP PUSH1 0x20 DUP3 ADD MLOAD DUP2 PUSH1 0x1 ADD SSTORE POP POP CALLVALUE DUP1 ISZERO PUSH2 0xAC JUMPI PUSH0 PUSH0 REVERT JUMPDEST POP PUSH2 0x2C2 JUMP JUMPDEST DUP3 DUP1 SLOAD DUP3 DUP3 SSTORE SWAP1 PUSH0 MSTORE PUSH1 0x20 PUSH0 KECCAK256 SWAP1 DUP2 ADD SWAP3 DUP3 ISZERO PUSH2 0xF6 JUMPI SWAP2 PUSH1 0x20 MUL DUP3 ADD JUMPDEST DUP3 DUP2 GT ISZERO PUSH2 0xF6 JUMPI DUP3 MLOAD DUP3 SWAP1 PUSH2 0xE6 SWAP1 DUP3 PUSH2 0x208 JUMP JUMPDEST POP SWAP2 PUSH1 0x20 ADD SWAP2 SWAP1 PUSH1 0x1 ADD SWAP1 PUSH2 0xD0 JUMP JUMPDEST POP PUSH2 0x102 SWAP3 SWAP2 POP PUSH2 0x106 JUMP JUMPDEST POP SWAP1 JUMP JUMPDEST DUP1 DUP3 GT ISZERO PUSH2 0x102 JUMPI PUSH0 PUSH2 0x119 DUP3 DUP3 PUSH2 0x122 JUMP JUMPDEST POP PUSH1 0x1 ADD PUSH2 0x106 JUMP JUMPDEST POP DUP1 SLOAD PUSH2 0x12E SWAP1 PUSH2 0x184 JUMP JUMPDEST PUSH0 DUP3 SSTORE DUP1 PUSH1 0x1F LT PUSH2 0x13D JUMPI POP POP JUMP JUMPDEST PUSH1 0x1F ADD PUSH1 0x20 SWAP1 DIV SWAP1 PUSH0 MSTORE PUSH1 0x20 PUSH0 KECCAK256 SWAP1 DUP2 ADD SWAP1 PUSH2 0x159 SWAP2 SWAP1 PUSH2 0x15C JUMP JUMPDEST POP JUMP JUMPDEST JUMPDEST DUP1 DUP3 GT ISZERO PUSH2 0x102 JUMPI PUSH0 DUP2 SSTORE PUSH1 0x1 ADD PUSH2 0x15D JUMP JUMPDEST PUSH4 0x4E487B71 PUSH1 0xE0 SHL PUSH0 MSTORE PUSH1 0x41 PUSH1 0x4 MSTORE PUSH1 0x24 PUSH0 REVERT JUMPDEST PUSH1 0x1 DUP2 DUP2 SHR SWAP1 DUP3 AND DUP1 PUSH2 0x198 JUMPI PUSH1 0x7F DUP3 AND SWAP2 POP JUMPDEST PUSH1 0x20 DUP3 LT DUP2 SUB PUSH2 0x1B6 JUMPI PUSH4 0x4E487B71 PUSH1 0xE0 SHL PUSH0 MSTORE PUSH1 0x22 PUSH1 0x4 MSTORE PUSH1 0x24 PUSH0 REVERT JUMPDEST POP SWAP2 SWAP1 POP JUMP JUMPDEST PUSH1 0x1F DUP3 GT ISZERO PUSH2 0x203 JUMPI DUP1 PUSH0 MSTORE PUSH1 0x20 PUSH0 KECCAK256 PUSH1 0x1F DUP5 ADD PUSH1 0x5 SHR DUP2 ADD PUSH1 0x20 DUP6 LT ISZERO PUSH2 0x1E1 JUMPI POP DUP1 JUMPDEST PUSH1 0x1F DUP5 ADD PUSH1 0x5 SHR DUP3 ADD SWAP2 POP JUMPDEST DUP2 DUP2 LT ISZERO PUSH2 0x200 JUMPI PUSH0 DUP2 SSTORE PUSH1 0x1 ADD PUSH2 0x1ED JUMP JUMPDEST POP POP JUMPDEST POP POP POP JUMP JUMPDEST DUP2 MLOAD PUSH1 0x1 PUSH1 0x1 PUSH1 0x40 SHL SUB DUP2 GT ISZERO PUSH2 0x221 JUMPI PUSH2 0x221 PUSH2 0x170 JUMP JUMPDEST PUSH2 0x235 DUP2 PUSH2 0x22F DUP5 SLOAD PUSH2 0x184 JUMP JUMPDEST DUP5 PUSH2 0x1BC JUMP JUMPDEST PUSH1 0x20 PUSH1 0x1F DUP3 GT PUSH1 0x1 DUP2 EQ PUSH2 0x267 JUMPI PUSH0 DUP4 ISZERO PUSH2 0x250 JUMPI POP DUP5 DUP3 ADD MLOAD JUMPDEST PUSH0 NOT PUSH1 0x3 DUP6 SWAP1 SHL SHR NOT AND PUSH1 0x1 DUP5 SWAP1 SHL OR DUP5 SSTORE PUSH2 0x200 JUMP JUMPDEST PUSH0 DUP5 DUP2 MSTORE PUSH1 0x20 DUP2 KECCAK256 PUSH1 0x1F NOT DUP6 AND SWAP2 JUMPDEST DUP3 DUP2 LT ISZERO PUSH2 0x296 JUMPI DUP8 DUP6 ADD MLOAD DUP3 SSTORE PUSH1 0x20 SWAP5 DUP6 ADD SWAP5 PUSH1 0x1 SWAP1 SWAP3 ADD SWAP2 ADD PUSH2 0x276 JUMP JUMPDEST POP DUP5 DUP3 LT ISZERO PUSH2 0x2B3 JUMPI DUP7 DUP5 ADD MLOAD PUSH0 NOT PUSH1 0x3 DUP8 SWAP1 SHL PUSH1 0xF8 AND SHR NOT AND DUP2 SSTORE JUMPDEST POP POP POP POP PUSH1 0x1 SWAP1 DUP2 SHL ADD SWAP1 SSTORE POP JUMP JUMPDEST PUSH2 0x87A DUP1 PUSH2 0x2CF PUSH0 CODECOPY PUSH0 RETURN INVALID PUSH1 0x80 PUSH1 0x40 MSTORE CALLVALUE DUP1 ISZERO PUSH2 0xF JUMPI PUSH0 PUSH0 REVERT JUMPDEST POP PUSH1 0x4 CALLDATASIZE LT PUSH2 0x7A JUMPI PUSH0 CALLDATALOAD PUSH1 0xE0 SHR DUP1 PUSH4 0x8F23BE8C GT PUSH2 0x58 JUMPI DUP1 PUSH4 0x8F23BE8C EQ PUSH2 0xC7 JUMPI DUP1 PUSH4 0xC256F80C EQ PUSH2 0xDC JUMPI DUP1 PUSH4 0xD4B9384E EQ PUSH2 0xE4 JUMPI DUP1 PUSH4 0xF0C9A026 EQ PUSH2 0xEC JUMPI PUSH0 PUSH0 REVERT JUMPDEST DUP1 PUSH4 0x35F34232 EQ PUSH2 0x7E JUMPI DUP1 PUSH4 0x75339CBF EQ PUSH2 0xA7 JUMPI DUP1 PUSH4 0x77EC2B55 EQ PUSH2 0xB1 JUMPI JUMPDEST PUSH0 PUSH0 REVERT JUMPDEST PUSH2 0x91 PUSH2 0x8C CALLDATASIZE PUSH1 0x4 PUSH2 0x5FB JUMP JUMPDEST PUSH2 0xF4 JUMP JUMPDEST PUSH1 0x40 MLOAD PUSH2 0x9E SWAP2 SWAP1 PUSH2 0x640 JUMP JUMPDEST PUSH1 0x40 MLOAD DUP1 SWAP2 SUB SWAP1 RETURN JUMPDEST PUSH2 0xAF PUSH2 0x199 JUMP JUMPDEST STOP JUMPDEST PUSH2 0xB9 PUSH2 0x26A JUMP JUMPDEST PUSH1 0x40 MLOAD PUSH2 0x9E SWAP3 SWAP2 SWAP1 PUSH2 0x659 JUMP JUMPDEST PUSH2 0xCF PUSH2 0x300 JUMP JUMPDEST PUSH1 0x40 MLOAD PUSH2 0x9E SWAP2 SWAP1 PUSH2 0x67A JUMP JUMPDEST PUSH2 0xAF PUSH2 0x3D3 JUMP JUMPDEST PUSH2 0xAF PUSH2 0x4E0 JUMP JUMPDEST PUSH2 0xAF PUSH2 0x5AF JUMP JUMPDEST PUSH0 DUP2 DUP2 SLOAD DUP2 LT PUSH2 0x102 JUMPI PUSH0 DUP1 REVERT JUMPDEST SWAP1 PUSH0 MSTORE PUSH1 0x20 PUSH0 KECCAK256 ADD PUSH0 SWAP2 POP SWAP1 POP DUP1 SLOAD PUSH2 0x11A SWAP1 PUSH2 0x6DD JUMP JUMPDEST DUP1 PUSH1 0x1F ADD PUSH1 0x20 DUP1 SWAP2 DIV MUL PUSH1 0x20 ADD PUSH1 0x40 MLOAD SWAP1 DUP2 ADD PUSH1 0x40 MSTORE DUP1 SWAP3 SWAP2 SWAP1 DUP2 DUP2 MSTORE PUSH1 0x20 ADD DUP3 DUP1 SLOAD PUSH2 0x146 SWAP1 PUSH2 0x6DD JUMP JUMPDEST DUP1 ISZERO PUSH2 0x191 JUMPI DUP1 PUSH1 0x1F LT PUSH2 0x168 JUMPI PUSH2 0x100 DUP1 DUP4 SLOAD DIV MUL DUP4 MSTORE SWAP2 PUSH1 0x20 ADD SWAP2 PUSH2 0x191 JUMP JUMPDEST DUP3 ADD SWAP2 SWAP1 PUSH0 MSTORE PUSH1 0x20 PUSH0 KECCAK256 SWAP1 JUMPDEST DUP2 SLOAD DUP2 MSTORE SWAP1 PUSH1 0x1 ADD SWAP1 PUSH1 0x20 ADD DUP1 DUP4 GT PUSH2 0x174 JUMPI DUP3 SWAP1 SUB PUSH1 0x1F AND DUP3 ADD SWAP2 JUMPDEST POP POP POP POP POP DUP2 JUMP JUMPDEST PUSH0 PUSH0 DUP1 SLOAD DUP1 PUSH1 0x20 MUL PUSH1 0x20 ADD PUSH1 0x40 MLOAD SWAP1 DUP2 ADD PUSH1 0x40 MSTORE DUP1 SWAP3 SWAP2 SWAP1 DUP2 DUP2 MSTORE PUSH1 0x20 ADD PUSH0 SWAP1 JUMPDEST DUP3 DUP3 LT ISZERO PUSH2 0x262 JUMPI DUP4 DUP3 SWAP1 PUSH0 MSTORE PUSH1 0x20 PUSH0 KECCAK256 ADD DUP1 SLOAD PUSH2 0x1D7 SWAP1 PUSH2 0x6DD JUMP JUMPDEST DUP1 PUSH1 0x1F ADD PUSH1 0x20 DUP1 SWAP2 DIV MUL PUSH1 0x20 ADD PUSH1 0x40 MLOAD SWAP1 DUP2 ADD PUSH1 0x40 MSTORE DUP1 SWAP3 SWAP2 SWAP1 DUP2 DUP2 MSTORE PUSH1 0x20 ADD DUP3 DUP1 SLOAD PUSH2 0x203 SWAP1 PUSH2 0x6DD JUMP JUMPDEST DUP1 ISZERO PUSH2 0x24E JUMPI DUP1 PUSH1 0x1F LT PUSH2 0x225 JUMPI PUSH2 0x100 DUP1 DUP4 SLOAD DIV MUL DUP4 MSTORE SWAP2 PUSH1 0x20 ADD SWAP2 PUSH2 0x24E JUMP JUMPDEST DUP3 ADD SWAP2 SWAP1 PUSH0 MSTORE PUSH1 0x20 PUSH0 KECCAK256 SWAP1 JUMPDEST DUP2 SLOAD DUP2 MSTORE SWAP1 PUSH1 0x1 ADD SWAP1 PUSH1 0x20 ADD DUP1 DUP4 GT PUSH2 0x231 JUMPI DUP3 SWAP1 SUB PUSH1 0x1F AND DUP3 ADD SWAP2 JUMPDEST POP POP POP POP POP DUP2 MSTORE PUSH1 0x20 ADD SWAP1 PUSH1 0x1 ADD SWAP1 PUSH2 0x1BA JUMP JUMPDEST POP POP POP POP POP POP JUMP JUMPDEST PUSH1 0x1 DUP1 SLOAD DUP2 SWAP1 PUSH2 0x279 SWAP1 PUSH2 0x6DD JUMP JUMPDEST DUP1 PUSH1 0x1F ADD PUSH1 0x20 DUP1 SWAP2 DIV MUL PUSH1 0x20 ADD PUSH1 0x40 MLOAD SWAP1 DUP2 ADD PUSH1 0x40 MSTORE DUP1 SWAP3 SWAP2 SWAP1 DUP2 DUP2 MSTORE PUSH1 0x20 ADD DUP3 DUP1 SLOAD PUSH2 0x2A5 SWAP1 PUSH2 0x6DD JUMP JUMPDEST DUP1 ISZERO PUSH2 0x2F0 JUMPI DUP1 PUSH1 0x1F LT PUSH2 0x2C7 JUMPI PUSH2 0x100 DUP1 DUP4 SLOAD DIV MUL DUP4 MSTORE SWAP2 PUSH1 0x20 ADD SWAP2 PUSH2 0x2F0 JUMP JUMPDEST DUP3 ADD SWAP2 SWAP1 PUSH0 MSTORE PUSH1 0x20 PUSH0 KECCAK256 SWAP1 JUMPDEST DUP2 SLOAD DUP2 MSTORE SWAP1 PUSH1 0x1 ADD SWAP1 PUSH1 0x20 ADD DUP1 DUP4 GT PUSH2 0x2D3 JUMPI DUP3 SWAP1 SUB PUSH1 0x1F AND DUP3 ADD SWAP2 JUMPDEST POP POP POP POP POP SWAP1 DUP1 PUSH1 0x1 ADD SLOAD SWAP1 POP DUP3 JUMP JUMPDEST PUSH1 0x60 PUSH0 DUP1 SLOAD DUP1 PUSH1 0x20 MUL PUSH1 0x20 ADD PUSH1 0x40 MLOAD SWAP1 DUP2 ADD PUSH1 0x40 MSTORE DUP1 SWAP3 SWAP2 SWAP1 DUP2 DUP2 MSTORE PUSH1 0x20 ADD PUSH0 SWAP1 JUMPDEST DUP3 DUP3 LT ISZERO PUSH2 0x3CA JUMPI DUP4 DUP3 SWAP1 PUSH0 MSTORE PUSH1 0x20 PUSH0 KECCAK256 ADD DUP1 SLOAD PUSH2 0x33F SWAP1 PUSH2 0x6DD JUMP JUMPDEST DUP1 PUSH1 0x1F ADD PUSH1 0x20 DUP1 SWAP2 DIV MUL PUSH1 0x20 ADD PUSH1 0x40 MLOAD SWAP1 DUP2 ADD PUSH1 0x40 MSTORE DUP1 SWAP3 SWAP2 SWAP1 DUP2 DUP2 MSTORE PUSH1 0x20 ADD DUP3 DUP1 SLOAD PUSH2 0x36B SWAP1 PUSH2 0x6DD JUMP JUMPDEST DUP1 ISZERO PUSH2 0x3B6 JUMPI DUP1 PUSH1 0x1F LT PUSH2 0x38D JUMPI PUSH2 0x100 DUP1 DUP4 SLOAD DIV MUL DUP4 MSTORE SWAP2 PUSH1 0x20 ADD SWAP2 PUSH2 0x3B6 JUMP JUMPDEST DUP3 ADD SWAP2 SWAP1 PUSH0 MSTORE PUSH1 0x20 PUSH0 KECCAK256 SWAP1 JUMPDEST DUP2 SLOAD DUP2 MSTORE SWAP1 PUSH1 0x1 ADD SWAP1 PUSH1 0x20 ADD DUP1 DUP4 GT PUSH2 0x399 JUMPI DUP3 SWAP1 SUB PUSH1 0x1F AND DUP3 ADD SWAP2 JUMPDEST POP POP POP POP POP DUP2 MSTORE PUSH1 0x20 ADD SWAP1 PUSH1 0x1 ADD SWAP1 PUSH2 0x322 JUMP JUMPDEST POP POP POP POP SWAP1 POP SWAP1 JUMP JUMPDEST PUSH0 PUSH0 DUP1 SLOAD DUP1 PUSH1 0x20 MUL PUSH1 0x20 ADD PUSH1 0x40 MLOAD SWAP1 DUP2 ADD PUSH1 0x40 MSTORE DUP1 SWAP3 SWAP2 SWAP1 DUP2 DUP2 MSTORE PUSH1 0x20 ADD PUSH0 SWAP1 JUMPDEST DUP3 DUP3 LT ISZERO PUSH2 0x49C JUMPI DUP4 DUP3 SWAP1 PUSH0 MSTORE PUSH1 0x20 PUSH0 KECCAK256 ADD DUP1 SLOAD PUSH2 0x411 SWAP1 PUSH2 0x6DD JUMP JUMPDEST DUP1 PUSH1 0x1F ADD PUSH1 0x20 DUP1 SWAP2 DIV MUL PUSH1 0x20 ADD PUSH1 0x40 MLOAD SWAP1 DUP2 ADD PUSH1 0x40 MSTORE DUP1 SWAP3 SWAP2 SWAP1 DUP2 DUP2 MSTORE PUSH1 0x20 ADD DUP3 DUP1 SLOAD PUSH2 0x43D SWAP1 PUSH2 0x6DD JUMP JUMPDEST DUP1 ISZERO PUSH2 0x488 JUMPI DUP1 PUSH1 0x1F LT PUSH2 0x45F JUMPI PUSH2 0x100 DUP1 DUP4 SLOAD DIV MUL DUP4 MSTORE SWAP2 PUSH1 0x20 ADD SWAP2 PUSH2 0x488 JUMP JUMPDEST DUP3 ADD SWAP2 SWAP1 PUSH0 MSTORE PUSH1 0x20 PUSH0 KECCAK256 SWAP1 JUMPDEST DUP2 SLOAD DUP2 MSTORE SWAP1 PUSH1 0x1 ADD SWAP1 PUSH1 0x20 ADD DUP1 DUP4 GT PUSH2 0x46B JUMPI DUP3 SWAP1 SUB PUSH1 0x1F AND DUP3 ADD SWAP2 JUMPDEST POP POP POP POP POP DUP2 MSTORE PUSH1 0x20 ADD SWAP1 PUSH1 0x1 ADD SWAP1 PUSH2 0x3F4 JUMP JUMPDEST POP POP POP POP SWAP1 POP PUSH1 0x40 MLOAD DUP1 PUSH1 0x40 ADD PUSH1 0x40 MSTORE DUP1 PUSH1 0x5 DUP2 MSTORE PUSH1 0x20 ADD PUSH5 0x11185D9A59 PUSH1 0xDA SHL DUP2 MSTORE POP DUP2 PUSH0 DUP2 MLOAD DUP2 LT PUSH2 0x4D2 JUMPI PUSH2 0x4D2 PUSH2 0x715 JUMP JUMPDEST PUSH1 0x20 MUL PUSH1 0x20 ADD ADD DUP2 SWAP1 MSTORE POP POP JUMP JUMPDEST PUSH0 PUSH1 0x1 PUSH1 0x40 MLOAD DUP1 PUSH1 0x40 ADD PUSH1 0x40 MSTORE SWAP1 DUP2 PUSH0 DUP3 ADD DUP1 SLOAD PUSH2 0x4FD SWAP1 PUSH2 0x6DD JUMP JUMPDEST DUP1 PUSH1 0x1F ADD PUSH1 0x20 DUP1 SWAP2 DIV MUL PUSH1 0x20 ADD PUSH1 0x40 MLOAD SWAP1 DUP2 ADD PUSH1 0x40 MSTORE DUP1 SWAP3 SWAP2 SWAP1 DUP2 DUP2 MSTORE PUSH1 0x20 ADD DUP3 DUP1 SLOAD PUSH2 0x529 SWAP1 PUSH2 0x6DD JUMP JUMPDEST DUP1 ISZERO PUSH2 0x574 JUMPI DUP1 PUSH1 0x1F LT PUSH2 0x54B JUMPI PUSH2 0x100 DUP1 DUP4 SLOAD DIV MUL DUP4 MSTORE SWAP2 PUSH1 0x20 ADD SWAP2 PUSH2 0x574 JUMP JUMPDEST DUP3 ADD SWAP2 SWAP1 PUSH0 MSTORE PUSH1 0x20 PUSH0 KECCAK256 SWAP1 JUMPDEST DUP2 SLOAD DUP2 MSTORE SWAP1 PUSH1 0x1 ADD SWAP1 PUSH1 0x20 ADD DUP1 DUP4 GT PUSH2 0x557 JUMPI DUP3 SWAP1 SUB PUSH1 0x1F AND DUP3 ADD SWAP2 JUMPDEST POP POP POP SWAP2 DUP4 MSTORE POP POP PUSH1 0x1 SWAP2 SWAP1 SWAP2 ADD SLOAD PUSH1 0x20 SWAP2 DUP3 ADD MSTORE PUSH1 0x40 DUP1 MLOAD DUP1 DUP3 ADD SWAP1 SWAP2 MSTORE PUSH1 0x3 DUP2 MSTORE PUSH3 0x2137B1 PUSH1 0xE9 SHL SWAP2 DUP2 ADD SWAP2 SWAP1 SWAP2 MSTORE SWAP1 MSTORE POP PUSH1 0x1E PUSH1 0x2 SSTORE JUMP JUMPDEST PUSH0 PUSH0 SWAP1 POP PUSH1 0x40 MLOAD DUP1 PUSH1 0x40 ADD PUSH1 0x40 MSTORE DUP1 PUSH1 0x5 DUP2 MSTORE PUSH1 0x20 ADD PUSH5 0x11185D9A59 PUSH1 0xDA SHL DUP2 MSTORE POP DUP2 PUSH0 DUP2 SLOAD DUP2 LT PUSH2 0x5E3 JUMPI PUSH2 0x5E3 PUSH2 0x715 JUMP JUMPDEST SWAP1 PUSH0 MSTORE PUSH1 0x20 PUSH0 KECCAK256 ADD SWAP1 DUP2 PUSH2 0x5F7 SWAP2 SWAP1 PUSH2 0x789 JUMP JUMPDEST POP POP JUMP JUMPDEST PUSH0 PUSH1 0x20 DUP3 DUP5 SUB SLT ISZERO PUSH2 0x60B JUMPI PUSH0 PUSH0 REVERT JUMPDEST POP CALLDATALOAD SWAP2 SWAP1 POP JUMP JUMPDEST PUSH0 DUP2 MLOAD DUP1 DUP5 MSTORE DUP1 PUSH1 0x20 DUP5 ADD PUSH1 0x20 DUP7 ADD MCOPY PUSH0 PUSH1 0x20 DUP3 DUP7 ADD ADD MSTORE PUSH1 0x20 PUSH1 0x1F NOT PUSH1 0x1F DUP4 ADD AND DUP6 ADD ADD SWAP2 POP POP SWAP3 SWAP2 POP POP JUMP JUMPDEST PUSH1 0x20 DUP2 MSTORE PUSH0 PUSH2 0x652 PUSH1 0x20 DUP4 ADD DUP5 PUSH2 0x612 JUMP JUMPDEST SWAP4 SWAP3 POP POP POP JUMP JUMPDEST PUSH1 0x40 DUP2 MSTORE PUSH0 PUSH2 0x66B PUSH1 0x40 DUP4 ADD DUP6 PUSH2 0x612 JUMP JUMPDEST SWAP1 POP DUP3 PUSH1 0x20 DUP4 ADD MSTORE SWAP4 SWAP3 POP POP POP JUMP JUMPDEST PUSH0 PUSH1 0x20 DUP3 ADD PUSH1 0x20 DUP4 MSTORE DUP1 DUP5 MLOAD DUP1 DUP4 MSTORE PUSH1 0x40 DUP6 ADD SWAP2 POP PUSH1 0x40 DUP2 PUSH1 0x5 SHL DUP7 ADD ADD SWAP3 POP PUSH1 0x20 DUP7 ADD PUSH0 JUMPDEST DUP3 DUP2 LT ISZERO PUSH2 0x6D1 JUMPI PUSH1 0x3F NOT DUP8 DUP7 SUB ADD DUP5 MSTORE PUSH2 0x6BC DUP6 DUP4 MLOAD PUSH2 0x612 JUMP JUMPDEST SWAP5 POP PUSH1 0x20 SWAP4 DUP5 ADD SWAP4 SWAP2 SWAP1 SWAP2 ADD SWAP1 PUSH1 0x1 ADD PUSH2 0x6A0 JUMP JUMPDEST POP SWAP3 SWAP7 SWAP6 POP POP POP POP POP POP JUMP JUMPDEST PUSH1 0x1 DUP2 DUP2 SHR SWAP1 DUP3 AND DUP1 PUSH2 0x6F1 JUMPI PUSH1 0x7F DUP3 AND SWAP2 POP JUMPDEST PUSH1 0x20 DUP3 LT DUP2 SUB PUSH2 0x70F JUMPI PUSH4 0x4E487B71 PUSH1 0xE0 SHL PUSH0 MSTORE PUSH1 0x22 PUSH1 0x4 MSTORE PUSH1 0x24 PUSH0 REVERT JUMPDEST POP SWAP2 SWAP1 POP JUMP JUMPDEST PUSH4 0x4E487B71 PUSH1 0xE0 SHL PUSH0 MSTORE PUSH1 0x32 PUSH1 0x4 MSTORE PUSH1 0x24 PUSH0 REVERT JUMPDEST PUSH4 0x4E487B71 PUSH1 0xE0 SHL PUSH0 MSTORE PUSH1 0x41 PUSH1 0x4 MSTORE PUSH1 0x24 PUSH0 REVERT JUMPDEST PUSH1 0x1F DUP3 GT ISZERO PUSH2 0x784 JUMPI DUP1 PUSH0 MSTORE PUSH1 0x20 PUSH0 KECCAK256 PUSH1 0x1F DUP5 ADD PUSH1 0x5 SHR DUP2 ADD PUSH1 0x20 DUP6 LT ISZERO PUSH2 0x762 JUMPI POP DUP1 JUMPDEST PUSH1 0x1F DUP5 ADD PUSH1 0x5 SHR DUP3 ADD SWAP2 POP JUMPDEST DUP2 DUP2 LT ISZERO PUSH2 0x781 JUMPI PUSH0 DUP2 SSTORE PUSH1 0x1 ADD PUSH2 0x76E JUMP JUMPDEST POP POP JUMPDEST POP POP POP JUMP JUMPDEST DUP2 MLOAD PUSH8 0xFFFFFFFFFFFFFFFF DUP2 GT ISZERO PUSH2 0x7A3 JUMPI PUSH2 0x7A3 PUSH2 0x729 JUMP JUMPDEST PUSH2 0x7B7 DUP2 PUSH2 0x7B1 DUP5 SLOAD PUSH2 0x6DD JUMP JUMPDEST DUP5 PUSH2 0x73D JUMP JUMPDEST PUSH1 0x20 PUSH1 0x1F DUP3 GT PUSH1 0x1 DUP2 EQ PUSH2 0x7E9 JUMPI PUSH0 DUP4 ISZERO PUSH2 0x7D2 JUMPI POP DUP5 DUP3 ADD MLOAD JUMPDEST PUSH0 NOT PUSH1 0x3 DUP6 SWAP1 SHL SHR NOT AND PUSH1 0x1 DUP5 SWAP1 SHL OR DUP5 SSTORE PUSH2 0x781 JUMP JUMPDEST PUSH0 DUP5 DUP2 MSTORE PUSH1 0x20 DUP2 KECCAK256 PUSH1 0x1F NOT DUP6 AND SWAP2 JUMPDEST DUP3 DUP2 LT ISZERO PUSH2 0x818 JUMPI DUP8 DUP6 ADD MLOAD DUP3 SSTORE PUSH1 0x20 SWAP5 DUP6 ADD SWAP5 PUSH1 0x1 SWAP1 SWAP3 ADD SWAP2 ADD PUSH2 0x7F8 JUMP JUMPDEST POP DUP5 DUP3 LT ISZERO PUSH2 0x835 JUMPI DUP7 DUP5 ADD MLOAD PUSH0 NOT PUSH1 0x3 DUP8 SWAP1 SHL PUSH1 0xF8 AND SHR NOT AND DUP2 SSTORE JUMPDEST POP POP POP POP PUSH1 0x1 SWAP1 DUP2 SHL ADD SWAP1 SSTORE POP JUMP INVALID LOG2 PUSH5 0x6970667358 0x22 SLT KECCAK256 SWAP14 CALLDATACOPY SWAP6 PUSH25 0xC111B3E457311713061F3450AD8B39DB8C12B1AEA167A5D753 GT BYTE SLOAD PUSH5 0x736F6C6343 STOP ADDMOD 0x1E STOP CALLER "
				},
				"gasEstimates": {
					"creation": {
						"codeDepositCost": "434000",
						"executionCost": "infinite",
						"totalCost": "infinite"
					},
					"external": {
						"demonstrateGasCosts()": "infinite",
						"getStudentArray()": "infinite",
						"hasMemory()": "infinite",
						"hasStorage()": "infinite",
						"memoryVsStorageStruct()": "infinite",
						"person()": "infinite",
						"student(uint256)": "infinite"
					}
				},
				"methodIdentifiers": {
					"demonstrateGasCosts()": "75339cbf",
					"getStudentArray()": "8f23be8c",
					"hasMemory()": "c256f80c",
					"hasStorage()": "f0c9a026",
					"memoryVsStorageStruct()": "d4b9384e",
					"person()": "77ec2b55",
					"student(uint256)": "35f34232"
				}
			},
			"storageLayout": {
				"storage": [
					{
						"astId": 10,
						"contract": "11-Storage Locations/Storage_Memory.sol:demo",
						"label": "student",
						"offset": 0,
						"slot": "0",
						"type": "t_array(t_string_storage)dyn_storage"
					},
					{
						"astId": 69,
						"contract": "11-Storage Locations/Storage_Memory.sol:demo",
						"label": "person",
						"offset": 0,
						"slot": "1",
						"type": "t_struct(Person)62_storage"
					}
				],
				"types": {
					"t_array(t_string_storage)dyn_storage": {
						"base": "t_string_storage",
						"encoding": "dynamic_array",
						"label": "string[]",
						"numberOfBytes": "32"
					},
					"t_string_storage": {
						"encoding": "bytes",
						"label": "string",
						"numberOfBytes": "32"
					},
					"t_struct(Person)62_storage": {
						"encoding": "inplace",
						"label": "struct demo.Person",
						"members": [
							{
								"astId": 59,
								"contract": "11-Storage Locations/Storage_Memory.sol:demo",
								"label": "name",
								"offset": 0,
								"slot": "0",
								"type": "t_string_storage"
							},
							{
								"astId": 61,
								"contract": "11-Storage Locations/Storage_Memory.sol:demo",
								"label": "age",
								"offset": 0,
								"slot": "1",
								"type": "t_uint256"
							}
						],
						"numberOfBytes": "64"
					},
					"t_uint256": {
						"encoding": "inplace",
						"label": "uint256",
						"numberOfBytes": "32"
					}
				}
			},
			"userdoc": {
				"kind": "user",
				"methods": {
					"demonstrateGasCosts()": {
						"notice": "Memory operations are cheaper for reads but more expensive for copiesStorage writes are expensive but necessary for persistence"
					},
					"getStudentArray()": {
						"notice": "Useful to verify the effects of hasMemory() vs hasStorage()"
					},
					"hasMemory()": {
						"notice": "Creates a copy of the storage array in memoryModifications to the memory copy don't affect storage"
					},
					"hasStorage()": {
						"notice": "Creates a reference to the storage arrayModifications affect the original storage array"
					},
					"student(uint256)": {
						"notice": "Public visibility automatically creates a getter functionStored in contract storage (persists between transactions)Initialized with [\"Alice\", \"Bob\", \"Charlie\"]"
					}
				},
				"notice": "Demonstrates how assignments behave differently based on data locationHighlights the implications of working with reference vs value types",
				"version": 1
			}
		}
	}
}