{
	"6-Data Types/Bool.sol": {
		"booltype": {
			"abi": [
				{
					"inputs": [],
					"name": "areBothTrue",
					"outputs": [
						{
							"internalType": "bool",
							"name": "",
							"type": "bool"
						}
					],
					"stateMutability": "view",
					"type": "function"
				},
				{
					"inputs": [
						{
							"internalType": "uint256",
							"name": "a",
							"type": "uint256"
						}
					],
					"name": "check",
					"outputs": [
						{
							"internalType": "bool",
							"name": "",
							"type": "bool"
						}
					],
					"stateMutability": "nonpayable",
					"type": "function"
				},
				{
					"inputs": [],
					"name": "isEitherTrue",
					"outputs": [
						{
							"internalType": "bool",
							"name": "",
							"type": "bool"
						}
					],
					"stateMutability": "view",
					"type": "function"
				},
				{
					"inputs": [],
					"name": "toggleValue",
					"outputs": [],
					"stateMutability": "nonpayable",
					"type": "function"
				},
				{
					"inputs": [],
					"name": "val2",
					"outputs": [
						{
							"internalType": "bool",
							"name": "",
							"type": "bool"
						}
					],
					"stateMutability": "view",
					"type": "function"
				},
				{
					"inputs": [],
					"name": "value",
					"outputs": [
						{
							"internalType": "bool",
							"name": "",
							"type": "bool"
						}
					],
					"stateMutability": "view",
					"type": "function"
				}
			],
			"devdoc": {
				"details": "This contract shows how to work with boolean values in Solidity",
				"kind": "dev",
				"methods": {
					"areBothTrue()": {
						"details": "Function to check if both boolean values are true",
						"returns": {
							"_0": "Returns true only if both value and val2 are true"
						}
					},
					"check(uint256)": {
						"details": "Function to check if input value is greater than 100",
						"params": {
							"a": "The uint256 value to check against 100"
						},
						"returns": {
							"_0": "Returns true if a > 100, false otherwise"
						}
					},
					"isEitherTrue()": {
						"details": "Function to check if at least one boolean value is true",
						"returns": {
							"_0": "Returns true if either value or val2 is true"
						}
					},
					"toggleValue()": {
						"details": "Function to toggle the value between true and false"
					}
				},
				"title": "BoolType Contract",
				"version": 1
			},
			"evm": {
				"assembly": "    /* \"6-Data Types/Bool.sol\":360:2051  contract booltype {... */\n  mstore(0x40, 0x80)\n    /* \"6-Data Types/Bool.sol\":514:538  bool public value = true */\n  0x00\n  dup1\n  sload\n  not(0xffff)\n    /* \"6-Data Types/Bool.sol\":603:627  bool public val2 = false */\n  and\n    /* \"6-Data Types/Bool.sol\":534:538  true */\n  0x01\n    /* \"6-Data Types/Bool.sol\":603:627  bool public val2 = false */\n  or\n  swap1\n  sstore\n    /* \"6-Data Types/Bool.sol\":360:2051  contract booltype {... */\n  callvalue\n  dup1\n  iszero\n  tag_1\n  jumpi\n  revert(0x00, 0x00)\ntag_1:\n  pop\n  dataSize(sub_0)\n  dup1\n  dataOffset(sub_0)\n  0x00\n  codecopy\n  0x00\n  return\nstop\n\nsub_0: assembly {\n        /* \"6-Data Types/Bool.sol\":360:2051  contract booltype {... */\n      mstore(0x40, 0x80)\n      callvalue\n      dup1\n      iszero\n      tag_1\n      jumpi\n      revert(0x00, 0x00)\n    tag_1:\n      pop\n      jumpi(tag_2, lt(calldatasize, 0x04))\n      shr(0xe0, calldataload(0x00))\n      dup1\n      0x16bba373\n      eq\n      tag_3\n      jumpi\n      dup1\n      0x1f6f59be\n      eq\n      tag_4\n      jumpi\n      dup1\n      0x3fa4f245\n      eq\n      tag_5\n      jumpi\n      dup1\n      0x5f72f450\n      eq\n      tag_6\n      jumpi\n      dup1\n      0x80e1a6c6\n      eq\n      tag_7\n      jumpi\n      dup1\n      0x95cacbe0\n      eq\n      tag_8\n      jumpi\n    tag_2:\n      revert(0x00, 0x00)\n        /* \"6-Data Types/Bool.sol\":1924:2049  function isEitherTrue() public view returns (bool) {... */\n    tag_3:\n      tag_9\n      tag_10\n      jump\t// in\n    tag_9:\n      mload(0x40)\n        /* \"#utility.yul\":179:193   */\n      swap1\n      iszero\n        /* \"#utility.yul\":172:194   */\n      iszero\n        /* \"#utility.yul\":154:195   */\n      dup2\n      mstore\n        /* \"#utility.yul\":142:144   */\n      0x20\n        /* \"#utility.yul\":127:145   */\n      add\n        /* \"6-Data Types/Bool.sol\":1924:2049  function isEitherTrue() public view returns (bool) {... */\n      mload(0x40)\n      dup1\n      swap2\n      sub\n      swap1\n      return\n        /* \"6-Data Types/Bool.sol\":1379:1500  function toggleValue() public {... */\n    tag_4:\n      tag_13\n        /* \"6-Data Types/Bool.sol\":1488:1493  value */\n      0x00\n      dup1\n      sload\n      not(0xff)\n        /* \"6-Data Types/Bool.sol\":1479:1493  value = !value */\n      dup2\n      and\n        /* \"6-Data Types/Bool.sol\":1488:1493  value */\n      0xff\n      swap1\n      swap2\n      and\n        /* \"6-Data Types/Bool.sol\":1487:1493  !value */\n      iszero\n        /* \"6-Data Types/Bool.sol\":1479:1493  value = !value */\n      or\n      swap1\n      sstore\n        /* \"6-Data Types/Bool.sol\":1379:1500  function toggleValue() public {... */\n      jump\n    tag_13:\n      stop\n        /* \"6-Data Types/Bool.sol\":514:538  bool public value = true */\n    tag_5:\n      sload(0x00)\n      tag_9\n      swap1\n      0xff\n      and\n      dup2\n      jump\n        /* \"6-Data Types/Bool.sol\":826:1239  function check(uint256 a) public returns (bool) {... */\n    tag_6:\n      tag_9\n      tag_19\n      calldatasize\n      0x04\n      tag_20\n      jump\t// in\n    tag_19:\n      tag_21\n      jump\t// in\n        /* \"6-Data Types/Bool.sol\":1649:1774  function areBothTrue() public view returns (bool) {... */\n    tag_7:\n      tag_9\n      tag_24\n      jump\t// in\n        /* \"6-Data Types/Bool.sol\":603:627  bool public val2 = false */\n    tag_8:\n      sload(0x00)\n      tag_9\n      swap1\n      0x0100\n      swap1\n      div\n      0xff\n      and\n      dup2\n      jump\n        /* \"6-Data Types/Bool.sol\":1924:2049  function isEitherTrue() public view returns (bool) {... */\n    tag_10:\n        /* \"6-Data Types/Bool.sol\":1969:1973  bool */\n      0x00\n        /* \"6-Data Types/Bool.sol\":2029:2034  value */\n      dup1\n      sload\n      0xff\n      and\n      dup1\n        /* \"6-Data Types/Bool.sol\":2029:2042  value || val2 */\n      tag_30\n      jumpi\n      pop\n        /* \"6-Data Types/Bool.sol\":2038:2042  val2 */\n      sload(0x00)\n      0x0100\n      swap1\n      div\n      0xff\n      and\n        /* \"6-Data Types/Bool.sol\":2029:2042  value || val2 */\n    tag_30:\n        /* \"6-Data Types/Bool.sol\":2022:2042  return value || val2 */\n      swap1\n      pop\n        /* \"6-Data Types/Bool.sol\":1924:2049  function isEitherTrue() public view returns (bool) {... */\n      swap1\n      jump\t// out\n        /* \"6-Data Types/Bool.sol\":826:1239  function check(uint256 a) public returns (bool) {... */\n    tag_21:\n        /* \"6-Data Types/Bool.sol\":868:872  bool */\n      0x00\n        /* \"6-Data Types/Bool.sol\":947:950  100 */\n      0x64\n        /* \"6-Data Types/Bool.sol\":943:944  a */\n      dup3\n        /* \"6-Data Types/Bool.sol\":943:950  a > 100 */\n      gt\n        /* \"6-Data Types/Bool.sol\":939:1153  if (a > 100) {... */\n      iszero\n      tag_33\n      jumpi\n        /* \"6-Data Types/Bool.sol\":1028:1033  value */\n      0x00\n        /* \"6-Data Types/Bool.sol\":1028:1040  value = true */\n      dup1\n      sload\n      not(0xff)\n      and\n        /* \"6-Data Types/Bool.sol\":1036:1040  true */\n      0x01\n        /* \"6-Data Types/Bool.sol\":1028:1040  value = true */\n      or\n      swap1\n      sstore\n        /* \"6-Data Types/Bool.sol\":939:1153  if (a > 100) {... */\n      jump(tag_34)\n    tag_33:\n        /* \"6-Data Types/Bool.sol\":1137:1142  false */\n      0x00\n        /* \"6-Data Types/Bool.sol\":1129:1142  value = false */\n      dup1\n      sload\n      not(0xff)\n      and\n      swap1\n      sstore\n        /* \"6-Data Types/Bool.sol\":939:1153  if (a > 100) {... */\n    tag_34:\n      pop\n      pop\n        /* \"6-Data Types/Bool.sol\":1227:1232  value */\n      and(0xff, sload(0x00))\n      swap1\n        /* \"6-Data Types/Bool.sol\":826:1239  function check(uint256 a) public returns (bool) {... */\n      jump\t// out\n        /* \"6-Data Types/Bool.sol\":1649:1774  function areBothTrue() public view returns (bool) {... */\n    tag_24:\n        /* \"6-Data Types/Bool.sol\":1693:1697  bool */\n      0x00\n        /* \"6-Data Types/Bool.sol\":1754:1759  value */\n      dup1\n      sload\n      0xff\n      and\n        /* \"6-Data Types/Bool.sol\":1754:1767  value && val2 */\n      dup1\n      iszero\n      tag_30\n      jumpi\n      pop\n      pop\n        /* \"6-Data Types/Bool.sol\":1763:1767  val2 */\n      sload(0x00)\n      0x0100\n      swap1\n      div\n      0xff\n      and\n      swap1\n        /* \"6-Data Types/Bool.sol\":1649:1774  function areBothTrue() public view returns (bool) {... */\n      jump\t// out\n        /* \"#utility.yul\":206:386   */\n    tag_20:\n        /* \"#utility.yul\":265:271   */\n      0x00\n        /* \"#utility.yul\":318:320   */\n      0x20\n        /* \"#utility.yul\":306:315   */\n      dup3\n        /* \"#utility.yul\":297:304   */\n      dup5\n        /* \"#utility.yul\":293:316   */\n      sub\n        /* \"#utility.yul\":289:321   */\n      slt\n        /* \"#utility.yul\":286:338   */\n      iszero\n      tag_40\n      jumpi\n        /* \"#utility.yul\":334:335   */\n      0x00\n        /* \"#utility.yul\":331:332   */\n      0x00\n        /* \"#utility.yul\":324:336   */\n      revert\n        /* \"#utility.yul\":286:338   */\n    tag_40:\n      pop\n        /* \"#utility.yul\":357:380   */\n      calldataload\n      swap2\n        /* \"#utility.yul\":206:386   */\n      swap1\n      pop\n      jump\t// out\n\n    auxdata: 0xa26469706673582212202b2217b76f6df13c9818296d4c92f2bfb096107dcce187782e94a35fdf3485be64736f6c634300081e0033\n}\n",
				"bytecode": {
					"linkReferences": {},
					"object": "60806040525f805461ffff19166001179055348015601b575f5ffd5b50610183806100295f395ff3fe608060405234801561000f575f5ffd5b5060043610610060575f3560e01c806316bba373146100645780631f6f59be146100805780633fa4f245146100985780635f72f450146100a457806380e1a6c6146100b757806395cacbe0146100bf575b5f5ffd5b61006c6100d0565b604051901515815260200160405180910390f35b6100965f805460ff19811660ff90911615179055565b005b5f5461006c9060ff1681565b61006c6100b2366004610136565b6100ec565b61006c61011b565b5f5461006c90610100900460ff1681565b5f805460ff16806100e757505f54610100900460ff165b905090565b5f6064821115610107575f805460ff19166001179055610111565b5f805460ff191690555b50505f5460ff1690565b5f805460ff1680156100e75750505f54610100900460ff1690565b5f60208284031215610146575f5ffd5b503591905056fea26469706673582212202b2217b76f6df13c9818296d4c92f2bfb096107dcce187782e94a35fdf3485be64736f6c634300081e0033",
					"opcodes": "PUSH1 0x80 PUSH1 0x40 MSTORE PUSH0 DUP1 SLOAD PUSH2 0xFFFF NOT AND PUSH1 0x1 OR SWAP1 SSTORE CALLVALUE DUP1 ISZERO PUSH1 0x1B JUMPI PUSH0 PUSH0 REVERT JUMPDEST POP PUSH2 0x183 DUP1 PUSH2 0x29 PUSH0 CODECOPY PUSH0 RETURN INVALID PUSH1 0x80 PUSH1 0x40 MSTORE CALLVALUE DUP1 ISZERO PUSH2 0xF JUMPI PUSH0 PUSH0 REVERT JUMPDEST POP PUSH1 0x4 CALLDATASIZE LT PUSH2 0x60 JUMPI PUSH0 CALLDATALOAD PUSH1 0xE0 SHR DUP1 PUSH4 0x16BBA373 EQ PUSH2 0x64 JUMPI DUP1 PUSH4 0x1F6F59BE EQ PUSH2 0x80 JUMPI DUP1 PUSH4 0x3FA4F245 EQ PUSH2 0x98 JUMPI DUP1 PUSH4 0x5F72F450 EQ PUSH2 0xA4 JUMPI DUP1 PUSH4 0x80E1A6C6 EQ PUSH2 0xB7 JUMPI DUP1 PUSH4 0x95CACBE0 EQ PUSH2 0xBF JUMPI JUMPDEST PUSH0 PUSH0 REVERT JUMPDEST PUSH2 0x6C PUSH2 0xD0 JUMP JUMPDEST PUSH1 0x40 MLOAD SWAP1 ISZERO ISZERO DUP2 MSTORE PUSH1 0x20 ADD PUSH1 0x40 MLOAD DUP1 SWAP2 SUB SWAP1 RETURN JUMPDEST PUSH2 0x96 PUSH0 DUP1 SLOAD PUSH1 0xFF NOT DUP2 AND PUSH1 0xFF SWAP1 SWAP2 AND ISZERO OR SWAP1 SSTORE JUMP JUMPDEST STOP JUMPDEST PUSH0 SLOAD PUSH2 0x6C SWAP1 PUSH1 0xFF AND DUP2 JUMP JUMPDEST PUSH2 0x6C PUSH2 0xB2 CALLDATASIZE PUSH1 0x4 PUSH2 0x136 JUMP JUMPDEST PUSH2 0xEC JUMP JUMPDEST PUSH2 0x6C PUSH2 0x11B JUMP JUMPDEST PUSH0 SLOAD PUSH2 0x6C SWAP1 PUSH2 0x100 SWAP1 DIV PUSH1 0xFF AND DUP2 JUMP JUMPDEST PUSH0 DUP1 SLOAD PUSH1 0xFF AND DUP1 PUSH2 0xE7 JUMPI POP PUSH0 SLOAD PUSH2 0x100 SWAP1 DIV PUSH1 0xFF AND JUMPDEST SWAP1 POP SWAP1 JUMP JUMPDEST PUSH0 PUSH1 0x64 DUP3 GT ISZERO PUSH2 0x107 JUMPI PUSH0 DUP1 SLOAD PUSH1 0xFF NOT AND PUSH1 0x1 OR SWAP1 SSTORE PUSH2 0x111 JUMP JUMPDEST PUSH0 DUP1 SLOAD PUSH1 0xFF NOT AND SWAP1 SSTORE JUMPDEST POP POP PUSH0 SLOAD PUSH1 0xFF AND SWAP1 JUMP JUMPDEST PUSH0 DUP1 SLOAD PUSH1 0xFF AND DUP1 ISZERO PUSH2 0xE7 JUMPI POP POP PUSH0 SLOAD PUSH2 0x100 SWAP1 DIV PUSH1 0xFF AND SWAP1 JUMP JUMPDEST PUSH0 PUSH1 0x20 DUP3 DUP5 SUB SLT ISZERO PUSH2 0x146 JUMPI PUSH0 PUSH0 REVERT JUMPDEST POP CALLDATALOAD SWAP2 SWAP1 POP JUMP INVALID LOG2 PUSH5 0x6970667358 0x22 SLT KECCAK256 0x2B 0x22 OR 0xB7 PUSH16 0x6DF13C9818296D4C92F2BFB096107DCC RJUMPI 0x8778 0x2E SWAP5 LOG3 PUSH0 0xDF CALLVALUE DUP6 0xBE PUSH5 0x736F6C6343 STOP ADDMOD 0x1E STOP CALLER "
				},
				"gasEstimates": {
					"creation": {
						"codeDepositCost": "77400",
						"executionCost": "24350",
						"totalCost": "101750"
					},
					"external": {
						"areBothTrue()": "4516",
						"check(uint256)": "26691",
						"isEitherTrue()": "4429",
						"toggleValue()": "24369",
						"val2()": "2395",
						"value()": "2318"
					}
				},
				"methodIdentifiers": {
					"areBothTrue()": "80e1a6c6",
					"check(uint256)": "5f72f450",
					"isEitherTrue()": "16bba373",
					"toggleValue()": "1f6f59be",
					"val2()": "95cacbe0",
					"value()": "3fa4f245"
				}
			},
			"storageLayout": {
				"storage": [
					{
						"astId": 5,
						"contract": "6-Data Types/Bool.sol:booltype",
						"label": "value",
						"offset": 0,
						"slot": "0",
						"type": "t_bool"
					},
					{
						"astId": 8,
						"contract": "6-Data Types/Bool.sol:booltype",
						"label": "val2",
						"offset": 1,
						"slot": "0",
						"type": "t_bool"
					}
				],
				"types": {
					"t_bool": {
						"encoding": "inplace",
						"label": "bool",
						"numberOfBytes": "1"
					}
				}
			},
			"userdoc": {
				"kind": "user",
				"methods": {
					"toggleValue()": {
						"notice": "This shows how to flip a boolean value"
					}
				},
				"notice": "Demonstrates boolean state variables and conditional logic",
				"version": 1
			}
		}
	}
}