{
	"6-Array/Arrays.sol": {
		"arrays": {
			"abi": [
				{
					"inputs": [
						{
							"internalType": "uint256",
							"name": "",
							"type": "uint256"
						}
					],
					"name": "arr",
					"outputs": [
						{
							"internalType": "uint256",
							"name": "",
							"type": "uint256"
						}
					],
					"stateMutability": "view",
					"type": "function"
				},
				{
					"inputs": [],
					"name": "getAllValues",
					"outputs": [
						{
							"internalType": "uint256[4]",
							"name": "",
							"type": "uint256[4]"
						}
					],
					"stateMutability": "view",
					"type": "function"
				},
				{
					"inputs": [],
					"name": "getSum",
					"outputs": [
						{
							"internalType": "uint256",
							"name": "",
							"type": "uint256"
						}
					],
					"stateMutability": "view",
					"type": "function"
				},
				{
					"inputs": [
						{
							"internalType": "uint256",
							"name": "index",
							"type": "uint256"
						}
					],
					"name": "getValue",
					"outputs": [
						{
							"internalType": "uint256",
							"name": "",
							"type": "uint256"
						}
					],
					"stateMutability": "view",
					"type": "function"
				},
				{
					"inputs": [
						{
							"internalType": "uint256",
							"name": "index",
							"type": "uint256"
						}
					],
					"name": "isValidIndex",
					"outputs": [
						{
							"internalType": "bool",
							"name": "",
							"type": "bool"
						}
					],
					"stateMutability": "pure",
					"type": "function"
				},
				{
					"inputs": [],
					"name": "length",
					"outputs": [
						{
							"internalType": "uint256",
							"name": "",
							"type": "uint256"
						}
					],
					"stateMutability": "view",
					"type": "function"
				},
				{
					"inputs": [
						{
							"internalType": "uint256",
							"name": "index",
							"type": "uint256"
						}
					],
					"name": "safeGetValue",
					"outputs": [
						{
							"internalType": "uint256",
							"name": "",
							"type": "uint256"
						}
					],
					"stateMutability": "view",
					"type": "function"
				},
				{
					"inputs": [
						{
							"internalType": "uint256",
							"name": "index",
							"type": "uint256"
						},
						{
							"internalType": "uint256",
							"name": "value",
							"type": "uint256"
						}
					],
					"name": "safeSetter",
					"outputs": [],
					"stateMutability": "nonpayable",
					"type": "function"
				},
				{
					"inputs": [
						{
							"internalType": "uint256",
							"name": "index",
							"type": "uint256"
						},
						{
							"internalType": "uint256",
							"name": "value",
							"type": "uint256"
						}
					],
					"name": "setter",
					"outputs": [],
					"stateMutability": "nonpayable",
					"type": "function"
				}
			],
			"devdoc": {
				"details": "Shows how to work with fixed-size arrays in Solidity",
				"kind": "dev",
				"methods": {
					"getAllValues()": {
						"details": "Function to get all values in the array",
						"returns": {
							"_0": "The complete array"
						}
					},
					"getSum()": {
						"details": "Function to get the sum of all array elements",
						"returns": {
							"_0": "The sum of all values in the array"
						}
					},
					"getValue(uint256)": {
						"details": "Function to read a value from the array at a specific indexWARNING: No bounds checking - will revert if index is out of bounds",
						"params": {
							"index": "The position in the array to read (0 to 3)"
						},
						"returns": {
							"_0": "The value stored at the specified index"
						}
					},
					"isValidIndex(uint256)": {
						"details": "Function to demonstrate array bounds checking",
						"params": {
							"index": "The position in the array to check"
						},
						"returns": {
							"_0": "true if the index is valid, false otherwise"
						}
					},
					"length()": {
						"details": "Function to get the length of the array",
						"returns": {
							"_0": "The length of the array (always 4 for this fixed-size array)"
						}
					},
					"safeGetValue(uint256)": {
						"details": "Function to demonstrate safe array access with bounds checkingThis is the recommended way to access arrays in production code",
						"params": {
							"index": "The position in the array to access"
						},
						"returns": {
							"_0": "The value at the specified index"
						}
					},
					"safeSetter(uint256,uint256)": {
						"details": "Function to demonstrate safe array update with bounds checking",
						"params": {
							"index": "The position in the array to update",
							"value": "The new value to store"
						}
					},
					"setter(uint256,uint256)": {
						"details": "Function to update a value in the array at a specific indexWARNING: This function doesn't check bounds - accessing invalid indices will cause errorsIn production code, you should add require(index < arr.length, \"Index out of bounds\")",
						"params": {
							"index": "The position in the array to update (0 to 3)",
							"value": "The new value to store at the specified index"
						}
					}
				},
				"stateVariables": {
					"arr": {
						"details": "Fixed-size array declaration with initializationIMPORTANT: Accessing indices outside 0-3 will cause a runtime error"
					}
				},
				"title": "Array Demonstration Contract",
				"version": 1
			},
			"evm": {
				"assembly": "    /* \"6-Array/Arrays.sol\":847:887  uint256[4] public arr = [10, 20, 30, 40] */\n  0x0100\n    /* \"6-Array/Arrays.sol\":334:4463  contract arrays {... */\n  0x40\n    /* \"6-Array/Arrays.sol\":847:887  uint256[4] public arr = [10, 20, 30, 40] */\n  mstore\n    /* \"6-Array/Arrays.sol\":872:874  10 */\n  0x0a\n    /* \"6-Array/Arrays.sol\":334:4463  contract arrays {... */\n  0x80\n    /* \"6-Array/Arrays.sol\":847:887  uint256[4] public arr = [10, 20, 30, 40] */\n  swap1\n  dup2\n  mstore\n    /* \"6-Array/Arrays.sol\":876:878  20 */\n  0x14\n    /* \"6-Array/Arrays.sol\":847:887  uint256[4] public arr = [10, 20, 30, 40] */\n  0xa0\n  mstore\n    /* \"6-Array/Arrays.sol\":880:882  30 */\n  0x1e\n    /* \"6-Array/Arrays.sol\":847:887  uint256[4] public arr = [10, 20, 30, 40] */\n  0xc0\n  mstore\n    /* \"6-Array/Arrays.sol\":884:886  40 */\n  0x28\n    /* \"6-Array/Arrays.sol\":847:887  uint256[4] public arr = [10, 20, 30, 40] */\n  0xe0\n  mstore\n  tag_1\n  swap1\n  0x00\n  swap1\n  0x04\n  tag_2\n  jump\t// in\ntag_1:\n  pop\n    /* \"6-Array/Arrays.sol\":334:4463  contract arrays {... */\n  callvalue\n  dup1\n  iszero\n  tag_3\n  jumpi\n  revert(0x00, 0x00)\ntag_3:\n  pop\n  jump(tag_4)\ntag_2:\n  dup3\n  0x04\n  dup2\n  add\n  swap3\n  dup3\n  iszero\n  tag_7\n  jumpi\n  swap2\n  0x20\n  mul\n  dup3\n  add\ntag_6:\n  dup3\n  dup2\n  gt\n  iszero\n  tag_7\n  jumpi\n  dup3\n  mload\n  dup3\n  swap1\n  0xff\n  and\n  swap1\n  sstore\n  swap2\n  0x20\n  add\n  swap2\n  swap1\n  0x01\n  add\n  swap1\n  jump(tag_6)\ntag_7:\n  pop\n  tag_8\n  swap3\n  swap2\n  pop\n  tag_9\n  jump\t// in\ntag_8:\n  pop\n  swap1\n  jump\t// out\ntag_9:\ntag_10:\n  dup1\n  dup3\n  gt\n  iszero\n  tag_8\n  jumpi\n  0x00\n  dup2\n  sstore\n  0x01\n  add\n  jump(tag_10)\ntag_4:\n  dataSize(sub_0)\n  dup1\n  dataOffset(sub_0)\n  0x00\n  codecopy\n  0x00\n  return\nstop\n\nsub_0: assembly {\n        /* \"6-Array/Arrays.sol\":334:4463  contract arrays {... */\n      mstore(0x40, 0x80)\n      callvalue\n      dup1\n      iszero\n      tag_1\n      jumpi\n      revert(0x00, 0x00)\n    tag_1:\n      pop\n      jumpi(tag_2, lt(calldatasize, 0x04))\n      shr(0xe0, calldataload(0x00))\n      dup1\n      0x569c5f6d\n      gt\n      tag_12\n      jumpi\n      dup1\n      0x569c5f6d\n      eq\n      tag_7\n      jumpi\n      dup1\n      0x71e5ee5f\n      eq\n      tag_8\n      jumpi\n      dup1\n      0x981f5499\n      eq\n      tag_9\n      jumpi\n      dup1\n      0xe7af66a9\n      eq\n      tag_10\n      jumpi\n      dup1\n      0xf34320c0\n      eq\n      tag_11\n      jumpi\n      revert(0x00, 0x00)\n    tag_12:\n      dup1\n      0x0ff4c916\n      eq\n      tag_3\n      jumpi\n      dup1\n      0x1f7b6d32\n      eq\n      tag_4\n      jumpi\n      dup1\n      0x4b5980c5\n      eq\n      tag_5\n      jumpi\n      dup1\n      0x5298f36d\n      eq\n      tag_6\n      jumpi\n    tag_2:\n      revert(0x00, 0x00)\n        /* \"6-Array/Arrays.sol\":2351:2448  function getValue(uint256 index) public view returns (uint256) {... */\n    tag_3:\n      tag_13\n      tag_14\n      calldatasize\n      0x04\n      tag_15\n      jump\t// in\n    tag_14:\n      tag_16\n      jump\t// in\n    tag_13:\n      mload(0x40)\n        /* \"#utility.yul\":391:416   */\n      swap1\n      dup2\n      mstore\n        /* \"#utility.yul\":379:381   */\n      0x20\n        /* \"#utility.yul\":364:382   */\n      add\n        /* \"6-Array/Arrays.sol\":2351:2448  function getValue(uint256 index) public view returns (uint256) {... */\n    tag_17:\n      mload(0x40)\n      dup1\n      swap2\n      sub\n      swap1\n      return\n        /* \"6-Array/Arrays.sol\":1920:2002  function length() public view returns (uint256) {... */\n    tag_4:\n        /* \"6-Array/Arrays.sol\":1985:1995  arr.length */\n      0x04\n        /* \"6-Array/Arrays.sol\":1920:2002  function length() public view returns (uint256) {... */\n      jump(tag_13)\n        /* \"6-Array/Arrays.sol\":3503:3664  function safeGetValue(uint256 index) public view returns (uint256) {... */\n    tag_5:\n      tag_13\n      tag_23\n      calldatasize\n      0x04\n      tag_15\n      jump\t// in\n    tag_23:\n      tag_24\n      jump\t// in\n        /* \"6-Array/Arrays.sol\":1375:1617  function setter(uint256 index, uint256 value) public {... */\n    tag_6:\n      tag_26\n      tag_27\n      calldatasize\n      0x04\n      tag_28\n      jump\t// in\n    tag_27:\n      tag_29\n      jump\t// in\n    tag_26:\n      stop\n        /* \"6-Array/Arrays.sol\":4267:4461  function getSum() public view returns (uint256) {... */\n    tag_7:\n      tag_13\n      tag_31\n      jump\t// in\n        /* \"6-Array/Arrays.sol\":847:887  uint256[4] public arr = [10, 20, 30, 40] */\n    tag_8:\n      tag_13\n      tag_34\n      calldatasize\n      0x04\n      tag_15\n      jump\t// in\n    tag_34:\n      tag_35\n      jump\t// in\n        /* \"6-Array/Arrays.sol\":2678:2769  function getAllValues() public view returns (uint256[4] memory) {... */\n    tag_9:\n      tag_37\n      tag_38\n      jump\t// in\n    tag_37:\n      mload(0x40)\n      tag_17\n      swap2\n      swap1\n      tag_40\n      jump\t// in\n        /* \"6-Array/Arrays.sol\":3930:4082  function safeSetter(uint256 index, uint256 value) public {... */\n    tag_10:\n      tag_26\n      tag_42\n      calldatasize\n      0x04\n      tag_28\n      jump\t// in\n    tag_42:\n      tag_43\n      jump\t// in\n        /* \"6-Array/Arrays.sol\":3033:3162  function isValidIndex(uint256 index) public pure returns (bool) {... */\n    tag_11:\n      tag_44\n      tag_45\n      calldatasize\n      0x04\n      tag_15\n      jump\t// in\n    tag_45:\n        /* \"6-Array/Arrays.sol\":3122:3123  4 */\n      0x04\n      gt\n        /* \"6-Array/Arrays.sol\":3114:3123  index < 4 */\n      swap1\n        /* \"6-Array/Arrays.sol\":3033:3162  function isValidIndex(uint256 index) public pure returns (bool) {... */\n      jump\n    tag_44:\n      mload(0x40)\n        /* \"#utility.yul\":1420:1434   */\n      swap1\n      iszero\n        /* \"#utility.yul\":1413:1435   */\n      iszero\n        /* \"#utility.yul\":1395:1436   */\n      dup2\n      mstore\n        /* \"#utility.yul\":1383:1385   */\n      0x20\n        /* \"#utility.yul\":1368:1386   */\n      add\n        /* \"6-Array/Arrays.sol\":3033:3162  function isValidIndex(uint256 index) public pure returns (bool) {... */\n      tag_17\n        /* \"#utility.yul\":1255:1442   */\n      jump\n        /* \"6-Array/Arrays.sol\":2351:2448  function getValue(uint256 index) public view returns (uint256) {... */\n    tag_16:\n        /* \"6-Array/Arrays.sol\":2405:2412  uint256 */\n      0x00\n        /* \"6-Array/Arrays.sol\":2431:2434  arr */\n      0x00\n        /* \"6-Array/Arrays.sol\":2435:2440  index */\n      dup3\n        /* \"6-Array/Arrays.sol\":2431:2441  arr[index] */\n      0x04\n      dup2\n      lt\n      tag_51\n      jumpi\n      tag_51\n      tag_52\n      jump\t// in\n    tag_51:\n      add\n      sload\n      swap3\n        /* \"6-Array/Arrays.sol\":2351:2448  function getValue(uint256 index) public view returns (uint256) {... */\n      swap2\n      pop\n      pop\n      jump\t// out\n        /* \"6-Array/Arrays.sol\":3503:3664  function safeGetValue(uint256 index) public view returns (uint256) {... */\n    tag_24:\n        /* \"6-Array/Arrays.sol\":3561:3568  uint256 */\n      0x00\n        /* \"6-Array/Arrays.sol\":3596:3606  arr.length */\n      0x04\n        /* \"6-Array/Arrays.sol\":3588:3593  index */\n      dup3\n        /* \"6-Array/Arrays.sol\":3588:3606  index < arr.length */\n      lt\n        /* \"6-Array/Arrays.sol\":3580:3630  require(index < arr.length, \"Index out of bounds\") */\n      tag_56\n      jumpi\n      mload(0x40)\n      shl(0xe5, 0x461bcd)\n      dup2\n      mstore\n        /* \"#utility.yul\":1781:1783   */\n      0x20\n        /* \"6-Array/Arrays.sol\":3580:3630  require(index < arr.length, \"Index out of bounds\") */\n      0x04\n      dup3\n      add\n        /* \"#utility.yul\":1763:1784   */\n      mstore\n        /* \"#utility.yul\":1820:1822   */\n      0x13\n        /* \"#utility.yul\":1800:1818   */\n      0x24\n      dup3\n      add\n        /* \"#utility.yul\":1793:1823   */\n      mstore\n      shl(0x68, 0x496e646578206f7574206f6620626f756e6473)\n        /* \"#utility.yul\":1839:1857   */\n      0x44\n      dup3\n      add\n        /* \"#utility.yul\":1832:1881   */\n      mstore\n        /* \"#utility.yul\":1898:1916   */\n      0x64\n      add\n        /* \"6-Array/Arrays.sol\":3580:3630  require(index < arr.length, \"Index out of bounds\") */\n    tag_57:\n      mload(0x40)\n      dup1\n      swap2\n      sub\n      swap1\n      revert\n    tag_56:\n        /* \"6-Array/Arrays.sol\":3647:3650  arr */\n      0x00\n        /* \"6-Array/Arrays.sol\":3651:3656  index */\n      dup3\n        /* \"6-Array/Arrays.sol\":3647:3657  arr[index] */\n      0x04\n      dup2\n      lt\n      tag_51\n      jumpi\n      tag_51\n      tag_52\n      jump\t// in\n        /* \"6-Array/Arrays.sol\":1375:1617  function setter(uint256 index, uint256 value) public {... */\n    tag_29:\n        /* \"6-Array/Arrays.sol\":1521:1526  value */\n      dup1\n        /* \"6-Array/Arrays.sol\":1508:1511  arr */\n      0x00\n        /* \"6-Array/Arrays.sol\":1512:1517  index */\n      dup4\n        /* \"6-Array/Arrays.sol\":1508:1518  arr[index] */\n      0x04\n      dup2\n      lt\n      tag_64\n      jumpi\n      tag_64\n      tag_52\n      jump\t// in\n    tag_64:\n      add\n        /* \"6-Array/Arrays.sol\":1508:1526  arr[index] = value */\n      sstore\n      pop\n      pop\n        /* \"6-Array/Arrays.sol\":1375:1617  function setter(uint256 index, uint256 value) public {... */\n      jump\t// out\n        /* \"6-Array/Arrays.sol\":4267:4461  function getSum() public view returns (uint256) {... */\n    tag_31:\n        /* \"6-Array/Arrays.sol\":4306:4313  uint256 */\n      0x00\n      dup1\n      dup1\n        /* \"6-Array/Arrays.sol\":4352:4433  for (uint256 i = 0; i < arr.length; i++) {... */\n    tag_67:\n        /* \"6-Array/Arrays.sol\":4376:4386  arr.length */\n      0x04\n        /* \"6-Array/Arrays.sol\":4372:4373  i */\n      dup2\n        /* \"6-Array/Arrays.sol\":4372:4386  i < arr.length */\n      lt\n        /* \"6-Array/Arrays.sol\":4352:4433  for (uint256 i = 0; i < arr.length; i++) {... */\n      iszero\n      tag_68\n      jumpi\n        /* \"6-Array/Arrays.sol\":4416:4419  arr */\n      0x00\n        /* \"6-Array/Arrays.sol\":4420:4421  i */\n      dup2\n        /* \"6-Array/Arrays.sol\":4416:4422  arr[i] */\n      0x04\n      dup2\n      lt\n      tag_71\n      jumpi\n      tag_71\n      tag_52\n      jump\t// in\n    tag_71:\n      add\n      sload\n        /* \"6-Array/Arrays.sol\":4407:4422  total += arr[i] */\n      tag_73\n      swap1\n      dup4\n      tag_74\n      jump\t// in\n    tag_73:\n      swap2\n      pop\n        /* \"6-Array/Arrays.sol\":4388:4391  i++ */\n      0x01\n      add\n        /* \"6-Array/Arrays.sol\":4352:4433  for (uint256 i = 0; i < arr.length; i++) {... */\n      jump(tag_67)\n    tag_68:\n      pop\n        /* \"6-Array/Arrays.sol\":4449:4454  total */\n      swap2\n        /* \"6-Array/Arrays.sol\":4267:4461  function getSum() public view returns (uint256) {... */\n      swap1\n      pop\n      jump\t// out\n        /* \"6-Array/Arrays.sol\":847:887  uint256[4] public arr = [10, 20, 30, 40] */\n    tag_35:\n      0x00\n      dup2\n      0x04\n      dup2\n      lt\n      tag_75\n      jumpi\n      0x00\n      dup1\n      revert\n    tag_75:\n      add\n      sload\n      swap1\n      pop\n      dup2\n      jump\t// out\n        /* \"6-Array/Arrays.sol\":2678:2769  function getAllValues() public view returns (uint256[4] memory) {... */\n    tag_38:\n        /* \"6-Array/Arrays.sol\":2723:2740  uint256[4] memory */\n      tag_77\n      tag_78\n      jump\t// in\n    tag_77:\n        /* \"6-Array/Arrays.sol\":2752:2762  return arr */\n      0x40\n      dup1\n      mload\n      0x80\n      dup2\n      add\n      swap2\n      dup3\n      swap1\n      mstore\n      swap1\n      0x00\n      swap1\n      0x04\n      swap1\n      dup3\n      dup5\n    tag_81:\n      dup2\n      sload\n      dup2\n      mstore\n      0x20\n      add\n      swap1\n      0x01\n      add\n      swap1\n      dup1\n      dup4\n      gt\n      tag_81\n      jumpi\n      pop\n      pop\n      pop\n      pop\n      pop\n      swap1\n      pop\n        /* \"6-Array/Arrays.sol\":2678:2769  function getAllValues() public view returns (uint256[4] memory) {... */\n      swap1\n      jump\t// out\n        /* \"6-Array/Arrays.sol\":3930:4082  function safeSetter(uint256 index, uint256 value) public {... */\n    tag_43:\n        /* \"6-Array/Arrays.sol\":4013:4023  arr.length */\n      0x04\n        /* \"6-Array/Arrays.sol\":4005:4010  index */\n      dup3\n        /* \"6-Array/Arrays.sol\":4005:4023  index < arr.length */\n      lt\n        /* \"6-Array/Arrays.sol\":3997:4047  require(index < arr.length, \"Index out of bounds\") */\n      tag_29\n      jumpi\n      mload(0x40)\n      shl(0xe5, 0x461bcd)\n      dup2\n      mstore\n        /* \"#utility.yul\":1781:1783   */\n      0x20\n        /* \"6-Array/Arrays.sol\":3997:4047  require(index < arr.length, \"Index out of bounds\") */\n      0x04\n      dup3\n      add\n        /* \"#utility.yul\":1763:1784   */\n      mstore\n        /* \"#utility.yul\":1820:1822   */\n      0x13\n        /* \"#utility.yul\":1800:1818   */\n      0x24\n      dup3\n      add\n        /* \"#utility.yul\":1793:1823   */\n      mstore\n      shl(0x68, 0x496e646578206f7574206f6620626f756e6473)\n        /* \"#utility.yul\":1839:1857   */\n      0x44\n      dup3\n      add\n        /* \"#utility.yul\":1832:1881   */\n      mstore\n        /* \"#utility.yul\":1898:1916   */\n      0x64\n      add\n        /* \"6-Array/Arrays.sol\":3997:4047  require(index < arr.length, \"Index out of bounds\") */\n      tag_57\n        /* \"#utility.yul\":1579:1922   */\n      jump\n    tag_78:\n      mload(0x40)\n      dup1\n      0x80\n      add\n      0x40\n      mstore\n      dup1\n      0x04\n      swap1\n      0x20\n      dup3\n      mul\n      dup1\n      calldatasize\n      dup4\n      calldatacopy\n      pop\n      swap2\n      swap3\n      swap2\n      pop\n      pop\n      jump\t// out\n        /* \"#utility.yul\":14:240   */\n    tag_15:\n        /* \"#utility.yul\":73:79   */\n      0x00\n        /* \"#utility.yul\":126:128   */\n      0x20\n        /* \"#utility.yul\":114:123   */\n      dup3\n        /* \"#utility.yul\":105:112   */\n      dup5\n        /* \"#utility.yul\":101:124   */\n      sub\n        /* \"#utility.yul\":97:129   */\n      slt\n        /* \"#utility.yul\":94:146   */\n      iszero\n      tag_91\n      jumpi\n        /* \"#utility.yul\":142:143   */\n      0x00\n        /* \"#utility.yul\":139:140   */\n      0x00\n        /* \"#utility.yul\":132:144   */\n      revert\n        /* \"#utility.yul\":94:146   */\n    tag_91:\n      pop\n        /* \"#utility.yul\":187:210   */\n      calldataload\n      swap2\n        /* \"#utility.yul\":14:240   */\n      swap1\n      pop\n      jump\t// out\n        /* \"#utility.yul\":427:773   */\n    tag_28:\n        /* \"#utility.yul\":495:501   */\n      0x00\n        /* \"#utility.yul\":503:509   */\n      0x00\n        /* \"#utility.yul\":556:558   */\n      0x40\n        /* \"#utility.yul\":544:553   */\n      dup4\n        /* \"#utility.yul\":535:542   */\n      dup6\n        /* \"#utility.yul\":531:554   */\n      sub\n        /* \"#utility.yul\":527:559   */\n      slt\n        /* \"#utility.yul\":524:576   */\n      iszero\n      tag_94\n      jumpi\n        /* \"#utility.yul\":572:573   */\n      0x00\n        /* \"#utility.yul\":569:570   */\n      0x00\n        /* \"#utility.yul\":562:574   */\n      revert\n        /* \"#utility.yul\":524:576   */\n    tag_94:\n      pop\n      pop\n        /* \"#utility.yul\":617:640   */\n      dup1\n      calldataload\n      swap3\n        /* \"#utility.yul\":737:739   */\n      0x20\n        /* \"#utility.yul\":722:740   */\n      swap1\n      swap2\n      add\n        /* \"#utility.yul\":709:741   */\n      calldataload\n      swap2\n      pop\n        /* \"#utility.yul\":427:773   */\n      jump\t// out\n        /* \"#utility.yul\":778:1250   */\n    tag_40:\n        /* \"#utility.yul\":958:961   */\n      0x80\n        /* \"#utility.yul\":943:962   */\n      dup2\n      add\n        /* \"#utility.yul\":947:956   */\n      dup2\n        /* \"#utility.yul\":1039:1045   */\n      dup4\n        /* \"#utility.yul\":916:920   */\n      0x00\n        /* \"#utility.yul\":1073:1244   */\n    tag_96:\n        /* \"#utility.yul\":1087:1091   */\n      0x04\n        /* \"#utility.yul\":1084:1085   */\n      dup2\n        /* \"#utility.yul\":1081:1092   */\n      lt\n        /* \"#utility.yul\":1073:1244   */\n      iszero\n      tag_98\n      jumpi\n        /* \"#utility.yul\":1146:1159   */\n      dup2\n      mload\n        /* \"#utility.yul\":1134:1160   */\n      dup4\n      mstore\n        /* \"#utility.yul\":1189:1193   */\n      0x20\n        /* \"#utility.yul\":1180:1194   */\n      swap3\n      dup4\n      add\n      swap3\n        /* \"#utility.yul\":1217:1234   */\n      swap1\n      swap2\n      add\n      swap1\n        /* \"#utility.yul\":1107:1108   */\n      0x01\n        /* \"#utility.yul\":1100:1109   */\n      add\n        /* \"#utility.yul\":1073:1244   */\n      jump(tag_96)\n    tag_98:\n        /* \"#utility.yul\":1077:1080   */\n      pop\n      pop\n      pop\n        /* \"#utility.yul\":778:1250   */\n      swap3\n      swap2\n      pop\n      pop\n      jump\t// out\n        /* \"#utility.yul\":1447:1574   */\n    tag_52:\n        /* \"#utility.yul\":1508:1518   */\n      0x4e487b71\n        /* \"#utility.yul\":1503:1506   */\n      0xe0\n        /* \"#utility.yul\":1499:1519   */\n      shl\n        /* \"#utility.yul\":1496:1497   */\n      0x00\n        /* \"#utility.yul\":1489:1520   */\n      mstore\n        /* \"#utility.yul\":1539:1543   */\n      0x32\n        /* \"#utility.yul\":1536:1537   */\n      0x04\n        /* \"#utility.yul\":1529:1544   */\n      mstore\n        /* \"#utility.yul\":1563:1567   */\n      0x24\n        /* \"#utility.yul\":1560:1561   */\n      0x00\n        /* \"#utility.yul\":1553:1568   */\n      revert\n        /* \"#utility.yul\":1927:2149   */\n    tag_74:\n        /* \"#utility.yul\":1992:2001   */\n      dup1\n      dup3\n      add\n        /* \"#utility.yul\":2013:2023   */\n      dup1\n      dup3\n      gt\n        /* \"#utility.yul\":2010:2143   */\n      iszero\n      tag_103\n      jumpi\n        /* \"#utility.yul\":2065:2075   */\n      0x4e487b71\n        /* \"#utility.yul\":2060:2063   */\n      0xe0\n        /* \"#utility.yul\":2056:2076   */\n      shl\n        /* \"#utility.yul\":2053:2054   */\n      0x00\n        /* \"#utility.yul\":2046:2077   */\n      mstore\n        /* \"#utility.yul\":2100:2104   */\n      0x11\n        /* \"#utility.yul\":2097:2098   */\n      0x04\n        /* \"#utility.yul\":2090:2105   */\n      mstore\n        /* \"#utility.yul\":2128:2132   */\n      0x24\n        /* \"#utility.yul\":2125:2126   */\n      0x00\n        /* \"#utility.yul\":2118:2133   */\n      revert\n        /* \"#utility.yul\":2010:2143   */\n    tag_103:\n        /* \"#utility.yul\":1927:2149   */\n      swap3\n      swap2\n      pop\n      pop\n      jump\t// out\n\n    auxdata: 0xa2646970667358221220bf14e25eb38fa637a5d6c266d6d97be6db294dd85a7a1c8f165c8c1477aebf6664736f6c634300081e0033\n}\n",
				"bytecode": {
					"linkReferences": {},
					"object": "610100604052600a6080908152601460a052601e60c052602860e0526026905f9060046036565b503480156031575f5ffd5b506086565b82600481019282156066579160200282015b828111156066578251829060ff169055916020019190600101906048565b5060709291506074565b5090565b5b808211156070575f81556001016075565b6103a6806100935f395ff3fe608060405234801561000f575f5ffd5b5060043610610090575f3560e01c8063569c5f6d11610063578063569c5f6d146100e957806371e5ee5f146100f1578063981f549914610104578063e7af66a914610119578063f34320c01461012c575f5ffd5b80630ff4c916146100945780631f7b6d32146100ba5780634b5980c5146100c15780635298f36d146100d4575b5f5ffd5b6100a76100a23660046102d0565b610150565b6040519081526020015b60405180910390f35b60046100a7565b6100a76100cf3660046102d0565b61016b565b6100e76100e23660046102e7565b6101c9565b005b6100a76101e2565b6100a76100ff3660046102d0565b61021d565b61010c610232565b6040516100b19190610307565b6100e76101273660046102e7565b61026c565b61014061013a3660046102d0565b60041190565b60405190151581526020016100b1565b5f5f826004811061016357610163610337565b015492915050565b5f600482106101b75760405162461bcd60e51b8152602060048201526013602482015272496e646578206f7574206f6620626f756e647360681b60448201526064015b60405180910390fd5b5f826004811061016357610163610337565b805f83600481106101dc576101dc610337565b01555050565b5f80805b6004811015610217575f816004811061020157610201610337565b015461020d908361034b565b91506001016101e6565b50919050565b5f816004811061022b575f80fd5b0154905081565b61023a6102b2565b604080516080810191829052905f9060049082845b81548152602001906001019080831161024f575050505050905090565b600482106101c95760405162461bcd60e51b8152602060048201526013602482015272496e646578206f7574206f6620626f756e647360681b60448201526064016101ae565b60405180608001604052806004906020820280368337509192915050565b5f602082840312156102e0575f5ffd5b5035919050565b5f5f604083850312156102f8575f5ffd5b50508035926020909101359150565b6080810181835f5b600481101561032e57815183526020928301929091019060010161030f565b50505092915050565b634e487b7160e01b5f52603260045260245ffd5b8082018082111561036a57634e487b7160e01b5f52601160045260245ffd5b9291505056fea2646970667358221220bf14e25eb38fa637a5d6c266d6d97be6db294dd85a7a1c8f165c8c1477aebf6664736f6c634300081e0033",
					"opcodes": "PUSH2 0x100 PUSH1 0x40 MSTORE PUSH1 0xA PUSH1 0x80 SWAP1 DUP2 MSTORE PUSH1 0x14 PUSH1 0xA0 MSTORE PUSH1 0x1E PUSH1 0xC0 MSTORE PUSH1 0x28 PUSH1 0xE0 MSTORE PUSH1 0x26 SWAP1 PUSH0 SWAP1 PUSH1 0x4 PUSH1 0x36 JUMP JUMPDEST POP CALLVALUE DUP1 ISZERO PUSH1 0x31 JUMPI PUSH0 PUSH0 REVERT JUMPDEST POP PUSH1 0x86 JUMP JUMPDEST DUP3 PUSH1 0x4 DUP2 ADD SWAP3 DUP3 ISZERO PUSH1 0x66 JUMPI SWAP2 PUSH1 0x20 MUL DUP3 ADD JUMPDEST DUP3 DUP2 GT ISZERO PUSH1 0x66 JUMPI DUP3 MLOAD DUP3 SWAP1 PUSH1 0xFF AND SWAP1 SSTORE SWAP2 PUSH1 0x20 ADD SWAP2 SWAP1 PUSH1 0x1 ADD SWAP1 PUSH1 0x48 JUMP JUMPDEST POP PUSH1 0x70 SWAP3 SWAP2 POP PUSH1 0x74 JUMP JUMPDEST POP SWAP1 JUMP JUMPDEST JUMPDEST DUP1 DUP3 GT ISZERO PUSH1 0x70 JUMPI PUSH0 DUP2 SSTORE PUSH1 0x1 ADD PUSH1 0x75 JUMP JUMPDEST PUSH2 0x3A6 DUP1 PUSH2 0x93 PUSH0 CODECOPY PUSH0 RETURN INVALID PUSH1 0x80 PUSH1 0x40 MSTORE CALLVALUE DUP1 ISZERO PUSH2 0xF JUMPI PUSH0 PUSH0 REVERT JUMPDEST POP PUSH1 0x4 CALLDATASIZE LT PUSH2 0x90 JUMPI PUSH0 CALLDATALOAD PUSH1 0xE0 SHR DUP1 PUSH4 0x569C5F6D GT PUSH2 0x63 JUMPI DUP1 PUSH4 0x569C5F6D EQ PUSH2 0xE9 JUMPI DUP1 PUSH4 0x71E5EE5F EQ PUSH2 0xF1 JUMPI DUP1 PUSH4 0x981F5499 EQ PUSH2 0x104 JUMPI DUP1 PUSH4 0xE7AF66A9 EQ PUSH2 0x119 JUMPI DUP1 PUSH4 0xF34320C0 EQ PUSH2 0x12C JUMPI PUSH0 PUSH0 REVERT JUMPDEST DUP1 PUSH4 0xFF4C916 EQ PUSH2 0x94 JUMPI DUP1 PUSH4 0x1F7B6D32 EQ PUSH2 0xBA JUMPI DUP1 PUSH4 0x4B5980C5 EQ PUSH2 0xC1 JUMPI DUP1 PUSH4 0x5298F36D EQ PUSH2 0xD4 JUMPI JUMPDEST PUSH0 PUSH0 REVERT JUMPDEST PUSH2 0xA7 PUSH2 0xA2 CALLDATASIZE PUSH1 0x4 PUSH2 0x2D0 JUMP JUMPDEST PUSH2 0x150 JUMP JUMPDEST PUSH1 0x40 MLOAD SWAP1 DUP2 MSTORE PUSH1 0x20 ADD JUMPDEST PUSH1 0x40 MLOAD DUP1 SWAP2 SUB SWAP1 RETURN JUMPDEST PUSH1 0x4 PUSH2 0xA7 JUMP JUMPDEST PUSH2 0xA7 PUSH2 0xCF CALLDATASIZE PUSH1 0x4 PUSH2 0x2D0 JUMP JUMPDEST PUSH2 0x16B JUMP JUMPDEST PUSH2 0xE7 PUSH2 0xE2 CALLDATASIZE PUSH1 0x4 PUSH2 0x2E7 JUMP JUMPDEST PUSH2 0x1C9 JUMP JUMPDEST STOP JUMPDEST PUSH2 0xA7 PUSH2 0x1E2 JUMP JUMPDEST PUSH2 0xA7 PUSH2 0xFF CALLDATASIZE PUSH1 0x4 PUSH2 0x2D0 JUMP JUMPDEST PUSH2 0x21D JUMP JUMPDEST PUSH2 0x10C PUSH2 0x232 JUMP JUMPDEST PUSH1 0x40 MLOAD PUSH2 0xB1 SWAP2 SWAP1 PUSH2 0x307 JUMP JUMPDEST PUSH2 0xE7 PUSH2 0x127 CALLDATASIZE PUSH1 0x4 PUSH2 0x2E7 JUMP JUMPDEST PUSH2 0x26C JUMP JUMPDEST PUSH2 0x140 PUSH2 0x13A CALLDATASIZE PUSH1 0x4 PUSH2 0x2D0 JUMP JUMPDEST PUSH1 0x4 GT SWAP1 JUMP JUMPDEST PUSH1 0x40 MLOAD SWAP1 ISZERO ISZERO DUP2 MSTORE PUSH1 0x20 ADD PUSH2 0xB1 JUMP JUMPDEST PUSH0 PUSH0 DUP3 PUSH1 0x4 DUP2 LT PUSH2 0x163 JUMPI PUSH2 0x163 PUSH2 0x337 JUMP JUMPDEST ADD SLOAD SWAP3 SWAP2 POP POP JUMP JUMPDEST PUSH0 PUSH1 0x4 DUP3 LT PUSH2 0x1B7 JUMPI PUSH1 0x40 MLOAD PUSH3 0x461BCD PUSH1 0xE5 SHL DUP2 MSTORE PUSH1 0x20 PUSH1 0x4 DUP3 ADD MSTORE PUSH1 0x13 PUSH1 0x24 DUP3 ADD MSTORE PUSH19 0x496E646578206F7574206F6620626F756E6473 PUSH1 0x68 SHL PUSH1 0x44 DUP3 ADD MSTORE PUSH1 0x64 ADD JUMPDEST PUSH1 0x40 MLOAD DUP1 SWAP2 SUB SWAP1 REVERT JUMPDEST PUSH0 DUP3 PUSH1 0x4 DUP2 LT PUSH2 0x163 JUMPI PUSH2 0x163 PUSH2 0x337 JUMP JUMPDEST DUP1 PUSH0 DUP4 PUSH1 0x4 DUP2 LT PUSH2 0x1DC JUMPI PUSH2 0x1DC PUSH2 0x337 JUMP JUMPDEST ADD SSTORE POP POP JUMP JUMPDEST PUSH0 DUP1 DUP1 JUMPDEST PUSH1 0x4 DUP2 LT ISZERO PUSH2 0x217 JUMPI PUSH0 DUP2 PUSH1 0x4 DUP2 LT PUSH2 0x201 JUMPI PUSH2 0x201 PUSH2 0x337 JUMP JUMPDEST ADD SLOAD PUSH2 0x20D SWAP1 DUP4 PUSH2 0x34B JUMP JUMPDEST SWAP2 POP PUSH1 0x1 ADD PUSH2 0x1E6 JUMP JUMPDEST POP SWAP2 SWAP1 POP JUMP JUMPDEST PUSH0 DUP2 PUSH1 0x4 DUP2 LT PUSH2 0x22B JUMPI PUSH0 DUP1 REVERT JUMPDEST ADD SLOAD SWAP1 POP DUP2 JUMP JUMPDEST PUSH2 0x23A PUSH2 0x2B2 JUMP JUMPDEST PUSH1 0x40 DUP1 MLOAD PUSH1 0x80 DUP2 ADD SWAP2 DUP3 SWAP1 MSTORE SWAP1 PUSH0 SWAP1 PUSH1 0x4 SWAP1 DUP3 DUP5 JUMPDEST DUP2 SLOAD DUP2 MSTORE PUSH1 0x20 ADD SWAP1 PUSH1 0x1 ADD SWAP1 DUP1 DUP4 GT PUSH2 0x24F JUMPI POP POP POP POP POP SWAP1 POP SWAP1 JUMP JUMPDEST PUSH1 0x4 DUP3 LT PUSH2 0x1C9 JUMPI PUSH1 0x40 MLOAD PUSH3 0x461BCD PUSH1 0xE5 SHL DUP2 MSTORE PUSH1 0x20 PUSH1 0x4 DUP3 ADD MSTORE PUSH1 0x13 PUSH1 0x24 DUP3 ADD MSTORE PUSH19 0x496E646578206F7574206F6620626F756E6473 PUSH1 0x68 SHL PUSH1 0x44 DUP3 ADD MSTORE PUSH1 0x64 ADD PUSH2 0x1AE JUMP JUMPDEST PUSH1 0x40 MLOAD DUP1 PUSH1 0x80 ADD PUSH1 0x40 MSTORE DUP1 PUSH1 0x4 SWAP1 PUSH1 0x20 DUP3 MUL DUP1 CALLDATASIZE DUP4 CALLDATACOPY POP SWAP2 SWAP3 SWAP2 POP POP JUMP JUMPDEST PUSH0 PUSH1 0x20 DUP3 DUP5 SUB SLT ISZERO PUSH2 0x2E0 JUMPI PUSH0 PUSH0 REVERT JUMPDEST POP CALLDATALOAD SWAP2 SWAP1 POP JUMP JUMPDEST PUSH0 PUSH0 PUSH1 0x40 DUP4 DUP6 SUB SLT ISZERO PUSH2 0x2F8 JUMPI PUSH0 PUSH0 REVERT JUMPDEST POP POP DUP1 CALLDATALOAD SWAP3 PUSH1 0x20 SWAP1 SWAP2 ADD CALLDATALOAD SWAP2 POP JUMP JUMPDEST PUSH1 0x80 DUP2 ADD DUP2 DUP4 PUSH0 JUMPDEST PUSH1 0x4 DUP2 LT ISZERO PUSH2 0x32E JUMPI DUP2 MLOAD DUP4 MSTORE PUSH1 0x20 SWAP3 DUP4 ADD SWAP3 SWAP1 SWAP2 ADD SWAP1 PUSH1 0x1 ADD PUSH2 0x30F JUMP JUMPDEST POP POP POP SWAP3 SWAP2 POP POP JUMP JUMPDEST PUSH4 0x4E487B71 PUSH1 0xE0 SHL PUSH0 MSTORE PUSH1 0x32 PUSH1 0x4 MSTORE PUSH1 0x24 PUSH0 REVERT JUMPDEST DUP1 DUP3 ADD DUP1 DUP3 GT ISZERO PUSH2 0x36A JUMPI PUSH4 0x4E487B71 PUSH1 0xE0 SHL PUSH0 MSTORE PUSH1 0x11 PUSH1 0x4 MSTORE PUSH1 0x24 PUSH0 REVERT JUMPDEST SWAP3 SWAP2 POP POP JUMP INVALID LOG2 PUSH5 0x6970667358 0x22 SLT KECCAK256 0xBF EQ 0xE2 MCOPY 0xB3 DUP16 0xA6 CALLDATACOPY 0xA5 0xD6 0xC2 PUSH7 0xD6D97BE6DB294D 0xD8 GAS PUSH27 0x1C8F165C8C1477AEBF6664736F6C634300081E0033000000000000 "
				},
				"gasEstimates": {
					"creation": {
						"codeDepositCost": "186800",
						"executionCost": "infinite",
						"totalCost": "infinite"
					},
					"external": {
						"arr(uint256)": "2426",
						"getAllValues()": "infinite",
						"getSum()": "infinite",
						"getValue(uint256)": "2409",
						"isValidIndex(uint256)": "367",
						"length()": "203",
						"safeGetValue(uint256)": "2476",
						"safeSetter(uint256,uint256)": "22468",
						"setter(uint256,uint256)": "22446"
					}
				},
				"methodIdentifiers": {
					"arr(uint256)": "71e5ee5f",
					"getAllValues()": "981f5499",
					"getSum()": "569c5f6d",
					"getValue(uint256)": "0ff4c916",
					"isValidIndex(uint256)": "f34320c0",
					"length()": "1f7b6d32",
					"safeGetValue(uint256)": "4b5980c5",
					"safeSetter(uint256,uint256)": "e7af66a9",
					"setter(uint256,uint256)": "5298f36d"
				}
			},
			"storageLayout": {
				"storage": [
					{
						"astId": 12,
						"contract": "6-Array/Arrays.sol:arrays",
						"label": "arr",
						"offset": 0,
						"slot": "0",
						"type": "t_array(t_uint256)4_storage"
					}
				],
				"types": {
					"t_array(t_uint256)4_storage": {
						"base": "t_uint256",
						"encoding": "inplace",
						"label": "uint256[4]",
						"numberOfBytes": "128"
					},
					"t_uint256": {
						"encoding": "inplace",
						"label": "uint256",
						"numberOfBytes": "32"
					}
				}
			},
			"userdoc": {
				"kind": "user",
				"methods": {
					"arr(uint256)": {
						"notice": "Arrays can be declared with a fixed size that must be known at compile timeThis array can store exactly 4 uint256 valuesThe array is public, so Solidity automatically generates a getter functionInitialized with values [10, 20, 30, 40] for indices 0, 1, 2, 3 respectively"
					},
					"getAllValues()": {
						"notice": "Demonstrates returning an entire arrayFor large arrays, this could consume significant gas"
					},
					"getSum()": {
						"notice": "Demonstrates iterating through an array"
					},
					"getValue(uint256)": {
						"notice": "Demonstrates how to access array elements"
					},
					"isValidIndex(uint256)": {
						"notice": "Shows how to properly check array bounds before access"
					},
					"length()": {
						"notice": "Demonstrates accessing the length property of an arrayFor fixed-size arrays, length is constant and known at compile time"
					},
					"safeGetValue(uint256)": {
						"notice": "Shows proper bounds checking before array access"
					},
					"safeSetter(uint256,uint256)": {
						"notice": "Shows proper bounds checking before array modification"
					},
					"setter(uint256,uint256)": {
						"notice": "This demonstrates how to modify array elements"
					}
				},
				"notice": "Arrays are data structures that store multiple values of the same typeThis contract demonstrates a fixed-size array with basic operations",
				"version": 1
			}
		}
	}
}