{
	"6-Data Types/Integers.sol": {
		"integertype": {
			"abi": [
				{
					"inputs": [
						{
							"internalType": "uint256",
							"name": "x",
							"type": "uint256"
						},
						{
							"internalType": "uint256",
							"name": "y",
							"type": "uint256"
						}
					],
					"name": "add",
					"outputs": [
						{
							"internalType": "uint256",
							"name": "",
							"type": "uint256"
						}
					],
					"stateMutability": "pure",
					"type": "function"
				},
				{
					"inputs": [
						{
							"internalType": "uint256",
							"name": "largeNumber",
							"type": "uint256"
						}
					],
					"name": "convertToUint8",
					"outputs": [
						{
							"internalType": "uint8",
							"name": "",
							"type": "uint8"
						}
					],
					"stateMutability": "pure",
					"type": "function"
				},
				{
					"inputs": [
						{
							"internalType": "uint256",
							"name": "a",
							"type": "uint256"
						},
						{
							"internalType": "uint256",
							"name": "b",
							"type": "uint256"
						}
					],
					"name": "isGreater",
					"outputs": [
						{
							"internalType": "bool",
							"name": "",
							"type": "bool"
						}
					],
					"stateMutability": "pure",
					"type": "function"
				},
				{
					"inputs": [
						{
							"internalType": "uint256",
							"name": "a",
							"type": "uint256"
						},
						{
							"internalType": "uint256",
							"name": "b",
							"type": "uint256"
						}
					],
					"name": "safeAdd",
					"outputs": [
						{
							"internalType": "uint256",
							"name": "",
							"type": "uint256"
						}
					],
					"stateMutability": "pure",
					"type": "function"
				}
			],
			"devdoc": {
				"details": "Demonstrates the use of integer types in Solidity",
				"kind": "dev",
				"methods": {
					"add(uint256,uint256)": {
						"details": "Function to demonstrate integer operations",
						"params": {
							"x": "First integer value",
							"y": "Second integer value"
						},
						"returns": {
							"_0": "The sum of x and y"
						}
					},
					"convertToUint8(uint256)": {
						"details": "Function to show type conversion between integer sizes",
						"params": {
							"largeNumber": "A uint256 value"
						},
						"returns": {
							"_0": "The value converted to uint8 (will truncate if too large)"
						}
					},
					"isGreater(uint256,uint256)": {
						"details": "Function to demonstrate integer comparison",
						"params": {
							"a": "First value to compare",
							"b": "Second value to compare"
						},
						"returns": {
							"_0": "true if a is greater than b, false otherwise"
						}
					},
					"safeAdd(uint256,uint256)": {
						"details": "Function to demonstrate safe math with require",
						"params": {
							"a": "First value",
							"b": "Second value"
						},
						"returns": {
							"_0": "The sum of a and b"
						}
					}
				},
				"stateVariables": {
					"a": {
						"details": "Unsigned integer (uint256)"
					},
					"b": {
						"details": "Signed integer (int256)"
					},
					"count": {
						"details": "Signed 256-bit integer initialized to 127"
					},
					"count2": {
						"details": "Signed 16-bit integer initialized to -1233WARNING: -1233 is within int16 range, but values outside this range would cause compilation errors"
					},
					"count3": {
						"details": "Signed 32-bit integer initialized to -123456"
					},
					"num": {
						"details": "Unsigned 256-bit integer initialized to 23"
					},
					"num2": {
						"details": "Unsigned 8-bit integer initialized to 255"
					},
					"num3": {
						"details": "Unsigned 16-bit integer initialized to 26456WARNING: 26456 is within uint16 range, but values above 65,535 would cause compilation errors"
					}
				},
				"title": "Integer Types Demo",
				"version": 1
			},
			"evm": {
				"assembly": "    /* \"6-Data Types/Integers.sol\":329:4731  contract integertype {... */\n  mstore(0x40, 0x80)\n    /* \"6-Data Types/Integers.sol\":1801:1804  127 */\n  0x7f\n    /* \"6-Data Types/Integers.sol\":1786:1804  int256 count = 127 */\n  0x02\n  sstore\n    /* \"6-Data Types/Integers.sol\":2149:2169  int16 count2 = -1233 */\n  0x03\n  dup1\n  sload\n  not(0xffffffffffff)\n    /* \"6-Data Types/Integers.sol\":2377:2399  int32 count3 = -123456 */\n  and\n  0xfffe1dc0fb2f\n  or\n  swap1\n  sstore\n    /* \"6-Data Types/Integers.sol\":2605:2607  23 */\n  0x17\n    /* \"6-Data Types/Integers.sol\":2591:2607  uint256 num = 23 */\n  0x04\n  sstore\n    /* \"6-Data Types/Integers.sol\":2805:2821  uint8 num2 = 255 */\n  0x05\n  dup1\n  sload\n  not(0xffffff)\n    /* \"6-Data Types/Integers.sol\":3145:3164  uint16 num3 = 26456 */\n  and\n  0x6758ff\n  or\n  swap1\n  sstore\n    /* \"6-Data Types/Integers.sol\":329:4731  contract integertype {... */\n  callvalue\n  dup1\n  iszero\n  tag_1\n  jumpi\n  revert(0x00, 0x00)\ntag_1:\n  pop\n  dataSize(sub_0)\n  dup1\n  dataOffset(sub_0)\n  0x00\n  codecopy\n  0x00\n  return\nstop\n\nsub_0: assembly {\n        /* \"6-Data Types/Integers.sol\":329:4731  contract integertype {... */\n      mstore(0x40, 0x80)\n      callvalue\n      dup1\n      iszero\n      tag_1\n      jumpi\n      revert(0x00, 0x00)\n    tag_1:\n      pop\n      jumpi(tag_2, lt(calldatasize, 0x04))\n      shr(0xe0, calldataload(0x00))\n      dup1\n      0x22800a81\n      eq\n      tag_3\n      jumpi\n      dup1\n      0x34afb39d\n      eq\n      tag_4\n      jumpi\n      dup1\n      0x771602f7\n      eq\n      tag_5\n      jumpi\n      dup1\n      0xe6cb9013\n      eq\n      tag_6\n      jumpi\n    tag_2:\n      revert(0x00, 0x00)\n        /* \"6-Data Types/Integers.sol\":3775:3872  function isGreater(uint256 a, uint256 b) public pure returns (bool) {... */\n    tag_3:\n      tag_7\n      tag_8\n      calldatasize\n      0x04\n      tag_9\n      jump\t// in\n    tag_8:\n      tag_10\n      jump\t// in\n    tag_7:\n      mload(0x40)\n        /* \"#utility.yul\":530:544   */\n      swap1\n      iszero\n        /* \"#utility.yul\":523:545   */\n      iszero\n        /* \"#utility.yul\":505:546   */\n      dup2\n      mstore\n        /* \"#utility.yul\":493:495   */\n      0x20\n        /* \"#utility.yul\":478:496   */\n      add\n        /* \"6-Data Types/Integers.sol\":3775:3872  function isGreater(uint256 a, uint256 b) public pure returns (bool) {... */\n    tag_11:\n      mload(0x40)\n      dup1\n      swap2\n      sub\n      swap1\n      return\n        /* \"6-Data Types/Integers.sol\":4194:4309  function convertToUint8(uint256 largeNumber) public pure returns (uint8) {... */\n    tag_4:\n      tag_13\n      tag_14\n      calldatasize\n      0x04\n      tag_15\n      jump\t// in\n    tag_14:\n        /* \"6-Data Types/Integers.sol\":4290:4301  largeNumber */\n      swap1\n        /* \"6-Data Types/Integers.sol\":4194:4309  function convertToUint8(uint256 largeNumber) public pure returns (uint8) {... */\n      jump\n    tag_13:\n      mload(0x40)\n        /* \"#utility.yul\":960:964   */\n      0xff\n        /* \"#utility.yul\":948:965   */\n      swap1\n      swap2\n      and\n        /* \"#utility.yul\":930:966   */\n      dup2\n      mstore\n        /* \"#utility.yul\":918:920   */\n      0x20\n        /* \"#utility.yul\":903:921   */\n      add\n        /* \"6-Data Types/Integers.sol\":4194:4309  function convertToUint8(uint256 largeNumber) public pure returns (uint8) {... */\n      tag_11\n        /* \"#utility.yul\":788:972   */\n      jump\n        /* \"6-Data Types/Integers.sol\":3465:3559  function add(uint256 x, uint256 y) public pure returns (uint256) {... */\n    tag_5:\n      tag_19\n      tag_20\n      calldatasize\n      0x04\n      tag_9\n      jump\t// in\n    tag_20:\n      tag_21\n      jump\t// in\n    tag_19:\n      mload(0x40)\n        /* \"#utility.yul\":1123:1148   */\n      swap1\n      dup2\n      mstore\n        /* \"#utility.yul\":1111:1113   */\n      0x20\n        /* \"#utility.yul\":1096:1114   */\n      add\n        /* \"6-Data Types/Integers.sol\":3465:3559  function add(uint256 x, uint256 y) public pure returns (uint256) {... */\n      tag_11\n        /* \"#utility.yul\":977:1154   */\n      jump\n        /* \"6-Data Types/Integers.sol\":4573:4729  function safeAdd(uint256 a, uint256 b) public pure returns (uint256) {... */\n    tag_6:\n      tag_19\n      tag_25\n      calldatasize\n      0x04\n      tag_9\n      jump\t// in\n    tag_25:\n      tag_26\n      jump\t// in\n        /* \"6-Data Types/Integers.sol\":3775:3872  function isGreater(uint256 a, uint256 b) public pure returns (bool) {... */\n    tag_10:\n        /* \"6-Data Types/Integers.sol\":3860:3865  a > b */\n      dup1\n      dup3\n      gt\n        /* \"6-Data Types/Integers.sol\":3775:3872  function isGreater(uint256 a, uint256 b) public pure returns (bool) {... */\n    tag_28:\n      swap3\n      swap2\n      pop\n      pop\n      jump\t// out\n        /* \"6-Data Types/Integers.sol\":3465:3559  function add(uint256 x, uint256 y) public pure returns (uint256) {... */\n    tag_21:\n        /* \"6-Data Types/Integers.sol\":3521:3528  uint256 */\n      0x00\n        /* \"6-Data Types/Integers.sol\":3547:3552  x + y */\n      tag_31\n        /* \"6-Data Types/Integers.sol\":3551:3552  y */\n      dup3\n        /* \"6-Data Types/Integers.sol\":3547:3548  x */\n      dup5\n        /* \"6-Data Types/Integers.sol\":3547:3552  x + y */\n      tag_32\n      jump\t// in\n    tag_31:\n        /* \"6-Data Types/Integers.sol\":3540:3552  return x + y */\n      swap4\n        /* \"6-Data Types/Integers.sol\":3465:3559  function add(uint256 x, uint256 y) public pure returns (uint256) {... */\n      swap3\n      pop\n      pop\n      pop\n      jump\t// out\n        /* \"6-Data Types/Integers.sol\":4573:4729  function safeAdd(uint256 a, uint256 b) public pure returns (uint256) {... */\n    tag_26:\n        /* \"6-Data Types/Integers.sol\":4633:4640  uint256 */\n      0x00\n        /* \"6-Data Types/Integers.sol\":4669:4670  a */\n      dup3\n        /* \"6-Data Types/Integers.sol\":4660:4665  a + b */\n      tag_34\n        /* \"6-Data Types/Integers.sol\":4664:4665  b */\n      dup4\n        /* \"6-Data Types/Integers.sol\":4669:4670  a */\n      dup3\n        /* \"6-Data Types/Integers.sol\":4660:4665  a + b */\n      tag_32\n      jump\t// in\n    tag_34:\n        /* \"6-Data Types/Integers.sol\":4660:4670  a + b >= a */\n      lt\n      iszero\n        /* \"6-Data Types/Integers.sol\":4652:4700  require(a + b >= a, \"Integer overflow detected\") */\n      tag_35\n      jumpi\n      mload(0x40)\n      shl(0xe5, 0x461bcd)\n      dup2\n      mstore\n        /* \"#utility.yul\":1588:1590   */\n      0x20\n        /* \"6-Data Types/Integers.sol\":4652:4700  require(a + b >= a, \"Integer overflow detected\") */\n      0x04\n      dup3\n      add\n        /* \"#utility.yul\":1570:1591   */\n      mstore\n        /* \"#utility.yul\":1627:1629   */\n      0x19\n        /* \"#utility.yul\":1607:1625   */\n      0x24\n      dup3\n      add\n        /* \"#utility.yul\":1600:1630   */\n      mstore\n        /* \"#utility.yul\":1666:1693   */\n      0x496e7465676572206f766572666c6f7720646574656374656400000000000000\n        /* \"#utility.yul\":1646:1664   */\n      0x44\n      dup3\n      add\n        /* \"#utility.yul\":1639:1694   */\n      mstore\n        /* \"#utility.yul\":1711:1729   */\n      0x64\n      add\n        /* \"6-Data Types/Integers.sol\":4652:4700  require(a + b >= a, \"Integer overflow detected\") */\n      mload(0x40)\n      dup1\n      swap2\n      sub\n      swap1\n      revert\n    tag_35:\n        /* \"6-Data Types/Integers.sol\":4717:4722  a + b */\n      tag_31\n        /* \"6-Data Types/Integers.sol\":4721:4722  b */\n      dup3\n        /* \"6-Data Types/Integers.sol\":4717:4718  a */\n      dup5\n        /* \"6-Data Types/Integers.sol\":4717:4722  a + b */\n      tag_32\n      jump\t// in\n        /* \"#utility.yul\":14:360   */\n    tag_9:\n        /* \"#utility.yul\":82:88   */\n      0x00\n        /* \"#utility.yul\":90:96   */\n      0x00\n        /* \"#utility.yul\":143:145   */\n      0x40\n        /* \"#utility.yul\":131:140   */\n      dup4\n        /* \"#utility.yul\":122:129   */\n      dup6\n        /* \"#utility.yul\":118:141   */\n      sub\n        /* \"#utility.yul\":114:146   */\n      slt\n        /* \"#utility.yul\":111:163   */\n      iszero\n      tag_41\n      jumpi\n        /* \"#utility.yul\":159:160   */\n      0x00\n        /* \"#utility.yul\":156:157   */\n      0x00\n        /* \"#utility.yul\":149:161   */\n      revert\n        /* \"#utility.yul\":111:163   */\n    tag_41:\n      pop\n      pop\n        /* \"#utility.yul\":204:227   */\n      dup1\n      calldataload\n      swap3\n        /* \"#utility.yul\":324:326   */\n      0x20\n        /* \"#utility.yul\":309:327   */\n      swap1\n      swap2\n      add\n        /* \"#utility.yul\":296:328   */\n      calldataload\n      swap2\n      pop\n        /* \"#utility.yul\":14:360   */\n      jump\t// out\n        /* \"#utility.yul\":557:783   */\n    tag_15:\n        /* \"#utility.yul\":616:622   */\n      0x00\n        /* \"#utility.yul\":669:671   */\n      0x20\n        /* \"#utility.yul\":657:666   */\n      dup3\n        /* \"#utility.yul\":648:655   */\n      dup5\n        /* \"#utility.yul\":644:667   */\n      sub\n        /* \"#utility.yul\":640:672   */\n      slt\n        /* \"#utility.yul\":637:689   */\n      iszero\n      tag_44\n      jumpi\n        /* \"#utility.yul\":685:686   */\n      0x00\n        /* \"#utility.yul\":682:683   */\n      0x00\n        /* \"#utility.yul\":675:687   */\n      revert\n        /* \"#utility.yul\":637:689   */\n    tag_44:\n      pop\n        /* \"#utility.yul\":730:753   */\n      calldataload\n      swap2\n        /* \"#utility.yul\":557:783   */\n      swap1\n      pop\n      jump\t// out\n        /* \"#utility.yul\":1159:1381   */\n    tag_32:\n        /* \"#utility.yul\":1224:1233   */\n      dup1\n      dup3\n      add\n        /* \"#utility.yul\":1245:1255   */\n      dup1\n      dup3\n      gt\n        /* \"#utility.yul\":1242:1375   */\n      iszero\n      tag_28\n      jumpi\n        /* \"#utility.yul\":1297:1307   */\n      0x4e487b71\n        /* \"#utility.yul\":1292:1295   */\n      0xe0\n        /* \"#utility.yul\":1288:1308   */\n      shl\n        /* \"#utility.yul\":1285:1286   */\n      0x00\n        /* \"#utility.yul\":1278:1309   */\n      mstore\n        /* \"#utility.yul\":1332:1336   */\n      0x11\n        /* \"#utility.yul\":1329:1330   */\n      0x04\n        /* \"#utility.yul\":1322:1337   */\n      mstore\n        /* \"#utility.yul\":1360:1364   */\n      0x24\n        /* \"#utility.yul\":1357:1358   */\n      0x00\n        /* \"#utility.yul\":1350:1365   */\n      revert\n\n    auxdata: 0xa2646970667358221220c7e2584e70c3d4be0f9eb78f9b60eaadaa5698a548b1451ebf880d209ff021d764736f6c634300081e0033\n}\n",
				"bytecode": {
					"linkReferences": {},
					"object": "6080604052607f6002556003805465ffffffffffff191665fffe1dc0fb2f17905560176004556005805462ffffff1916626758ff1790553480156040575f5ffd5b506101dd8061004e5f395ff3fe608060405234801561000f575f5ffd5b506004361061004a575f3560e01c806322800a811461004e57806334afb39d14610076578063771602f714610099578063e6cb9013146100ba575b5f5ffd5b61006161005c366004610151565b6100cd565b60405190151581526020015b60405180910390f35b610087610084366004610171565b90565b60405160ff909116815260200161006d565b6100ac6100a7366004610151565b6100d7565b60405190815260200161006d565b6100ac6100c8366004610151565b6100e9565b8082115b92915050565b5f6100e28284610188565b9392505050565b5f826100f58382610188565b10156101475760405162461bcd60e51b815260206004820152601960248201527f496e7465676572206f766572666c6f7720646574656374656400000000000000604482015260640160405180910390fd5b6100e28284610188565b5f5f60408385031215610162575f5ffd5b50508035926020909101359150565b5f60208284031215610181575f5ffd5b5035919050565b808201808211156100d157634e487b7160e01b5f52601160045260245ffdfea2646970667358221220c7e2584e70c3d4be0f9eb78f9b60eaadaa5698a548b1451ebf880d209ff021d764736f6c634300081e0033",
					"opcodes": "PUSH1 0x80 PUSH1 0x40 MSTORE PUSH1 0x7F PUSH1 0x2 SSTORE PUSH1 0x3 DUP1 SLOAD PUSH6 0xFFFFFFFFFFFF NOT AND PUSH6 0xFFFE1DC0FB2F OR SWAP1 SSTORE PUSH1 0x17 PUSH1 0x4 SSTORE PUSH1 0x5 DUP1 SLOAD PUSH3 0xFFFFFF NOT AND PUSH3 0x6758FF OR SWAP1 SSTORE CALLVALUE DUP1 ISZERO PUSH1 0x40 JUMPI PUSH0 PUSH0 REVERT JUMPDEST POP PUSH2 0x1DD DUP1 PUSH2 0x4E PUSH0 CODECOPY PUSH0 RETURN INVALID PUSH1 0x80 PUSH1 0x40 MSTORE CALLVALUE DUP1 ISZERO PUSH2 0xF JUMPI PUSH0 PUSH0 REVERT JUMPDEST POP PUSH1 0x4 CALLDATASIZE LT PUSH2 0x4A JUMPI PUSH0 CALLDATALOAD PUSH1 0xE0 SHR DUP1 PUSH4 0x22800A81 EQ PUSH2 0x4E JUMPI DUP1 PUSH4 0x34AFB39D EQ PUSH2 0x76 JUMPI DUP1 PUSH4 0x771602F7 EQ PUSH2 0x99 JUMPI DUP1 PUSH4 0xE6CB9013 EQ PUSH2 0xBA JUMPI JUMPDEST PUSH0 PUSH0 REVERT JUMPDEST PUSH2 0x61 PUSH2 0x5C CALLDATASIZE PUSH1 0x4 PUSH2 0x151 JUMP JUMPDEST PUSH2 0xCD JUMP JUMPDEST PUSH1 0x40 MLOAD SWAP1 ISZERO ISZERO DUP2 MSTORE PUSH1 0x20 ADD JUMPDEST PUSH1 0x40 MLOAD DUP1 SWAP2 SUB SWAP1 RETURN JUMPDEST PUSH2 0x87 PUSH2 0x84 CALLDATASIZE PUSH1 0x4 PUSH2 0x171 JUMP JUMPDEST SWAP1 JUMP JUMPDEST PUSH1 0x40 MLOAD PUSH1 0xFF SWAP1 SWAP2 AND DUP2 MSTORE PUSH1 0x20 ADD PUSH2 0x6D JUMP JUMPDEST PUSH2 0xAC PUSH2 0xA7 CALLDATASIZE PUSH1 0x4 PUSH2 0x151 JUMP JUMPDEST PUSH2 0xD7 JUMP JUMPDEST PUSH1 0x40 MLOAD SWAP1 DUP2 MSTORE PUSH1 0x20 ADD PUSH2 0x6D JUMP JUMPDEST PUSH2 0xAC PUSH2 0xC8 CALLDATASIZE PUSH1 0x4 PUSH2 0x151 JUMP JUMPDEST PUSH2 0xE9 JUMP JUMPDEST DUP1 DUP3 GT JUMPDEST SWAP3 SWAP2 POP POP JUMP JUMPDEST PUSH0 PUSH2 0xE2 DUP3 DUP5 PUSH2 0x188 JUMP JUMPDEST SWAP4 SWAP3 POP POP POP JUMP JUMPDEST PUSH0 DUP3 PUSH2 0xF5 DUP4 DUP3 PUSH2 0x188 JUMP JUMPDEST LT ISZERO PUSH2 0x147 JUMPI PUSH1 0x40 MLOAD PUSH3 0x461BCD PUSH1 0xE5 SHL DUP2 MSTORE PUSH1 0x20 PUSH1 0x4 DUP3 ADD MSTORE PUSH1 0x19 PUSH1 0x24 DUP3 ADD MSTORE PUSH32 0x496E7465676572206F766572666C6F7720646574656374656400000000000000 PUSH1 0x44 DUP3 ADD MSTORE PUSH1 0x64 ADD PUSH1 0x40 MLOAD DUP1 SWAP2 SUB SWAP1 REVERT JUMPDEST PUSH2 0xE2 DUP3 DUP5 PUSH2 0x188 JUMP JUMPDEST PUSH0 PUSH0 PUSH1 0x40 DUP4 DUP6 SUB SLT ISZERO PUSH2 0x162 JUMPI PUSH0 PUSH0 REVERT JUMPDEST POP POP DUP1 CALLDATALOAD SWAP3 PUSH1 0x20 SWAP1 SWAP2 ADD CALLDATALOAD SWAP2 POP JUMP JUMPDEST PUSH0 PUSH1 0x20 DUP3 DUP5 SUB SLT ISZERO PUSH2 0x181 JUMPI PUSH0 PUSH0 REVERT JUMPDEST POP CALLDATALOAD SWAP2 SWAP1 POP JUMP JUMPDEST DUP1 DUP3 ADD DUP1 DUP3 GT ISZERO PUSH2 0xD1 JUMPI PUSH4 0x4E487B71 PUSH1 0xE0 SHL PUSH0 MSTORE PUSH1 0x11 PUSH1 0x4 MSTORE PUSH1 0x24 PUSH0 REVERT INVALID LOG2 PUSH5 0x6970667358 0x22 SLT KECCAK256 0xC7 0xE2 PC 0x4E PUSH17 0xC3D4BE0F9EB78F9B60EAADAA5698A548B1 GASLIMIT 0x1E 0xBF DUP9 0xD KECCAK256 SWAP16 CREATE 0x21 0xD7 PUSH5 0x736F6C6343 STOP ADDMOD 0x1E STOP CALLER "
				},
				"gasEstimates": {
					"creation": {
						"codeDepositCost": "95400",
						"executionCost": "92799",
						"totalCost": "188199"
					},
					"external": {
						"add(uint256,uint256)": "409",
						"convertToUint8(uint256)": "276",
						"isGreater(uint256,uint256)": "291",
						"safeAdd(uint256,uint256)": "infinite"
					}
				},
				"methodIdentifiers": {
					"add(uint256,uint256)": "771602f7",
					"convertToUint8(uint256)": "34afb39d",
					"isGreater(uint256,uint256)": "22800a81",
					"safeAdd(uint256,uint256)": "e6cb9013"
				}
			},
			"storageLayout": {
				"storage": [
					{
						"astId": 5,
						"contract": "6-Data Types/Integers.sol:integertype",
						"label": "a",
						"offset": 0,
						"slot": "0",
						"type": "t_uint256"
					},
					{
						"astId": 8,
						"contract": "6-Data Types/Integers.sol:integertype",
						"label": "b",
						"offset": 0,
						"slot": "1",
						"type": "t_int256"
					},
					{
						"astId": 12,
						"contract": "6-Data Types/Integers.sol:integertype",
						"label": "count",
						"offset": 0,
						"slot": "2",
						"type": "t_int256"
					},
					{
						"astId": 17,
						"contract": "6-Data Types/Integers.sol:integertype",
						"label": "count2",
						"offset": 0,
						"slot": "3",
						"type": "t_int16"
					},
					{
						"astId": 22,
						"contract": "6-Data Types/Integers.sol:integertype",
						"label": "count3",
						"offset": 2,
						"slot": "3",
						"type": "t_int32"
					},
					{
						"astId": 26,
						"contract": "6-Data Types/Integers.sol:integertype",
						"label": "num",
						"offset": 0,
						"slot": "4",
						"type": "t_uint256"
					},
					{
						"astId": 30,
						"contract": "6-Data Types/Integers.sol:integertype",
						"label": "num2",
						"offset": 0,
						"slot": "5",
						"type": "t_uint8"
					},
					{
						"astId": 34,
						"contract": "6-Data Types/Integers.sol:integertype",
						"label": "num3",
						"offset": 1,
						"slot": "5",
						"type": "t_uint16"
					}
				],
				"types": {
					"t_int16": {
						"encoding": "inplace",
						"label": "int16",
						"numberOfBytes": "2"
					},
					"t_int256": {
						"encoding": "inplace",
						"label": "int256",
						"numberOfBytes": "32"
					},
					"t_int32": {
						"encoding": "inplace",
						"label": "int32",
						"numberOfBytes": "4"
					},
					"t_uint16": {
						"encoding": "inplace",
						"label": "uint16",
						"numberOfBytes": "2"
					},
					"t_uint256": {
						"encoding": "inplace",
						"label": "uint256",
						"numberOfBytes": "32"
					},
					"t_uint8": {
						"encoding": "inplace",
						"label": "uint8",
						"numberOfBytes": "1"
					}
				}
			},
			"userdoc": {
				"kind": "user",
				"methods": {
					"add(uint256,uint256)": {
						"notice": "Shows basic arithmetic with integersIn Solidity 0.8.0+, this will revert on overflow"
					},
					"convertToUint8(uint256)": {
						"notice": "Demonstrates explicit type conversionWARNING: Values larger than 255 will be truncated"
					},
					"safeAdd(uint256,uint256)": {
						"notice": "Shows manual overflow check (though Solidity 0.8.0+ does this automatically)"
					}
				},
				"notice": "Solidity provides both signed and unsigned integers in various sizesInteger types are value types that can hold integer values of different sizes",
				"version": 1
			}
		}
	}
}