{
	"data": {
		"bytecode": {
			"linkReferences": {},
			"object": "6080604052348015600e575f5ffd5b5061044f8061001c5f395ff3fe608060405234801561000f575f5ffd5b50600436106100a6575f3560e01c806371e5ee5f1161006e57806371e5ee5f1461010157806378321efb146101145780639a6fcbdd14610155578063a16e72151461015d578063d5c22bef14610170578063e80b7ab614610178575f5ffd5b80631f7b6d32146100aa578063280ca666146100c05780633a7d22bc146100d5578063569c5f6d146100e8578063681fe70c146100f0575b5f5ffd5b5f545b6040519081526020015b60405180910390f35b6100c8610180565b6040516100b79190610338565b6100ad6100e336600461037a565b6101d5565b6100ad6101f8565b5f54604051901581526020016100b7565b6100ad61010f36600461037a565b61023b565b61015361012236600461037a565b5f80546001810182559080527f290decd9548b62a8d60345a988386fc84ba6bc95484008f6362f93160ef3e5630155565b005b610153610259565b61015361016b366004610391565b61027e565b6100ad6102a0565b6101536102f6565b60605f8054806020026020016040519081016040528092919081815260200182805480156101cb57602002820191905f5260205f20905b8154815260200190600101908083116101b7575b5050505050905090565b5f5f82815481106101e8576101e86103b1565b905f5260205f2001549050919050565b5f80805b5f54811015610235575f8181548110610217576102176103b1565b905f5260205f2001548261022b91906103d9565b91506001016101fc565b50919050565b5f8181548110610249575f80fd5b5f91825260209091200154905081565b5f805480610269576102696103f2565b600190038181905f5260205f20015f90559055565b805f8381548110610291576102916103b1565b5f918252602090912001555050565b5f805481806102b0600184610406565b815481106102c0576102c06103b1565b905f5260205f20015490505f8054806102db576102db6103f2565b600190038181905f5260205f20015f90559055809250505090565b6103005f80610302565b565b5080545f8255905f5260205f209081019061031d9190610320565b50565b5b80821115610334575f8155600101610321565b5090565b602080825282518282018190525f918401906040840190835b8181101561036f578351835260209384019390920191600101610351565b509095945050505050565b5f6020828403121561038a575f5ffd5b5035919050565b5f5f604083850312156103a2575f5ffd5b50508035926020909101359150565b634e487b7160e01b5f52603260045260245ffd5b634e487b7160e01b5f52601160045260245ffd5b808201808211156103ec576103ec6103c5565b92915050565b634e487b7160e01b5f52603160045260245ffd5b818103818111156103ec576103ec6103c556fea2646970667358221220ee7ce888d9ba8a5e4d01ddc19f00f19904d2ae12b0db65e62b54e08a4958909b64736f6c634300081e0033",
			"opcodes": "PUSH1 0x80 PUSH1 0x40 MSTORE CALLVALUE DUP1 ISZERO PUSH1 0xE JUMPI PUSH0 PUSH0 REVERT JUMPDEST POP PUSH2 0x44F DUP1 PUSH2 0x1C PUSH0 CODECOPY PUSH0 RETURN INVALID PUSH1 0x80 PUSH1 0x40 MSTORE CALLVALUE DUP1 ISZERO PUSH2 0xF JUMPI PUSH0 PUSH0 REVERT JUMPDEST POP PUSH1 0x4 CALLDATASIZE LT PUSH2 0xA6 JUMPI PUSH0 CALLDATALOAD PUSH1 0xE0 SHR DUP1 PUSH4 0x71E5EE5F GT PUSH2 0x6E JUMPI DUP1 PUSH4 0x71E5EE5F EQ PUSH2 0x101 JUMPI DUP1 PUSH4 0x78321EFB EQ PUSH2 0x114 JUMPI DUP1 PUSH4 0x9A6FCBDD EQ PUSH2 0x155 JUMPI DUP1 PUSH4 0xA16E7215 EQ PUSH2 0x15D JUMPI DUP1 PUSH4 0xD5C22BEF EQ PUSH2 0x170 JUMPI DUP1 PUSH4 0xE80B7AB6 EQ PUSH2 0x178 JUMPI PUSH0 PUSH0 REVERT JUMPDEST DUP1 PUSH4 0x1F7B6D32 EQ PUSH2 0xAA JUMPI DUP1 PUSH4 0x280CA666 EQ PUSH2 0xC0 JUMPI DUP1 PUSH4 0x3A7D22BC EQ PUSH2 0xD5 JUMPI DUP1 PUSH4 0x569C5F6D EQ PUSH2 0xE8 JUMPI DUP1 PUSH4 0x681FE70C EQ PUSH2 0xF0 JUMPI JUMPDEST PUSH0 PUSH0 REVERT JUMPDEST PUSH0 SLOAD JUMPDEST PUSH1 0x40 MLOAD SWAP1 DUP2 MSTORE PUSH1 0x20 ADD JUMPDEST PUSH1 0x40 MLOAD DUP1 SWAP2 SUB SWAP1 RETURN JUMPDEST PUSH2 0xC8 PUSH2 0x180 JUMP JUMPDEST PUSH1 0x40 MLOAD PUSH2 0xB7 SWAP2 SWAP1 PUSH2 0x338 JUMP JUMPDEST PUSH2 0xAD PUSH2 0xE3 CALLDATASIZE PUSH1 0x4 PUSH2 0x37A JUMP JUMPDEST PUSH2 0x1D5 JUMP JUMPDEST PUSH2 0xAD PUSH2 0x1F8 JUMP JUMPDEST PUSH0 SLOAD PUSH1 0x40 MLOAD SWAP1 ISZERO DUP2 MSTORE PUSH1 0x20 ADD PUSH2 0xB7 JUMP JUMPDEST PUSH2 0xAD PUSH2 0x10F CALLDATASIZE PUSH1 0x4 PUSH2 0x37A JUMP JUMPDEST PUSH2 0x23B JUMP JUMPDEST PUSH2 0x153 PUSH2 0x122 CALLDATASIZE PUSH1 0x4 PUSH2 0x37A JUMP JUMPDEST PUSH0 DUP1 SLOAD PUSH1 0x1 DUP2 ADD DUP3 SSTORE SWAP1 DUP1 MSTORE PUSH32 0x290DECD9548B62A8D60345A988386FC84BA6BC95484008F6362F93160EF3E563 ADD SSTORE JUMP JUMPDEST STOP JUMPDEST PUSH2 0x153 PUSH2 0x259 JUMP JUMPDEST PUSH2 0x153 PUSH2 0x16B CALLDATASIZE PUSH1 0x4 PUSH2 0x391 JUMP JUMPDEST PUSH2 0x27E JUMP JUMPDEST PUSH2 0xAD PUSH2 0x2A0 JUMP JUMPDEST PUSH2 0x153 PUSH2 0x2F6 JUMP JUMPDEST PUSH1 0x60 PUSH0 DUP1 SLOAD DUP1 PUSH1 0x20 MUL PUSH1 0x20 ADD PUSH1 0x40 MLOAD SWAP1 DUP2 ADD PUSH1 0x40 MSTORE DUP1 SWAP3 SWAP2 SWAP1 DUP2 DUP2 MSTORE PUSH1 0x20 ADD DUP3 DUP1 SLOAD DUP1 ISZERO PUSH2 0x1CB JUMPI PUSH1 0x20 MUL DUP3 ADD SWAP2 SWAP1 PUSH0 MSTORE PUSH1 0x20 PUSH0 KECCAK256 SWAP1 JUMPDEST DUP2 SLOAD DUP2 MSTORE PUSH1 0x20 ADD SWAP1 PUSH1 0x1 ADD SWAP1 DUP1 DUP4 GT PUSH2 0x1B7 JUMPI JUMPDEST POP POP POP POP POP SWAP1 POP SWAP1 JUMP JUMPDEST PUSH0 PUSH0 DUP3 DUP2 SLOAD DUP2 LT PUSH2 0x1E8 JUMPI PUSH2 0x1E8 PUSH2 0x3B1 JUMP JUMPDEST SWAP1 PUSH0 MSTORE PUSH1 0x20 PUSH0 KECCAK256 ADD SLOAD SWAP1 POP SWAP2 SWAP1 POP JUMP JUMPDEST PUSH0 DUP1 DUP1 JUMPDEST PUSH0 SLOAD DUP2 LT ISZERO PUSH2 0x235 JUMPI PUSH0 DUP2 DUP2 SLOAD DUP2 LT PUSH2 0x217 JUMPI PUSH2 0x217 PUSH2 0x3B1 JUMP JUMPDEST SWAP1 PUSH0 MSTORE PUSH1 0x20 PUSH0 KECCAK256 ADD SLOAD DUP3 PUSH2 0x22B SWAP2 SWAP1 PUSH2 0x3D9 JUMP JUMPDEST SWAP2 POP PUSH1 0x1 ADD PUSH2 0x1FC JUMP JUMPDEST POP SWAP2 SWAP1 POP JUMP JUMPDEST PUSH0 DUP2 DUP2 SLOAD DUP2 LT PUSH2 0x249 JUMPI PUSH0 DUP1 REVERT JUMPDEST PUSH0 SWAP2 DUP3 MSTORE PUSH1 0x20 SWAP1 SWAP2 KECCAK256 ADD SLOAD SWAP1 POP DUP2 JUMP JUMPDEST PUSH0 DUP1 SLOAD DUP1 PUSH2 0x269 JUMPI PUSH2 0x269 PUSH2 0x3F2 JUMP JUMPDEST PUSH1 0x1 SWAP1 SUB DUP2 DUP2 SWAP1 PUSH0 MSTORE PUSH1 0x20 PUSH0 KECCAK256 ADD PUSH0 SWAP1 SSTORE SWAP1 SSTORE JUMP JUMPDEST DUP1 PUSH0 DUP4 DUP2 SLOAD DUP2 LT PUSH2 0x291 JUMPI PUSH2 0x291 PUSH2 0x3B1 JUMP JUMPDEST PUSH0 SWAP2 DUP3 MSTORE PUSH1 0x20 SWAP1 SWAP2 KECCAK256 ADD SSTORE POP POP JUMP JUMPDEST PUSH0 DUP1 SLOAD DUP2 DUP1 PUSH2 0x2B0 PUSH1 0x1 DUP5 PUSH2 0x406 JUMP JUMPDEST DUP2 SLOAD DUP2 LT PUSH2 0x2C0 JUMPI PUSH2 0x2C0 PUSH2 0x3B1 JUMP JUMPDEST SWAP1 PUSH0 MSTORE PUSH1 0x20 PUSH0 KECCAK256 ADD SLOAD SWAP1 POP PUSH0 DUP1 SLOAD DUP1 PUSH2 0x2DB JUMPI PUSH2 0x2DB PUSH2 0x3F2 JUMP JUMPDEST PUSH1 0x1 SWAP1 SUB DUP2 DUP2 SWAP1 PUSH0 MSTORE PUSH1 0x20 PUSH0 KECCAK256 ADD PUSH0 SWAP1 SSTORE SWAP1 SSTORE DUP1 SWAP3 POP POP POP SWAP1 JUMP JUMPDEST PUSH2 0x300 PUSH0 DUP1 PUSH2 0x302 JUMP JUMPDEST JUMP JUMPDEST POP DUP1 SLOAD PUSH0 DUP3 SSTORE SWAP1 PUSH0 MSTORE PUSH1 0x20 PUSH0 KECCAK256 SWAP1 DUP2 ADD SWAP1 PUSH2 0x31D SWAP2 SWAP1 PUSH2 0x320 JUMP JUMPDEST POP JUMP JUMPDEST JUMPDEST DUP1 DUP3 GT ISZERO PUSH2 0x334 JUMPI PUSH0 DUP2 SSTORE PUSH1 0x1 ADD PUSH2 0x321 JUMP JUMPDEST POP SWAP1 JUMP JUMPDEST PUSH1 0x20 DUP1 DUP3 MSTORE DUP3 MLOAD DUP3 DUP3 ADD DUP2 SWAP1 MSTORE PUSH0 SWAP2 DUP5 ADD SWAP1 PUSH1 0x40 DUP5 ADD SWAP1 DUP4 JUMPDEST DUP2 DUP2 LT ISZERO PUSH2 0x36F JUMPI DUP4 MLOAD DUP4 MSTORE PUSH1 0x20 SWAP4 DUP5 ADD SWAP4 SWAP1 SWAP3 ADD SWAP2 PUSH1 0x1 ADD PUSH2 0x351 JUMP JUMPDEST POP SWAP1 SWAP6 SWAP5 POP POP POP POP POP JUMP JUMPDEST PUSH0 PUSH1 0x20 DUP3 DUP5 SUB SLT ISZERO PUSH2 0x38A JUMPI PUSH0 PUSH0 REVERT JUMPDEST POP CALLDATALOAD SWAP2 SWAP1 POP JUMP JUMPDEST PUSH0 PUSH0 PUSH1 0x40 DUP4 DUP6 SUB SLT ISZERO PUSH2 0x3A2 JUMPI PUSH0 PUSH0 REVERT JUMPDEST POP POP DUP1 CALLDATALOAD SWAP3 PUSH1 0x20 SWAP1 SWAP2 ADD CALLDATALOAD SWAP2 POP JUMP JUMPDEST PUSH4 0x4E487B71 PUSH1 0xE0 SHL PUSH0 MSTORE PUSH1 0x32 PUSH1 0x4 MSTORE PUSH1 0x24 PUSH0 REVERT JUMPDEST PUSH4 0x4E487B71 PUSH1 0xE0 SHL PUSH0 MSTORE PUSH1 0x11 PUSH1 0x4 MSTORE PUSH1 0x24 PUSH0 REVERT JUMPDEST DUP1 DUP3 ADD DUP1 DUP3 GT ISZERO PUSH2 0x3EC JUMPI PUSH2 0x3EC PUSH2 0x3C5 JUMP JUMPDEST SWAP3 SWAP2 POP POP JUMP JUMPDEST PUSH4 0x4E487B71 PUSH1 0xE0 SHL PUSH0 MSTORE PUSH1 0x31 PUSH1 0x4 MSTORE PUSH1 0x24 PUSH0 REVERT JUMPDEST DUP2 DUP2 SUB DUP2 DUP2 GT ISZERO PUSH2 0x3EC JUMPI PUSH2 0x3EC PUSH2 0x3C5 JUMP INVALID LOG2 PUSH5 0x6970667358 0x22 SLT KECCAK256 RETURNCONTRACT 0x7C 0xE8 DUP9 0xD9 0xBA DUP11 MCOPY 0x4D ADD 0xDD 0xC1 SWAP16 STOP CALL SWAP10 DIV 0xD2 0xAE SLT 0xB0 0xDB PUSH6 0xE62B54E08A49 PC SWAP1 SWAP12 PUSH5 0x736F6C6343 STOP ADDMOD 0x1E STOP CALLER "
		},
		"gasEstimates": {
			"creation": {
				"codeDepositCost": "220600",
				"executionCost": "261",
				"totalCost": "220861"
			},
			"external": {
				"arr(uint256)": "4560",
				"clearArray()": "infinite",
				"getAllElements()": "infinite",
				"getElement(uint256)": "4605",
				"getSum()": "infinite",
				"isEmpty()": "2370",
				"length()": "2269",
				"popElement()": "29484",
				"printPopElement()": "36055",
				"pushElement(uint256)": "46561",
				"setElement(uint256,uint256)": "24601"
			}
		},
		"methodIdentifiers": {
			"arr(uint256)": "71e5ee5f",
			"clearArray()": "e80b7ab6",
			"getAllElements()": "280ca666",
			"getElement(uint256)": "3a7d22bc",
			"getSum()": "569c5f6d",
			"isEmpty()": "681fe70c",
			"length()": "1f7b6d32",
			"popElement()": "9a6fcbdd",
			"printPopElement()": "d5c22bef",
			"pushElement(uint256)": "78321efb",
			"setElement(uint256,uint256)": "a16e7215"
		}
	},
	"abi": [
		{
			"inputs": [
				{
					"internalType": "uint256",
					"name": "",
					"type": "uint256"
				}
			],
			"name": "arr",
			"outputs": [
				{
					"internalType": "uint256",
					"name": "",
					"type": "uint256"
				}
			],
			"stateMutability": "view",
			"type": "function"
		},
		{
			"inputs": [],
			"name": "clearArray",
			"outputs": [],
			"stateMutability": "nonpayable",
			"type": "function"
		},
		{
			"inputs": [],
			"name": "getAllElements",
			"outputs": [
				{
					"internalType": "uint256[]",
					"name": "",
					"type": "uint256[]"
				}
			],
			"stateMutability": "view",
			"type": "function"
		},
		{
			"inputs": [
				{
					"internalType": "uint256",
					"name": "index",
					"type": "uint256"
				}
			],
			"name": "getElement",
			"outputs": [
				{
					"internalType": "uint256",
					"name": "",
					"type": "uint256"
				}
			],
			"stateMutability": "view",
			"type": "function"
		},
		{
			"inputs": [],
			"name": "getSum",
			"outputs": [
				{
					"internalType": "uint256",
					"name": "",
					"type": "uint256"
				}
			],
			"stateMutability": "view",
			"type": "function"
		},
		{
			"inputs": [],
			"name": "isEmpty",
			"outputs": [
				{
					"internalType": "bool",
					"name": "",
					"type": "bool"
				}
			],
			"stateMutability": "view",
			"type": "function"
		},
		{
			"inputs": [],
			"name": "length",
			"outputs": [
				{
					"internalType": "uint256",
					"name": "",
					"type": "uint256"
				}
			],
			"stateMutability": "view",
			"type": "function"
		},
		{
			"inputs": [],
			"name": "popElement",
			"outputs": [],
			"stateMutability": "nonpayable",
			"type": "function"
		},
		{
			"inputs": [],
			"name": "printPopElement",
			"outputs": [
				{
					"internalType": "uint256",
					"name": "",
					"type": "uint256"
				}
			],
			"stateMutability": "nonpayable",
			"type": "function"
		},
		{
			"inputs": [
				{
					"internalType": "uint256",
					"name": "item",
					"type": "uint256"
				}
			],
			"name": "pushElement",
			"outputs": [],
			"stateMutability": "nonpayable",
			"type": "function"
		},
		{
			"inputs": [
				{
					"internalType": "uint256",
					"name": "index",
					"type": "uint256"
				},
				{
					"internalType": "uint256",
					"name": "value",
					"type": "uint256"
				}
			],
			"name": "setElement",
			"outputs": [],
			"stateMutability": "nonpayable",
			"type": "function"
		}
	]
}