{
	"data": {
		"bytecode": {
			"linkReferences": {},
			"object": "60806040525f805461ffff19166001179055348015601b575f5ffd5b50610183806100295f395ff3fe608060405234801561000f575f5ffd5b5060043610610060575f3560e01c806316bba373146100645780631f6f59be146100805780633fa4f245146100985780635f72f450146100a457806380e1a6c6146100b757806395cacbe0146100bf575b5f5ffd5b61006c6100d0565b604051901515815260200160405180910390f35b6100965f805460ff19811660ff90911615179055565b005b5f5461006c9060ff1681565b61006c6100b2366004610136565b6100ec565b61006c61011b565b5f5461006c90610100900460ff1681565b5f805460ff16806100e757505f54610100900460ff165b905090565b5f6064821115610107575f805460ff19166001179055610111565b5f805460ff191690555b50505f5460ff1690565b5f805460ff1680156100e75750505f54610100900460ff1690565b5f60208284031215610146575f5ffd5b503591905056fea26469706673582212202b2217b76f6df13c9818296d4c92f2bfb096107dcce187782e94a35fdf3485be64736f6c634300081e0033",
			"opcodes": "PUSH1 0x80 PUSH1 0x40 MSTORE PUSH0 DUP1 SLOAD PUSH2 0xFFFF NOT AND PUSH1 0x1 OR SWAP1 SSTORE CALLVALUE DUP1 ISZERO PUSH1 0x1B JUMPI PUSH0 PUSH0 REVERT JUMPDEST POP PUSH2 0x183 DUP1 PUSH2 0x29 PUSH0 CODECOPY PUSH0 RETURN INVALID PUSH1 0x80 PUSH1 0x40 MSTORE CALLVALUE DUP1 ISZERO PUSH2 0xF JUMPI PUSH0 PUSH0 REVERT JUMPDEST POP PUSH1 0x4 CALLDATASIZE LT PUSH2 0x60 JUMPI PUSH0 CALLDATALOAD PUSH1 0xE0 SHR DUP1 PUSH4 0x16BBA373 EQ PUSH2 0x64 JUMPI DUP1 PUSH4 0x1F6F59BE EQ PUSH2 0x80 JUMPI DUP1 PUSH4 0x3FA4F245 EQ PUSH2 0x98 JUMPI DUP1 PUSH4 0x5F72F450 EQ PUSH2 0xA4 JUMPI DUP1 PUSH4 0x80E1A6C6 EQ PUSH2 0xB7 JUMPI DUP1 PUSH4 0x95CACBE0 EQ PUSH2 0xBF JUMPI JUMPDEST PUSH0 PUSH0 REVERT JUMPDEST PUSH2 0x6C PUSH2 0xD0 JUMP JUMPDEST PUSH1 0x40 MLOAD SWAP1 ISZERO ISZERO DUP2 MSTORE PUSH1 0x20 ADD PUSH1 0x40 MLOAD DUP1 SWAP2 SUB SWAP1 RETURN JUMPDEST PUSH2 0x96 PUSH0 DUP1 SLOAD PUSH1 0xFF NOT DUP2 AND PUSH1 0xFF SWAP1 SWAP2 AND ISZERO OR SWAP1 SSTORE JUMP JUMPDEST STOP JUMPDEST PUSH0 SLOAD PUSH2 0x6C SWAP1 PUSH1 0xFF AND DUP2 JUMP JUMPDEST PUSH2 0x6C PUSH2 0xB2 CALLDATASIZE PUSH1 0x4 PUSH2 0x136 JUMP JUMPDEST PUSH2 0xEC JUMP JUMPDEST PUSH2 0x6C PUSH2 0x11B JUMP JUMPDEST PUSH0 SLOAD PUSH2 0x6C SWAP1 PUSH2 0x100 SWAP1 DIV PUSH1 0xFF AND DUP2 JUMP JUMPDEST PUSH0 DUP1 SLOAD PUSH1 0xFF AND DUP1 PUSH2 0xE7 JUMPI POP PUSH0 SLOAD PUSH2 0x100 SWAP1 DIV PUSH1 0xFF AND JUMPDEST SWAP1 POP SWAP1 JUMP JUMPDEST PUSH0 PUSH1 0x64 DUP3 GT ISZERO PUSH2 0x107 JUMPI PUSH0 DUP1 SLOAD PUSH1 0xFF NOT AND PUSH1 0x1 OR SWAP1 SSTORE PUSH2 0x111 JUMP JUMPDEST PUSH0 DUP1 SLOAD PUSH1 0xFF NOT AND SWAP1 SSTORE JUMPDEST POP POP PUSH0 SLOAD PUSH1 0xFF AND SWAP1 JUMP JUMPDEST PUSH0 DUP1 SLOAD PUSH1 0xFF AND DUP1 ISZERO PUSH2 0xE7 JUMPI POP POP PUSH0 SLOAD PUSH2 0x100 SWAP1 DIV PUSH1 0xFF AND SWAP1 JUMP JUMPDEST PUSH0 PUSH1 0x20 DUP3 DUP5 SUB SLT ISZERO PUSH2 0x146 JUMPI PUSH0 PUSH0 REVERT JUMPDEST POP CALLDATALOAD SWAP2 SWAP1 POP JUMP INVALID LOG2 PUSH5 0x6970667358 0x22 SLT KECCAK256 0x2B 0x22 OR 0xB7 PUSH16 0x6DF13C9818296D4C92F2BFB096107DCC RJUMPI 0x8778 0x2E SWAP5 LOG3 PUSH0 0xDF CALLVALUE DUP6 0xBE PUSH5 0x736F6C6343 STOP ADDMOD 0x1E STOP CALLER "
		},
		"gasEstimates": {
			"creation": {
				"codeDepositCost": "77400",
				"executionCost": "24350",
				"totalCost": "101750"
			},
			"external": {
				"areBothTrue()": "4516",
				"check(uint256)": "26691",
				"isEitherTrue()": "4429",
				"toggleValue()": "24369",
				"val2()": "2395",
				"value()": "2318"
			}
		},
		"methodIdentifiers": {
			"areBothTrue()": "80e1a6c6",
			"check(uint256)": "5f72f450",
			"isEitherTrue()": "16bba373",
			"toggleValue()": "1f6f59be",
			"val2()": "95cacbe0",
			"value()": "3fa4f245"
		}
	},
	"abi": [
		{
			"inputs": [],
			"name": "areBothTrue",
			"outputs": [
				{
					"internalType": "bool",
					"name": "",
					"type": "bool"
				}
			],
			"stateMutability": "view",
			"type": "function"
		},
		{
			"inputs": [
				{
					"internalType": "uint256",
					"name": "a",
					"type": "uint256"
				}
			],
			"name": "check",
			"outputs": [
				{
					"internalType": "bool",
					"name": "",
					"type": "bool"
				}
			],
			"stateMutability": "nonpayable",
			"type": "function"
		},
		{
			"inputs": [],
			"name": "isEitherTrue",
			"outputs": [
				{
					"internalType": "bool",
					"name": "",
					"type": "bool"
				}
			],
			"stateMutability": "view",
			"type": "function"
		},
		{
			"inputs": [],
			"name": "toggleValue",
			"outputs": [],
			"stateMutability": "nonpayable",
			"type": "function"
		},
		{
			"inputs": [],
			"name": "val2",
			"outputs": [
				{
					"internalType": "bool",
					"name": "",
					"type": "bool"
				}
			],
			"stateMutability": "view",
			"type": "function"
		},
		{
			"inputs": [],
			"name": "value",
			"outputs": [
				{
					"internalType": "bool",
					"name": "",
					"type": "bool"
				}
			],
			"stateMutability": "view",
			"type": "function"
		}
	]
}