{
	"data": {
		"bytecode": {
			"linkReferences": {},
			"object": "6080604052348015600e575f5ffd5b5060d680601a5f395ff3fe6080604052348015600e575f5ffd5b50600436106026575f3560e01c80639207f67e14602a575b5f5ffd5b60306057565b604080519384526001600160a01b0390921660208401529082015260600160405180910390f35b5f5f5f5f5f43116066575f606f565b606f600143607c565b4094419450449350915050565b81810381811115609a57634e487b7160e01b5f52601160045260245ffd5b9291505056fea2646970667358221220b9c063c27a6c03640310f8e2d8ed417d8f0a659a2932c32ea9f255fd6d05f78864736f6c634300081e0033",
			"opcodes": "PUSH1 0x80 PUSH1 0x40 MSTORE CALLVALUE DUP1 ISZERO PUSH1 0xE JUMPI PUSH0 PUSH0 REVERT JUMPDEST POP PUSH1 0xD6 DUP1 PUSH1 0x1A PUSH0 CODECOPY PUSH0 RETURN INVALID PUSH1 0x80 PUSH1 0x40 MSTORE CALLVALUE DUP1 ISZERO PUSH1 0xE JUMPI PUSH0 PUSH0 REVERT JUMPDEST POP PUSH1 0x4 CALLDATASIZE LT PUSH1 0x26 JUMPI PUSH0 CALLDATALOAD PUSH1 0xE0 SHR DUP1 PUSH4 0x9207F67E EQ PUSH1 0x2A JUMPI JUMPDEST PUSH0 PUSH0 REVERT JUMPDEST PUSH1 0x30 PUSH1 0x57 JUMP JUMPDEST PUSH1 0x40 DUP1 MLOAD SWAP4 DUP5 MSTORE PUSH1 0x1 PUSH1 0x1 PUSH1 0xA0 SHL SUB SWAP1 SWAP3 AND PUSH1 0x20 DUP5 ADD MSTORE SWAP1 DUP3 ADD MSTORE PUSH1 0x60 ADD PUSH1 0x40 MLOAD DUP1 SWAP2 SUB SWAP1 RETURN JUMPDEST PUSH0 PUSH0 PUSH0 PUSH0 PUSH0 NUMBER GT PUSH1 0x66 JUMPI PUSH0 PUSH1 0x6F JUMP JUMPDEST PUSH1 0x6F PUSH1 0x1 NUMBER PUSH1 0x7C JUMP JUMPDEST BLOCKHASH SWAP5 COINBASE SWAP5 POP PREVRANDAO SWAP4 POP SWAP2 POP POP JUMP JUMPDEST DUP2 DUP2 SUB DUP2 DUP2 GT ISZERO PUSH1 0x9A JUMPI PUSH4 0x4E487B71 PUSH1 0xE0 SHL PUSH0 MSTORE PUSH1 0x11 PUSH1 0x4 MSTORE PUSH1 0x24 PUSH0 REVERT JUMPDEST SWAP3 SWAP2 POP POP JUMP INVALID LOG2 PUSH5 0x6970667358 0x22 SLT KECCAK256 0xB9 0xC0 PUSH4 0xC27A6C03 PUSH5 0x310F8E2D8 0xED COINBASE PUSH30 0x8F0A659A2932C32EA9F255FD6D05F78864736F6C634300081E0033000000 "
		},
		"gasEstimates": {
			"creation": {
				"codeDepositCost": "42800",
				"executionCost": "91",
				"totalCost": "42891"
			},
			"external": {
				"getMoreBlockInfo()": "370"
			}
		},
		"methodIdentifiers": {
			"getMoreBlockInfo()": "9207f67e"
		}
	},
	"abi": [
		{
			"inputs": [],
			"name": "getMoreBlockInfo",
			"outputs": [
				{
					"internalType": "bytes32",
					"name": "blockHashValue",
					"type": "bytes32"
				},
				{
					"internalType": "address",
					"name": "coinbase",
					"type": "address"
				},
				{
					"internalType": "uint256",
					"name": "prevRandao",
					"type": "uint256"
				}
			],
			"stateMutability": "view",
			"type": "function"
		}
	]
}