{
	"data": {
		"bytecode": {
			"linkReferences": {},
			"object": "60c0604052600360809081526261626360e81b60a05260019061002290826100cc565b5034801561002e575f5ffd5b50610186565b634e487b7160e01b5f52604160045260245ffd5b600181811c9082168061005c57607f821691505b60208210810361007a57634e487b7160e01b5f52602260045260245ffd5b50919050565b601f8211156100c757805f5260205f20601f840160051c810160208510156100a55750805b601f840160051c820191505b818110156100c4575f81556001016100b1565b50505b505050565b81516001600160401b038111156100e5576100e5610034565b6100f9816100f38454610048565b84610080565b6020601f82116001811461012b575f83156101145750848201515b5f19600385901b1c1916600184901b1784556100c4565b5f84815260208120601f198516915b8281101561015a578785015182556020948501946001909201910161013a565b508482101561017757868401515f19600387901b60f8161c191681555b50505050600190811b01905550565b610974806101935f395ff3fe608060405234801561000f575f5ffd5b50600436106100a6575f3560e01c806348fe810c1161006e57806348fe810c146101295780636987b1fb1461013c5780639f871cd91461014f578063be1c766b14610157578063cc0829901461015f578063ee49500214610167575f5ffd5b80630d273ad1146100aa578063302c3cfa146100bf5780633412fff0146100d55780633a7d22bc146100e857806347e4680614610114575b5f5ffd5b6100bd6100b8366004610666565b61016f565b005b5f545b6040519081526020015b60405180910390f35b6100bd6100e33660046106a8565b6102a1565b6100fb6100f636600461075b565b6102dd565b6040516001600160f81b031990911681526020016100cc565b61011c61037f565b6040516100cc91906107a0565b61011c61013736600461075b565b61040f565b61011c61014a36600461075b565b610500565b6100bd6105a5565b6100c26105b1565b6100bd6105c5565b61011c6105d0565b5f6001805461017d906107b2565b610189915060016107fe565b67ffffffffffffffff8111156101a1576101a1610694565b6040519080825280601f01601f1916602001820160405280156101cb576020820181803683370190505b5090505f5b600180546101dd906107b2565b90508110156102595760018181546101f4906107b2565b811061020257610202610811565b81546001161561021f57905f5260205f2090602091828204019190065b9054901a600160f81b0282828151811061023b5761023b610811565b60200101906001600160f81b03191690815f1a9053506001016101d0565b5081816001835161026a9190610825565b8151811061027a5761027a610811565b60200101906001600160f81b03191690815f1a905350600161029c8282610883565b505050565b5f80546001810182559080527f290decd9548b62a8d60345a988386fc84ba6bc95484008f6362f93160ef3e563016102d98282610883565b5050565b5f600180546102eb906107b2565b905082106103365760405162461bcd60e51b8152602060048201526013602482015272496e646578206f7574206f6620626f756e647360681b60448201526064015b60405180910390fd5b6001828154610344906107b2565b811061035257610352610811565b81546001161561036f57905f5260205f2090602091828204019190065b9054600160f81b911a0292915050565b60606001805461038e906107b2565b80601f01602080910402602001604051908101604052809291908181526020018280546103ba906107b2565b80156104055780601f106103dc57610100808354040283529160200191610405565b820191905f5260205f20905b8154815290600101906020018083116103e857829003601f168201915b5050505050905090565b5f5460609082106104585760405162461bcd60e51b8152602060048201526013602482015272496e646578206f7574206f6620626f756e647360681b604482015260640161032d565b5f828154811061046a5761046a610811565b905f5260205f2001805461047d906107b2565b80601f01602080910402602001604051908101604052809291908181526020018280546104a9906107b2565b80156104f45780601f106104cb576101008083540402835291602001916104f4565b820191905f5260205f20905b8154815290600101906020018083116104d757829003601f168201915b50505050509050919050565b5f818154811061050e575f80fd5b905f5260205f20015f915090508054610526906107b2565b80601f0160208091040260200160405190810160405280929190818152602001828054610552906107b2565b801561059d5780601f106105745761010080835404028352916020019161059d565b820191905f5260205f20905b81548152906001019060200180831161058057829003601f168201915b505050505081565b6105af5f806105dd565b565b5f600180546105bf906107b2565b92915050565b6105af60015f6105fb565b60018054610526906107b2565b5080545f8255905f5260205f20908101906105f89190610632565b50565b508054610607906107b2565b5f825580601f10610616575050565b601f0160209004905f5260205f20908101906105f89190610652565b8082111561064e575f61064582826105fb565b50600101610632565b5090565b5b8082111561064e575f8155600101610653565b5f60208284031215610676575f5ffd5b81356001600160f81b03198116811461068d575f5ffd5b9392505050565b634e487b7160e01b5f52604160045260245ffd5b5f602082840312156106b8575f5ffd5b813567ffffffffffffffff8111156106ce575f5ffd5b8201601f810184136106de575f5ffd5b803567ffffffffffffffff8111156106f8576106f8610694565b604051601f8201601f19908116603f0116810167ffffffffffffffff8111828210171561072757610727610694565b60405281815282820160200186101561073e575f5ffd5b816020840160208301375f91810160200191909152949350505050565b5f6020828403121561076b575f5ffd5b5035919050565b5f81518084528060208401602086015e5f602082860101526020601f19601f83011685010191505092915050565b602081525f61068d6020830184610772565b600181811c908216806107c657607f821691505b6020821081036107e457634e487b7160e01b5f52602260045260245ffd5b50919050565b634e487b7160e01b5f52601160045260245ffd5b808201808211156105bf576105bf6107ea565b634e487b7160e01b5f52603260045260245ffd5b818103818111156105bf576105bf6107ea565b601f82111561029c57805f5260205f20601f840160051c8101602085101561085d5750805b601f840160051c820191505b8181101561087c575f8155600101610869565b5050505050565b815167ffffffffffffffff81111561089d5761089d610694565b6108b1816108ab84546107b2565b84610838565b6020601f8211600181146108e3575f83156108cc5750848201515b5f19600385901b1c1916600184901b17845561087c565b5f84815260208120601f198516915b8281101561091257878501518255602094850194600190920191016108f2565b508482101561092f57868401515f19600387901b60f8161c191681555b50505050600190811b0190555056fea264697066735822122058f541d54947680d6beab8759020c52ec726c5fdc4a1e130913463bb2886711864736f6c634300081e0033",
			"opcodes": "PUSH1 0xC0 PUSH1 0x40 MSTORE PUSH1 0x3 PUSH1 0x80 SWAP1 DUP2 MSTORE PUSH3 0x616263 PUSH1 0xE8 SHL PUSH1 0xA0 MSTORE PUSH1 0x1 SWAP1 PUSH2 0x22 SWAP1 DUP3 PUSH2 0xCC JUMP JUMPDEST POP CALLVALUE DUP1 ISZERO PUSH2 0x2E JUMPI PUSH0 PUSH0 REVERT JUMPDEST POP PUSH2 0x186 JUMP JUMPDEST PUSH4 0x4E487B71 PUSH1 0xE0 SHL PUSH0 MSTORE PUSH1 0x41 PUSH1 0x4 MSTORE PUSH1 0x24 PUSH0 REVERT JUMPDEST PUSH1 0x1 DUP2 DUP2 SHR SWAP1 DUP3 AND DUP1 PUSH2 0x5C JUMPI PUSH1 0x7F DUP3 AND SWAP2 POP JUMPDEST PUSH1 0x20 DUP3 LT DUP2 SUB PUSH2 0x7A JUMPI PUSH4 0x4E487B71 PUSH1 0xE0 SHL PUSH0 MSTORE PUSH1 0x22 PUSH1 0x4 MSTORE PUSH1 0x24 PUSH0 REVERT JUMPDEST POP SWAP2 SWAP1 POP JUMP JUMPDEST PUSH1 0x1F DUP3 GT ISZERO PUSH2 0xC7 JUMPI DUP1 PUSH0 MSTORE PUSH1 0x20 PUSH0 KECCAK256 PUSH1 0x1F DUP5 ADD PUSH1 0x5 SHR DUP2 ADD PUSH1 0x20 DUP6 LT ISZERO PUSH2 0xA5 JUMPI POP DUP1 JUMPDEST PUSH1 0x1F DUP5 ADD PUSH1 0x5 SHR DUP3 ADD SWAP2 POP JUMPDEST DUP2 DUP2 LT ISZERO PUSH2 0xC4 JUMPI PUSH0 DUP2 SSTORE PUSH1 0x1 ADD PUSH2 0xB1 JUMP JUMPDEST POP POP JUMPDEST POP POP POP JUMP JUMPDEST DUP2 MLOAD PUSH1 0x1 PUSH1 0x1 PUSH1 0x40 SHL SUB DUP2 GT ISZERO PUSH2 0xE5 JUMPI PUSH2 0xE5 PUSH2 0x34 JUMP JUMPDEST PUSH2 0xF9 DUP2 PUSH2 0xF3 DUP5 SLOAD PUSH2 0x48 JUMP JUMPDEST DUP5 PUSH2 0x80 JUMP JUMPDEST PUSH1 0x20 PUSH1 0x1F DUP3 GT PUSH1 0x1 DUP2 EQ PUSH2 0x12B JUMPI PUSH0 DUP4 ISZERO PUSH2 0x114 JUMPI POP DUP5 DUP3 ADD MLOAD JUMPDEST PUSH0 NOT PUSH1 0x3 DUP6 SWAP1 SHL SHR NOT AND PUSH1 0x1 DUP5 SWAP1 SHL OR DUP5 SSTORE PUSH2 0xC4 JUMP JUMPDEST PUSH0 DUP5 DUP2 MSTORE PUSH1 0x20 DUP2 KECCAK256 PUSH1 0x1F NOT DUP6 AND SWAP2 JUMPDEST DUP3 DUP2 LT ISZERO PUSH2 0x15A JUMPI DUP8 DUP6 ADD MLOAD DUP3 SSTORE PUSH1 0x20 SWAP5 DUP6 ADD SWAP5 PUSH1 0x1 SWAP1 SWAP3 ADD SWAP2 ADD PUSH2 0x13A JUMP JUMPDEST POP DUP5 DUP3 LT ISZERO PUSH2 0x177 JUMPI DUP7 DUP5 ADD MLOAD PUSH0 NOT PUSH1 0x3 DUP8 SWAP1 SHL PUSH1 0xF8 AND SHR NOT AND DUP2 SSTORE JUMPDEST POP POP POP POP PUSH1 0x1 SWAP1 DUP2 SHL ADD SWAP1 SSTORE POP JUMP JUMPDEST PUSH2 0x974 DUP1 PUSH2 0x193 PUSH0 CODECOPY PUSH0 RETURN INVALID PUSH1 0x80 PUSH1 0x40 MSTORE CALLVALUE DUP1 ISZERO PUSH2 0xF JUMPI PUSH0 PUSH0 REVERT JUMPDEST POP PUSH1 0x4 CALLDATASIZE LT PUSH2 0xA6 JUMPI PUSH0 CALLDATALOAD PUSH1 0xE0 SHR DUP1 PUSH4 0x48FE810C GT PUSH2 0x6E JUMPI DUP1 PUSH4 0x48FE810C EQ PUSH2 0x129 JUMPI DUP1 PUSH4 0x6987B1FB EQ PUSH2 0x13C JUMPI DUP1 PUSH4 0x9F871CD9 EQ PUSH2 0x14F JUMPI DUP1 PUSH4 0xBE1C766B EQ PUSH2 0x157 JUMPI DUP1 PUSH4 0xCC082990 EQ PUSH2 0x15F JUMPI DUP1 PUSH4 0xEE495002 EQ PUSH2 0x167 JUMPI PUSH0 PUSH0 REVERT JUMPDEST DUP1 PUSH4 0xD273AD1 EQ PUSH2 0xAA JUMPI DUP1 PUSH4 0x302C3CFA EQ PUSH2 0xBF JUMPI DUP1 PUSH4 0x3412FFF0 EQ PUSH2 0xD5 JUMPI DUP1 PUSH4 0x3A7D22BC EQ PUSH2 0xE8 JUMPI DUP1 PUSH4 0x47E46806 EQ PUSH2 0x114 JUMPI JUMPDEST PUSH0 PUSH0 REVERT JUMPDEST PUSH2 0xBD PUSH2 0xB8 CALLDATASIZE PUSH1 0x4 PUSH2 0x666 JUMP JUMPDEST PUSH2 0x16F JUMP JUMPDEST STOP JUMPDEST PUSH0 SLOAD JUMPDEST PUSH1 0x40 MLOAD SWAP1 DUP2 MSTORE PUSH1 0x20 ADD JUMPDEST PUSH1 0x40 MLOAD DUP1 SWAP2 SUB SWAP1 RETURN JUMPDEST PUSH2 0xBD PUSH2 0xE3 CALLDATASIZE PUSH1 0x4 PUSH2 0x6A8 JUMP JUMPDEST PUSH2 0x2A1 JUMP JUMPDEST PUSH2 0xFB PUSH2 0xF6 CALLDATASIZE PUSH1 0x4 PUSH2 0x75B JUMP JUMPDEST PUSH2 0x2DD JUMP JUMPDEST PUSH1 0x40 MLOAD PUSH1 0x1 PUSH1 0x1 PUSH1 0xF8 SHL SUB NOT SWAP1 SWAP2 AND DUP2 MSTORE PUSH1 0x20 ADD PUSH2 0xCC JUMP JUMPDEST PUSH2 0x11C PUSH2 0x37F JUMP JUMPDEST PUSH1 0x40 MLOAD PUSH2 0xCC SWAP2 SWAP1 PUSH2 0x7A0 JUMP JUMPDEST PUSH2 0x11C PUSH2 0x137 CALLDATASIZE PUSH1 0x4 PUSH2 0x75B JUMP JUMPDEST PUSH2 0x40F JUMP JUMPDEST PUSH2 0x11C PUSH2 0x14A CALLDATASIZE PUSH1 0x4 PUSH2 0x75B JUMP JUMPDEST PUSH2 0x500 JUMP JUMPDEST PUSH2 0xBD PUSH2 0x5A5 JUMP JUMPDEST PUSH2 0xC2 PUSH2 0x5B1 JUMP JUMPDEST PUSH2 0xBD PUSH2 0x5C5 JUMP JUMPDEST PUSH2 0x11C PUSH2 0x5D0 JUMP JUMPDEST PUSH0 PUSH1 0x1 DUP1 SLOAD PUSH2 0x17D SWAP1 PUSH2 0x7B2 JUMP JUMPDEST PUSH2 0x189 SWAP2 POP PUSH1 0x1 PUSH2 0x7FE JUMP JUMPDEST PUSH8 0xFFFFFFFFFFFFFFFF DUP2 GT ISZERO PUSH2 0x1A1 JUMPI PUSH2 0x1A1 PUSH2 0x694 JUMP JUMPDEST PUSH1 0x40 MLOAD SWAP1 DUP1 DUP3 MSTORE DUP1 PUSH1 0x1F ADD PUSH1 0x1F NOT AND PUSH1 0x20 ADD DUP3 ADD PUSH1 0x40 MSTORE DUP1 ISZERO PUSH2 0x1CB JUMPI PUSH1 0x20 DUP3 ADD DUP2 DUP1 CALLDATASIZE DUP4 CALLDATACOPY ADD SWAP1 POP JUMPDEST POP SWAP1 POP PUSH0 JUMPDEST PUSH1 0x1 DUP1 SLOAD PUSH2 0x1DD SWAP1 PUSH2 0x7B2 JUMP JUMPDEST SWAP1 POP DUP2 LT ISZERO PUSH2 0x259 JUMPI PUSH1 0x1 DUP2 DUP2 SLOAD PUSH2 0x1F4 SWAP1 PUSH2 0x7B2 JUMP JUMPDEST DUP2 LT PUSH2 0x202 JUMPI PUSH2 0x202 PUSH2 0x811 JUMP JUMPDEST DUP2 SLOAD PUSH1 0x1 AND ISZERO PUSH2 0x21F JUMPI SWAP1 PUSH0 MSTORE PUSH1 0x20 PUSH0 KECCAK256 SWAP1 PUSH1 0x20 SWAP2 DUP3 DUP3 DIV ADD SWAP2 SWAP1 MOD JUMPDEST SWAP1 SLOAD SWAP1 BYTE PUSH1 0x1 PUSH1 0xF8 SHL MUL DUP3 DUP3 DUP2 MLOAD DUP2 LT PUSH2 0x23B JUMPI PUSH2 0x23B PUSH2 0x811 JUMP JUMPDEST PUSH1 0x20 ADD ADD SWAP1 PUSH1 0x1 PUSH1 0x1 PUSH1 0xF8 SHL SUB NOT AND SWAP1 DUP2 PUSH0 BYTE SWAP1 MSTORE8 POP PUSH1 0x1 ADD PUSH2 0x1D0 JUMP JUMPDEST POP DUP2 DUP2 PUSH1 0x1 DUP4 MLOAD PUSH2 0x26A SWAP2 SWAP1 PUSH2 0x825 JUMP JUMPDEST DUP2 MLOAD DUP2 LT PUSH2 0x27A JUMPI PUSH2 0x27A PUSH2 0x811 JUMP JUMPDEST PUSH1 0x20 ADD ADD SWAP1 PUSH1 0x1 PUSH1 0x1 PUSH1 0xF8 SHL SUB NOT AND SWAP1 DUP2 PUSH0 BYTE SWAP1 MSTORE8 POP PUSH1 0x1 PUSH2 0x29C DUP3 DUP3 PUSH2 0x883 JUMP JUMPDEST POP POP POP JUMP JUMPDEST PUSH0 DUP1 SLOAD PUSH1 0x1 DUP2 ADD DUP3 SSTORE SWAP1 DUP1 MSTORE PUSH32 0x290DECD9548B62A8D60345A988386FC84BA6BC95484008F6362F93160EF3E563 ADD PUSH2 0x2D9 DUP3 DUP3 PUSH2 0x883 JUMP JUMPDEST POP POP JUMP JUMPDEST PUSH0 PUSH1 0x1 DUP1 SLOAD PUSH2 0x2EB SWAP1 PUSH2 0x7B2 JUMP JUMPDEST SWAP1 POP DUP3 LT PUSH2 0x336 JUMPI PUSH1 0x40 MLOAD PUSH3 0x461BCD PUSH1 0xE5 SHL DUP2 MSTORE PUSH1 0x20 PUSH1 0x4 DUP3 ADD MSTORE PUSH1 0x13 PUSH1 0x24 DUP3 ADD MSTORE PUSH19 0x496E646578206F7574206F6620626F756E6473 PUSH1 0x68 SHL PUSH1 0x44 DUP3 ADD MSTORE PUSH1 0x64 ADD JUMPDEST PUSH1 0x40 MLOAD DUP1 SWAP2 SUB SWAP1 REVERT JUMPDEST PUSH1 0x1 DUP3 DUP2 SLOAD PUSH2 0x344 SWAP1 PUSH2 0x7B2 JUMP JUMPDEST DUP2 LT PUSH2 0x352 JUMPI PUSH2 0x352 PUSH2 0x811 JUMP JUMPDEST DUP2 SLOAD PUSH1 0x1 AND ISZERO PUSH2 0x36F JUMPI SWAP1 PUSH0 MSTORE PUSH1 0x20 PUSH0 KECCAK256 SWAP1 PUSH1 0x20 SWAP2 DUP3 DUP3 DIV ADD SWAP2 SWAP1 MOD JUMPDEST SWAP1 SLOAD PUSH1 0x1 PUSH1 0xF8 SHL SWAP2 BYTE MUL SWAP3 SWAP2 POP POP JUMP JUMPDEST PUSH1 0x60 PUSH1 0x1 DUP1 SLOAD PUSH2 0x38E SWAP1 PUSH2 0x7B2 JUMP JUMPDEST DUP1 PUSH1 0x1F ADD PUSH1 0x20 DUP1 SWAP2 DIV MUL PUSH1 0x20 ADD PUSH1 0x40 MLOAD SWAP1 DUP2 ADD PUSH1 0x40 MSTORE DUP1 SWAP3 SWAP2 SWAP1 DUP2 DUP2 MSTORE PUSH1 0x20 ADD DUP3 DUP1 SLOAD PUSH2 0x3BA SWAP1 PUSH2 0x7B2 JUMP JUMPDEST DUP1 ISZERO PUSH2 0x405 JUMPI DUP1 PUSH1 0x1F LT PUSH2 0x3DC JUMPI PUSH2 0x100 DUP1 DUP4 SLOAD DIV MUL DUP4 MSTORE SWAP2 PUSH1 0x20 ADD SWAP2 PUSH2 0x405 JUMP JUMPDEST DUP3 ADD SWAP2 SWAP1 PUSH0 MSTORE PUSH1 0x20 PUSH0 KECCAK256 SWAP1 JUMPDEST DUP2 SLOAD DUP2 MSTORE SWAP1 PUSH1 0x1 ADD SWAP1 PUSH1 0x20 ADD DUP1 DUP4 GT PUSH2 0x3E8 JUMPI DUP3 SWAP1 SUB PUSH1 0x1F AND DUP3 ADD SWAP2 JUMPDEST POP POP POP POP POP SWAP1 POP SWAP1 JUMP JUMPDEST PUSH0 SLOAD PUSH1 0x60 SWAP1 DUP3 LT PUSH2 0x458 JUMPI PUSH1 0x40 MLOAD PUSH3 0x461BCD PUSH1 0xE5 SHL DUP2 MSTORE PUSH1 0x20 PUSH1 0x4 DUP3 ADD MSTORE PUSH1 0x13 PUSH1 0x24 DUP3 ADD MSTORE PUSH19 0x496E646578206F7574206F6620626F756E6473 PUSH1 0x68 SHL PUSH1 0x44 DUP3 ADD MSTORE PUSH1 0x64 ADD PUSH2 0x32D JUMP JUMPDEST PUSH0 DUP3 DUP2 SLOAD DUP2 LT PUSH2 0x46A JUMPI PUSH2 0x46A PUSH2 0x811 JUMP JUMPDEST SWAP1 PUSH0 MSTORE PUSH1 0x20 PUSH0 KECCAK256 ADD DUP1 SLOAD PUSH2 0x47D SWAP1 PUSH2 0x7B2 JUMP JUMPDEST DUP1 PUSH1 0x1F ADD PUSH1 0x20 DUP1 SWAP2 DIV MUL PUSH1 0x20 ADD PUSH1 0x40 MLOAD SWAP1 DUP2 ADD PUSH1 0x40 MSTORE DUP1 SWAP3 SWAP2 SWAP1 DUP2 DUP2 MSTORE PUSH1 0x20 ADD DUP3 DUP1 SLOAD PUSH2 0x4A9 SWAP1 PUSH2 0x7B2 JUMP JUMPDEST DUP1 ISZERO PUSH2 0x4F4 JUMPI DUP1 PUSH1 0x1F LT PUSH2 0x4CB JUMPI PUSH2 0x100 DUP1 DUP4 SLOAD DIV MUL DUP4 MSTORE SWAP2 PUSH1 0x20 ADD SWAP2 PUSH2 0x4F4 JUMP JUMPDEST DUP3 ADD SWAP2 SWAP1 PUSH0 MSTORE PUSH1 0x20 PUSH0 KECCAK256 SWAP1 JUMPDEST DUP2 SLOAD DUP2 MSTORE SWAP1 PUSH1 0x1 ADD SWAP1 PUSH1 0x20 ADD DUP1 DUP4 GT PUSH2 0x4D7 JUMPI DUP3 SWAP1 SUB PUSH1 0x1F AND DUP3 ADD SWAP2 JUMPDEST POP POP POP POP POP SWAP1 POP SWAP2 SWAP1 POP JUMP JUMPDEST PUSH0 DUP2 DUP2 SLOAD DUP2 LT PUSH2 0x50E JUMPI PUSH0 DUP1 REVERT JUMPDEST SWAP1 PUSH0 MSTORE PUSH1 0x20 PUSH0 KECCAK256 ADD PUSH0 SWAP2 POP SWAP1 POP DUP1 SLOAD PUSH2 0x526 SWAP1 PUSH2 0x7B2 JUMP JUMPDEST DUP1 PUSH1 0x1F ADD PUSH1 0x20 DUP1 SWAP2 DIV MUL PUSH1 0x20 ADD PUSH1 0x40 MLOAD SWAP1 DUP2 ADD PUSH1 0x40 MSTORE DUP1 SWAP3 SWAP2 SWAP1 DUP2 DUP2 MSTORE PUSH1 0x20 ADD DUP3 DUP1 SLOAD PUSH2 0x552 SWAP1 PUSH2 0x7B2 JUMP JUMPDEST DUP1 ISZERO PUSH2 0x59D JUMPI DUP1 PUSH1 0x1F LT PUSH2 0x574 JUMPI PUSH2 0x100 DUP1 DUP4 SLOAD DIV MUL DUP4 MSTORE SWAP2 PUSH1 0x20 ADD SWAP2 PUSH2 0x59D JUMP JUMPDEST DUP3 ADD SWAP2 SWAP1 PUSH0 MSTORE PUSH1 0x20 PUSH0 KECCAK256 SWAP1 JUMPDEST DUP2 SLOAD DUP2 MSTORE SWAP1 PUSH1 0x1 ADD SWAP1 PUSH1 0x20 ADD DUP1 DUP4 GT PUSH2 0x580 JUMPI DUP3 SWAP1 SUB PUSH1 0x1F AND DUP3 ADD SWAP2 JUMPDEST POP POP POP POP POP DUP2 JUMP JUMPDEST PUSH2 0x5AF PUSH0 DUP1 PUSH2 0x5DD JUMP JUMPDEST JUMP JUMPDEST PUSH0 PUSH1 0x1 DUP1 SLOAD PUSH2 0x5BF SWAP1 PUSH2 0x7B2 JUMP JUMPDEST SWAP3 SWAP2 POP POP JUMP JUMPDEST PUSH2 0x5AF PUSH1 0x1 PUSH0 PUSH2 0x5FB JUMP JUMPDEST PUSH1 0x1 DUP1 SLOAD PUSH2 0x526 SWAP1 PUSH2 0x7B2 JUMP JUMPDEST POP DUP1 SLOAD PUSH0 DUP3 SSTORE SWAP1 PUSH0 MSTORE PUSH1 0x20 PUSH0 KECCAK256 SWAP1 DUP2 ADD SWAP1 PUSH2 0x5F8 SWAP2 SWAP1 PUSH2 0x632 JUMP JUMPDEST POP JUMP JUMPDEST POP DUP1 SLOAD PUSH2 0x607 SWAP1 PUSH2 0x7B2 JUMP JUMPDEST PUSH0 DUP3 SSTORE DUP1 PUSH1 0x1F LT PUSH2 0x616 JUMPI POP POP JUMP JUMPDEST PUSH1 0x1F ADD PUSH1 0x20 SWAP1 DIV SWAP1 PUSH0 MSTORE PUSH1 0x20 PUSH0 KECCAK256 SWAP1 DUP2 ADD SWAP1 PUSH2 0x5F8 SWAP2 SWAP1 PUSH2 0x652 JUMP JUMPDEST DUP1 DUP3 GT ISZERO PUSH2 0x64E JUMPI PUSH0 PUSH2 0x645 DUP3 DUP3 PUSH2 0x5FB JUMP JUMPDEST POP PUSH1 0x1 ADD PUSH2 0x632 JUMP JUMPDEST POP SWAP1 JUMP JUMPDEST JUMPDEST DUP1 DUP3 GT ISZERO PUSH2 0x64E JUMPI PUSH0 DUP2 SSTORE PUSH1 0x1 ADD PUSH2 0x653 JUMP JUMPDEST PUSH0 PUSH1 0x20 DUP3 DUP5 SUB SLT ISZERO PUSH2 0x676 JUMPI PUSH0 PUSH0 REVERT JUMPDEST DUP2 CALLDATALOAD PUSH1 0x1 PUSH1 0x1 PUSH1 0xF8 SHL SUB NOT DUP2 AND DUP2 EQ PUSH2 0x68D JUMPI PUSH0 PUSH0 REVERT JUMPDEST SWAP4 SWAP3 POP POP POP JUMP JUMPDEST PUSH4 0x4E487B71 PUSH1 0xE0 SHL PUSH0 MSTORE PUSH1 0x41 PUSH1 0x4 MSTORE PUSH1 0x24 PUSH0 REVERT JUMPDEST PUSH0 PUSH1 0x20 DUP3 DUP5 SUB SLT ISZERO PUSH2 0x6B8 JUMPI PUSH0 PUSH0 REVERT JUMPDEST DUP2 CALLDATALOAD PUSH8 0xFFFFFFFFFFFFFFFF DUP2 GT ISZERO PUSH2 0x6CE JUMPI PUSH0 PUSH0 REVERT JUMPDEST DUP3 ADD PUSH1 0x1F DUP2 ADD DUP5 SGT PUSH2 0x6DE JUMPI PUSH0 PUSH0 REVERT JUMPDEST DUP1 CALLDATALOAD PUSH8 0xFFFFFFFFFFFFFFFF DUP2 GT ISZERO PUSH2 0x6F8 JUMPI PUSH2 0x6F8 PUSH2 0x694 JUMP JUMPDEST PUSH1 0x40 MLOAD PUSH1 0x1F DUP3 ADD PUSH1 0x1F NOT SWAP1 DUP2 AND PUSH1 0x3F ADD AND DUP2 ADD PUSH8 0xFFFFFFFFFFFFFFFF DUP2 GT DUP3 DUP3 LT OR ISZERO PUSH2 0x727 JUMPI PUSH2 0x727 PUSH2 0x694 JUMP JUMPDEST PUSH1 0x40 MSTORE DUP2 DUP2 MSTORE DUP3 DUP3 ADD PUSH1 0x20 ADD DUP7 LT ISZERO PUSH2 0x73E JUMPI PUSH0 PUSH0 REVERT JUMPDEST DUP2 PUSH1 0x20 DUP5 ADD PUSH1 0x20 DUP4 ADD CALLDATACOPY PUSH0 SWAP2 DUP2 ADD PUSH1 0x20 ADD SWAP2 SWAP1 SWAP2 MSTORE SWAP5 SWAP4 POP POP POP POP JUMP JUMPDEST PUSH0 PUSH1 0x20 DUP3 DUP5 SUB SLT ISZERO PUSH2 0x76B JUMPI PUSH0 PUSH0 REVERT JUMPDEST POP CALLDATALOAD SWAP2 SWAP1 POP JUMP JUMPDEST PUSH0 DUP2 MLOAD DUP1 DUP5 MSTORE DUP1 PUSH1 0x20 DUP5 ADD PUSH1 0x20 DUP7 ADD MCOPY PUSH0 PUSH1 0x20 DUP3 DUP7 ADD ADD MSTORE PUSH1 0x20 PUSH1 0x1F NOT PUSH1 0x1F DUP4 ADD AND DUP6 ADD ADD SWAP2 POP POP SWAP3 SWAP2 POP POP JUMP JUMPDEST PUSH1 0x20 DUP2 MSTORE PUSH0 PUSH2 0x68D PUSH1 0x20 DUP4 ADD DUP5 PUSH2 0x772 JUMP JUMPDEST PUSH1 0x1 DUP2 DUP2 SHR SWAP1 DUP3 AND DUP1 PUSH2 0x7C6 JUMPI PUSH1 0x7F DUP3 AND SWAP2 POP JUMPDEST PUSH1 0x20 DUP3 LT DUP2 SUB PUSH2 0x7E4 JUMPI PUSH4 0x4E487B71 PUSH1 0xE0 SHL PUSH0 MSTORE PUSH1 0x22 PUSH1 0x4 MSTORE PUSH1 0x24 PUSH0 REVERT JUMPDEST POP SWAP2 SWAP1 POP JUMP JUMPDEST PUSH4 0x4E487B71 PUSH1 0xE0 SHL PUSH0 MSTORE PUSH1 0x11 PUSH1 0x4 MSTORE PUSH1 0x24 PUSH0 REVERT JUMPDEST DUP1 DUP3 ADD DUP1 DUP3 GT ISZERO PUSH2 0x5BF JUMPI PUSH2 0x5BF PUSH2 0x7EA JUMP JUMPDEST PUSH4 0x4E487B71 PUSH1 0xE0 SHL PUSH0 MSTORE PUSH1 0x32 PUSH1 0x4 MSTORE PUSH1 0x24 PUSH0 REVERT JUMPDEST DUP2 DUP2 SUB DUP2 DUP2 GT ISZERO PUSH2 0x5BF JUMPI PUSH2 0x5BF PUSH2 0x7EA JUMP JUMPDEST PUSH1 0x1F DUP3 GT ISZERO PUSH2 0x29C JUMPI DUP1 PUSH0 MSTORE PUSH1 0x20 PUSH0 KECCAK256 PUSH1 0x1F DUP5 ADD PUSH1 0x5 SHR DUP2 ADD PUSH1 0x20 DUP6 LT ISZERO PUSH2 0x85D JUMPI POP DUP1 JUMPDEST PUSH1 0x1F DUP5 ADD PUSH1 0x5 SHR DUP3 ADD SWAP2 POP JUMPDEST DUP2 DUP2 LT ISZERO PUSH2 0x87C JUMPI PUSH0 DUP2 SSTORE PUSH1 0x1 ADD PUSH2 0x869 JUMP JUMPDEST POP POP POP POP POP JUMP JUMPDEST DUP2 MLOAD PUSH8 0xFFFFFFFFFFFFFFFF DUP2 GT ISZERO PUSH2 0x89D JUMPI PUSH2 0x89D PUSH2 0x694 JUMP JUMPDEST PUSH2 0x8B1 DUP2 PUSH2 0x8AB DUP5 SLOAD PUSH2 0x7B2 JUMP JUMPDEST DUP5 PUSH2 0x838 JUMP JUMPDEST PUSH1 0x20 PUSH1 0x1F DUP3 GT PUSH1 0x1 DUP2 EQ PUSH2 0x8E3 JUMPI PUSH0 DUP4 ISZERO PUSH2 0x8CC JUMPI POP DUP5 DUP3 ADD MLOAD JUMPDEST PUSH0 NOT PUSH1 0x3 DUP6 SWAP1 SHL SHR NOT AND PUSH1 0x1 DUP5 SWAP1 SHL OR DUP5 SSTORE PUSH2 0x87C JUMP JUMPDEST PUSH0 DUP5 DUP2 MSTORE PUSH1 0x20 DUP2 KECCAK256 PUSH1 0x1F NOT DUP6 AND SWAP2 JUMPDEST DUP3 DUP2 LT ISZERO PUSH2 0x912 JUMPI DUP8 DUP6 ADD MLOAD DUP3 SSTORE PUSH1 0x20 SWAP5 DUP6 ADD SWAP5 PUSH1 0x1 SWAP1 SWAP3 ADD SWAP2 ADD PUSH2 0x8F2 JUMP JUMPDEST POP DUP5 DUP3 LT ISZERO PUSH2 0x92F JUMPI DUP7 DUP5 ADD MLOAD PUSH0 NOT PUSH1 0x3 DUP8 SWAP1 SHL PUSH1 0xF8 AND SHR NOT AND DUP2 SSTORE JUMPDEST POP POP POP POP PUSH1 0x1 SWAP1 DUP2 SHL ADD SWAP1 SSTORE POP JUMP INVALID LOG2 PUSH5 0x6970667358 0x22 SLT KECCAK256 PC CREATE2 COINBASE 0xD5 BLOBHASH SELFBALANCE PUSH9 0xD6BEAB8759020C52E 0xC7 0x26 0xC5 REVERT 0xC4 LOG1 RJUMPI 0x3091 CALLVALUE PUSH4 0xBB288671 XOR PUSH5 0x736F6C6343 STOP ADDMOD 0x1E STOP CALLER "
		},
		"gasEstimates": {
			"creation": {
				"codeDepositCost": "484000",
				"executionCost": "infinite",
				"totalCost": "infinite"
			},
			"external": {
				"appendToBytes(bytes1)": "infinite",
				"arr1(uint256)": "infinite",
				"b1()": "infinite",
				"clearBytes()": "infinite",
				"clearDynamicArray()": "infinite",
				"getDynamicArrayLength()": "2291",
				"getElement(uint256)": "infinite",
				"getFromDynamicArray(uint256)": "infinite",
				"getLength()": "2491",
				"pushToDynamicArray(bytes)": "infinite",
				"toString()": "infinite"
			}
		},
		"methodIdentifiers": {
			"appendToBytes(bytes1)": "0d273ad1",
			"arr1(uint256)": "6987b1fb",
			"b1()": "ee495002",
			"clearBytes()": "cc082990",
			"clearDynamicArray()": "9f871cd9",
			"getDynamicArrayLength()": "302c3cfa",
			"getElement(uint256)": "3a7d22bc",
			"getFromDynamicArray(uint256)": "48fe810c",
			"getLength()": "be1c766b",
			"pushToDynamicArray(bytes)": "3412fff0",
			"toString()": "47e46806"
		}
	},
	"abi": [
		{
			"inputs": [
				{
					"internalType": "bytes1",
					"name": "newByte",
					"type": "bytes1"
				}
			],
			"name": "appendToBytes",
			"outputs": [],
			"stateMutability": "nonpayable",
			"type": "function"
		},
		{
			"inputs": [
				{
					"internalType": "uint256",
					"name": "",
					"type": "uint256"
				}
			],
			"name": "arr1",
			"outputs": [
				{
					"internalType": "bytes",
					"name": "",
					"type": "bytes"
				}
			],
			"stateMutability": "view",
			"type": "function"
		},
		{
			"inputs": [],
			"name": "b1",
			"outputs": [
				{
					"internalType": "bytes",
					"name": "",
					"type": "bytes"
				}
			],
			"stateMutability": "view",
			"type": "function"
		},
		{
			"inputs": [],
			"name": "clearBytes",
			"outputs": [],
			"stateMutability": "nonpayable",
			"type": "function"
		},
		{
			"inputs": [],
			"name": "clearDynamicArray",
			"outputs": [],
			"stateMutability": "nonpayable",
			"type": "function"
		},
		{
			"inputs": [],
			"name": "getDynamicArrayLength",
			"outputs": [
				{
					"internalType": "uint256",
					"name": "",
					"type": "uint256"
				}
			],
			"stateMutability": "view",
			"type": "function"
		},
		{
			"inputs": [
				{
					"internalType": "uint256",
					"name": "index",
					"type": "uint256"
				}
			],
			"name": "getElement",
			"outputs": [
				{
					"internalType": "bytes1",
					"name": "",
					"type": "bytes1"
				}
			],
			"stateMutability": "view",
			"type": "function"
		},
		{
			"inputs": [
				{
					"internalType": "uint256",
					"name": "index",
					"type": "uint256"
				}
			],
			"name": "getFromDynamicArray",
			"outputs": [
				{
					"internalType": "bytes",
					"name": "",
					"type": "bytes"
				}
			],
			"stateMutability": "view",
			"type": "function"
		},
		{
			"inputs": [],
			"name": "getLength",
			"outputs": [
				{
					"internalType": "uint256",
					"name": "",
					"type": "uint256"
				}
			],
			"stateMutability": "view",
			"type": "function"
		},
		{
			"inputs": [
				{
					"internalType": "bytes",
					"name": "newBytes",
					"type": "bytes"
				}
			],
			"name": "pushToDynamicArray",
			"outputs": [],
			"stateMutability": "nonpayable",
			"type": "function"
		},
		{
			"inputs": [],
			"name": "toString",
			"outputs": [
				{
					"internalType": "string",
					"name": "",
					"type": "string"
				}
			],
			"stateMutability": "view",
			"type": "function"
		}
	]
}