{
	"data": {
		"bytecode": {
			"linkReferences": {},
			"object": "60806040525f805462ffffff191662020100179055610bb86001553480156024575f5ffd5b506102ff806100325f395ff3fe608060405234801561000f575f5ffd5b5060043610610090575f3560e01c80638da5cb5b116100635780638da5cb5b146100ec578063ba13a572146100f4578063d6ae2cdf1461010b578063e650f5361461011e578063f084999214610133575f5ffd5b80631aa356101461009457806362a09477146100b657806375da9f76146100c95780638424c8d8146100da575b5f5ffd5b5f546100a09060ff1681565b6040516100ad919061024f565b60405180910390f35b6100c75f805460ff19166001179055565b005b5f546100a090610100900460ff1681565b5f546100a09062010000900460ff1681565b6100c7610141565b6100fd60015481565b6040519081526020016100ad565b6100c7610119366004610269565b610164565b610126610199565b6040516100ad9190610280565b5f6040516100ad91906102b5565b5f5f5460ff1660028111156101585761015861023b565b03610162575f6001555b565b8060028111156101765761017661023b565b5f805460ff191660018360028111156101915761019161023b565b021790555050565b60605f5f5460ff1660028111156101b2576101b261023b565b036101d95750604080518082019091526007815266105b1b1bddd95960ca1b602082015290565b60015f5460ff1660028111156101f1576101f161023b565b0361021c575060408051808201909152600b81526a139bdd08105b1b1bddd95960aa1b602082015290565b5060408051808201909152600481526315d85a5d60e21b602082015290565b634e487b7160e01b5f52602160045260245ffd5b60208101600383106102635761026361023b565b91905290565b5f60208284031215610279575f5ffd5b5035919050565b602081525f82518060208401528060208501604085015e5f604082850101526040601f19601f83011684010191505092915050565b60208101600583106102635761026361023b56fea2646970667358221220e14fe2dfffd9f3cb28fdafd0ce9bbe2a6346471363f275f0dde229c48e098aaa64736f6c634300081e0033",
			"opcodes": "PUSH1 0x80 PUSH1 0x40 MSTORE PUSH0 DUP1 SLOAD PUSH3 0xFFFFFF NOT AND PUSH3 0x20100 OR SWAP1 SSTORE PUSH2 0xBB8 PUSH1 0x1 SSTORE CALLVALUE DUP1 ISZERO PUSH1 0x24 JUMPI PUSH0 PUSH0 REVERT JUMPDEST POP PUSH2 0x2FF DUP1 PUSH2 0x32 PUSH0 CODECOPY PUSH0 RETURN INVALID PUSH1 0x80 PUSH1 0x40 MSTORE CALLVALUE DUP1 ISZERO PUSH2 0xF JUMPI PUSH0 PUSH0 REVERT JUMPDEST POP PUSH1 0x4 CALLDATASIZE LT PUSH2 0x90 JUMPI PUSH0 CALLDATALOAD PUSH1 0xE0 SHR DUP1 PUSH4 0x8DA5CB5B GT PUSH2 0x63 JUMPI DUP1 PUSH4 0x8DA5CB5B EQ PUSH2 0xEC JUMPI DUP1 PUSH4 0xBA13A572 EQ PUSH2 0xF4 JUMPI DUP1 PUSH4 0xD6AE2CDF EQ PUSH2 0x10B JUMPI DUP1 PUSH4 0xE650F536 EQ PUSH2 0x11E JUMPI DUP1 PUSH4 0xF0849992 EQ PUSH2 0x133 JUMPI PUSH0 PUSH0 REVERT JUMPDEST DUP1 PUSH4 0x1AA35610 EQ PUSH2 0x94 JUMPI DUP1 PUSH4 0x62A09477 EQ PUSH2 0xB6 JUMPI DUP1 PUSH4 0x75DA9F76 EQ PUSH2 0xC9 JUMPI DUP1 PUSH4 0x8424C8D8 EQ PUSH2 0xDA JUMPI JUMPDEST PUSH0 PUSH0 REVERT JUMPDEST PUSH0 SLOAD PUSH2 0xA0 SWAP1 PUSH1 0xFF AND DUP2 JUMP JUMPDEST PUSH1 0x40 MLOAD PUSH2 0xAD SWAP2 SWAP1 PUSH2 0x24F JUMP JUMPDEST PUSH1 0x40 MLOAD DUP1 SWAP2 SUB SWAP1 RETURN JUMPDEST PUSH2 0xC7 PUSH0 DUP1 SLOAD PUSH1 0xFF NOT AND PUSH1 0x1 OR SWAP1 SSTORE JUMP JUMPDEST STOP JUMPDEST PUSH0 SLOAD PUSH2 0xA0 SWAP1 PUSH2 0x100 SWAP1 DIV PUSH1 0xFF AND DUP2 JUMP JUMPDEST PUSH0 SLOAD PUSH2 0xA0 SWAP1 PUSH3 0x10000 SWAP1 DIV PUSH1 0xFF AND DUP2 JUMP JUMPDEST PUSH2 0xC7 PUSH2 0x141 JUMP JUMPDEST PUSH2 0xFD PUSH1 0x1 SLOAD DUP2 JUMP JUMPDEST PUSH1 0x40 MLOAD SWAP1 DUP2 MSTORE PUSH1 0x20 ADD PUSH2 0xAD JUMP JUMPDEST PUSH2 0xC7 PUSH2 0x119 CALLDATASIZE PUSH1 0x4 PUSH2 0x269 JUMP JUMPDEST PUSH2 0x164 JUMP JUMPDEST PUSH2 0x126 PUSH2 0x199 JUMP JUMPDEST PUSH1 0x40 MLOAD PUSH2 0xAD SWAP2 SWAP1 PUSH2 0x280 JUMP JUMPDEST PUSH0 PUSH1 0x40 MLOAD PUSH2 0xAD SWAP2 SWAP1 PUSH2 0x2B5 JUMP JUMPDEST PUSH0 PUSH0 SLOAD PUSH1 0xFF AND PUSH1 0x2 DUP2 GT ISZERO PUSH2 0x158 JUMPI PUSH2 0x158 PUSH2 0x23B JUMP JUMPDEST SUB PUSH2 0x162 JUMPI PUSH0 PUSH1 0x1 SSTORE JUMPDEST JUMP JUMPDEST DUP1 PUSH1 0x2 DUP2 GT ISZERO PUSH2 0x176 JUMPI PUSH2 0x176 PUSH2 0x23B JUMP JUMPDEST PUSH0 DUP1 SLOAD PUSH1 0xFF NOT AND PUSH1 0x1 DUP4 PUSH1 0x2 DUP2 GT ISZERO PUSH2 0x191 JUMPI PUSH2 0x191 PUSH2 0x23B JUMP JUMPDEST MUL OR SWAP1 SSTORE POP POP JUMP JUMPDEST PUSH1 0x60 PUSH0 PUSH0 SLOAD PUSH1 0xFF AND PUSH1 0x2 DUP2 GT ISZERO PUSH2 0x1B2 JUMPI PUSH2 0x1B2 PUSH2 0x23B JUMP JUMPDEST SUB PUSH2 0x1D9 JUMPI POP PUSH1 0x40 DUP1 MLOAD DUP1 DUP3 ADD SWAP1 SWAP2 MSTORE PUSH1 0x7 DUP2 MSTORE PUSH7 0x105B1B1BDDD959 PUSH1 0xCA SHL PUSH1 0x20 DUP3 ADD MSTORE SWAP1 JUMP JUMPDEST PUSH1 0x1 PUSH0 SLOAD PUSH1 0xFF AND PUSH1 0x2 DUP2 GT ISZERO PUSH2 0x1F1 JUMPI PUSH2 0x1F1 PUSH2 0x23B JUMP JUMPDEST SUB PUSH2 0x21C JUMPI POP PUSH1 0x40 DUP1 MLOAD DUP1 DUP3 ADD SWAP1 SWAP2 MSTORE PUSH1 0xB DUP2 MSTORE PUSH11 0x139BDD08105B1B1BDDD959 PUSH1 0xAA SHL PUSH1 0x20 DUP3 ADD MSTORE SWAP1 JUMP JUMPDEST POP PUSH1 0x40 DUP1 MLOAD DUP1 DUP3 ADD SWAP1 SWAP2 MSTORE PUSH1 0x4 DUP2 MSTORE PUSH4 0x15D85A5D PUSH1 0xE2 SHL PUSH1 0x20 DUP3 ADD MSTORE SWAP1 JUMP JUMPDEST PUSH4 0x4E487B71 PUSH1 0xE0 SHL PUSH0 MSTORE PUSH1 0x21 PUSH1 0x4 MSTORE PUSH1 0x24 PUSH0 REVERT JUMPDEST PUSH1 0x20 DUP2 ADD PUSH1 0x3 DUP4 LT PUSH2 0x263 JUMPI PUSH2 0x263 PUSH2 0x23B JUMP JUMPDEST SWAP2 SWAP1 MSTORE SWAP1 JUMP JUMPDEST PUSH0 PUSH1 0x20 DUP3 DUP5 SUB SLT ISZERO PUSH2 0x279 JUMPI PUSH0 PUSH0 REVERT JUMPDEST POP CALLDATALOAD SWAP2 SWAP1 POP JUMP JUMPDEST PUSH1 0x20 DUP2 MSTORE PUSH0 DUP3 MLOAD DUP1 PUSH1 0x20 DUP5 ADD MSTORE DUP1 PUSH1 0x20 DUP6 ADD PUSH1 0x40 DUP6 ADD MCOPY PUSH0 PUSH1 0x40 DUP3 DUP6 ADD ADD MSTORE PUSH1 0x40 PUSH1 0x1F NOT PUSH1 0x1F DUP4 ADD AND DUP5 ADD ADD SWAP2 POP POP SWAP3 SWAP2 POP POP JUMP JUMPDEST PUSH1 0x20 DUP2 ADD PUSH1 0x5 DUP4 LT PUSH2 0x263 JUMPI PUSH2 0x263 PUSH2 0x23B JUMP INVALID LOG2 PUSH5 0x6970667358 0x22 SLT KECCAK256 RJUMPI 0x4FE2 0xDF SELFDESTRUCT 0xD9 RETURN 0xCB 0x28 REVERT 0xAF 0xD0 0xCE SWAP12 0xBE 0x2A PUSH4 0x46471363 CALLCODE PUSH22 0xF0DDE229C48E098AAA64736F6C634300081E00330000 "
		},
		"gasEstimates": {
			"creation": {
				"codeDepositCost": "153400",
				"executionCost": "46523",
				"totalCost": "199923"
			},
			"external": {
				"changeOwner()": "24377",
				"getDefaultSize()": "313",
				"getUserStatus()": "infinite",
				"lottery()": "2316",
				"owner()": "7301",
				"setUserStatus(uint256)": "24553",
				"u1()": "2350",
				"u2()": "2405",
				"u3()": "2427"
			}
		},
		"methodIdentifiers": {
			"changeOwner()": "62a09477",
			"getDefaultSize()": "f0849992",
			"getUserStatus()": "e650f536",
			"lottery()": "ba13a572",
			"owner()": "8da5cb5b",
			"setUserStatus(uint256)": "d6ae2cdf",
			"u1()": "1aa35610",
			"u2()": "75da9f76",
			"u3()": "8424c8d8"
		}
	},
	"abi": [
		{
			"inputs": [],
			"name": "changeOwner",
			"outputs": [],
			"stateMutability": "nonpayable",
			"type": "function"
		},
		{
			"inputs": [],
			"name": "getDefaultSize",
			"outputs": [
				{
					"internalType": "enum enumDemo.size",
					"name": "",
					"type": "uint8"
				}
			],
			"stateMutability": "pure",
			"type": "function"
		},
		{
			"inputs": [],
			"name": "getUserStatus",
			"outputs": [
				{
					"internalType": "string",
					"name": "",
					"type": "string"
				}
			],
			"stateMutability": "view",
			"type": "function"
		},
		{
			"inputs": [],
			"name": "lottery",
			"outputs": [
				{
					"internalType": "uint256",
					"name": "",
					"type": "uint256"
				}
			],
			"stateMutability": "view",
			"type": "function"
		},
		{
			"inputs": [],
			"name": "owner",
			"outputs": [],
			"stateMutability": "nonpayable",
			"type": "function"
		},
		{
			"inputs": [
				{
					"internalType": "uint256",
					"name": "newStatus",
					"type": "uint256"
				}
			],
			"name": "setUserStatus",
			"outputs": [],
			"stateMutability": "nonpayable",
			"type": "function"
		},
		{
			"inputs": [],
			"name": "u1",
			"outputs": [
				{
					"internalType": "enum enumDemo.user",
					"name": "",
					"type": "uint8"
				}
			],
			"stateMutability": "view",
			"type": "function"
		},
		{
			"inputs": [],
			"name": "u2",
			"outputs": [
				{
					"internalType": "enum enumDemo.user",
					"name": "",
					"type": "uint8"
				}
			],
			"stateMutability": "view",
			"type": "function"
		},
		{
			"inputs": [],
			"name": "u3",
			"outputs": [
				{
					"internalType": "enum enumDemo.user",
					"name": "",
					"type": "uint8"
				}
			],
			"stateMutability": "view",
			"type": "function"
		}
	]
}