{
	"data": {
		"bytecode": {
			"linkReferences": {},
			"object": "6080604052607f6002556003805465ffffffffffff191665fffe1dc0fb2f17905560176004556005805462ffffff1916626758ff1790553480156040575f5ffd5b506101dd8061004e5f395ff3fe608060405234801561000f575f5ffd5b506004361061004a575f3560e01c806322800a811461004e57806334afb39d14610076578063771602f714610099578063e6cb9013146100ba575b5f5ffd5b61006161005c366004610151565b6100cd565b60405190151581526020015b60405180910390f35b610087610084366004610171565b90565b60405160ff909116815260200161006d565b6100ac6100a7366004610151565b6100d7565b60405190815260200161006d565b6100ac6100c8366004610151565b6100e9565b8082115b92915050565b5f6100e28284610188565b9392505050565b5f826100f58382610188565b10156101475760405162461bcd60e51b815260206004820152601960248201527f496e7465676572206f766572666c6f7720646574656374656400000000000000604482015260640160405180910390fd5b6100e28284610188565b5f5f60408385031215610162575f5ffd5b50508035926020909101359150565b5f60208284031215610181575f5ffd5b5035919050565b808201808211156100d157634e487b7160e01b5f52601160045260245ffdfea2646970667358221220c7e2584e70c3d4be0f9eb78f9b60eaadaa5698a548b1451ebf880d209ff021d764736f6c634300081e0033",
			"opcodes": "PUSH1 0x80 PUSH1 0x40 MSTORE PUSH1 0x7F PUSH1 0x2 SSTORE PUSH1 0x3 DUP1 SLOAD PUSH6 0xFFFFFFFFFFFF NOT AND PUSH6 0xFFFE1DC0FB2F OR SWAP1 SSTORE PUSH1 0x17 PUSH1 0x4 SSTORE PUSH1 0x5 DUP1 SLOAD PUSH3 0xFFFFFF NOT AND PUSH3 0x6758FF OR SWAP1 SSTORE CALLVALUE DUP1 ISZERO PUSH1 0x40 JUMPI PUSH0 PUSH0 REVERT JUMPDEST POP PUSH2 0x1DD DUP1 PUSH2 0x4E PUSH0 CODECOPY PUSH0 RETURN INVALID PUSH1 0x80 PUSH1 0x40 MSTORE CALLVALUE DUP1 ISZERO PUSH2 0xF JUMPI PUSH0 PUSH0 REVERT JUMPDEST POP PUSH1 0x4 CALLDATASIZE LT PUSH2 0x4A JUMPI PUSH0 CALLDATALOAD PUSH1 0xE0 SHR DUP1 PUSH4 0x22800A81 EQ PUSH2 0x4E JUMPI DUP1 PUSH4 0x34AFB39D EQ PUSH2 0x76 JUMPI DUP1 PUSH4 0x771602F7 EQ PUSH2 0x99 JUMPI DUP1 PUSH4 0xE6CB9013 EQ PUSH2 0xBA JUMPI JUMPDEST PUSH0 PUSH0 REVERT JUMPDEST PUSH2 0x61 PUSH2 0x5C CALLDATASIZE PUSH1 0x4 PUSH2 0x151 JUMP JUMPDEST PUSH2 0xCD JUMP JUMPDEST PUSH1 0x40 MLOAD SWAP1 ISZERO ISZERO DUP2 MSTORE PUSH1 0x20 ADD JUMPDEST PUSH1 0x40 MLOAD DUP1 SWAP2 SUB SWAP1 RETURN JUMPDEST PUSH2 0x87 PUSH2 0x84 CALLDATASIZE PUSH1 0x4 PUSH2 0x171 JUMP JUMPDEST SWAP1 JUMP JUMPDEST PUSH1 0x40 MLOAD PUSH1 0xFF SWAP1 SWAP2 AND DUP2 MSTORE PUSH1 0x20 ADD PUSH2 0x6D JUMP JUMPDEST PUSH2 0xAC PUSH2 0xA7 CALLDATASIZE PUSH1 0x4 PUSH2 0x151 JUMP JUMPDEST PUSH2 0xD7 JUMP JUMPDEST PUSH1 0x40 MLOAD SWAP1 DUP2 MSTORE PUSH1 0x20 ADD PUSH2 0x6D JUMP JUMPDEST PUSH2 0xAC PUSH2 0xC8 CALLDATASIZE PUSH1 0x4 PUSH2 0x151 JUMP JUMPDEST PUSH2 0xE9 JUMP JUMPDEST DUP1 DUP3 GT JUMPDEST SWAP3 SWAP2 POP POP JUMP JUMPDEST PUSH0 PUSH2 0xE2 DUP3 DUP5 PUSH2 0x188 JUMP JUMPDEST SWAP4 SWAP3 POP POP POP JUMP JUMPDEST PUSH0 DUP3 PUSH2 0xF5 DUP4 DUP3 PUSH2 0x188 JUMP JUMPDEST LT ISZERO PUSH2 0x147 JUMPI PUSH1 0x40 MLOAD PUSH3 0x461BCD PUSH1 0xE5 SHL DUP2 MSTORE PUSH1 0x20 PUSH1 0x4 DUP3 ADD MSTORE PUSH1 0x19 PUSH1 0x24 DUP3 ADD MSTORE PUSH32 0x496E7465676572206F766572666C6F7720646574656374656400000000000000 PUSH1 0x44 DUP3 ADD MSTORE PUSH1 0x64 ADD PUSH1 0x40 MLOAD DUP1 SWAP2 SUB SWAP1 REVERT JUMPDEST PUSH2 0xE2 DUP3 DUP5 PUSH2 0x188 JUMP JUMPDEST PUSH0 PUSH0 PUSH1 0x40 DUP4 DUP6 SUB SLT ISZERO PUSH2 0x162 JUMPI PUSH0 PUSH0 REVERT JUMPDEST POP POP DUP1 CALLDATALOAD SWAP3 PUSH1 0x20 SWAP1 SWAP2 ADD CALLDATALOAD SWAP2 POP JUMP JUMPDEST PUSH0 PUSH1 0x20 DUP3 DUP5 SUB SLT ISZERO PUSH2 0x181 JUMPI PUSH0 PUSH0 REVERT JUMPDEST POP CALLDATALOAD SWAP2 SWAP1 POP JUMP JUMPDEST DUP1 DUP3 ADD DUP1 DUP3 GT ISZERO PUSH2 0xD1 JUMPI PUSH4 0x4E487B71 PUSH1 0xE0 SHL PUSH0 MSTORE PUSH1 0x11 PUSH1 0x4 MSTORE PUSH1 0x24 PUSH0 REVERT INVALID LOG2 PUSH5 0x6970667358 0x22 SLT KECCAK256 0xC7 0xE2 PC 0x4E PUSH17 0xC3D4BE0F9EB78F9B60EAADAA5698A548B1 GASLIMIT 0x1E 0xBF DUP9 0xD KECCAK256 SWAP16 CREATE 0x21 0xD7 PUSH5 0x736F6C6343 STOP ADDMOD 0x1E STOP CALLER "
		},
		"gasEstimates": {
			"creation": {
				"codeDepositCost": "95400",
				"executionCost": "92799",
				"totalCost": "188199"
			},
			"external": {
				"add(uint256,uint256)": "409",
				"convertToUint8(uint256)": "276",
				"isGreater(uint256,uint256)": "291",
				"safeAdd(uint256,uint256)": "infinite"
			}
		},
		"methodIdentifiers": {
			"add(uint256,uint256)": "771602f7",
			"convertToUint8(uint256)": "34afb39d",
			"isGreater(uint256,uint256)": "22800a81",
			"safeAdd(uint256,uint256)": "e6cb9013"
		}
	},
	"abi": [
		{
			"inputs": [
				{
					"internalType": "uint256",
					"name": "x",
					"type": "uint256"
				},
				{
					"internalType": "uint256",
					"name": "y",
					"type": "uint256"
				}
			],
			"name": "add",
			"outputs": [
				{
					"internalType": "uint256",
					"name": "",
					"type": "uint256"
				}
			],
			"stateMutability": "pure",
			"type": "function"
		},
		{
			"inputs": [
				{
					"internalType": "uint256",
					"name": "largeNumber",
					"type": "uint256"
				}
			],
			"name": "convertToUint8",
			"outputs": [
				{
					"internalType": "uint8",
					"name": "",
					"type": "uint8"
				}
			],
			"stateMutability": "pure",
			"type": "function"
		},
		{
			"inputs": [
				{
					"internalType": "uint256",
					"name": "a",
					"type": "uint256"
				},
				{
					"internalType": "uint256",
					"name": "b",
					"type": "uint256"
				}
			],
			"name": "isGreater",
			"outputs": [
				{
					"internalType": "bool",
					"name": "",
					"type": "bool"
				}
			],
			"stateMutability": "pure",
			"type": "function"
		},
		{
			"inputs": [
				{
					"internalType": "uint256",
					"name": "a",
					"type": "uint256"
				},
				{
					"internalType": "uint256",
					"name": "b",
					"type": "uint256"
				}
			],
			"name": "safeAdd",
			"outputs": [
				{
					"internalType": "uint256",
					"name": "",
					"type": "uint256"
				}
			],
			"stateMutability": "pure",
			"type": "function"
		}
	]
}