{
	"data": {
		"bytecode": {
			"linkReferences": {},
			"object": "6080604052600a5f553480156012575f5ffd5b5060d480601e5f395ff3fe6080604052348015600e575f5ffd5b5060043610604e575f3560e01c8063262a9dff146052578063301b4c9114606b5780636d4ce63c146071578063993a04b7146071578063d5dcf127146077575b5f5ffd5b60595f5481565b60405190815260200160405180910390f35b60646059565b5f546059565b608660823660046088565b5f55565b005b5f602082840312156097575f5ffd5b503591905056fea2646970667358221220bf84ab47d55a14bb2818d2e0467853b723cc24fa516ae8750289f9aad432847964736f6c634300081e0033",
			"opcodes": "PUSH1 0x80 PUSH1 0x40 MSTORE PUSH1 0xA PUSH0 SSTORE CALLVALUE DUP1 ISZERO PUSH1 0x12 JUMPI PUSH0 PUSH0 REVERT JUMPDEST POP PUSH1 0xD4 DUP1 PUSH1 0x1E PUSH0 CODECOPY PUSH0 RETURN INVALID PUSH1 0x80 PUSH1 0x40 MSTORE CALLVALUE DUP1 ISZERO PUSH1 0xE JUMPI PUSH0 PUSH0 REVERT JUMPDEST POP PUSH1 0x4 CALLDATASIZE LT PUSH1 0x4E JUMPI PUSH0 CALLDATALOAD PUSH1 0xE0 SHR DUP1 PUSH4 0x262A9DFF EQ PUSH1 0x52 JUMPI DUP1 PUSH4 0x301B4C91 EQ PUSH1 0x6B JUMPI DUP1 PUSH4 0x6D4CE63C EQ PUSH1 0x71 JUMPI DUP1 PUSH4 0x993A04B7 EQ PUSH1 0x71 JUMPI DUP1 PUSH4 0xD5DCF127 EQ PUSH1 0x77 JUMPI JUMPDEST PUSH0 PUSH0 REVERT JUMPDEST PUSH1 0x59 PUSH0 SLOAD DUP2 JUMP JUMPDEST PUSH1 0x40 MLOAD SWAP1 DUP2 MSTORE PUSH1 0x20 ADD PUSH1 0x40 MLOAD DUP1 SWAP2 SUB SWAP1 RETURN JUMPDEST PUSH1 0x64 PUSH1 0x59 JUMP JUMPDEST PUSH0 SLOAD PUSH1 0x59 JUMP JUMPDEST PUSH1 0x86 PUSH1 0x82 CALLDATASIZE PUSH1 0x4 PUSH1 0x88 JUMP JUMPDEST PUSH0 SSTORE JUMP JUMPDEST STOP JUMPDEST PUSH0 PUSH1 0x20 DUP3 DUP5 SUB SLT ISZERO PUSH1 0x97 JUMPI PUSH0 PUSH0 REVERT JUMPDEST POP CALLDATALOAD SWAP2 SWAP1 POP JUMP INVALID LOG2 PUSH5 0x6970667358 0x22 SLT KECCAK256 0xBF DUP5 0xAB SELFBALANCE 0xD5 GAS EQ 0xBB 0x28 XOR 0xD2 RJUMP 0x4678 MSTORE8 0xB7 0x23 0xCC 0x24 STATICCALL MLOAD PUSH11 0xE8750289F9AAD432847964 PUSH20 0x6F6C634300081E00330000000000000000000000 "
		},
		"gasEstimates": {
			"creation": {
				"codeDepositCost": "42400",
				"executionCost": "22196",
				"totalCost": "64596"
			},
			"external": {
				"age()": "2259",
				"get()": "2300",
				"getter()": "2322",
				"newGetter()": "179",
				"setAge(uint256)": "22375"
			}
		},
		"methodIdentifiers": {
			"age()": "262a9dff",
			"get()": "6d4ce63c",
			"getter()": "993a04b7",
			"newGetter()": "301b4c91",
			"setAge(uint256)": "d5dcf127"
		}
	},
	"abi": [
		{
			"inputs": [],
			"name": "age",
			"outputs": [
				{
					"internalType": "uint256",
					"name": "",
					"type": "uint256"
				}
			],
			"stateMutability": "view",
			"type": "function"
		},
		{
			"inputs": [],
			"name": "get",
			"outputs": [
				{
					"internalType": "uint256",
					"name": "",
					"type": "uint256"
				}
			],
			"stateMutability": "view",
			"type": "function"
		},
		{
			"inputs": [],
			"name": "getter",
			"outputs": [
				{
					"internalType": "uint256",
					"name": "",
					"type": "uint256"
				}
			],
			"stateMutability": "view",
			"type": "function"
		},
		{
			"inputs": [],
			"name": "newGetter",
			"outputs": [
				{
					"internalType": "uint256",
					"name": "",
					"type": "uint256"
				}
			],
			"stateMutability": "pure",
			"type": "function"
		},
		{
			"inputs": [
				{
					"internalType": "uint256",
					"name": "_newAge",
					"type": "uint256"
				}
			],
			"name": "setAge",
			"outputs": [],
			"stateMutability": "nonpayable",
			"type": "function"
		}
	]
}