{
	"data": {
		"bytecode": {
			"linkReferences": {},
			"object": "60806040525f6003553480156012575f5ffd5b50610503806100205f395ff3fe608060405234801561000f575f5ffd5b50600436106100a6575f3560e01c8063a87d942c1161006e578063a87d942c146100fe578063a92100cb14610106578063bc68f9601461010e578063be1c766b14610116578063d504ea1d1461011d578063d826f88f14610132575f5ffd5b806302a2cf0b146100aa57806306661abd146100b45780632cd0936e146100d0578063587171c4146100e357806371e5ee5f146100eb575b5f5ffd5b6100b261013a565b005b6100bd60035481565b6040519081526020015b60405180910390f35b6100b26100de3660046103f6565b610172565b6100b261024d565b6100bd6100f9366004610416565b610288565b6003546100bd565b6100b261029d565b6100b26102ef565b60036100bd565b61012561031d565b6040516100c7919061042d565b6100b2610357565b6003545f600354600381106101515761015161045d565b015560038054905f61016283610485565b9190505550600380541061013a57565b60038111156101c85760405162461bcd60e51b815260206004820152601760248201527f456e6420696e646578206f7574206f6620626f756e647300000000000000000060448201526064015b60405180910390fd5b8082106102175760405162461bcd60e51b815260206004820152601b60248201527f5374617274206d757374206265206c657373207468616e20656e64000000000060448201526064016101bf565b815b818110156102485761022c81600261049d565b5f826003811061023e5761023e61045d565b0155600101610219565b505050565b6003545b600381101561028557805f826003811061026d5761026d61045d565b015561027a8160016104ba565b600355600101610251565b50565b5f8160038110610296575f80fd5b0154905081565b60025b600380541015610285576102b581600261049d565b5f600354600381106102c9576102c961045d565b01556102d68160036104ba565b905060035460016102e791906104ba565b6003556102a0565b6003545b6003811015610285576003545f600354600381106103135761031361045d565b01556001016102f3565b610325610381565b604080516060810191829052905f9060039082845b81548152602001906001019080831161033a575050505050905090565b5f60038181556040805160608101825283815260208101849052908101839052610285929161039f565b60405180606001604052806003906020820280368337509192915050565b82600381019282156103d2579160200282015b828111156103d2578251829060ff169055916020019190600101906103b2565b506103de9291506103e2565b5090565b5b808211156103de575f81556001016103e3565b5f5f60408385031215610407575f5ffd5b50508035926020909101359150565b5f60208284031215610426575f5ffd5b5035919050565b6060810181835f5b6003811015610454578151835260209283019290910190600101610435565b50505092915050565b634e487b7160e01b5f52603260045260245ffd5b634e487b7160e01b5f52601160045260245ffd5b5f6001820161049657610496610471565b5060010190565b80820281158282048414176104b4576104b4610471565b92915050565b808201808211156104b4576104b461047156fea26469706673582212209de9dc8b64fb795d4074451f513f70a9a7680e906dc1865e41f40b30aeed9d7664736f6c634300081e0033",
			"opcodes": "PUSH1 0x80 PUSH1 0x40 MSTORE PUSH0 PUSH1 0x3 SSTORE CALLVALUE DUP1 ISZERO PUSH1 0x12 JUMPI PUSH0 PUSH0 REVERT JUMPDEST POP PUSH2 0x503 DUP1 PUSH2 0x20 PUSH0 CODECOPY PUSH0 RETURN INVALID PUSH1 0x80 PUSH1 0x40 MSTORE CALLVALUE DUP1 ISZERO PUSH2 0xF JUMPI PUSH0 PUSH0 REVERT JUMPDEST POP PUSH1 0x4 CALLDATASIZE LT PUSH2 0xA6 JUMPI PUSH0 CALLDATALOAD PUSH1 0xE0 SHR DUP1 PUSH4 0xA87D942C GT PUSH2 0x6E JUMPI DUP1 PUSH4 0xA87D942C EQ PUSH2 0xFE JUMPI DUP1 PUSH4 0xA92100CB EQ PUSH2 0x106 JUMPI DUP1 PUSH4 0xBC68F960 EQ PUSH2 0x10E JUMPI DUP1 PUSH4 0xBE1C766B EQ PUSH2 0x116 JUMPI DUP1 PUSH4 0xD504EA1D EQ PUSH2 0x11D JUMPI DUP1 PUSH4 0xD826F88F EQ PUSH2 0x132 JUMPI PUSH0 PUSH0 REVERT JUMPDEST DUP1 PUSH4 0x2A2CF0B EQ PUSH2 0xAA JUMPI DUP1 PUSH4 0x6661ABD EQ PUSH2 0xB4 JUMPI DUP1 PUSH4 0x2CD0936E EQ PUSH2 0xD0 JUMPI DUP1 PUSH4 0x587171C4 EQ PUSH2 0xE3 JUMPI DUP1 PUSH4 0x71E5EE5F EQ PUSH2 0xEB JUMPI JUMPDEST PUSH0 PUSH0 REVERT JUMPDEST PUSH2 0xB2 PUSH2 0x13A JUMP JUMPDEST STOP JUMPDEST PUSH2 0xBD PUSH1 0x3 SLOAD DUP2 JUMP JUMPDEST PUSH1 0x40 MLOAD SWAP1 DUP2 MSTORE PUSH1 0x20 ADD JUMPDEST PUSH1 0x40 MLOAD DUP1 SWAP2 SUB SWAP1 RETURN JUMPDEST PUSH2 0xB2 PUSH2 0xDE CALLDATASIZE PUSH1 0x4 PUSH2 0x3F6 JUMP JUMPDEST PUSH2 0x172 JUMP JUMPDEST PUSH2 0xB2 PUSH2 0x24D JUMP JUMPDEST PUSH2 0xBD PUSH2 0xF9 CALLDATASIZE PUSH1 0x4 PUSH2 0x416 JUMP JUMPDEST PUSH2 0x288 JUMP JUMPDEST PUSH1 0x3 SLOAD PUSH2 0xBD JUMP JUMPDEST PUSH2 0xB2 PUSH2 0x29D JUMP JUMPDEST PUSH2 0xB2 PUSH2 0x2EF JUMP JUMPDEST PUSH1 0x3 PUSH2 0xBD JUMP JUMPDEST PUSH2 0x125 PUSH2 0x31D JUMP JUMPDEST PUSH1 0x40 MLOAD PUSH2 0xC7 SWAP2 SWAP1 PUSH2 0x42D JUMP JUMPDEST PUSH2 0xB2 PUSH2 0x357 JUMP JUMPDEST PUSH1 0x3 SLOAD PUSH0 PUSH1 0x3 SLOAD PUSH1 0x3 DUP2 LT PUSH2 0x151 JUMPI PUSH2 0x151 PUSH2 0x45D JUMP JUMPDEST ADD SSTORE PUSH1 0x3 DUP1 SLOAD SWAP1 PUSH0 PUSH2 0x162 DUP4 PUSH2 0x485 JUMP JUMPDEST SWAP2 SWAP1 POP SSTORE POP PUSH1 0x3 DUP1 SLOAD LT PUSH2 0x13A JUMPI JUMP JUMPDEST PUSH1 0x3 DUP2 GT ISZERO PUSH2 0x1C8 JUMPI PUSH1 0x40 MLOAD PUSH3 0x461BCD PUSH1 0xE5 SHL DUP2 MSTORE PUSH1 0x20 PUSH1 0x4 DUP3 ADD MSTORE PUSH1 0x17 PUSH1 0x24 DUP3 ADD MSTORE PUSH32 0x456E6420696E646578206F7574206F6620626F756E6473000000000000000000 PUSH1 0x44 DUP3 ADD MSTORE PUSH1 0x64 ADD JUMPDEST PUSH1 0x40 MLOAD DUP1 SWAP2 SUB SWAP1 REVERT JUMPDEST DUP1 DUP3 LT PUSH2 0x217 JUMPI PUSH1 0x40 MLOAD PUSH3 0x461BCD PUSH1 0xE5 SHL DUP2 MSTORE PUSH1 0x20 PUSH1 0x4 DUP3 ADD MSTORE PUSH1 0x1B PUSH1 0x24 DUP3 ADD MSTORE PUSH32 0x5374617274206D757374206265206C657373207468616E20656E640000000000 PUSH1 0x44 DUP3 ADD MSTORE PUSH1 0x64 ADD PUSH2 0x1BF JUMP JUMPDEST DUP2 JUMPDEST DUP2 DUP2 LT ISZERO PUSH2 0x248 JUMPI PUSH2 0x22C DUP2 PUSH1 0x2 PUSH2 0x49D JUMP JUMPDEST PUSH0 DUP3 PUSH1 0x3 DUP2 LT PUSH2 0x23E JUMPI PUSH2 0x23E PUSH2 0x45D JUMP JUMPDEST ADD SSTORE PUSH1 0x1 ADD PUSH2 0x219 JUMP JUMPDEST POP POP POP JUMP JUMPDEST PUSH1 0x3 SLOAD JUMPDEST PUSH1 0x3 DUP2 LT ISZERO PUSH2 0x285 JUMPI DUP1 PUSH0 DUP3 PUSH1 0x3 DUP2 LT PUSH2 0x26D JUMPI PUSH2 0x26D PUSH2 0x45D JUMP JUMPDEST ADD SSTORE PUSH2 0x27A DUP2 PUSH1 0x1 PUSH2 0x4BA JUMP JUMPDEST PUSH1 0x3 SSTORE PUSH1 0x1 ADD PUSH2 0x251 JUMP JUMPDEST POP JUMP JUMPDEST PUSH0 DUP2 PUSH1 0x3 DUP2 LT PUSH2 0x296 JUMPI PUSH0 DUP1 REVERT JUMPDEST ADD SLOAD SWAP1 POP DUP2 JUMP JUMPDEST PUSH1 0x2 JUMPDEST PUSH1 0x3 DUP1 SLOAD LT ISZERO PUSH2 0x285 JUMPI PUSH2 0x2B5 DUP2 PUSH1 0x2 PUSH2 0x49D JUMP JUMPDEST PUSH0 PUSH1 0x3 SLOAD PUSH1 0x3 DUP2 LT PUSH2 0x2C9 JUMPI PUSH2 0x2C9 PUSH2 0x45D JUMP JUMPDEST ADD SSTORE PUSH2 0x2D6 DUP2 PUSH1 0x3 PUSH2 0x4BA JUMP JUMPDEST SWAP1 POP PUSH1 0x3 SLOAD PUSH1 0x1 PUSH2 0x2E7 SWAP2 SWAP1 PUSH2 0x4BA JUMP JUMPDEST PUSH1 0x3 SSTORE PUSH2 0x2A0 JUMP JUMPDEST PUSH1 0x3 SLOAD JUMPDEST PUSH1 0x3 DUP2 LT ISZERO PUSH2 0x285 JUMPI PUSH1 0x3 SLOAD PUSH0 PUSH1 0x3 SLOAD PUSH1 0x3 DUP2 LT PUSH2 0x313 JUMPI PUSH2 0x313 PUSH2 0x45D JUMP JUMPDEST ADD SSTORE PUSH1 0x1 ADD PUSH2 0x2F3 JUMP JUMPDEST PUSH2 0x325 PUSH2 0x381 JUMP JUMPDEST PUSH1 0x40 DUP1 MLOAD PUSH1 0x60 DUP2 ADD SWAP2 DUP3 SWAP1 MSTORE SWAP1 PUSH0 SWAP1 PUSH1 0x3 SWAP1 DUP3 DUP5 JUMPDEST DUP2 SLOAD DUP2 MSTORE PUSH1 0x20 ADD SWAP1 PUSH1 0x1 ADD SWAP1 DUP1 DUP4 GT PUSH2 0x33A JUMPI POP POP POP POP POP SWAP1 POP SWAP1 JUMP JUMPDEST PUSH0 PUSH1 0x3 DUP2 DUP2 SSTORE PUSH1 0x40 DUP1 MLOAD PUSH1 0x60 DUP2 ADD DUP3 MSTORE DUP4 DUP2 MSTORE PUSH1 0x20 DUP2 ADD DUP5 SWAP1 MSTORE SWAP1 DUP2 ADD DUP4 SWAP1 MSTORE PUSH2 0x285 SWAP3 SWAP2 PUSH2 0x39F JUMP JUMPDEST PUSH1 0x40 MLOAD DUP1 PUSH1 0x60 ADD PUSH1 0x40 MSTORE DUP1 PUSH1 0x3 SWAP1 PUSH1 0x20 DUP3 MUL DUP1 CALLDATASIZE DUP4 CALLDATACOPY POP SWAP2 SWAP3 SWAP2 POP POP JUMP JUMPDEST DUP3 PUSH1 0x3 DUP2 ADD SWAP3 DUP3 ISZERO PUSH2 0x3D2 JUMPI SWAP2 PUSH1 0x20 MUL DUP3 ADD JUMPDEST DUP3 DUP2 GT ISZERO PUSH2 0x3D2 JUMPI DUP3 MLOAD DUP3 SWAP1 PUSH1 0xFF AND SWAP1 SSTORE SWAP2 PUSH1 0x20 ADD SWAP2 SWAP1 PUSH1 0x1 ADD SWAP1 PUSH2 0x3B2 JUMP JUMPDEST POP PUSH2 0x3DE SWAP3 SWAP2 POP PUSH2 0x3E2 JUMP JUMPDEST POP SWAP1 JUMP JUMPDEST JUMPDEST DUP1 DUP3 GT ISZERO PUSH2 0x3DE JUMPI PUSH0 DUP2 SSTORE PUSH1 0x1 ADD PUSH2 0x3E3 JUMP JUMPDEST PUSH0 PUSH0 PUSH1 0x40 DUP4 DUP6 SUB SLT ISZERO PUSH2 0x407 JUMPI PUSH0 PUSH0 REVERT JUMPDEST POP POP DUP1 CALLDATALOAD SWAP3 PUSH1 0x20 SWAP1 SWAP2 ADD CALLDATALOAD SWAP2 POP JUMP JUMPDEST PUSH0 PUSH1 0x20 DUP3 DUP5 SUB SLT ISZERO PUSH2 0x426 JUMPI PUSH0 PUSH0 REVERT JUMPDEST POP CALLDATALOAD SWAP2 SWAP1 POP JUMP JUMPDEST PUSH1 0x60 DUP2 ADD DUP2 DUP4 PUSH0 JUMPDEST PUSH1 0x3 DUP2 LT ISZERO PUSH2 0x454 JUMPI DUP2 MLOAD DUP4 MSTORE PUSH1 0x20 SWAP3 DUP4 ADD SWAP3 SWAP1 SWAP2 ADD SWAP1 PUSH1 0x1 ADD PUSH2 0x435 JUMP JUMPDEST POP POP POP SWAP3 SWAP2 POP POP JUMP JUMPDEST PUSH4 0x4E487B71 PUSH1 0xE0 SHL PUSH0 MSTORE PUSH1 0x32 PUSH1 0x4 MSTORE PUSH1 0x24 PUSH0 REVERT JUMPDEST PUSH4 0x4E487B71 PUSH1 0xE0 SHL PUSH0 MSTORE PUSH1 0x11 PUSH1 0x4 MSTORE PUSH1 0x24 PUSH0 REVERT JUMPDEST PUSH0 PUSH1 0x1 DUP3 ADD PUSH2 0x496 JUMPI PUSH2 0x496 PUSH2 0x471 JUMP JUMPDEST POP PUSH1 0x1 ADD SWAP1 JUMP JUMPDEST DUP1 DUP3 MUL DUP2 ISZERO DUP3 DUP3 DIV DUP5 EQ OR PUSH2 0x4B4 JUMPI PUSH2 0x4B4 PUSH2 0x471 JUMP JUMPDEST SWAP3 SWAP2 POP POP JUMP JUMPDEST DUP1 DUP3 ADD DUP1 DUP3 GT ISZERO PUSH2 0x4B4 JUMPI PUSH2 0x4B4 PUSH2 0x471 JUMP INVALID LOG2 PUSH5 0x6970667358 0x22 SLT KECCAK256 SWAP14 0xE9 0xDC DUP12 PUSH5 0xFB795D4074 GASLIMIT 0x1F MLOAD EXTCODEHASH PUSH17 0xA9A7680E906DC1865E41F40B30AEED9D76 PUSH5 0x736F6C6343 STOP ADDMOD 0x1E STOP CALLER "
		},
		"gasEstimates": {
			"creation": {
				"codeDepositCost": "256600",
				"executionCost": "5303",
				"totalCost": "261903"
			},
			"external": {
				"arr(uint256)": "2493",
				"count()": "2306",
				"dowhile()": "infinite",
				"fixedForLoop()": "infinite",
				"forloop()": "infinite",
				"getArray()": "infinite",
				"getCount()": "2280",
				"getLength()": "246",
				"loop()": "infinite",
				"reset()": "infinite",
				"safeForLoop(uint256,uint256)": "infinite"
			}
		},
		"methodIdentifiers": {
			"arr(uint256)": "71e5ee5f",
			"count()": "06661abd",
			"dowhile()": "02a2cf0b",
			"fixedForLoop()": "587171c4",
			"forloop()": "bc68f960",
			"getArray()": "d504ea1d",
			"getCount()": "a87d942c",
			"getLength()": "be1c766b",
			"loop()": "a92100cb",
			"reset()": "d826f88f",
			"safeForLoop(uint256,uint256)": "2cd0936e"
		}
	},
	"abi": [
		{
			"inputs": [
				{
					"internalType": "uint256",
					"name": "",
					"type": "uint256"
				}
			],
			"name": "arr",
			"outputs": [
				{
					"internalType": "uint256",
					"name": "",
					"type": "uint256"
				}
			],
			"stateMutability": "view",
			"type": "function"
		},
		{
			"inputs": [],
			"name": "count",
			"outputs": [
				{
					"internalType": "uint256",
					"name": "",
					"type": "uint256"
				}
			],
			"stateMutability": "view",
			"type": "function"
		},
		{
			"inputs": [],
			"name": "dowhile",
			"outputs": [],
			"stateMutability": "nonpayable",
			"type": "function"
		},
		{
			"inputs": [],
			"name": "fixedForLoop",
			"outputs": [],
			"stateMutability": "nonpayable",
			"type": "function"
		},
		{
			"inputs": [],
			"name": "forloop",
			"outputs": [],
			"stateMutability": "nonpayable",
			"type": "function"
		},
		{
			"inputs": [],
			"name": "getArray",
			"outputs": [
				{
					"internalType": "uint256[3]",
					"name": "",
					"type": "uint256[3]"
				}
			],
			"stateMutability": "view",
			"type": "function"
		},
		{
			"inputs": [],
			"name": "getCount",
			"outputs": [
				{
					"internalType": "uint256",
					"name": "",
					"type": "uint256"
				}
			],
			"stateMutability": "view",
			"type": "function"
		},
		{
			"inputs": [],
			"name": "getLength",
			"outputs": [
				{
					"internalType": "uint256",
					"name": "",
					"type": "uint256"
				}
			],
			"stateMutability": "view",
			"type": "function"
		},
		{
			"inputs": [],
			"name": "loop",
			"outputs": [],
			"stateMutability": "nonpayable",
			"type": "function"
		},
		{
			"inputs": [],
			"name": "reset",
			"outputs": [],
			"stateMutability": "nonpayable",
			"type": "function"
		},
		{
			"inputs": [
				{
					"internalType": "uint256",
					"name": "startIndex",
					"type": "uint256"
				},
				{
					"internalType": "uint256",
					"name": "endIndex",
					"type": "uint256"
				}
			],
			"name": "safeForLoop",
			"outputs": [],
			"stateMutability": "nonpayable",
			"type": "function"
		}
	]
}