{
	"data": {
		"bytecode": {
			"linkReferences": {},
			"object": "60806040525f805460ff191660ff179055348015601a575f5ffd5b50610220806100285f395ff3fe608060405234801561000f575f5ffd5b506004361061007a575f3560e01c80633f3108f7116100585780633f3108f7146100cc5780634ddd108a146100d457806380945bfb146100e057806398e1b410146100e8575f5ffd5b806301efc4501461007e5780632baeceb7146100b15780633db598b0146100bb575b5f5ffd5b61009b5f805460ff8082166001011660ff19909116811790915590565b60405160ff909116815260200160405180910390f35b6100b96100f2565b005b6100b95f805460ff191660ff179055565b6100b9610118565b5f5461009b9060ff1681565b6100b9610128565b5f5460ff1661009b565b5f546101039060019060ff166101b2565b5f805460ff191660ff92909216919091179055565b5f546101039060ff1660016101d1565b5f5460ff908116106101185760405162461bcd60e51b815260206004820152603560248201527f4f766572666c6f773a2043616e6e6f7420696e6372656d656e74206265796f6e60448201527464206d6178696d756d2075696e74382076616c756560581b606482015260840160405180910390fd5b634e487b7160e01b5f52601160045260245ffd5b60ff82811682821603908111156101cb576101cb61019e565b92915050565b60ff81811683821601908111156101cb576101cb61019e56fea264697066735822122022efa373fc7294c0a0c0788b54e446811c69baa15fa6a8c789799fbdaed4bb5964736f6c634300081e0033",
			"opcodes": "PUSH1 0x80 PUSH1 0x40 MSTORE PUSH0 DUP1 SLOAD PUSH1 0xFF NOT AND PUSH1 0xFF OR SWAP1 SSTORE CALLVALUE DUP1 ISZERO PUSH1 0x1A JUMPI PUSH0 PUSH0 REVERT JUMPDEST POP PUSH2 0x220 DUP1 PUSH2 0x28 PUSH0 CODECOPY PUSH0 RETURN INVALID PUSH1 0x80 PUSH1 0x40 MSTORE CALLVALUE DUP1 ISZERO PUSH2 0xF JUMPI PUSH0 PUSH0 REVERT JUMPDEST POP PUSH1 0x4 CALLDATASIZE LT PUSH2 0x7A JUMPI PUSH0 CALLDATALOAD PUSH1 0xE0 SHR DUP1 PUSH4 0x3F3108F7 GT PUSH2 0x58 JUMPI DUP1 PUSH4 0x3F3108F7 EQ PUSH2 0xCC JUMPI DUP1 PUSH4 0x4DDD108A EQ PUSH2 0xD4 JUMPI DUP1 PUSH4 0x80945BFB EQ PUSH2 0xE0 JUMPI DUP1 PUSH4 0x98E1B410 EQ PUSH2 0xE8 JUMPI PUSH0 PUSH0 REVERT JUMPDEST DUP1 PUSH4 0x1EFC450 EQ PUSH2 0x7E JUMPI DUP1 PUSH4 0x2BAECEB7 EQ PUSH2 0xB1 JUMPI DUP1 PUSH4 0x3DB598B0 EQ PUSH2 0xBB JUMPI JUMPDEST PUSH0 PUSH0 REVERT JUMPDEST PUSH2 0x9B PUSH0 DUP1 SLOAD PUSH1 0xFF DUP1 DUP3 AND PUSH1 0x1 ADD AND PUSH1 0xFF NOT SWAP1 SWAP2 AND DUP2 OR SWAP1 SWAP2 SSTORE SWAP1 JUMP JUMPDEST PUSH1 0x40 MLOAD PUSH1 0xFF SWAP1 SWAP2 AND DUP2 MSTORE PUSH1 0x20 ADD PUSH1 0x40 MLOAD DUP1 SWAP2 SUB SWAP1 RETURN JUMPDEST PUSH2 0xB9 PUSH2 0xF2 JUMP JUMPDEST STOP JUMPDEST PUSH2 0xB9 PUSH0 DUP1 SLOAD PUSH1 0xFF NOT AND PUSH1 0xFF OR SWAP1 SSTORE JUMP JUMPDEST PUSH2 0xB9 PUSH2 0x118 JUMP JUMPDEST PUSH0 SLOAD PUSH2 0x9B SWAP1 PUSH1 0xFF AND DUP2 JUMP JUMPDEST PUSH2 0xB9 PUSH2 0x128 JUMP JUMPDEST PUSH0 SLOAD PUSH1 0xFF AND PUSH2 0x9B JUMP JUMPDEST PUSH0 SLOAD PUSH2 0x103 SWAP1 PUSH1 0x1 SWAP1 PUSH1 0xFF AND PUSH2 0x1B2 JUMP JUMPDEST PUSH0 DUP1 SLOAD PUSH1 0xFF NOT AND PUSH1 0xFF SWAP3 SWAP1 SWAP3 AND SWAP2 SWAP1 SWAP2 OR SWAP1 SSTORE JUMP JUMPDEST PUSH0 SLOAD PUSH2 0x103 SWAP1 PUSH1 0xFF AND PUSH1 0x1 PUSH2 0x1D1 JUMP JUMPDEST PUSH0 SLOAD PUSH1 0xFF SWAP1 DUP2 AND LT PUSH2 0x118 JUMPI PUSH1 0x40 MLOAD PUSH3 0x461BCD PUSH1 0xE5 SHL DUP2 MSTORE PUSH1 0x20 PUSH1 0x4 DUP3 ADD MSTORE PUSH1 0x35 PUSH1 0x24 DUP3 ADD MSTORE PUSH32 0x4F766572666C6F773A2043616E6E6F7420696E6372656D656E74206265796F6E PUSH1 0x44 DUP3 ADD MSTORE PUSH21 0x64206D6178696D756D2075696E74382076616C7565 PUSH1 0x58 SHL PUSH1 0x64 DUP3 ADD MSTORE PUSH1 0x84 ADD PUSH1 0x40 MLOAD DUP1 SWAP2 SUB SWAP1 REVERT JUMPDEST PUSH4 0x4E487B71 PUSH1 0xE0 SHL PUSH0 MSTORE PUSH1 0x11 PUSH1 0x4 MSTORE PUSH1 0x24 PUSH0 REVERT JUMPDEST PUSH1 0xFF DUP3 DUP2 AND DUP3 DUP3 AND SUB SWAP1 DUP2 GT ISZERO PUSH2 0x1CB JUMPI PUSH2 0x1CB PUSH2 0x19E JUMP JUMPDEST SWAP3 SWAP2 POP POP JUMP JUMPDEST PUSH1 0xFF DUP2 DUP2 AND DUP4 DUP3 AND ADD SWAP1 DUP2 GT ISZERO PUSH2 0x1CB JUMPI PUSH2 0x1CB PUSH2 0x19E JUMP INVALID LOG2 PUSH5 0x6970667358 0x22 SLT KECCAK256 0x22 0xEF LOG3 PUSH20 0xFC7294C0A0C0788B54E446811C69BAA15FA6A8C7 DUP10 PUSH26 0x9FBDAED4BB5964736F6C634300081E0033000000000000000000 "
		},
		"gasEstimates": {
			"creation": {
				"codeDepositCost": "108800",
				"executionCost": "24374",
				"totalCost": "133174"
			},
			"external": {
				"decrement()": "26611",
				"getMoney()": "2359",
				"money()": "2321",
				"resetToMax()": "24399",
				"safeSetter()": "28760",
				"setter()": "26585",
				"uncheckedSetter()": "24442"
			}
		},
		"methodIdentifiers": {
			"decrement()": "2baeceb7",
			"getMoney()": "98e1b410",
			"money()": "4ddd108a",
			"resetToMax()": "3db598b0",
			"safeSetter()": "80945bfb",
			"setter()": "3f3108f7",
			"uncheckedSetter()": "01efc450"
		}
	},
	"abi": [
		{
			"inputs": [],
			"name": "decrement",
			"outputs": [],
			"stateMutability": "nonpayable",
			"type": "function"
		},
		{
			"inputs": [],
			"name": "getMoney",
			"outputs": [
				{
					"internalType": "uint8",
					"name": "",
					"type": "uint8"
				}
			],
			"stateMutability": "view",
			"type": "function"
		},
		{
			"inputs": [],
			"name": "money",
			"outputs": [
				{
					"internalType": "uint8",
					"name": "",
					"type": "uint8"
				}
			],
			"stateMutability": "view",
			"type": "function"
		},
		{
			"inputs": [],
			"name": "resetToMax",
			"outputs": [],
			"stateMutability": "nonpayable",
			"type": "function"
		},
		{
			"inputs": [],
			"name": "safeSetter",
			"outputs": [],
			"stateMutability": "nonpayable",
			"type": "function"
		},
		{
			"inputs": [],
			"name": "setter",
			"outputs": [],
			"stateMutability": "nonpayable",
			"type": "function"
		},
		{
			"inputs": [],
			"name": "uncheckedSetter",
			"outputs": [
				{
					"internalType": "uint8",
					"name": "",
					"type": "uint8"
				}
			],
			"stateMutability": "nonpayable",
			"type": "function"
		}
	]
}