{
	"data": {
		"bytecode": {
			"linkReferences": {},
			"object": "60a06040523360805260805161014c61001f5f395f60af015261014c5ff3fe608060405260043610610049575f3560e01c80633ccfd60b1461004d57806370a082311461005a5780638b7afe2e1461008c5780638da5cb5b1461009e578063d0e30db014610058575b5f5ffd5b348015610058575f5ffd5b005b348015610065575f5ffd5b506100796100743660046100e9565b505f90565b6040519081526020015b60405180910390f35b348015610097575f5ffd5b505f610079565b3480156100a9575f5ffd5b506100d17f000000000000000000000000000000000000000000000000000000000000000081565b6040516001600160a01b039091168152602001610083565b5f602082840312156100f9575f5ffd5b81356001600160a01b038116811461010f575f5ffd5b939250505056fea2646970667358221220e9d0dbfccf437526165dadf7f641516bbf8fefe0a603b3394ae41857c50142e864736f6c634300081e0033",
			"opcodes": "PUSH1 0xA0 PUSH1 0x40 MSTORE CALLER PUSH1 0x80 MSTORE PUSH1 0x80 MLOAD PUSH2 0x14C PUSH2 0x1F PUSH0 CODECOPY PUSH0 PUSH1 0xAF ADD MSTORE PUSH2 0x14C PUSH0 RETURN INVALID PUSH1 0x80 PUSH1 0x40 MSTORE PUSH1 0x4 CALLDATASIZE LT PUSH2 0x49 JUMPI PUSH0 CALLDATALOAD PUSH1 0xE0 SHR DUP1 PUSH4 0x3CCFD60B EQ PUSH2 0x4D JUMPI DUP1 PUSH4 0x70A08231 EQ PUSH2 0x5A JUMPI DUP1 PUSH4 0x8B7AFE2E EQ PUSH2 0x8C JUMPI DUP1 PUSH4 0x8DA5CB5B EQ PUSH2 0x9E JUMPI DUP1 PUSH4 0xD0E30DB0 EQ PUSH2 0x58 JUMPI JUMPDEST PUSH0 PUSH0 REVERT JUMPDEST CALLVALUE DUP1 ISZERO PUSH2 0x58 JUMPI PUSH0 PUSH0 REVERT JUMPDEST STOP JUMPDEST CALLVALUE DUP1 ISZERO PUSH2 0x65 JUMPI PUSH0 PUSH0 REVERT JUMPDEST POP PUSH2 0x79 PUSH2 0x74 CALLDATASIZE PUSH1 0x4 PUSH2 0xE9 JUMP JUMPDEST POP PUSH0 SWAP1 JUMP JUMPDEST PUSH1 0x40 MLOAD SWAP1 DUP2 MSTORE PUSH1 0x20 ADD JUMPDEST PUSH1 0x40 MLOAD DUP1 SWAP2 SUB SWAP1 RETURN JUMPDEST CALLVALUE DUP1 ISZERO PUSH2 0x97 JUMPI PUSH0 PUSH0 REVERT JUMPDEST POP PUSH0 PUSH2 0x79 JUMP JUMPDEST CALLVALUE DUP1 ISZERO PUSH2 0xA9 JUMPI PUSH0 PUSH0 REVERT JUMPDEST POP PUSH2 0xD1 PUSH32 0x0 DUP2 JUMP JUMPDEST PUSH1 0x40 MLOAD PUSH1 0x1 PUSH1 0x1 PUSH1 0xA0 SHL SUB SWAP1 SWAP2 AND DUP2 MSTORE PUSH1 0x20 ADD PUSH2 0x83 JUMP JUMPDEST PUSH0 PUSH1 0x20 DUP3 DUP5 SUB SLT ISZERO PUSH2 0xF9 JUMPI PUSH0 PUSH0 REVERT JUMPDEST DUP2 CALLDATALOAD PUSH1 0x1 PUSH1 0x1 PUSH1 0xA0 SHL SUB DUP2 AND DUP2 EQ PUSH2 0x10F JUMPI PUSH0 PUSH0 REVERT JUMPDEST SWAP4 SWAP3 POP POP POP JUMP INVALID LOG2 PUSH5 0x6970667358 0x22 SLT KECCAK256 0xE9 0xD0 0xDB 0xFC 0xCF NUMBER PUSH22 0x26165DADF7F641516BBF8FEFE0A603B3394AE41857C5 ADD TIMESTAMP 0xE8 PUSH5 0x736F6C6343 STOP ADDMOD 0x1E STOP CALLER "
		},
		"gasEstimates": {
			"creation": {
				"codeDepositCost": "66400",
				"executionCost": "infinite",
				"totalCost": "infinite"
			},
			"external": {
				"balanceOf(address)": "306",
				"contractBalance()": "201",
				"deposit()": "161",
				"owner()": "infinite",
				"withdraw()": "98"
			}
		},
		"methodIdentifiers": {
			"balanceOf(address)": "70a08231",
			"contractBalance()": "8b7afe2e",
			"deposit()": "d0e30db0",
			"owner()": "8da5cb5b",
			"withdraw()": "3ccfd60b"
		}
	},
	"abi": [
		{
			"inputs": [],
			"stateMutability": "payable",
			"type": "constructor"
		},
		{
			"inputs": [
				{
					"internalType": "address",
					"name": "user",
					"type": "address"
				}
			],
			"name": "balanceOf",
			"outputs": [
				{
					"internalType": "uint256",
					"name": "",
					"type": "uint256"
				}
			],
			"stateMutability": "view",
			"type": "function"
		},
		{
			"inputs": [],
			"name": "contractBalance",
			"outputs": [
				{
					"internalType": "uint256",
					"name": "",
					"type": "uint256"
				}
			],
			"stateMutability": "view",
			"type": "function"
		},
		{
			"inputs": [],
			"name": "deposit",
			"outputs": [],
			"stateMutability": "payable",
			"type": "function"
		},
		{
			"inputs": [],
			"name": "owner",
			"outputs": [
				{
					"internalType": "address",
					"name": "",
					"type": "address"
				}
			],
			"stateMutability": "view",
			"type": "function"
		},
		{
			"inputs": [],
			"name": "withdraw",
			"outputs": [],
			"stateMutability": "nonpayable",
			"type": "function"
		}
	]
}